{
	"contracts/uniswapv3lp.sol": {
		"LiquidityExamples": {
			"abi": [
				{
					"inputs": [],
					"name": "DAI",
					"outputs": [
						{
							"internalType": "address",
							"name": "",
							"type": "address"
						}
					],
					"stateMutability": "view",
					"type": "function"
				},
				{
					"inputs": [],
					"name": "USDC",
					"outputs": [
						{
							"internalType": "address",
							"name": "",
							"type": "address"
						}
					],
					"stateMutability": "view",
					"type": "function"
				},
				{
					"inputs": [
						{
							"internalType": "uint256",
							"name": "tokenId",
							"type": "uint256"
						}
					],
					"name": "collectAllFees",
					"outputs": [
						{
							"internalType": "uint256",
							"name": "amount0",
							"type": "uint256"
						},
						{
							"internalType": "uint256",
							"name": "amount1",
							"type": "uint256"
						}
					],
					"stateMutability": "nonpayable",
					"type": "function"
				},
				{
					"inputs": [
						{
							"internalType": "uint256",
							"name": "tokenId",
							"type": "uint256"
						}
					],
					"name": "decreaseLiquidityInHalf",
					"outputs": [
						{
							"internalType": "uint256",
							"name": "amount0",
							"type": "uint256"
						},
						{
							"internalType": "uint256",
							"name": "amount1",
							"type": "uint256"
						}
					],
					"stateMutability": "nonpayable",
					"type": "function"
				},
				{
					"inputs": [
						{
							"internalType": "uint256",
							"name": "",
							"type": "uint256"
						}
					],
					"name": "deposits",
					"outputs": [
						{
							"internalType": "address",
							"name": "owner",
							"type": "address"
						},
						{
							"internalType": "uint128",
							"name": "liquidity",
							"type": "uint128"
						},
						{
							"internalType": "address",
							"name": "token0",
							"type": "address"
						},
						{
							"internalType": "address",
							"name": "token1",
							"type": "address"
						}
					],
					"stateMutability": "view",
					"type": "function"
				},
				{
					"inputs": [
						{
							"internalType": "uint256",
							"name": "tokenId",
							"type": "uint256"
						},
						{
							"internalType": "uint256",
							"name": "amountAdd0",
							"type": "uint256"
						},
						{
							"internalType": "uint256",
							"name": "amountAdd1",
							"type": "uint256"
						}
					],
					"name": "increaseLiquidityCurrentRange",
					"outputs": [
						{
							"internalType": "uint128",
							"name": "liquidity",
							"type": "uint128"
						},
						{
							"internalType": "uint256",
							"name": "amount0",
							"type": "uint256"
						},
						{
							"internalType": "uint256",
							"name": "amount1",
							"type": "uint256"
						}
					],
					"stateMutability": "nonpayable",
					"type": "function"
				},
				{
					"inputs": [],
					"name": "mintNewPosition",
					"outputs": [
						{
							"internalType": "uint256",
							"name": "tokenId",
							"type": "uint256"
						},
						{
							"internalType": "uint128",
							"name": "liquidity",
							"type": "uint128"
						},
						{
							"internalType": "uint256",
							"name": "amount0",
							"type": "uint256"
						},
						{
							"internalType": "uint256",
							"name": "amount1",
							"type": "uint256"
						}
					],
					"stateMutability": "nonpayable",
					"type": "function"
				},
				{
					"inputs": [],
					"name": "nonfungiblePositionManager",
					"outputs": [
						{
							"internalType": "contract INonfungiblePositionManager",
							"name": "",
							"type": "address"
						}
					],
					"stateMutability": "view",
					"type": "function"
				},
				{
					"inputs": [
						{
							"internalType": "address",
							"name": "operator",
							"type": "address"
						},
						{
							"internalType": "address",
							"name": "",
							"type": "address"
						},
						{
							"internalType": "uint256",
							"name": "tokenId",
							"type": "uint256"
						},
						{
							"internalType": "bytes",
							"name": "",
							"type": "bytes"
						}
					],
					"name": "onERC721Received",
					"outputs": [
						{
							"internalType": "bytes4",
							"name": "",
							"type": "bytes4"
						}
					],
					"stateMutability": "nonpayable",
					"type": "function"
				},
				{
					"inputs": [],
					"name": "poolFee",
					"outputs": [
						{
							"internalType": "uint24",
							"name": "",
							"type": "uint24"
						}
					],
					"stateMutability": "view",
					"type": "function"
				}
			],
			"devdoc": {
				"kind": "dev",
				"methods": {
					"collectAllFees(uint256)": {
						"details": "The contract must hold the erc721 token before it can collect fees",
						"params": {
							"tokenId": "The id of the erc721 token"
						},
						"returns": {
							"amount0": "The amount of fees collected in token0",
							"amount1": "The amount of fees collected in token1"
						}
					},
					"decreaseLiquidityInHalf(uint256)": {
						"params": {
							"tokenId": "The id of the erc721 token"
						},
						"returns": {
							"amount0": "The amount received back in token0",
							"amount1": "The amount returned back in token1"
						}
					},
					"increaseLiquidityCurrentRange(uint256,uint256,uint256)": {
						"details": "Pool must be initialized already to add liquidity",
						"params": {
							"amount0": "The amount to add of token0",
							"amount1": "The amount to add of token1",
							"tokenId": "The id of the erc721 token"
						}
					},
					"mintNewPosition()": {
						"returns": {
							"amount0": "The amount of token0",
							"amount1": "The amount of token1",
							"liquidity": "The amount of liquidity for the position",
							"tokenId": "The id of the newly minted ERC721"
						}
					}
				},
				"stateVariables": {
					"deposits": {
						"details": "deposits[tokenId] => Deposit"
					}
				},
				"version": 1
			},
			"evm": {
				"assembly": "    /* \"contracts/uniswapv3lp.sol\":341:10708  contract LiquidityExamples is IERC721Receiver {\r... */\n  mstore(0x40, 0x80)\n  callvalue\n  dup1\n  iszero\n  tag_1\n  jumpi\n  0x00\n  dup1\n  revert\ntag_1:\n  pop\n  dataSize(sub_0)\n  dup1\n  dataOffset(sub_0)\n  0x00\n  codecopy\n  0x00\n  return\nstop\n\nsub_0: assembly {\n        /* \"contracts/uniswapv3lp.sol\":341:10708  contract LiquidityExamples is IERC721Receiver {\r... */\n      mstore(0x40, 0x80)\n      callvalue\n      dup1\n      iszero\n      tag_1\n      jumpi\n      0x00\n      dup1\n      revert\n    tag_1:\n      pop\n      jumpi(tag_2, lt(calldatasize, 0x04))\n      shr(0xe0, calldataload(0x00))\n      dup1\n      0x8187b4c5\n      gt\n      tag_13\n      jumpi\n      dup1\n      0x8187b4c5\n      eq\n      tag_8\n      jumpi\n      dup1\n      0x89a30271\n      eq\n      tag_9\n      jumpi\n      dup1\n      0xb02c43d0\n      eq\n      tag_10\n      jumpi\n      dup1\n      0xb44a2722\n      eq\n      tag_11\n      jumpi\n      dup1\n      0xe0bab4c4\n      eq\n      tag_12\n      jumpi\n      jump(tag_2)\n    tag_13:\n      dup1\n      0x089fe6aa\n      eq\n      tag_3\n      jumpi\n      dup1\n      0x150b7a02\n      eq\n      tag_4\n      jumpi\n      dup1\n      0x306d9c61\n      eq\n      tag_5\n      jumpi\n      dup1\n      0x46ce96dd\n      eq\n      tag_6\n      jumpi\n      dup1\n      0x617d6d6e\n      eq\n      tag_7\n      jumpi\n    tag_2:\n      0x00\n      dup1\n      revert\n        /* \"contracts/uniswapv3lp.sol\":704:740  uint24 public constant poolFee = 500 */\n    tag_3:\n      tag_14\n      tag_15\n      jump\t// in\n    tag_14:\n      mload(0x40)\n      tag_16\n      swap2\n      swap1\n      tag_17\n      jump\t// in\n    tag_16:\n      mload(0x40)\n      dup1\n      swap2\n      sub\n      swap1\n      return\n        /* \"contracts/uniswapv3lp.sol\":1198:1550  function onERC721Received(\r... */\n    tag_4:\n      tag_18\n      tag_19\n      calldatasize\n      0x04\n      tag_20\n      jump\t// in\n    tag_19:\n      tag_21\n      jump\t// in\n    tag_18:\n      mload(0x40)\n      tag_16\n      swap2\n      swap1\n      tag_23\n      jump\t// in\n        /* \"contracts/uniswapv3lp.sol\":2334:4862  function mintNewPosition()\r... */\n    tag_5:\n      tag_24\n      tag_25\n      jump\t// in\n    tag_24:\n      mload(0x40)\n      tag_16\n      swap5\n      swap4\n      swap3\n      swap2\n      swap1\n      tag_27\n      jump\t// in\n        /* \"contracts/uniswapv3lp.sol\":5200:6055  function collectAllFees(uint256 tokenId) external returns (uint256 amount0, uint256 amount1) {\r... */\n    tag_6:\n      tag_28\n      tag_29\n      calldatasize\n      0x04\n      tag_30\n      jump\t// in\n    tag_29:\n      tag_31\n      jump\t// in\n    tag_28:\n      mload(0x40)\n      tag_16\n      swap3\n      swap2\n      swap1\n      tag_33\n      jump\t// in\n        /* \"contracts/uniswapv3lp.sol\":8179:10015  function increaseLiquidityCurrentRange(\r... */\n    tag_7:\n      tag_34\n      tag_35\n      calldatasize\n      0x04\n      tag_36\n      jump\t// in\n    tag_35:\n      tag_37\n      jump\t// in\n    tag_34:\n      mload(0x40)\n      tag_16\n      swap4\n      swap3\n      swap2\n      swap1\n      tag_39\n      jump\t// in\n        /* \"contracts/uniswapv3lp.sol\":6394:7894  function decreaseLiquidityInHalf(uint256 tokenId) external returns (uint256 amount0, uint256 amount1) {\r... */\n    tag_8:\n      tag_28\n      tag_41\n      calldatasize\n      0x04\n      tag_30\n      jump\t// in\n    tag_41:\n      tag_42\n      jump\t// in\n        /* \"contracts/uniswapv3lp.sol\":624:697  address public constant USDC = 0x3DB4B7DA67dd5aF61Cb9b3C70501B1BdB24b2C22 */\n    tag_9:\n      tag_44\n      tag_45\n      jump\t// in\n    tag_44:\n      mload(0x40)\n      tag_16\n      swap2\n      swap1\n      tag_47\n      jump\t// in\n        /* \"contracts/uniswapv3lp.sol\":975:1018  mapping(uint256 => Deposit) public deposits */\n    tag_10:\n      tag_48\n      tag_49\n      calldatasize\n      0x04\n      tag_30\n      jump\t// in\n    tag_49:\n      tag_50\n      jump\t// in\n    tag_48:\n      mload(0x40)\n      tag_16\n      swap5\n      swap4\n      swap3\n      swap2\n      swap1\n      tag_52\n      jump\t// in\n        /* \"contracts/uniswapv3lp.sol\":394:538  INonfungiblePositionManager public constant nonfungiblePositionManager = INonfungiblePositionManager(0xC36442b4a4522E871399CD717aBDD847Ab11FE88) */\n    tag_11:\n      tag_44\n      tag_54\n      jump\t// in\n        /* \"contracts/uniswapv3lp.sol\":545:617  address public constant DAI = 0xDA10009cBd5D07dd0CeCc66161FC93D7c9000da1 */\n    tag_12:\n      tag_44\n      tag_58\n      jump\t// in\n        /* \"contracts/uniswapv3lp.sol\":704:740  uint24 public constant poolFee = 500 */\n    tag_15:\n        /* \"contracts/uniswapv3lp.sol\":737:740  500 */\n      0x01f4\n        /* \"contracts/uniswapv3lp.sol\":704:740  uint24 public constant poolFee = 500 */\n      dup2\n      jump\t// out\n        /* \"contracts/uniswapv3lp.sol\":1198:1550  function onERC721Received(\r... */\n    tag_21:\n        /* \"contracts/uniswapv3lp.sol\":1354:1360  bytes4 */\n      0x00\n        /* \"contracts/uniswapv3lp.sol\":1381:1391  msg.sender */\n      caller\n      0x00\n      dup1\n      mload\n      0x20\n      data_65cfeff779fe42d2d5b4c2c078348cb18abbc731a2e3837262888dd9b50bb10e\n      dup4\n      codecopy\n      dup2\n      mload\n      swap2\n      mstore\n        /* \"contracts/uniswapv3lp.sol\":1381:1430  msg.sender == address(nonfungiblePositionManager) */\n      eq\n        /* \"contracts/uniswapv3lp.sol\":1373:1450  require(msg.sender == address(nonfungiblePositionManager), 'not a univ3 nft') */\n      tag_61\n      jumpi\n      mload(0x40)\n      shl(0xe5, 0x461bcd)\n      dup2\n      mstore\n      0x04\n      add\n      tag_62\n      swap1\n      tag_63\n      jump\t// in\n    tag_62:\n      mload(0x40)\n      dup1\n      swap2\n      sub\n      swap1\n      revert\n    tag_61:\n        /* \"contracts/uniswapv3lp.sol\":1461:1494  _createDeposit(operator, tokenId) */\n      tag_64\n        /* \"contracts/uniswapv3lp.sol\":1476:1484  operator */\n      dup7\n        /* \"contracts/uniswapv3lp.sol\":1486:1493  tokenId */\n      dup6\n        /* \"contracts/uniswapv3lp.sol\":1461:1475  _createDeposit */\n      tag_65\n        /* \"contracts/uniswapv3lp.sol\":1461:1494  _createDeposit(operator, tokenId) */\n      jump\t// in\n    tag_64:\n      pop\n      shl(0xe1, 0x0a85bd01)\n        /* \"contracts/uniswapv3lp.sol\":1198:1550  function onERC721Received(\r... */\n      swap6\n      swap5\n      pop\n      pop\n      pop\n      pop\n      pop\n      jump\t// out\n        /* \"contracts/uniswapv3lp.sol\":2334:4862  function mintNewPosition()\r... */\n    tag_25:\n        /* \"contracts/uniswapv3lp.sol\":2411:2426  uint256 tokenId */\n      0x00\n      dup1\n      dup1\n      dup1\n        /* \"contracts/uniswapv3lp.sol\":2775:2784  100000000 */\n      0x05f5e100\n        /* \"contracts/uniswapv3lp.sol\":2819:2828  100940000 */\n      0x060438e0\n        /* \"contracts/uniswapv3lp.sol\":2881:2960  TransferHelper.safeTransferFrom(USDC, msg.sender, address(this), amount0ToMint) */\n      tag_67\n        /* \"contracts/uniswapv3lp.sol\":655:697  0x3DB4B7DA67dd5aF61Cb9b3C70501B1BdB24b2C22 */\n      0x3db4b7da67dd5af61cb9b3c70501b1bdb24b2c22\n        /* \"contracts/uniswapv3lp.sol\":2919:2929  msg.sender */\n      caller\n        /* \"contracts/uniswapv3lp.sol\":2939:2943  this */\n      address\n        /* \"contracts/uniswapv3lp.sol\":2775:2784  100000000 */\n      dup6\n        /* \"contracts/uniswapv3lp.sol\":2881:2912  TransferHelper.safeTransferFrom */\n      tag_68\n        /* \"contracts/uniswapv3lp.sol\":2881:2960  TransferHelper.safeTransferFrom(USDC, msg.sender, address(this), amount0ToMint) */\n      jump\t// in\n    tag_67:\n        /* \"contracts/uniswapv3lp.sol\":2971:3049  TransferHelper.safeTransferFrom(DAI, msg.sender, address(this), amount1ToMint) */\n      tag_69\n        /* \"contracts/uniswapv3lp.sol\":575:617  0xDA10009cBd5D07dd0CeCc66161FC93D7c9000da1 */\n      0xda10009cbd5d07dd0cecc66161fc93d7c9000da1\n        /* \"contracts/uniswapv3lp.sol\":3008:3018  msg.sender */\n      caller\n        /* \"contracts/uniswapv3lp.sol\":3028:3032  this */\n      address\n        /* \"contracts/uniswapv3lp.sol\":3035:3048  amount1ToMint */\n      dup5\n        /* \"contracts/uniswapv3lp.sol\":2971:3002  TransferHelper.safeTransferFrom */\n      tag_68\n        /* \"contracts/uniswapv3lp.sol\":2971:3049  TransferHelper.safeTransferFrom(DAI, msg.sender, address(this), amount1ToMint) */\n      jump\t// in\n    tag_69:\n        /* \"contracts/uniswapv3lp.sol\":3103:3187  TransferHelper.safeApprove(USDC, address(nonfungiblePositionManager), amount0ToMint) */\n      tag_70\n        /* \"contracts/uniswapv3lp.sol\":655:697  0x3DB4B7DA67dd5aF61Cb9b3C70501B1BdB24b2C22 */\n      0x3db4b7da67dd5af61cb9b3c70501b1bdb24b2c22\n      0x00\n      dup1\n      mload\n      0x20\n      data_65cfeff779fe42d2d5b4c2c078348cb18abbc731a2e3837262888dd9b50bb10e\n      dup4\n      codecopy\n      dup2\n      mload\n      swap2\n      mstore\n        /* \"contracts/uniswapv3lp.sol\":3173:3186  amount0ToMint */\n      dup5\n        /* \"contracts/uniswapv3lp.sol\":3103:3129  TransferHelper.safeApprove */\n      tag_71\n        /* \"contracts/uniswapv3lp.sol\":3103:3187  TransferHelper.safeApprove(USDC, address(nonfungiblePositionManager), amount0ToMint) */\n      jump\t// in\n    tag_70:\n        /* \"contracts/uniswapv3lp.sol\":3198:3281  TransferHelper.safeApprove(DAI, address(nonfungiblePositionManager), amount1ToMint) */\n      tag_72\n        /* \"contracts/uniswapv3lp.sol\":575:617  0xDA10009cBd5D07dd0CeCc66161FC93D7c9000da1 */\n      0xda10009cbd5d07dd0cecc66161fc93d7c9000da1\n      0x00\n      dup1\n      mload\n      0x20\n      data_65cfeff779fe42d2d5b4c2c078348cb18abbc731a2e3837262888dd9b50bb10e\n      dup4\n      codecopy\n      dup2\n      mload\n      swap2\n      mstore\n        /* \"contracts/uniswapv3lp.sol\":3267:3280  amount1ToMint */\n      dup4\n        /* \"contracts/uniswapv3lp.sol\":3198:3224  TransferHelper.safeApprove */\n      tag_71\n        /* \"contracts/uniswapv3lp.sol\":3198:3281  TransferHelper.safeApprove(DAI, address(nonfungiblePositionManager), amount1ToMint) */\n      jump\t// in\n    tag_72:\n        /* \"contracts/uniswapv3lp.sol\":3511:3974  INonfungiblePositionManager.MintParams({\r... */\n      0x40\n      dup1\n      mload\n      0x0160\n      dup2\n      add\n      dup3\n      mstore\n        /* \"contracts/uniswapv3lp.sol\":655:697  0x3DB4B7DA67dd5aF61Cb9b3C70501B1BdB24b2C22 */\n      0x3db4b7da67dd5af61cb9b3c70501b1bdb24b2c22\n        /* \"contracts/uniswapv3lp.sol\":3511:3974  INonfungiblePositionManager.MintParams({\r... */\n      dup2\n      mstore\n        /* \"contracts/uniswapv3lp.sol\":575:617  0xDA10009cBd5D07dd0CeCc66161FC93D7c9000da1 */\n      0xda10009cbd5d07dd0cecc66161fc93d7c9000da1\n        /* \"contracts/uniswapv3lp.sol\":3511:3974  INonfungiblePositionManager.MintParams({\r... */\n      0x20\n      dup3\n      add\n      mstore\n        /* \"contracts/uniswapv3lp.sol\":737:740  500 */\n      0x01f4\n        /* \"contracts/uniswapv3lp.sol\":3511:3974  INonfungiblePositionManager.MintParams({\r... */\n      dup2\n      dup4\n      add\n      mstore\n      not(0x0419)\n      0x60\n      dup3\n      add\n      mstore\n        /* \"contracts/uniswapv3lp.sol\":3707:3711  1040 */\n      0x0410\n        /* \"contracts/uniswapv3lp.sol\":3511:3974  INonfungiblePositionManager.MintParams({\r... */\n      0x80\n      dup3\n      add\n      mstore\n      0xa0\n      dup2\n      add\n      dup5\n      swap1\n      mstore\n      0xc0\n      dup2\n      add\n      dup4\n      swap1\n      mstore\n        /* \"contracts/uniswapv3lp.sol\":3443:3495  INonfungiblePositionManager.MintParams memory params */\n      0x00\n        /* \"contracts/uniswapv3lp.sol\":3511:3974  INonfungiblePositionManager.MintParams({\r... */\n      0xe0\n      dup3\n      add\n      dup2\n      swap1\n      mstore\n      0x0100\n      dup3\n      add\n      mstore\n        /* \"contracts/uniswapv3lp.sol\":3909:3913  this */\n      address\n        /* \"contracts/uniswapv3lp.sol\":3511:3974  INonfungiblePositionManager.MintParams({\r... */\n      0x0120\n      dup3\n      add\n      mstore\n        /* \"contracts/uniswapv3lp.sol\":3943:3958  block.timestamp */\n      timestamp\n        /* \"contracts/uniswapv3lp.sol\":3511:3974  INonfungiblePositionManager.MintParams({\r... */\n      0x0140\n      dup3\n      add\n      mstore\n        /* \"contracts/uniswapv3lp.sol\":4154:4193  nonfungiblePositionManager.mint(params) */\n      swap1\n      mload\n      shl(0xe1, 0x4418b22b)\n      dup2\n      mstore\n      0x00\n      dup1\n      mload\n      0x20\n      data_65cfeff779fe42d2d5b4c2c078348cb18abbc731a2e3837262888dd9b50bb10e\n      dup4\n      codecopy\n      dup2\n      mload\n      swap2\n      mstore\n        /* \"contracts/uniswapv3lp.sol\":495:537  0xC36442b4a4522E871399CD717aBDD847Ab11FE88 */\n      swap1\n        /* \"contracts/uniswapv3lp.sol\":4154:4185  nonfungiblePositionManager.mint */\n      0x88316456\n      swap1\n        /* \"contracts/uniswapv3lp.sol\":4154:4193  nonfungiblePositionManager.mint(params) */\n      tag_73\n      swap1\n        /* \"contracts/uniswapv3lp.sol\":3511:3974  INonfungiblePositionManager.MintParams({\r... */\n      dup5\n      swap1\n        /* \"contracts/uniswapv3lp.sol\":4154:4193  nonfungiblePositionManager.mint(params) */\n      0x04\n      add\n      tag_74\n      jump\t// in\n    tag_73:\n      0x80\n      mload(0x40)\n      dup1\n      dup4\n      sub\n      dup2\n      0x00\n      dup8\n      dup1\n      extcodesize\n      iszero\n      dup1\n      iszero\n      tag_75\n      jumpi\n      0x00\n      dup1\n      revert\n    tag_75:\n      pop\n      gas\n      call\n      iszero\n      dup1\n      iszero\n      tag_77\n      jumpi\n      returndatasize\n      0x00\n      dup1\n      returndatacopy\n      revert(0x00, returndatasize)\n    tag_77:\n      pop\n      pop\n      pop\n      pop\n      mload(0x40)\n      returndatasize\n      not(0x1f)\n      0x1f\n      dup3\n      add\n      and\n      dup3\n      add\n      dup1\n      0x40\n      mstore\n      pop\n      dup2\n      add\n      swap1\n      tag_78\n      swap2\n      swap1\n      tag_79\n      jump\t// in\n    tag_78:\n        /* \"contracts/uniswapv3lp.sol\":4113:4193  (tokenId, liquidity, amount0, amount1) = nonfungiblePositionManager.mint(params) */\n      swap3\n      swap10\n      pop\n      swap1\n      swap8\n      pop\n      swap6\n      pop\n      swap4\n      pop\n        /* \"contracts/uniswapv3lp.sol\":4235:4270  _createDeposit(msg.sender, tokenId) */\n      tag_80\n        /* \"contracts/uniswapv3lp.sol\":4250:4260  msg.sender */\n      caller\n        /* \"contracts/uniswapv3lp.sol\":4113:4193  (tokenId, liquidity, amount0, amount1) = nonfungiblePositionManager.mint(params) */\n      dup9\n        /* \"contracts/uniswapv3lp.sol\":4235:4249  _createDeposit */\n      tag_65\n        /* \"contracts/uniswapv3lp.sol\":4235:4270  _createDeposit(msg.sender, tokenId) */\n      jump\t// in\n    tag_80:\n        /* \"contracts/uniswapv3lp.sol\":4353:4366  amount0ToMint */\n      dup3\n        /* \"contracts/uniswapv3lp.sol\":4343:4350  amount0 */\n      dup6\n        /* \"contracts/uniswapv3lp.sol\":4343:4366  amount0 < amount0ToMint */\n      lt\n        /* \"contracts/uniswapv3lp.sol\":4339:4592  if (amount0 < amount0ToMint) {\r... */\n      iszero\n      tag_81\n      jumpi\n        /* \"contracts/uniswapv3lp.sol\":4383:4455  TransferHelper.safeApprove(USDC, address(nonfungiblePositionManager), 0) */\n      tag_82\n        /* \"contracts/uniswapv3lp.sol\":655:697  0x3DB4B7DA67dd5aF61Cb9b3C70501B1BdB24b2C22 */\n      0x3db4b7da67dd5af61cb9b3c70501b1bdb24b2c22\n      0x00\n      dup1\n      mload\n      0x20\n      data_65cfeff779fe42d2d5b4c2c078348cb18abbc731a2e3837262888dd9b50bb10e\n      dup4\n      codecopy\n      dup2\n      mload\n      swap2\n      mstore\n        /* \"contracts/uniswapv3lp.sol\":4453:4454  0 */\n      0x00\n        /* \"contracts/uniswapv3lp.sol\":4383:4409  TransferHelper.safeApprove */\n      tag_71\n        /* \"contracts/uniswapv3lp.sol\":4383:4455  TransferHelper.safeApprove(USDC, address(nonfungiblePositionManager), 0) */\n      jump\t// in\n    tag_82:\n        /* \"contracts/uniswapv3lp.sol\":4470:4485  uint256 refund0 */\n      0x00\n        /* \"contracts/uniswapv3lp.sol\":4488:4511  amount0ToMint - amount0 */\n      tag_83\n        /* \"contracts/uniswapv3lp.sol\":4504:4511  amount0 */\n      dup7\n        /* \"contracts/uniswapv3lp.sol\":4488:4501  amount0ToMint */\n      dup6\n        /* \"contracts/uniswapv3lp.sol\":4488:4511  amount0ToMint - amount0 */\n      tag_84\n      jump\t// in\n    tag_83:\n        /* \"contracts/uniswapv3lp.sol\":4470:4511  uint256 refund0 = amount0ToMint - amount0 */\n      swap1\n      pop\n        /* \"contracts/uniswapv3lp.sol\":4526:4580  TransferHelper.safeTransfer(USDC, msg.sender, refund0) */\n      tag_85\n        /* \"contracts/uniswapv3lp.sol\":655:697  0x3DB4B7DA67dd5aF61Cb9b3C70501B1BdB24b2C22 */\n      0x3db4b7da67dd5af61cb9b3c70501b1bdb24b2c22\n        /* \"contracts/uniswapv3lp.sol\":4560:4570  msg.sender */\n      caller\n        /* \"contracts/uniswapv3lp.sol\":4572:4579  refund0 */\n      dup4\n        /* \"contracts/uniswapv3lp.sol\":4526:4553  TransferHelper.safeTransfer */\n      tag_86\n        /* \"contracts/uniswapv3lp.sol\":4526:4580  TransferHelper.safeTransfer(USDC, msg.sender, refund0) */\n      jump\t// in\n    tag_85:\n        /* \"contracts/uniswapv3lp.sol\":4339:4592  if (amount0 < amount0ToMint) {\r... */\n      pop\n    tag_81:\n        /* \"contracts/uniswapv3lp.sol\":4618:4631  amount1ToMint */\n      dup2\n        /* \"contracts/uniswapv3lp.sol\":4608:4615  amount1 */\n      dup5\n        /* \"contracts/uniswapv3lp.sol\":4608:4631  amount1 < amount1ToMint */\n      lt\n        /* \"contracts/uniswapv3lp.sol\":4604:4855  if (amount1 < amount1ToMint) {\r... */\n      iszero\n      tag_87\n      jumpi\n        /* \"contracts/uniswapv3lp.sol\":4648:4719  TransferHelper.safeApprove(DAI, address(nonfungiblePositionManager), 0) */\n      tag_88\n        /* \"contracts/uniswapv3lp.sol\":575:617  0xDA10009cBd5D07dd0CeCc66161FC93D7c9000da1 */\n      0xda10009cbd5d07dd0cecc66161fc93d7c9000da1\n      0x00\n      dup1\n      mload\n      0x20\n      data_65cfeff779fe42d2d5b4c2c078348cb18abbc731a2e3837262888dd9b50bb10e\n      dup4\n      codecopy\n      dup2\n      mload\n      swap2\n      mstore\n        /* \"contracts/uniswapv3lp.sol\":4717:4718  0 */\n      0x00\n        /* \"contracts/uniswapv3lp.sol\":4648:4674  TransferHelper.safeApprove */\n      tag_71\n        /* \"contracts/uniswapv3lp.sol\":4648:4719  TransferHelper.safeApprove(DAI, address(nonfungiblePositionManager), 0) */\n      jump\t// in\n    tag_88:\n        /* \"contracts/uniswapv3lp.sol\":4734:4749  uint256 refund1 */\n      0x00\n        /* \"contracts/uniswapv3lp.sol\":4752:4775  amount1ToMint - amount1 */\n      tag_89\n        /* \"contracts/uniswapv3lp.sol\":4768:4775  amount1 */\n      dup6\n        /* \"contracts/uniswapv3lp.sol\":4752:4765  amount1ToMint */\n      dup5\n        /* \"contracts/uniswapv3lp.sol\":4752:4775  amount1ToMint - amount1 */\n      tag_84\n      jump\t// in\n    tag_89:\n        /* \"contracts/uniswapv3lp.sol\":4734:4775  uint256 refund1 = amount1ToMint - amount1 */\n      swap1\n      pop\n        /* \"contracts/uniswapv3lp.sol\":4790:4843  TransferHelper.safeTransfer(DAI, msg.sender, refund1) */\n      tag_90\n        /* \"contracts/uniswapv3lp.sol\":575:617  0xDA10009cBd5D07dd0CeCc66161FC93D7c9000da1 */\n      0xda10009cbd5d07dd0cecc66161fc93d7c9000da1\n        /* \"contracts/uniswapv3lp.sol\":4823:4833  msg.sender */\n      caller\n        /* \"contracts/uniswapv3lp.sol\":4835:4842  refund1 */\n      dup4\n        /* \"contracts/uniswapv3lp.sol\":4790:4817  TransferHelper.safeTransfer */\n      tag_86\n        /* \"contracts/uniswapv3lp.sol\":4790:4843  TransferHelper.safeTransfer(DAI, msg.sender, refund1) */\n      jump\t// in\n    tag_90:\n        /* \"contracts/uniswapv3lp.sol\":4604:4855  if (amount1 < amount1ToMint) {\r... */\n      pop\n    tag_87:\n        /* \"contracts/uniswapv3lp.sol\":2334:4862  function mintNewPosition()\r... */\n      pop\n      pop\n      pop\n      swap1\n      swap2\n      swap3\n      swap4\n      jump\t// out\n        /* \"contracts/uniswapv3lp.sol\":5200:6055  function collectAllFees(uint256 tokenId) external returns (uint256 amount0, uint256 amount1) {\r... */\n    tag_31:\n        /* \"contracts/uniswapv3lp.sol\":5641:5873  INonfungiblePositionManager.CollectParams({\r... */\n      0x40\n      dup1\n      mload\n      0x80\n      dup2\n      add\n      dup3\n      mstore\n      dup3\n      dup2\n      mstore\n        /* \"contracts/uniswapv3lp.sol\":5756:5760  this */\n      address\n        /* \"contracts/uniswapv3lp.sol\":5641:5873  INonfungiblePositionManager.CollectParams({\r... */\n      0x20\n      dup3\n      add\n      mstore\n      sub(shl(0x80, 0x01), 0x01)\n      dup2\n      dup4\n      add\n      dup2\n      swap1\n      mstore\n      0x60\n      dup3\n      add\n      mstore\n        /* \"contracts/uniswapv3lp.sol\":5907:5949  nonfungiblePositionManager.collect(params) */\n      swap1\n      mload\n      shl(0xe0, 0xfc6f7865)\n      dup2\n      mstore\n        /* \"contracts/uniswapv3lp.sol\":5259:5274  uint256 amount0 */\n      0x00\n      swap2\n      dup3\n      swap2\n      0x00\n      dup1\n      mload\n      0x20\n      data_65cfeff779fe42d2d5b4c2c078348cb18abbc731a2e3837262888dd9b50bb10e\n      dup4\n      codecopy\n      dup2\n      mload\n      swap2\n      mstore\n        /* \"contracts/uniswapv3lp.sol\":495:537  0xC36442b4a4522E871399CD717aBDD847Ab11FE88 */\n      swap1\n        /* \"contracts/uniswapv3lp.sol\":5907:5941  nonfungiblePositionManager.collect */\n      0xfc6f7865\n      swap1\n        /* \"contracts/uniswapv3lp.sol\":5907:5949  nonfungiblePositionManager.collect(params) */\n      tag_92\n      swap1\n        /* \"contracts/uniswapv3lp.sol\":5641:5873  INonfungiblePositionManager.CollectParams({\r... */\n      dup5\n      swap1\n        /* \"contracts/uniswapv3lp.sol\":5907:5949  nonfungiblePositionManager.collect(params) */\n      0x04\n      add\n      tag_93\n      jump\t// in\n    tag_92:\n      0x40\n      dup1\n      mload\n      dup1\n      dup4\n      sub\n      dup2\n      0x00\n      dup8\n      dup1\n      extcodesize\n      iszero\n      dup1\n      iszero\n      tag_94\n      jumpi\n      0x00\n      dup1\n      revert\n    tag_94:\n      pop\n      gas\n      call\n      iszero\n      dup1\n      iszero\n      tag_96\n      jumpi\n      returndatasize\n      0x00\n      dup1\n      returndatacopy\n      revert(0x00, returndatasize)\n    tag_96:\n      pop\n      pop\n      pop\n      pop\n      mload(0x40)\n      returndatasize\n      not(0x1f)\n      0x1f\n      dup3\n      add\n      and\n      dup3\n      add\n      dup1\n      0x40\n      mstore\n      pop\n      dup2\n      add\n      swap1\n      tag_97\n      swap2\n      swap1\n      tag_98\n      jump\t// in\n    tag_97:\n        /* \"contracts/uniswapv3lp.sol\":5886:5949  (amount0, amount1) = nonfungiblePositionManager.collect(params) */\n      swap1\n      swap4\n      pop\n      swap2\n      pop\n        /* \"contracts/uniswapv3lp.sol\":6008:6047  _sendToOwner(tokenId, amount0, amount1) */\n      tag_99\n        /* \"contracts/uniswapv3lp.sol\":6021:6028  tokenId */\n      dup5\n        /* \"contracts/uniswapv3lp.sol\":5886:5949  (amount0, amount1) = nonfungiblePositionManager.collect(params) */\n      dup5\n      dup5\n        /* \"contracts/uniswapv3lp.sol\":6008:6020  _sendToOwner */\n      tag_100\n        /* \"contracts/uniswapv3lp.sol\":6008:6047  _sendToOwner(tokenId, amount0, amount1) */\n      jump\t// in\n    tag_99:\n        /* \"contracts/uniswapv3lp.sol\":5200:6055  function collectAllFees(uint256 tokenId) external returns (uint256 amount0, uint256 amount1) {\r... */\n      pop\n      swap2\n      pop\n      swap2\n      jump\t// out\n        /* \"contracts/uniswapv3lp.sol\":8179:10015  function increaseLiquidityCurrentRange(\r... */\n    tag_37:\n        /* \"contracts/uniswapv3lp.sol\":8359:8376  uint128 liquidity */\n      0x00\n        /* \"contracts/uniswapv3lp.sol\":8481:8498  deposits[tokenId] */\n      dup4\n      dup2\n      mstore\n      0x20\n      dup2\n      swap1\n      mstore\n      0x40\n      dup2\n      keccak256\n        /* \"contracts/uniswapv3lp.sol\":8481:8505  deposits[tokenId].token0 */\n      0x02\n      dup2\n      add\n      sload\n        /* \"contracts/uniswapv3lp.sol\":8533:8557  deposits[tokenId].token1 */\n      0x03\n      swap1\n      swap2\n      add\n      sload\n        /* \"contracts/uniswapv3lp.sol\":8359:8376  uint128 liquidity */\n      dup3\n      swap2\n      dup3\n      swap2\n      sub(shl(0xa0, 0x01), 0x01)\n        /* \"contracts/uniswapv3lp.sol\":8481:8505  deposits[tokenId].token0 */\n      swap2\n      dup3\n      and\n      swap2\n        /* \"contracts/uniswapv3lp.sol\":8533:8557  deposits[tokenId].token1 */\n      and\n        /* \"contracts/uniswapv3lp.sol\":8568:8646  TransferHelper.safeTransferFrom(token0, msg.sender, address(this), amountAdd0) */\n      tag_102\n        /* \"contracts/uniswapv3lp.sol\":8481:8505  deposits[tokenId].token0 */\n      dup3\n        /* \"contracts/uniswapv3lp.sol\":8608:8618  msg.sender */\n      caller\n        /* \"contracts/uniswapv3lp.sol\":8628:8632  this */\n      address\n        /* \"contracts/uniswapv3lp.sol\":8635:8645  amountAdd0 */\n      dup11\n        /* \"contracts/uniswapv3lp.sol\":8568:8599  TransferHelper.safeTransferFrom */\n      tag_68\n        /* \"contracts/uniswapv3lp.sol\":8568:8646  TransferHelper.safeTransferFrom(token0, msg.sender, address(this), amountAdd0) */\n      jump\t// in\n    tag_102:\n        /* \"contracts/uniswapv3lp.sol\":8657:8735  TransferHelper.safeTransferFrom(token1, msg.sender, address(this), amountAdd1) */\n      tag_103\n        /* \"contracts/uniswapv3lp.sol\":8689:8695  token1 */\n      dup2\n        /* \"contracts/uniswapv3lp.sol\":8697:8707  msg.sender */\n      caller\n        /* \"contracts/uniswapv3lp.sol\":8717:8721  this */\n      address\n        /* \"contracts/uniswapv3lp.sol\":8724:8734  amountAdd1 */\n      dup10\n        /* \"contracts/uniswapv3lp.sol\":8657:8688  TransferHelper.safeTransferFrom */\n      tag_68\n        /* \"contracts/uniswapv3lp.sol\":8657:8735  TransferHelper.safeTransferFrom(token1, msg.sender, address(this), amountAdd1) */\n      jump\t// in\n    tag_103:\n        /* \"contracts/uniswapv3lp.sol\":8748:8831  TransferHelper.safeApprove(token0, address(nonfungiblePositionManager), amountAdd0) */\n      tag_104\n        /* \"contracts/uniswapv3lp.sol\":8775:8781  token0 */\n      dup3\n      0x00\n      dup1\n      mload\n      0x20\n      data_65cfeff779fe42d2d5b4c2c078348cb18abbc731a2e3837262888dd9b50bb10e\n      dup4\n      codecopy\n      dup2\n      mload\n      swap2\n      mstore\n        /* \"contracts/uniswapv3lp.sol\":8820:8830  amountAdd0 */\n      dup10\n        /* \"contracts/uniswapv3lp.sol\":8748:8774  TransferHelper.safeApprove */\n      tag_71\n        /* \"contracts/uniswapv3lp.sol\":8748:8831  TransferHelper.safeApprove(token0, address(nonfungiblePositionManager), amountAdd0) */\n      jump\t// in\n    tag_104:\n        /* \"contracts/uniswapv3lp.sol\":8842:8925  TransferHelper.safeApprove(token1, address(nonfungiblePositionManager), amountAdd1) */\n      tag_105\n        /* \"contracts/uniswapv3lp.sol\":8869:8875  token1 */\n      dup2\n      0x00\n      dup1\n      mload\n      0x20\n      data_65cfeff779fe42d2d5b4c2c078348cb18abbc731a2e3837262888dd9b50bb10e\n      dup4\n      codecopy\n      dup2\n      mload\n      swap2\n      mstore\n        /* \"contracts/uniswapv3lp.sol\":8914:8924  amountAdd1 */\n      dup9\n        /* \"contracts/uniswapv3lp.sol\":8842:8868  TransferHelper.safeApprove */\n      tag_71\n        /* \"contracts/uniswapv3lp.sol\":8842:8925  TransferHelper.safeApprove(token1, address(nonfungiblePositionManager), amountAdd1) */\n      jump\t// in\n    tag_105:\n        /* \"contracts/uniswapv3lp.sol\":9019:9320  INonfungiblePositionManager.IncreaseLiquidityParams({\r... */\n      0x40\n      dup1\n      mload\n      0xc0\n      dup2\n      add\n      dup3\n      mstore\n      dup10\n      dup2\n      mstore\n      0x20\n      dup2\n      add\n      dup10\n      swap1\n      mstore\n      dup1\n      dup3\n      add\n      dup9\n      swap1\n      mstore\n        /* \"contracts/uniswapv3lp.sol\":8938:9003  INonfungiblePositionManager.IncreaseLiquidityParams memory params */\n      0x00\n        /* \"contracts/uniswapv3lp.sol\":9019:9320  INonfungiblePositionManager.IncreaseLiquidityParams({\r... */\n      0x60\n      dup3\n      add\n      dup2\n      swap1\n      mstore\n      0x80\n      dup3\n      add\n      mstore\n        /* \"contracts/uniswapv3lp.sol\":9289:9304  block.timestamp */\n      timestamp\n        /* \"contracts/uniswapv3lp.sol\":9019:9320  INonfungiblePositionManager.IncreaseLiquidityParams({\r... */\n      0xa0\n      dup3\n      add\n      mstore\n        /* \"contracts/uniswapv3lp.sol\":9365:9417  nonfungiblePositionManager.increaseLiquidity(params) */\n      swap1\n      mload\n      shl(0xe0, 0x219f5d17)\n      dup2\n      mstore\n      0x00\n      dup1\n      mload\n      0x20\n      data_65cfeff779fe42d2d5b4c2c078348cb18abbc731a2e3837262888dd9b50bb10e\n      dup4\n      codecopy\n      dup2\n      mload\n      swap2\n      mstore\n        /* \"contracts/uniswapv3lp.sol\":495:537  0xC36442b4a4522E871399CD717aBDD847Ab11FE88 */\n      swap1\n        /* \"contracts/uniswapv3lp.sol\":9365:9409  nonfungiblePositionManager.increaseLiquidity */\n      0x219f5d17\n      swap1\n        /* \"contracts/uniswapv3lp.sol\":9365:9417  nonfungiblePositionManager.increaseLiquidity(params) */\n      tag_106\n      swap1\n        /* \"contracts/uniswapv3lp.sol\":9019:9320  INonfungiblePositionManager.IncreaseLiquidityParams({\r... */\n      dup5\n      swap1\n        /* \"contracts/uniswapv3lp.sol\":9365:9417  nonfungiblePositionManager.increaseLiquidity(params) */\n      0x04\n      add\n      tag_107\n      jump\t// in\n    tag_106:\n      0x60\n      mload(0x40)\n      dup1\n      dup4\n      sub\n      dup2\n      0x00\n      dup8\n      dup1\n      extcodesize\n      iszero\n      dup1\n      iszero\n      tag_108\n      jumpi\n      0x00\n      dup1\n      revert\n    tag_108:\n      pop\n      gas\n      call\n      iszero\n      dup1\n      iszero\n      tag_110\n      jumpi\n      returndatasize\n      0x00\n      dup1\n      returndatacopy\n      revert(0x00, returndatasize)\n    tag_110:\n      pop\n      pop\n      pop\n      pop\n      mload(0x40)\n      returndatasize\n      not(0x1f)\n      0x1f\n      dup3\n      add\n      and\n      dup3\n      add\n      dup1\n      0x40\n      mstore\n      pop\n      dup2\n      add\n      swap1\n      tag_111\n      swap2\n      swap1\n      tag_112\n      jump\t// in\n    tag_111:\n        /* \"contracts/uniswapv3lp.sol\":9333:9417  (liquidity, amount0, amount1) = nonfungiblePositionManager.increaseLiquidity(params) */\n      swap2\n      swap8\n      pop\n      swap6\n      pop\n      swap4\n      pop\n        /* \"contracts/uniswapv3lp.sol\":9498:9518  amount0 < amountAdd0 */\n      dup8\n      dup6\n      lt\n        /* \"contracts/uniswapv3lp.sol\":9494:9745  if (amount0 < amountAdd0) {\r... */\n      iszero\n      tag_113\n      jumpi\n        /* \"contracts/uniswapv3lp.sol\":9535:9609  TransferHelper.safeApprove(token0, address(nonfungiblePositionManager), 0) */\n      tag_114\n        /* \"contracts/uniswapv3lp.sol\":9562:9568  token0 */\n      dup4\n      0x00\n      dup1\n      mload\n      0x20\n      data_65cfeff779fe42d2d5b4c2c078348cb18abbc731a2e3837262888dd9b50bb10e\n      dup4\n      codecopy\n      dup2\n      mload\n      swap2\n      mstore\n        /* \"contracts/uniswapv3lp.sol\":9607:9608  0 */\n      0x00\n        /* \"contracts/uniswapv3lp.sol\":9535:9561  TransferHelper.safeApprove */\n      tag_71\n        /* \"contracts/uniswapv3lp.sol\":9535:9609  TransferHelper.safeApprove(token0, address(nonfungiblePositionManager), 0) */\n      jump\t// in\n    tag_114:\n        /* \"contracts/uniswapv3lp.sol\":9624:9639  uint256 refund0 */\n      0x00\n        /* \"contracts/uniswapv3lp.sol\":9642:9662  amountAdd0 - amount0 */\n      tag_115\n        /* \"contracts/uniswapv3lp.sol\":9655:9662  amount0 */\n      dup7\n        /* \"contracts/uniswapv3lp.sol\":9642:9652  amountAdd0 */\n      dup11\n        /* \"contracts/uniswapv3lp.sol\":9642:9662  amountAdd0 - amount0 */\n      tag_84\n      jump\t// in\n    tag_115:\n        /* \"contracts/uniswapv3lp.sol\":9624:9662  uint256 refund0 = amountAdd0 - amount0 */\n      swap1\n      pop\n        /* \"contracts/uniswapv3lp.sol\":9677:9733  TransferHelper.safeTransfer(token0, msg.sender, refund0) */\n      tag_116\n        /* \"contracts/uniswapv3lp.sol\":9705:9711  token0 */\n      dup5\n        /* \"contracts/uniswapv3lp.sol\":9713:9723  msg.sender */\n      caller\n        /* \"contracts/uniswapv3lp.sol\":9725:9732  refund0 */\n      dup4\n        /* \"contracts/uniswapv3lp.sol\":9677:9704  TransferHelper.safeTransfer */\n      tag_86\n        /* \"contracts/uniswapv3lp.sol\":9677:9733  TransferHelper.safeTransfer(token0, msg.sender, refund0) */\n      jump\t// in\n    tag_116:\n        /* \"contracts/uniswapv3lp.sol\":9494:9745  if (amount0 < amountAdd0) {\r... */\n      pop\n    tag_113:\n        /* \"contracts/uniswapv3lp.sol\":9771:9781  amountAdd1 */\n      dup7\n        /* \"contracts/uniswapv3lp.sol\":9761:9768  amount1 */\n      dup5\n        /* \"contracts/uniswapv3lp.sol\":9761:9781  amount1 < amountAdd1 */\n      lt\n        /* \"contracts/uniswapv3lp.sol\":9757:10008  if (amount1 < amountAdd1) {\r... */\n      iszero\n      tag_117\n      jumpi\n        /* \"contracts/uniswapv3lp.sol\":9798:9872  TransferHelper.safeApprove(token1, address(nonfungiblePositionManager), 0) */\n      tag_118\n        /* \"contracts/uniswapv3lp.sol\":9825:9831  token1 */\n      dup3\n      0x00\n      dup1\n      mload\n      0x20\n      data_65cfeff779fe42d2d5b4c2c078348cb18abbc731a2e3837262888dd9b50bb10e\n      dup4\n      codecopy\n      dup2\n      mload\n      swap2\n      mstore\n        /* \"contracts/uniswapv3lp.sol\":9870:9871  0 */\n      0x00\n        /* \"contracts/uniswapv3lp.sol\":9798:9824  TransferHelper.safeApprove */\n      tag_71\n        /* \"contracts/uniswapv3lp.sol\":9798:9872  TransferHelper.safeApprove(token1, address(nonfungiblePositionManager), 0) */\n      jump\t// in\n    tag_118:\n        /* \"contracts/uniswapv3lp.sol\":9887:9902  uint256 refund1 */\n      0x00\n        /* \"contracts/uniswapv3lp.sol\":9905:9925  amountAdd1 - amount1 */\n      tag_119\n        /* \"contracts/uniswapv3lp.sol\":9918:9925  amount1 */\n      dup6\n        /* \"contracts/uniswapv3lp.sol\":9905:9915  amountAdd1 */\n      dup10\n        /* \"contracts/uniswapv3lp.sol\":9905:9925  amountAdd1 - amount1 */\n      tag_84\n      jump\t// in\n    tag_119:\n        /* \"contracts/uniswapv3lp.sol\":9887:9925  uint256 refund1 = amountAdd1 - amount1 */\n      swap1\n      pop\n        /* \"contracts/uniswapv3lp.sol\":9940:9996  TransferHelper.safeTransfer(token1, msg.sender, refund1) */\n      tag_120\n        /* \"contracts/uniswapv3lp.sol\":9968:9974  token1 */\n      dup4\n        /* \"contracts/uniswapv3lp.sol\":9976:9986  msg.sender */\n      caller\n        /* \"contracts/uniswapv3lp.sol\":9988:9995  refund1 */\n      dup4\n        /* \"contracts/uniswapv3lp.sol\":9940:9967  TransferHelper.safeTransfer */\n      tag_86\n        /* \"contracts/uniswapv3lp.sol\":9940:9996  TransferHelper.safeTransfer(token1, msg.sender, refund1) */\n      jump\t// in\n    tag_120:\n        /* \"contracts/uniswapv3lp.sol\":9757:10008  if (amount1 < amountAdd1) {\r... */\n      pop\n    tag_117:\n        /* \"contracts/uniswapv3lp.sol\":8179:10015  function increaseLiquidityCurrentRange(\r... */\n      pop\n      pop\n      pop\n      swap4\n      pop\n      swap4\n      pop\n      swap4\n      swap1\n      pop\n      jump\t// out\n        /* \"contracts/uniswapv3lp.sol\":6394:7894  function decreaseLiquidityInHalf(uint256 tokenId) external returns (uint256 amount0, uint256 amount1) {\r... */\n    tag_42:\n        /* \"contracts/uniswapv3lp.sol\":6462:6477  uint256 amount0 */\n      0x00\n        /* \"contracts/uniswapv3lp.sol\":6577:6594  deposits[tokenId] */\n      dup2\n      dup2\n      mstore\n      0x20\n      dup2\n      swap1\n      mstore\n      0x40\n      dup2\n      keccak256\n        /* \"contracts/uniswapv3lp.sol\":6577:6600  deposits[tokenId].owner */\n      sload\n        /* \"contracts/uniswapv3lp.sol\":6462:6477  uint256 amount0 */\n      dup2\n      swap1\n      sub(shl(0xa0, 0x01), 0x01)\n        /* \"contracts/uniswapv3lp.sol\":6577:6600  deposits[tokenId].owner */\n      and\n        /* \"contracts/uniswapv3lp.sol\":6563:6573  msg.sender */\n      caller\n        /* \"contracts/uniswapv3lp.sol\":6563:6600  msg.sender == deposits[tokenId].owner */\n      eq\n        /* \"contracts/uniswapv3lp.sol\":6555:6618  require(msg.sender == deposits[tokenId].owner, 'Not the owner') */\n      tag_122\n      jumpi\n      mload(0x40)\n      shl(0xe5, 0x461bcd)\n      dup2\n      mstore\n      0x04\n      add\n      tag_62\n      swap1\n      tag_124\n      jump\t// in\n    tag_122:\n        /* \"contracts/uniswapv3lp.sol\":6672:6689  uint128 liquidity */\n      0x00\n        /* \"contracts/uniswapv3lp.sol\":6692:6709  deposits[tokenId] */\n      dup4\n      dup2\n      mstore\n      0x20\n      dup2\n      swap1\n      mstore\n      0x40\n      dup2\n      keccak256\n        /* \"contracts/uniswapv3lp.sol\":6692:6719  deposits[tokenId].liquidity */\n      0x01\n      add\n      sload\n      sub(shl(0x80, 0x01), 0x01)\n      and\n      swap1\n        /* \"contracts/uniswapv3lp.sol\":6754:6767  liquidity / 2 */\n      tag_125\n        /* \"contracts/uniswapv3lp.sol\":6766:6767  2 */\n      0x02\n        /* \"contracts/uniswapv3lp.sol\":6692:6719  deposits[tokenId].liquidity */\n      dup4\n        /* \"contracts/uniswapv3lp.sol\":6754:6767  liquidity / 2 */\n      tag_126\n      jump\t// in\n    tag_125:\n        /* \"contracts/uniswapv3lp.sol\":6730:6767  uint128 halfLiquidity = liquidity / 2 */\n      swap1\n      pop\n        /* \"contracts/uniswapv3lp.sol\":6951:7016  INonfungiblePositionManager.DecreaseLiquidityParams memory params */\n      0x00\n        /* \"contracts/uniswapv3lp.sol\":7032:7286  INonfungiblePositionManager.DecreaseLiquidityParams({\r... */\n      mload(0x40)\n      dup1\n      0xa0\n      add\n      0x40\n      mstore\n      dup1\n        /* \"contracts/uniswapv3lp.sol\":7112:7119  tokenId */\n      dup8\n        /* \"contracts/uniswapv3lp.sol\":7032:7286  INonfungiblePositionManager.DecreaseLiquidityParams({\r... */\n      dup2\n      mstore\n      0x20\n      add\n        /* \"contracts/uniswapv3lp.sol\":7149:7162  halfLiquidity */\n      dup4\n      sub(shl(0x80, 0x01), 0x01)\n        /* \"contracts/uniswapv3lp.sol\":7032:7286  INonfungiblePositionManager.DecreaseLiquidityParams({\r... */\n      and\n      dup2\n      mstore\n      0x20\n      add\n        /* \"contracts/uniswapv3lp.sol\":7193:7194  0 */\n      0x00\n        /* \"contracts/uniswapv3lp.sol\":7032:7286  INonfungiblePositionManager.DecreaseLiquidityParams({\r... */\n      dup2\n      mstore\n      0x20\n      add\n        /* \"contracts/uniswapv3lp.sol\":7225:7226  0 */\n      0x00\n        /* \"contracts/uniswapv3lp.sol\":7032:7286  INonfungiblePositionManager.DecreaseLiquidityParams({\r... */\n      dup2\n      mstore\n      0x20\n      add\n        /* \"contracts/uniswapv3lp.sol\":7255:7270  block.timestamp */\n      timestamp\n        /* \"contracts/uniswapv3lp.sol\":7032:7286  INonfungiblePositionManager.DecreaseLiquidityParams({\r... */\n      dup2\n      mstore\n      pop\n        /* \"contracts/uniswapv3lp.sol\":6951:7286  INonfungiblePositionManager.DecreaseLiquidityParams memory params =\r... */\n      swap1\n      pop\n        /* \"contracts/uniswapv3lp.sol\":7307:7363  INonfungiblePositionManager.CollectParams memory params2 */\n      0x00\n        /* \"contracts/uniswapv3lp.sol\":7379:7653  INonfungiblePositionManager.CollectParams({\r... */\n      mload(0x40)\n      dup1\n      0x80\n      add\n      0x40\n      mstore\n      dup1\n        /* \"contracts/uniswapv3lp.sol\":7449:7456  tokenId */\n      dup9\n        /* \"contracts/uniswapv3lp.sol\":7379:7653  INonfungiblePositionManager.CollectParams({\r... */\n      dup2\n      mstore\n      0x20\n      add\n        /* \"contracts/uniswapv3lp.sol\":7494:7498  this */\n      address\n      sub(shl(0xa0, 0x01), 0x01)\n        /* \"contracts/uniswapv3lp.sol\":7379:7653  INonfungiblePositionManager.CollectParams({\r... */\n      and\n      dup2\n      mstore\n      0x20\n      add\n      sub(shl(0x80, 0x01), 0x01)\n      dup1\n      and\n      dup2\n      mstore\n      0x20\n      add\n      sub(shl(0x80, 0x01), 0x01)\n      dup1\n      and\n      dup2\n      mstore\n      pop\n        /* \"contracts/uniswapv3lp.sol\":7307:7653  INonfungiblePositionManager.CollectParams memory params2 =\r... */\n      swap1\n      pop\n      0x00\n      dup1\n      mload\n      0x20\n      data_65cfeff779fe42d2d5b4c2c078348cb18abbc731a2e3837262888dd9b50bb10e\n      dup4\n      codecopy\n      dup2\n      mload\n      swap2\n      mstore\n      sub(shl(0xa0, 0x01), 0x01)\n        /* \"contracts/uniswapv3lp.sol\":7687:7731  nonfungiblePositionManager.decreaseLiquidity */\n      and\n      0x0c49ccbe\n        /* \"contracts/uniswapv3lp.sol\":7732:7738  params */\n      dup4\n        /* \"contracts/uniswapv3lp.sol\":7687:7739  nonfungiblePositionManager.decreaseLiquidity(params) */\n      mload(0x40)\n      dup3\n      0xffffffff\n      and\n      0xe0\n      shl\n      dup2\n      mstore\n      0x04\n      add\n      tag_127\n      swap2\n      swap1\n      tag_128\n      jump\t// in\n    tag_127:\n      0x40\n      dup1\n      mload\n      dup1\n      dup4\n      sub\n      dup2\n      0x00\n      dup8\n      dup1\n      extcodesize\n      iszero\n      dup1\n      iszero\n      tag_129\n      jumpi\n      0x00\n      dup1\n      revert\n    tag_129:\n      pop\n      gas\n      call\n      iszero\n      dup1\n      iszero\n      tag_131\n      jumpi\n      returndatasize\n      0x00\n      dup1\n      returndatacopy\n      revert(0x00, returndatasize)\n    tag_131:\n      pop\n      pop\n      pop\n      pop\n      mload(0x40)\n      returndatasize\n      not(0x1f)\n      0x1f\n      dup3\n      add\n      and\n      dup3\n      add\n      dup1\n      0x40\n      mstore\n      pop\n      dup2\n      add\n      swap1\n      tag_132\n      swap2\n      swap1\n      tag_98\n      jump\t// in\n    tag_132:\n        /* \"contracts/uniswapv3lp.sol\":7750:7793  nonfungiblePositionManager.collect(params2) */\n      mload(0x40)\n      shl(0xe0, 0xfc6f7865)\n      dup2\n      mstore\n        /* \"contracts/uniswapv3lp.sol\":7666:7739  (amount0, amount1) = nonfungiblePositionManager.decreaseLiquidity(params) */\n      swap2\n      swap8\n      pop\n      swap6\n      pop\n      0x00\n      dup1\n      mload\n      0x20\n      data_65cfeff779fe42d2d5b4c2c078348cb18abbc731a2e3837262888dd9b50bb10e\n      dup4\n      codecopy\n      dup2\n      mload\n      swap2\n      mstore\n        /* \"contracts/uniswapv3lp.sol\":495:537  0xC36442b4a4522E871399CD717aBDD847Ab11FE88 */\n      swap1\n        /* \"contracts/uniswapv3lp.sol\":7750:7784  nonfungiblePositionManager.collect */\n      0xfc6f7865\n      swap1\n        /* \"contracts/uniswapv3lp.sol\":7750:7793  nonfungiblePositionManager.collect(params2) */\n      tag_133\n      swap1\n        /* \"contracts/uniswapv3lp.sol\":7785:7792  params2 */\n      dup5\n      swap1\n        /* \"contracts/uniswapv3lp.sol\":7750:7793  nonfungiblePositionManager.collect(params2) */\n      0x04\n      add\n      tag_93\n      jump\t// in\n    tag_133:\n      0x40\n      dup1\n      mload\n      dup1\n      dup4\n      sub\n      dup2\n      0x00\n      dup8\n      dup1\n      extcodesize\n      iszero\n      dup1\n      iszero\n      tag_134\n      jumpi\n      0x00\n      dup1\n      revert\n    tag_134:\n      pop\n      gas\n      call\n      iszero\n      dup1\n      iszero\n      tag_136\n      jumpi\n      returndatasize\n      0x00\n      dup1\n      returndatacopy\n      revert(0x00, returndatasize)\n    tag_136:\n      pop\n      pop\n      pop\n      pop\n      mload(0x40)\n      returndatasize\n      not(0x1f)\n      0x1f\n      dup3\n      add\n      and\n      dup3\n      add\n      dup1\n      0x40\n      mstore\n      pop\n      dup2\n      add\n      swap1\n      tag_137\n      swap2\n      swap1\n      tag_98\n      jump\t// in\n    tag_137:\n      pop\n      pop\n        /* \"contracts/uniswapv3lp.sol\":7847:7886  _sendToOwner(tokenId, amount0, amount1) */\n      tag_138\n        /* \"contracts/uniswapv3lp.sol\":7860:7867  tokenId */\n      dup8\n        /* \"contracts/uniswapv3lp.sol\":7869:7876  amount0 */\n      dup8\n        /* \"contracts/uniswapv3lp.sol\":7878:7885  amount1 */\n      dup8\n        /* \"contracts/uniswapv3lp.sol\":7847:7859  _sendToOwner */\n      tag_100\n        /* \"contracts/uniswapv3lp.sol\":7847:7886  _sendToOwner(tokenId, amount0, amount1) */\n      jump\t// in\n    tag_138:\n        /* \"contracts/uniswapv3lp.sol\":6394:7894  function decreaseLiquidityInHalf(uint256 tokenId) external returns (uint256 amount0, uint256 amount1) {\r... */\n      pop\n      pop\n      pop\n      pop\n      swap2\n      pop\n      swap2\n      jump\t// out\n        /* \"contracts/uniswapv3lp.sol\":624:697  address public constant USDC = 0x3DB4B7DA67dd5aF61Cb9b3C70501B1BdB24b2C22 */\n    tag_45:\n        /* \"contracts/uniswapv3lp.sol\":655:697  0x3DB4B7DA67dd5aF61Cb9b3C70501B1BdB24b2C22 */\n      0x3db4b7da67dd5af61cb9b3c70501b1bdb24b2c22\n        /* \"contracts/uniswapv3lp.sol\":624:697  address public constant USDC = 0x3DB4B7DA67dd5aF61Cb9b3C70501B1BdB24b2C22 */\n      dup2\n      jump\t// out\n        /* \"contracts/uniswapv3lp.sol\":975:1018  mapping(uint256 => Deposit) public deposits */\n    tag_50:\n      0x00\n      0x20\n      dup2\n      swap1\n      mstore\n      swap1\n      dup2\n      mstore\n      0x40\n      swap1\n      keccak256\n      dup1\n      sload\n      0x01\n      dup3\n      add\n      sload\n      0x02\n      dup4\n      add\n      sload\n      0x03\n      swap1\n      swap4\n      add\n      sload\n      sub(shl(0xa0, 0x01), 0x01)\n      swap3\n      dup4\n      and\n      swap4\n      sub(shl(0x80, 0x01), 0x01)\n      swap1\n      swap3\n      and\n      swap3\n      swap2\n      dup3\n      and\n      swap2\n      and\n      dup5\n      jump\t// out\n        /* \"contracts/uniswapv3lp.sol\":394:538  INonfungiblePositionManager public constant nonfungiblePositionManager = INonfungiblePositionManager(0xC36442b4a4522E871399CD717aBDD847Ab11FE88) */\n    tag_54:\n      0x00\n      dup1\n      mload\n      0x20\n      data_65cfeff779fe42d2d5b4c2c078348cb18abbc731a2e3837262888dd9b50bb10e\n      dup4\n      codecopy\n      dup2\n      mload\n      swap2\n      mstore\n      dup2\n      jump\t// out\n        /* \"contracts/uniswapv3lp.sol\":545:617  address public constant DAI = 0xDA10009cBd5D07dd0CeCc66161FC93D7c9000da1 */\n    tag_58:\n        /* \"contracts/uniswapv3lp.sol\":575:617  0xDA10009cBd5D07dd0CeCc66161FC93D7c9000da1 */\n      0xda10009cbd5d07dd0cecc66161fc93d7c9000da1\n        /* \"contracts/uniswapv3lp.sol\":545:617  address public constant DAI = 0xDA10009cBd5D07dd0CeCc66161FC93D7c9000da1 */\n      dup2\n      jump\t// out\n        /* \"contracts/uniswapv3lp.sol\":1558:1928  function _createDeposit(address owner, uint256 tokenId) internal {\r... */\n    tag_65:\n        /* \"contracts/uniswapv3lp.sol\":1719:1764  nonfungiblePositionManager.positions(tokenId) */\n      mload(0x40)\n      shl(0xe3, 0x133f7571)\n      dup2\n      mstore\n        /* \"contracts/uniswapv3lp.sol\":1639:1653  address token0 */\n      0x00\n      swap1\n      dup2\n      swap1\n      dup2\n      swap1\n      0x00\n      dup1\n      mload\n      0x20\n      data_65cfeff779fe42d2d5b4c2c078348cb18abbc731a2e3837262888dd9b50bb10e\n      dup4\n      codecopy\n      dup2\n      mload\n      swap2\n      mstore\n        /* \"contracts/uniswapv3lp.sol\":495:537  0xC36442b4a4522E871399CD717aBDD847Ab11FE88 */\n      swap1\n        /* \"contracts/uniswapv3lp.sol\":1719:1755  nonfungiblePositionManager.positions */\n      0x99fbab88\n      swap1\n        /* \"contracts/uniswapv3lp.sol\":1719:1764  nonfungiblePositionManager.positions(tokenId) */\n      tag_140\n      swap1\n        /* \"contracts/uniswapv3lp.sol\":1756:1763  tokenId */\n      dup8\n      swap1\n        /* \"contracts/uniswapv3lp.sol\":1719:1764  nonfungiblePositionManager.positions(tokenId) */\n      0x04\n      add\n      tag_141\n      jump\t// in\n    tag_140:\n      0x0180\n      mload(0x40)\n      dup1\n      dup4\n      sub\n      dup2\n      dup7\n      dup1\n      extcodesize\n      iszero\n      dup1\n      iszero\n      tag_142\n      jumpi\n      0x00\n      dup1\n      revert\n    tag_142:\n      pop\n      gas\n      staticcall\n      iszero\n      dup1\n      iszero\n      tag_144\n      jumpi\n      returndatasize\n      0x00\n      dup1\n      returndatacopy\n      revert(0x00, returndatasize)\n    tag_144:\n      pop\n      pop\n      pop\n      pop\n      mload(0x40)\n      returndatasize\n      not(0x1f)\n      0x1f\n      dup3\n      add\n      and\n      dup3\n      add\n      dup1\n      0x40\n      mstore\n      pop\n      dup2\n      add\n      swap1\n      tag_145\n      swap2\n      swap1\n      tag_146\n      jump\t// in\n    tag_145:\n        /* \"contracts/uniswapv3lp.sol\":1634:1764  (, , address token0, address token1, , , , uint128 liquidity, , , , ) =\r... */\n      pop\n      pop\n      pop\n      pop\n      swap8\n      pop\n      pop\n      pop\n      pop\n      swap5\n      pop\n      swap5\n      pop\n      pop\n      pop\n        /* \"contracts/uniswapv3lp.sol\":1843:1920  Deposit({owner: owner, liquidity: liquidity, token0: token0, token1: token1}) */\n      mload(0x40)\n      dup1\n      0x80\n      add\n      0x40\n      mstore\n      dup1\n        /* \"contracts/uniswapv3lp.sol\":1859:1864  owner */\n      dup7\n      sub(shl(0xa0, 0x01), 0x01)\n        /* \"contracts/uniswapv3lp.sol\":1843:1920  Deposit({owner: owner, liquidity: liquidity, token0: token0, token1: token1}) */\n      and\n      dup2\n      mstore\n      0x20\n      add\n        /* \"contracts/uniswapv3lp.sol\":1877:1886  liquidity */\n      dup3\n      sub(shl(0x80, 0x01), 0x01)\n        /* \"contracts/uniswapv3lp.sol\":1843:1920  Deposit({owner: owner, liquidity: liquidity, token0: token0, token1: token1}) */\n      and\n      dup2\n      mstore\n      0x20\n      add\n        /* \"contracts/uniswapv3lp.sol\":1896:1902  token0 */\n      dup5\n      sub(shl(0xa0, 0x01), 0x01)\n        /* \"contracts/uniswapv3lp.sol\":1843:1920  Deposit({owner: owner, liquidity: liquidity, token0: token0, token1: token1}) */\n      and\n      dup2\n      mstore\n      0x20\n      add\n        /* \"contracts/uniswapv3lp.sol\":1912:1918  token1 */\n      dup4\n      sub(shl(0xa0, 0x01), 0x01)\n        /* \"contracts/uniswapv3lp.sol\":1843:1920  Deposit({owner: owner, liquidity: liquidity, token0: token0, token1: token1}) */\n      and\n      dup2\n      mstore\n      pop\n        /* \"contracts/uniswapv3lp.sol\":1823:1831  deposits */\n      0x00\n        /* \"contracts/uniswapv3lp.sol\":1823:1840  deposits[tokenId] */\n      dup1\n        /* \"contracts/uniswapv3lp.sol\":1832:1839  tokenId */\n      dup7\n        /* \"contracts/uniswapv3lp.sol\":1823:1840  deposits[tokenId] */\n      dup2\n      mstore\n      0x20\n      add\n      swap1\n      dup2\n      mstore\n      0x20\n      add\n      0x00\n      keccak256\n        /* \"contracts/uniswapv3lp.sol\":1823:1920  deposits[tokenId] = Deposit({owner: owner, liquidity: liquidity, token0: token0, token1: token1}) */\n      0x00\n      dup3\n      add\n      mload\n      dup2\n      0x00\n      add\n      exp(0x0100, 0x00)\n      dup2\n      sload\n      dup2\n      sub(shl(0xa0, 0x01), 0x01)\n      mul\n      not\n      and\n      swap1\n      dup4\n      sub(shl(0xa0, 0x01), 0x01)\n      and\n      mul\n      or\n      swap1\n      sstore\n      pop\n      0x20\n      dup3\n      add\n      mload\n      dup2\n      0x01\n      add\n      exp(0x0100, 0x00)\n      dup2\n      sload\n      dup2\n      sub(shl(0x80, 0x01), 0x01)\n      mul\n      not\n      and\n      swap1\n      dup4\n      sub(shl(0x80, 0x01), 0x01)\n      and\n      mul\n      or\n      swap1\n      sstore\n      pop\n      0x40\n      dup3\n      add\n      mload\n      dup2\n      0x02\n      add\n      exp(0x0100, 0x00)\n      dup2\n      sload\n      dup2\n      sub(shl(0xa0, 0x01), 0x01)\n      mul\n      not\n      and\n      swap1\n      dup4\n      sub(shl(0xa0, 0x01), 0x01)\n      and\n      mul\n      or\n      swap1\n      sstore\n      pop\n      0x60\n      dup3\n      add\n      mload\n      dup2\n      0x03\n      add\n      exp(0x0100, 0x00)\n      dup2\n      sload\n      dup2\n      sub(shl(0xa0, 0x01), 0x01)\n      mul\n      not\n      and\n      swap1\n      dup4\n      sub(shl(0xa0, 0x01), 0x01)\n      and\n      mul\n      or\n      swap1\n      sstore\n      pop\n      swap1\n      pop\n      pop\n        /* \"contracts/uniswapv3lp.sol\":1558:1928  function _createDeposit(address owner, uint256 tokenId) internal {\r... */\n      pop\n      pop\n      pop\n      pop\n      pop\n      jump\t// out\n        /* \"@uniswap/v3-periphery/contracts/libraries/TransferHelper.sol\":561:919  function safeTransferFrom(... */\n    tag_68:\n        /* \"@uniswap/v3-periphery/contracts/libraries/TransferHelper.sol\":701:713  bool success */\n      0x00\n        /* \"@uniswap/v3-periphery/contracts/libraries/TransferHelper.sol\":715:732  bytes memory data */\n      dup1\n        /* \"@uniswap/v3-periphery/contracts/libraries/TransferHelper.sol\":748:753  token */\n      dup6\n      sub(shl(0xa0, 0x01), 0x01)\n        /* \"@uniswap/v3-periphery/contracts/libraries/TransferHelper.sol\":748:758  token.call */\n      and\n        /* \"@uniswap/v3-periphery/contracts/libraries/TransferHelper.sol\":782:810  IERC20.transferFrom.selector */\n      shl(0xe0, 0x23b872dd)\n        /* \"@uniswap/v3-periphery/contracts/libraries/TransferHelper.sol\":812:816  from */\n      dup7\n        /* \"@uniswap/v3-periphery/contracts/libraries/TransferHelper.sol\":818:820  to */\n      dup7\n        /* \"@uniswap/v3-periphery/contracts/libraries/TransferHelper.sol\":822:827  value */\n      dup7\n        /* \"@uniswap/v3-periphery/contracts/libraries/TransferHelper.sol\":759:828  abi.encodeWithSelector(IERC20.transferFrom.selector, from, to, value) */\n      add(0x24, mload(0x40))\n      tag_148\n      swap4\n      swap3\n      swap2\n      swap1\n      tag_149\n      jump\t// in\n    tag_148:\n      0x40\n      dup1\n      mload\n      not(0x1f)\n      dup2\n      dup5\n      sub\n      add\n      dup2\n      mstore\n      swap2\n      dup2\n      mstore\n      0x20\n      dup3\n      add\n      dup1\n      mload\n      sub(shl(0xe0, 0x01), 0x01)\n      and\n      not(sub(shl(0xe0, 0x01), 0x01))\n      swap1\n      swap5\n      and\n      swap4\n      swap1\n      swap4\n      or\n      swap1\n      swap3\n      mstore\n        /* \"@uniswap/v3-periphery/contracts/libraries/TransferHelper.sol\":748:829  token.call(abi.encodeWithSelector(IERC20.transferFrom.selector, from, to, value)) */\n      swap1\n      mload\n      tag_150\n      swap2\n        /* \"@uniswap/v3-periphery/contracts/libraries/TransferHelper.sol\":759:828  abi.encodeWithSelector(IERC20.transferFrom.selector, from, to, value) */\n      swap1\n        /* \"@uniswap/v3-periphery/contracts/libraries/TransferHelper.sol\":748:829  token.call(abi.encodeWithSelector(IERC20.transferFrom.selector, from, to, value)) */\n      tag_151\n      jump\t// in\n    tag_150:\n      0x00\n      mload(0x40)\n      dup1\n      dup4\n      sub\n      dup2\n      0x00\n      dup7\n      gas\n      call\n      swap2\n      pop\n      pop\n      returndatasize\n      dup1\n      0x00\n      dup2\n      eq\n      tag_154\n      jumpi\n      mload(0x40)\n      swap2\n      pop\n      and(add(returndatasize, 0x3f), not(0x1f))\n      dup3\n      add\n      0x40\n      mstore\n      returndatasize\n      dup3\n      mstore\n      returndatasize\n      0x00\n      0x20\n      dup5\n      add\n      returndatacopy\n      jump(tag_153)\n    tag_154:\n      0x60\n      swap2\n      pop\n    tag_153:\n      pop\n        /* \"@uniswap/v3-periphery/contracts/libraries/TransferHelper.sol\":700:829  (bool success, bytes memory data) =... */\n      swap2\n      pop\n      swap2\n      pop\n        /* \"@uniswap/v3-periphery/contracts/libraries/TransferHelper.sol\":847:854  success */\n      dup2\n        /* \"@uniswap/v3-periphery/contracts/libraries/TransferHelper.sol\":847:904  success && (data.length == 0 || abi.decode(data, (bool))) */\n      dup1\n      iszero\n      tag_157\n      jumpi\n      pop\n        /* \"@uniswap/v3-periphery/contracts/libraries/TransferHelper.sol\":859:870  data.length */\n      dup1\n      mload\n        /* \"@uniswap/v3-periphery/contracts/libraries/TransferHelper.sol\":859:875  data.length == 0 */\n      iszero\n      dup1\n        /* \"@uniswap/v3-periphery/contracts/libraries/TransferHelper.sol\":859:903  data.length == 0 || abi.decode(data, (bool)) */\n      tag_157\n      jumpi\n      pop\n        /* \"@uniswap/v3-periphery/contracts/libraries/TransferHelper.sol\":890:894  data */\n      dup1\n        /* \"@uniswap/v3-periphery/contracts/libraries/TransferHelper.sol\":879:903  abi.decode(data, (bool)) */\n      dup1\n      0x20\n      add\n      swap1\n      mload\n      dup2\n      add\n      swap1\n      tag_157\n      swap2\n      swap1\n      tag_158\n      jump\t// in\n    tag_157:\n        /* \"@uniswap/v3-periphery/contracts/libraries/TransferHelper.sol\":839:912  require(success && (data.length == 0 || abi.decode(data, (bool))), 'STF') */\n      tag_159\n      jumpi\n      mload(0x40)\n      shl(0xe5, 0x461bcd)\n      dup2\n      mstore\n      0x04\n      add\n      tag_62\n      swap1\n      tag_161\n      jump\t// in\n    tag_159:\n        /* \"@uniswap/v3-periphery/contracts/libraries/TransferHelper.sol\":561:919  function safeTransferFrom(... */\n      pop\n      pop\n      pop\n      pop\n      pop\n      pop\n      jump\t// out\n        /* \"@uniswap/v3-periphery/contracts/libraries/TransferHelper.sol\":1873:2180  function safeApprove(... */\n    tag_71:\n        /* \"@uniswap/v3-periphery/contracts/libraries/TransferHelper.sol\":1986:1998  bool success */\n      0x00\n        /* \"@uniswap/v3-periphery/contracts/libraries/TransferHelper.sol\":2000:2017  bytes memory data */\n      dup1\n        /* \"@uniswap/v3-periphery/contracts/libraries/TransferHelper.sol\":2021:2026  token */\n      dup5\n      sub(shl(0xa0, 0x01), 0x01)\n        /* \"@uniswap/v3-periphery/contracts/libraries/TransferHelper.sol\":2021:2031  token.call */\n      and\n        /* \"@uniswap/v3-periphery/contracts/libraries/TransferHelper.sol\":2055:2078  IERC20.approve.selector */\n      shl(0xe0, 0x095ea7b3)\n        /* \"@uniswap/v3-periphery/contracts/libraries/TransferHelper.sol\":2080:2082  to */\n      dup6\n        /* \"@uniswap/v3-periphery/contracts/libraries/TransferHelper.sol\":2084:2089  value */\n      dup6\n        /* \"@uniswap/v3-periphery/contracts/libraries/TransferHelper.sol\":2032:2090  abi.encodeWithSelector(IERC20.approve.selector, to, value) */\n      add(0x24, mload(0x40))\n      tag_163\n      swap3\n      swap2\n      swap1\n      tag_164\n      jump\t// in\n    tag_163:\n      0x40\n      dup1\n      mload\n      not(0x1f)\n      dup2\n      dup5\n      sub\n      add\n      dup2\n      mstore\n      swap2\n      dup2\n      mstore\n      0x20\n      dup3\n      add\n      dup1\n      mload\n      sub(shl(0xe0, 0x01), 0x01)\n      and\n      not(sub(shl(0xe0, 0x01), 0x01))\n      swap1\n      swap5\n      and\n      swap4\n      swap1\n      swap4\n      or\n      swap1\n      swap3\n      mstore\n        /* \"@uniswap/v3-periphery/contracts/libraries/TransferHelper.sol\":2021:2091  token.call(abi.encodeWithSelector(IERC20.approve.selector, to, value)) */\n      swap1\n      mload\n      tag_165\n      swap2\n        /* \"@uniswap/v3-periphery/contracts/libraries/TransferHelper.sol\":2032:2090  abi.encodeWithSelector(IERC20.approve.selector, to, value) */\n      swap1\n        /* \"@uniswap/v3-periphery/contracts/libraries/TransferHelper.sol\":2021:2091  token.call(abi.encodeWithSelector(IERC20.approve.selector, to, value)) */\n      tag_151\n      jump\t// in\n    tag_165:\n      0x00\n      mload(0x40)\n      dup1\n      dup4\n      sub\n      dup2\n      0x00\n      dup7\n      gas\n      call\n      swap2\n      pop\n      pop\n      returndatasize\n      dup1\n      0x00\n      dup2\n      eq\n      tag_168\n      jumpi\n      mload(0x40)\n      swap2\n      pop\n      and(add(returndatasize, 0x3f), not(0x1f))\n      dup3\n      add\n      0x40\n      mstore\n      returndatasize\n      dup3\n      mstore\n      returndatasize\n      0x00\n      0x20\n      dup5\n      add\n      returndatacopy\n      jump(tag_167)\n    tag_168:\n      0x60\n      swap2\n      pop\n    tag_167:\n      pop\n        /* \"@uniswap/v3-periphery/contracts/libraries/TransferHelper.sol\":1985:2091  (bool success, bytes memory data) = token.call(abi.encodeWithSelector(IERC20.approve.selector, to, value)) */\n      swap2\n      pop\n      swap2\n      pop\n        /* \"@uniswap/v3-periphery/contracts/libraries/TransferHelper.sol\":2109:2116  success */\n      dup2\n        /* \"@uniswap/v3-periphery/contracts/libraries/TransferHelper.sol\":2109:2166  success && (data.length == 0 || abi.decode(data, (bool))) */\n      dup1\n      iszero\n      tag_171\n      jumpi\n      pop\n        /* \"@uniswap/v3-periphery/contracts/libraries/TransferHelper.sol\":2121:2132  data.length */\n      dup1\n      mload\n        /* \"@uniswap/v3-periphery/contracts/libraries/TransferHelper.sol\":2121:2137  data.length == 0 */\n      iszero\n      dup1\n        /* \"@uniswap/v3-periphery/contracts/libraries/TransferHelper.sol\":2121:2165  data.length == 0 || abi.decode(data, (bool)) */\n      tag_171\n      jumpi\n      pop\n        /* \"@uniswap/v3-periphery/contracts/libraries/TransferHelper.sol\":2152:2156  data */\n      dup1\n        /* \"@uniswap/v3-periphery/contracts/libraries/TransferHelper.sol\":2141:2165  abi.decode(data, (bool)) */\n      dup1\n      0x20\n      add\n      swap1\n      mload\n      dup2\n      add\n      swap1\n      tag_171\n      swap2\n      swap1\n      tag_158\n      jump\t// in\n    tag_171:\n        /* \"@uniswap/v3-periphery/contracts/libraries/TransferHelper.sol\":2101:2173  require(success && (data.length == 0 || abi.decode(data, (bool))), 'SA') */\n      tag_172\n      jumpi\n      mload(0x40)\n      shl(0xe5, 0x461bcd)\n      dup2\n      mstore\n      0x04\n      add\n      tag_62\n      swap1\n      tag_174\n      jump\t// in\n    tag_172:\n        /* \"@uniswap/v3-periphery/contracts/libraries/TransferHelper.sol\":1873:2180  function safeApprove(... */\n      pop\n      pop\n      pop\n      pop\n      pop\n      jump\t// out\n        /* \"@uniswap/v3-periphery/contracts/libraries/TransferHelper.sol\":1211:1520  function safeTransfer(... */\n    tag_86:\n        /* \"@uniswap/v3-periphery/contracts/libraries/TransferHelper.sol\":1325:1337  bool success */\n      0x00\n        /* \"@uniswap/v3-periphery/contracts/libraries/TransferHelper.sol\":1339:1356  bytes memory data */\n      dup1\n        /* \"@uniswap/v3-periphery/contracts/libraries/TransferHelper.sol\":1360:1365  token */\n      dup5\n      sub(shl(0xa0, 0x01), 0x01)\n        /* \"@uniswap/v3-periphery/contracts/libraries/TransferHelper.sol\":1360:1370  token.call */\n      and\n        /* \"@uniswap/v3-periphery/contracts/libraries/TransferHelper.sol\":1394:1418  IERC20.transfer.selector */\n      shl(0xe0, 0xa9059cbb)\n        /* \"@uniswap/v3-periphery/contracts/libraries/TransferHelper.sol\":1420:1422  to */\n      dup6\n        /* \"@uniswap/v3-periphery/contracts/libraries/TransferHelper.sol\":1424:1429  value */\n      dup6\n        /* \"@uniswap/v3-periphery/contracts/libraries/TransferHelper.sol\":1371:1430  abi.encodeWithSelector(IERC20.transfer.selector, to, value) */\n      add(0x24, mload(0x40))\n      tag_176\n      swap3\n      swap2\n      swap1\n      tag_164\n      jump\t// in\n    tag_176:\n      0x40\n      dup1\n      mload\n      not(0x1f)\n      dup2\n      dup5\n      sub\n      add\n      dup2\n      mstore\n      swap2\n      dup2\n      mstore\n      0x20\n      dup3\n      add\n      dup1\n      mload\n      sub(shl(0xe0, 0x01), 0x01)\n      and\n      not(sub(shl(0xe0, 0x01), 0x01))\n      swap1\n      swap5\n      and\n      swap4\n      swap1\n      swap4\n      or\n      swap1\n      swap3\n      mstore\n        /* \"@uniswap/v3-periphery/contracts/libraries/TransferHelper.sol\":1360:1431  token.call(abi.encodeWithSelector(IERC20.transfer.selector, to, value)) */\n      swap1\n      mload\n      tag_177\n      swap2\n        /* \"@uniswap/v3-periphery/contracts/libraries/TransferHelper.sol\":1371:1430  abi.encodeWithSelector(IERC20.transfer.selector, to, value) */\n      swap1\n        /* \"@uniswap/v3-periphery/contracts/libraries/TransferHelper.sol\":1360:1431  token.call(abi.encodeWithSelector(IERC20.transfer.selector, to, value)) */\n      tag_151\n      jump\t// in\n    tag_177:\n      0x00\n      mload(0x40)\n      dup1\n      dup4\n      sub\n      dup2\n      0x00\n      dup7\n      gas\n      call\n      swap2\n      pop\n      pop\n      returndatasize\n      dup1\n      0x00\n      dup2\n      eq\n      tag_180\n      jumpi\n      mload(0x40)\n      swap2\n      pop\n      and(add(returndatasize, 0x3f), not(0x1f))\n      dup3\n      add\n      0x40\n      mstore\n      returndatasize\n      dup3\n      mstore\n      returndatasize\n      0x00\n      0x20\n      dup5\n      add\n      returndatacopy\n      jump(tag_179)\n    tag_180:\n      0x60\n      swap2\n      pop\n    tag_179:\n      pop\n        /* \"@uniswap/v3-periphery/contracts/libraries/TransferHelper.sol\":1324:1431  (bool success, bytes memory data) = token.call(abi.encodeWithSelector(IERC20.transfer.selector, to, value)) */\n      swap2\n      pop\n      swap2\n      pop\n        /* \"@uniswap/v3-periphery/contracts/libraries/TransferHelper.sol\":1449:1456  success */\n      dup2\n        /* \"@uniswap/v3-periphery/contracts/libraries/TransferHelper.sol\":1449:1506  success && (data.length == 0 || abi.decode(data, (bool))) */\n      dup1\n      iszero\n      tag_183\n      jumpi\n      pop\n        /* \"@uniswap/v3-periphery/contracts/libraries/TransferHelper.sol\":1461:1472  data.length */\n      dup1\n      mload\n        /* \"@uniswap/v3-periphery/contracts/libraries/TransferHelper.sol\":1461:1477  data.length == 0 */\n      iszero\n      dup1\n        /* \"@uniswap/v3-periphery/contracts/libraries/TransferHelper.sol\":1461:1505  data.length == 0 || abi.decode(data, (bool)) */\n      tag_183\n      jumpi\n      pop\n        /* \"@uniswap/v3-periphery/contracts/libraries/TransferHelper.sol\":1492:1496  data */\n      dup1\n        /* \"@uniswap/v3-periphery/contracts/libraries/TransferHelper.sol\":1481:1505  abi.decode(data, (bool)) */\n      dup1\n      0x20\n      add\n      swap1\n      mload\n      dup2\n      add\n      swap1\n      tag_183\n      swap2\n      swap1\n      tag_158\n      jump\t// in\n    tag_183:\n        /* \"@uniswap/v3-periphery/contracts/libraries/TransferHelper.sol\":1441:1513  require(success && (data.length == 0 || abi.decode(data, (bool))), 'ST') */\n      tag_172\n      jumpi\n      mload(0x40)\n      shl(0xe5, 0x461bcd)\n      dup2\n      mstore\n      0x04\n      add\n      tag_62\n      swap1\n      tag_186\n      jump\t// in\n        /* \"contracts/uniswapv3lp.sol\":10207:10703  function _sendToOwner(\r... */\n    tag_100:\n        /* \"contracts/uniswapv3lp.sol\":10367:10380  address owner */\n      0x00\n        /* \"contracts/uniswapv3lp.sol\":10383:10400  deposits[tokenId] */\n      dup4\n      dup2\n      mstore\n      0x20\n      dup2\n      swap1\n      mstore\n      0x40\n      swap1\n      keccak256\n        /* \"contracts/uniswapv3lp.sol\":10383:10406  deposits[tokenId].owner */\n      dup1\n      sload\n        /* \"contracts/uniswapv3lp.sol\":10436:10460  deposits[tokenId].token0 */\n      0x02\n      dup3\n      add\n      sload\n        /* \"contracts/uniswapv3lp.sol\":10488:10512  deposits[tokenId].token1 */\n      0x03\n      swap1\n      swap3\n      add\n      sload\n      sub(shl(0xa0, 0x01), 0x01)\n        /* \"contracts/uniswapv3lp.sol\":10383:10406  deposits[tokenId].owner */\n      swap2\n      dup3\n      and\n      swap3\n        /* \"contracts/uniswapv3lp.sol\":10436:10460  deposits[tokenId].token0 */\n      dup3\n      and\n      swap2\n        /* \"contracts/uniswapv3lp.sol\":10488:10512  deposits[tokenId].token1 */\n      and\n        /* \"contracts/uniswapv3lp.sol\":10564:10624  TransferHelper.safeTransfer(token0, owner, amount0*990/1000) */\n      tag_188\n        /* \"contracts/uniswapv3lp.sol\":10436:10460  deposits[tokenId].token0 */\n      dup3\n        /* \"contracts/uniswapv3lp.sol\":10383:10406  deposits[tokenId].owner */\n      dup5\n        /* \"contracts/uniswapv3lp.sol\":10619:10623  1000 */\n      0x03e8\n        /* \"contracts/uniswapv3lp.sol\":10607:10618  amount0*990 */\n      tag_189\n        /* \"contracts/uniswapv3lp.sol\":10607:10614  amount0 */\n      dup10\n        /* \"contracts/uniswapv3lp.sol\":10615:10618  990 */\n      0x03de\n        /* \"contracts/uniswapv3lp.sol\":10607:10618  amount0*990 */\n      tag_190\n      jump\t// in\n    tag_189:\n        /* \"contracts/uniswapv3lp.sol\":10607:10623  amount0*990/1000 */\n      tag_191\n      swap2\n      swap1\n      tag_192\n      jump\t// in\n    tag_191:\n        /* \"contracts/uniswapv3lp.sol\":10564:10591  TransferHelper.safeTransfer */\n      tag_86\n        /* \"contracts/uniswapv3lp.sol\":10564:10624  TransferHelper.safeTransfer(token0, owner, amount0*990/1000) */\n      jump\t// in\n    tag_188:\n        /* \"contracts/uniswapv3lp.sol\":10635:10695  TransferHelper.safeTransfer(token1, owner, amount1*990/1000) */\n      tag_159\n        /* \"contracts/uniswapv3lp.sol\":10663:10669  token1 */\n      dup2\n        /* \"contracts/uniswapv3lp.sol\":10671:10676  owner */\n      dup5\n        /* \"contracts/uniswapv3lp.sol\":10690:10694  1000 */\n      0x03e8\n        /* \"contracts/uniswapv3lp.sol\":10678:10689  amount1*990 */\n      tag_189\n        /* \"contracts/uniswapv3lp.sol\":10678:10685  amount1 */\n      dup9\n        /* \"contracts/uniswapv3lp.sol\":10686:10689  990 */\n      0x03de\n        /* \"contracts/uniswapv3lp.sol\":10678:10689  amount1*990 */\n      tag_190\n      jump\t// in\n        /* \"#utility.yul\":14:156   */\n    tag_197:\n        /* \"#utility.yul\":95:108   */\n      dup1\n      mload\n        /* \"#utility.yul\":117:150   */\n      tag_199\n        /* \"#utility.yul\":95:108   */\n      dup2\n        /* \"#utility.yul\":117:150   */\n      tag_200\n      jump\t// in\n    tag_199:\n        /* \"#utility.yul\":76:156   */\n      swap2\n      swap1\n      pop\n      jump\t// out\n        /* \"#utility.yul\":161:327   */\n    tag_201:\n        /* \"#utility.yul\":240:253   */\n      dup1\n      mload\n        /* \"#utility.yul\":293:294   */\n      0x02\n        /* \"#utility.yul\":282:302   */\n      dup2\n      swap1\n      signextend\n        /* \"#utility.yul\":272:303   */\n      dup2\n      eq\n        /* \"#utility.yul\":262:264   */\n      tag_199\n      jumpi\n        /* \"#utility.yul\":317:318   */\n      0x00\n        /* \"#utility.yul\":314:315   */\n      dup1\n        /* \"#utility.yul\":307:319   */\n      revert\n        /* \"#utility.yul\":332:526   */\n    tag_204:\n        /* \"#utility.yul\":413:426   */\n      dup1\n      mload\n      sub(shl(0x80, 0x01), 0x01)\n        /* \"#utility.yul\":455:501   */\n      dup2\n      and\n        /* \"#utility.yul\":445:502   */\n      dup2\n      eq\n        /* \"#utility.yul\":435:437   */\n      tag_199\n      jumpi\n        /* \"#utility.yul\":516:517   */\n      0x00\n        /* \"#utility.yul\":513:514   */\n      dup1\n        /* \"#utility.yul\":506:518   */\n      revert\n        /* \"#utility.yul\":531:698   */\n    tag_207:\n        /* \"#utility.yul\":611:624   */\n      dup1\n      mload\n        /* \"#utility.yul\":664:672   */\n      0xffffff\n        /* \"#utility.yul\":653:673   */\n      dup2\n      and\n        /* \"#utility.yul\":643:674   */\n      dup2\n      eq\n        /* \"#utility.yul\":633:635   */\n      tag_199\n      jumpi\n        /* \"#utility.yul\":688:689   */\n      0x00\n        /* \"#utility.yul\":685:686   */\n      dup1\n        /* \"#utility.yul\":678:690   */\n      revert\n        /* \"#utility.yul\":703:1693   */\n    tag_20:\n      0x00\n      dup1\n      0x00\n      dup1\n      0x00\n        /* \"#utility.yul\":885:888   */\n      0x80\n        /* \"#utility.yul\":873:882   */\n      dup7\n        /* \"#utility.yul\":864:871   */\n      dup9\n        /* \"#utility.yul\":860:883   */\n      sub\n        /* \"#utility.yul\":856:889   */\n      slt\n        /* \"#utility.yul\":853:855   */\n      iszero\n      tag_211\n      jumpi\n        /* \"#utility.yul\":907:913   */\n      dup1\n        /* \"#utility.yul\":899:905   */\n      dup2\n        /* \"#utility.yul\":892:914   */\n      revert\n        /* \"#utility.yul\":853:855   */\n    tag_211:\n        /* \"#utility.yul\":951:960   */\n      dup6\n        /* \"#utility.yul\":938:961   */\n      calldataload\n        /* \"#utility.yul\":970:1003   */\n      tag_212\n        /* \"#utility.yul\":997:1002   */\n      dup2\n        /* \"#utility.yul\":970:1003   */\n      tag_200\n      jump\t// in\n    tag_212:\n        /* \"#utility.yul\":1022:1027   */\n      swap5\n      pop\n        /* \"#utility.yul\":1079:1081   */\n      0x20\n        /* \"#utility.yul\":1064:1082   */\n      dup7\n      add\n        /* \"#utility.yul\":1051:1083   */\n      calldataload\n        /* \"#utility.yul\":1092:1127   */\n      tag_213\n        /* \"#utility.yul\":1051:1083   */\n      dup2\n        /* \"#utility.yul\":1092:1127   */\n      tag_200\n      jump\t// in\n    tag_213:\n        /* \"#utility.yul\":1146:1153   */\n      swap4\n      pop\n        /* \"#utility.yul\":1200:1202   */\n      0x40\n        /* \"#utility.yul\":1185:1203   */\n      dup7\n      add\n        /* \"#utility.yul\":1172:1204   */\n      calldataload\n      swap3\n      pop\n        /* \"#utility.yul\":1255:1257   */\n      0x60\n        /* \"#utility.yul\":1240:1258   */\n      dup7\n      add\n        /* \"#utility.yul\":1227:1259   */\n      calldataload\n        /* \"#utility.yul\":1278:1296   */\n      0xffffffffffffffff\n        /* \"#utility.yul\":1308:1322   */\n      dup1\n      dup3\n      gt\n        /* \"#utility.yul\":1305:1307   */\n      iszero\n      tag_214\n      jumpi\n        /* \"#utility.yul\":1340:1346   */\n      dup3\n        /* \"#utility.yul\":1332:1338   */\n      dup4\n        /* \"#utility.yul\":1325:1347   */\n      revert\n        /* \"#utility.yul\":1305:1307   */\n    tag_214:\n        /* \"#utility.yul\":1383:1389   */\n      dup2\n        /* \"#utility.yul\":1372:1381   */\n      dup9\n        /* \"#utility.yul\":1368:1390   */\n      add\n        /* \"#utility.yul\":1358:1390   */\n      swap2\n      pop\n        /* \"#utility.yul\":1428:1435   */\n      dup9\n        /* \"#utility.yul\":1421:1425   */\n      0x1f\n        /* \"#utility.yul\":1417:1419   */\n      dup4\n        /* \"#utility.yul\":1413:1426   */\n      add\n        /* \"#utility.yul\":1409:1436   */\n      slt\n        /* \"#utility.yul\":1399:1401   */\n      tag_215\n      jumpi\n        /* \"#utility.yul\":1455:1461   */\n      dup3\n        /* \"#utility.yul\":1447:1453   */\n      dup4\n        /* \"#utility.yul\":1440:1462   */\n      revert\n        /* \"#utility.yul\":1399:1401   */\n    tag_215:\n        /* \"#utility.yul\":1500:1502   */\n      dup2\n        /* \"#utility.yul\":1487:1503   */\n      calldataload\n        /* \"#utility.yul\":1526:1528   */\n      dup2\n        /* \"#utility.yul\":1518:1524   */\n      dup2\n        /* \"#utility.yul\":1515:1529   */\n      gt\n        /* \"#utility.yul\":1512:1514   */\n      iszero\n      tag_216\n      jumpi\n        /* \"#utility.yul\":1547:1553   */\n      dup4\n        /* \"#utility.yul\":1539:1545   */\n      dup5\n        /* \"#utility.yul\":1532:1554   */\n      revert\n        /* \"#utility.yul\":1512:1514   */\n    tag_216:\n        /* \"#utility.yul\":1597:1604   */\n      dup10\n        /* \"#utility.yul\":1592:1594   */\n      0x20\n        /* \"#utility.yul\":1583:1589   */\n      dup3\n        /* \"#utility.yul\":1579:1581   */\n      dup6\n        /* \"#utility.yul\":1575:1590   */\n      add\n        /* \"#utility.yul\":1571:1595   */\n      add\n        /* \"#utility.yul\":1568:1605   */\n      gt\n        /* \"#utility.yul\":1565:1567   */\n      iszero\n      tag_217\n      jumpi\n        /* \"#utility.yul\":1623:1629   */\n      dup4\n        /* \"#utility.yul\":1615:1621   */\n      dup5\n        /* \"#utility.yul\":1608:1630   */\n      revert\n        /* \"#utility.yul\":1565:1567   */\n    tag_217:\n        /* \"#utility.yul\":843:1693   */\n      swap7\n      swap10\n      swap6\n      swap9\n      pop\n      swap4\n      swap7\n      pop\n        /* \"#utility.yul\":1659:1661   */\n      0x20\n        /* \"#utility.yul\":1651:1662   */\n      add\n      swap5\n        /* \"#utility.yul\":1681:1687   */\n      swap4\n        /* \"#utility.yul\":843:1693   */\n      swap3\n      pop\n      pop\n      pop\n      jump\t// out\n        /* \"#utility.yul\":1698:1995   */\n    tag_158:\n      0x00\n        /* \"#utility.yul\":1818:1820   */\n      0x20\n        /* \"#utility.yul\":1806:1815   */\n      dup3\n        /* \"#utility.yul\":1797:1804   */\n      dup5\n        /* \"#utility.yul\":1793:1816   */\n      sub\n        /* \"#utility.yul\":1789:1821   */\n      slt\n        /* \"#utility.yul\":1786:1788   */\n      iszero\n      tag_219\n      jumpi\n        /* \"#utility.yul\":1839:1845   */\n      dup1\n        /* \"#utility.yul\":1831:1837   */\n      dup2\n        /* \"#utility.yul\":1824:1846   */\n      revert\n        /* \"#utility.yul\":1786:1788   */\n    tag_219:\n        /* \"#utility.yul\":1876:1885   */\n      dup2\n        /* \"#utility.yul\":1870:1886   */\n      mload\n        /* \"#utility.yul\":1929:1934   */\n      dup1\n        /* \"#utility.yul\":1922:1935   */\n      iszero\n        /* \"#utility.yul\":1915:1936   */\n      iszero\n        /* \"#utility.yul\":1908:1913   */\n      dup2\n        /* \"#utility.yul\":1905:1937   */\n      eq\n        /* \"#utility.yul\":1895:1897   */\n      tag_220\n      jumpi\n        /* \"#utility.yul\":1956:1962   */\n      dup2\n        /* \"#utility.yul\":1948:1954   */\n      dup3\n        /* \"#utility.yul\":1941:1963   */\n      revert\n        /* \"#utility.yul\":1895:1897   */\n    tag_220:\n        /* \"#utility.yul\":1984:1989   */\n      swap4\n        /* \"#utility.yul\":1776:1995   */\n      swap3\n      pop\n      pop\n      pop\n      jump\t// out\n        /* \"#utility.yul\":2000:2342   */\n    tag_112:\n      0x00\n      dup1\n      0x00\n        /* \"#utility.yul\":2157:2159   */\n      0x60\n        /* \"#utility.yul\":2145:2154   */\n      dup5\n        /* \"#utility.yul\":2136:2143   */\n      dup7\n        /* \"#utility.yul\":2132:2155   */\n      sub\n        /* \"#utility.yul\":2128:2160   */\n      slt\n        /* \"#utility.yul\":2125:2127   */\n      iszero\n      tag_222\n      jumpi\n        /* \"#utility.yul\":2178:2184   */\n      dup3\n        /* \"#utility.yul\":2170:2176   */\n      dup4\n        /* \"#utility.yul\":2163:2185   */\n      revert\n        /* \"#utility.yul\":2125:2127   */\n    tag_222:\n        /* \"#utility.yul\":2206:2248   */\n      tag_223\n        /* \"#utility.yul\":2238:2247   */\n      dup5\n        /* \"#utility.yul\":2206:2248   */\n      tag_204\n      jump\t// in\n    tag_223:\n        /* \"#utility.yul\":2196:2248   */\n      swap3\n      pop\n        /* \"#utility.yul\":2288:2290   */\n      0x20\n        /* \"#utility.yul\":2277:2286   */\n      dup5\n        /* \"#utility.yul\":2273:2291   */\n      add\n        /* \"#utility.yul\":2267:2292   */\n      mload\n        /* \"#utility.yul\":2257:2292   */\n      swap2\n      pop\n        /* \"#utility.yul\":2332:2334   */\n      0x40\n        /* \"#utility.yul\":2321:2330   */\n      dup5\n        /* \"#utility.yul\":2317:2335   */\n      add\n        /* \"#utility.yul\":2311:2336   */\n      mload\n        /* \"#utility.yul\":2301:2336   */\n      swap1\n      pop\n        /* \"#utility.yul\":2115:2342   */\n      swap3\n      pop\n      swap3\n      pop\n      swap3\n      jump\t// out\n        /* \"#utility.yul\":2347:2537   */\n    tag_30:\n      0x00\n        /* \"#utility.yul\":2459:2461   */\n      0x20\n        /* \"#utility.yul\":2447:2456   */\n      dup3\n        /* \"#utility.yul\":2438:2445   */\n      dup5\n        /* \"#utility.yul\":2434:2457   */\n      sub\n        /* \"#utility.yul\":2430:2462   */\n      slt\n        /* \"#utility.yul\":2427:2429   */\n      iszero\n      tag_225\n      jumpi\n        /* \"#utility.yul\":2480:2486   */\n      dup1\n        /* \"#utility.yul\":2472:2478   */\n      dup2\n        /* \"#utility.yul\":2465:2487   */\n      revert\n        /* \"#utility.yul\":2427:2429   */\n    tag_225:\n      pop\n        /* \"#utility.yul\":2508:2531   */\n      calldataload\n      swap2\n        /* \"#utility.yul\":2417:2537   */\n      swap1\n      pop\n      jump\t// out\n        /* \"#utility.yul\":2542:2946   */\n    tag_79:\n      0x00\n      dup1\n      0x00\n      dup1\n        /* \"#utility.yul\":2716:2719   */\n      0x80\n        /* \"#utility.yul\":2704:2713   */\n      dup6\n        /* \"#utility.yul\":2695:2702   */\n      dup8\n        /* \"#utility.yul\":2691:2714   */\n      sub\n        /* \"#utility.yul\":2687:2720   */\n      slt\n        /* \"#utility.yul\":2684:2686   */\n      iszero\n      tag_227\n      jumpi\n        /* \"#utility.yul\":2738:2744   */\n      dup4\n        /* \"#utility.yul\":2730:2736   */\n      dup5\n        /* \"#utility.yul\":2723:2745   */\n      revert\n        /* \"#utility.yul\":2684:2686   */\n    tag_227:\n        /* \"#utility.yul\":2772:2781   */\n      dup5\n        /* \"#utility.yul\":2766:2782   */\n      mload\n        /* \"#utility.yul\":2756:2782   */\n      swap4\n      pop\n        /* \"#utility.yul\":2801:2852   */\n      tag_228\n        /* \"#utility.yul\":2848:2850   */\n      0x20\n        /* \"#utility.yul\":2837:2846   */\n      dup7\n        /* \"#utility.yul\":2833:2851   */\n      add\n        /* \"#utility.yul\":2801:2852   */\n      tag_204\n      jump\t// in\n    tag_228:\n        /* \"#utility.yul\":2892:2894   */\n      0x40\n        /* \"#utility.yul\":2877:2895   */\n      dup7\n      add\n        /* \"#utility.yul\":2871:2896   */\n      mload\n        /* \"#utility.yul\":2936:2938   */\n      0x60\n        /* \"#utility.yul\":2921:2939   */\n      swap1\n      swap7\n      add\n        /* \"#utility.yul\":2915:2940   */\n      mload\n        /* \"#utility.yul\":2674:2946   */\n      swap5\n      swap8\n        /* \"#utility.yul\":2791:2852   */\n      swap1\n      swap7\n      pop\n        /* \"#utility.yul\":2674:2946   */\n      swap3\n      pop\n      pop\n      pop\n      jump\t// out\n        /* \"#utility.yul\":2951:3206   */\n    tag_98:\n      0x00\n      dup1\n        /* \"#utility.yul\":3091:3093   */\n      0x40\n        /* \"#utility.yul\":3079:3088   */\n      dup4\n        /* \"#utility.yul\":3070:3077   */\n      dup6\n        /* \"#utility.yul\":3066:3089   */\n      sub\n        /* \"#utility.yul\":3062:3094   */\n      slt\n        /* \"#utility.yul\":3059:3061   */\n      iszero\n      tag_230\n      jumpi\n        /* \"#utility.yul\":3112:3118   */\n      dup2\n        /* \"#utility.yul\":3104:3110   */\n      dup3\n        /* \"#utility.yul\":3097:3119   */\n      revert\n        /* \"#utility.yul\":3059:3061   */\n    tag_230:\n      pop\n      pop\n        /* \"#utility.yul\":3140:3156   */\n      dup1\n      mload\n        /* \"#utility.yul\":3196:3198   */\n      0x20\n        /* \"#utility.yul\":3181:3199   */\n      swap1\n      swap2\n      add\n        /* \"#utility.yul\":3175:3200   */\n      mload\n        /* \"#utility.yul\":3140:3156   */\n      swap1\n      swap3\n        /* \"#utility.yul\":3175:3200   */\n      swap1\n      swap2\n      pop\n        /* \"#utility.yul\":3049:3206   */\n      jump\t// out\n        /* \"#utility.yul\":3211:3537   */\n    tag_36:\n      0x00\n      dup1\n      0x00\n        /* \"#utility.yul\":3357:3359   */\n      0x60\n        /* \"#utility.yul\":3345:3354   */\n      dup5\n        /* \"#utility.yul\":3336:3343   */\n      dup7\n        /* \"#utility.yul\":3332:3355   */\n      sub\n        /* \"#utility.yul\":3328:3360   */\n      slt\n        /* \"#utility.yul\":3325:3327   */\n      iszero\n      tag_232\n      jumpi\n        /* \"#utility.yul\":3378:3384   */\n      dup3\n        /* \"#utility.yul\":3370:3376   */\n      dup4\n        /* \"#utility.yul\":3363:3385   */\n      revert\n        /* \"#utility.yul\":3325:3327   */\n    tag_232:\n      pop\n      pop\n        /* \"#utility.yul\":3406:3429   */\n      dup2\n      calldataload\n      swap4\n        /* \"#utility.yul\":3476:3478   */\n      0x20\n        /* \"#utility.yul\":3461:3479   */\n      dup4\n      add\n        /* \"#utility.yul\":3448:3480   */\n      calldataload\n      swap4\n      pop\n        /* \"#utility.yul\":3527:3529   */\n      0x40\n        /* \"#utility.yul\":3512:3530   */\n      swap1\n      swap3\n      add\n        /* \"#utility.yul\":3499:3531   */\n      calldataload\n      swap2\n        /* \"#utility.yul\":3315:3537   */\n      swap1\n      pop\n      jump\t// out\n        /* \"#utility.yul\":3542:4766   */\n    tag_146:\n      0x00\n      dup1\n      0x00\n      dup1\n      0x00\n      dup1\n      0x00\n      dup1\n      0x00\n      dup1\n      0x00\n      dup1\n        /* \"#utility.yul\":3848:3851   */\n      0x0180\n        /* \"#utility.yul\":3836:3845   */\n      dup14\n        /* \"#utility.yul\":3827:3834   */\n      dup16\n        /* \"#utility.yul\":3823:3846   */\n      sub\n        /* \"#utility.yul\":3819:3852   */\n      slt\n        /* \"#utility.yul\":3816:3818   */\n      iszero\n      tag_234\n      jumpi\n        /* \"#utility.yul\":3870:3876   */\n      dup7\n        /* \"#utility.yul\":3862:3868   */\n      dup8\n        /* \"#utility.yul\":3855:3877   */\n      revert\n        /* \"#utility.yul\":3816:3818   */\n    tag_234:\n        /* \"#utility.yul\":3907:3916   */\n      dup13\n        /* \"#utility.yul\":3901:3917   */\n      mload\n        /* \"#utility.yul\":3957:3983   */\n      0xffffffffffffffffffffffff\n        /* \"#utility.yul\":3950:3955   */\n      dup2\n        /* \"#utility.yul\":3946:3984   */\n      and\n        /* \"#utility.yul\":3939:3944   */\n      dup2\n        /* \"#utility.yul\":3936:3985   */\n      eq\n        /* \"#utility.yul\":3926:3928   */\n      tag_235\n      jumpi\n        /* \"#utility.yul\":4004:4010   */\n      dup8\n        /* \"#utility.yul\":3996:4002   */\n      dup9\n        /* \"#utility.yul\":3989:4011   */\n      revert\n        /* \"#utility.yul\":3926:3928   */\n    tag_235:\n        /* \"#utility.yul\":4032:4037   */\n      swap12\n      pop\n        /* \"#utility.yul\":4056:4107   */\n      tag_236\n        /* \"#utility.yul\":4103:4105   */\n      0x20\n        /* \"#utility.yul\":4088:4106   */\n      dup15\n      add\n        /* \"#utility.yul\":4056:4107   */\n      tag_197\n      jump\t// in\n    tag_236:\n        /* \"#utility.yul\":4046:4107   */\n      swap11\n      pop\n        /* \"#utility.yul\":4126:4177   */\n      tag_237\n        /* \"#utility.yul\":4173:4175   */\n      0x40\n        /* \"#utility.yul\":4162:4171   */\n      dup15\n        /* \"#utility.yul\":4158:4176   */\n      add\n        /* \"#utility.yul\":4126:4177   */\n      tag_197\n      jump\t// in\n    tag_237:\n        /* \"#utility.yul\":4116:4177   */\n      swap10\n      pop\n        /* \"#utility.yul\":4196:4247   */\n      tag_238\n        /* \"#utility.yul\":4243:4245   */\n      0x60\n        /* \"#utility.yul\":4232:4241   */\n      dup15\n        /* \"#utility.yul\":4228:4246   */\n      add\n        /* \"#utility.yul\":4196:4247   */\n      tag_197\n      jump\t// in\n    tag_238:\n        /* \"#utility.yul\":4186:4247   */\n      swap9\n      pop\n        /* \"#utility.yul\":4266:4317   */\n      tag_239\n        /* \"#utility.yul\":4312:4315   */\n      0x80\n        /* \"#utility.yul\":4301:4310   */\n      dup15\n        /* \"#utility.yul\":4297:4316   */\n      add\n        /* \"#utility.yul\":4266:4317   */\n      tag_207\n      jump\t// in\n    tag_239:\n        /* \"#utility.yul\":4256:4317   */\n      swap8\n      pop\n        /* \"#utility.yul\":4336:4386   */\n      tag_240\n        /* \"#utility.yul\":4381:4384   */\n      0xa0\n        /* \"#utility.yul\":4370:4379   */\n      dup15\n        /* \"#utility.yul\":4366:4385   */\n      add\n        /* \"#utility.yul\":4336:4386   */\n      tag_201\n      jump\t// in\n    tag_240:\n        /* \"#utility.yul\":4326:4386   */\n      swap7\n      pop\n        /* \"#utility.yul\":4405:4455   */\n      tag_241\n        /* \"#utility.yul\":4450:4453   */\n      0xc0\n        /* \"#utility.yul\":4439:4448   */\n      dup15\n        /* \"#utility.yul\":4435:4454   */\n      add\n        /* \"#utility.yul\":4405:4455   */\n      tag_201\n      jump\t// in\n    tag_241:\n        /* \"#utility.yul\":4395:4455   */\n      swap6\n      pop\n        /* \"#utility.yul\":4474:4526   */\n      tag_242\n        /* \"#utility.yul\":4521:4524   */\n      0xe0\n        /* \"#utility.yul\":4510:4519   */\n      dup15\n        /* \"#utility.yul\":4506:4525   */\n      add\n        /* \"#utility.yul\":4474:4526   */\n      tag_204\n      jump\t// in\n    tag_242:\n        /* \"#utility.yul\":4464:4526   */\n      swap5\n      pop\n        /* \"#utility.yul\":4566:4569   */\n      0x0100\n        /* \"#utility.yul\":4555:4564   */\n      dup14\n        /* \"#utility.yul\":4551:4570   */\n      add\n        /* \"#utility.yul\":4545:4571   */\n      mload\n        /* \"#utility.yul\":4535:4571   */\n      swap4\n      pop\n        /* \"#utility.yul\":4611:4614   */\n      0x0120\n        /* \"#utility.yul\":4600:4609   */\n      dup14\n        /* \"#utility.yul\":4596:4615   */\n      add\n        /* \"#utility.yul\":4590:4616   */\n      mload\n        /* \"#utility.yul\":4580:4616   */\n      swap3\n      pop\n        /* \"#utility.yul\":4636:4688   */\n      tag_243\n        /* \"#utility.yul\":4683:4686   */\n      0x0140\n        /* \"#utility.yul\":4672:4681   */\n      dup15\n        /* \"#utility.yul\":4668:4687   */\n      add\n        /* \"#utility.yul\":4636:4688   */\n      tag_204\n      jump\t// in\n    tag_243:\n        /* \"#utility.yul\":4625:4688   */\n      swap2\n      pop\n        /* \"#utility.yul\":4708:4760   */\n      tag_244\n        /* \"#utility.yul\":4755:4758   */\n      0x0160\n        /* \"#utility.yul\":4744:4753   */\n      dup15\n        /* \"#utility.yul\":4740:4759   */\n      add\n        /* \"#utility.yul\":4708:4760   */\n      tag_204\n      jump\t// in\n    tag_244:\n        /* \"#utility.yul\":4697:4760   */\n      swap1\n      pop\n        /* \"#utility.yul\":3806:4766   */\n      swap3\n      swap6\n      swap9\n      swap12\n      pop\n      swap3\n      swap6\n      swap9\n      swap12\n      pop\n      swap3\n      swap6\n      swap9\n      swap12\n      jump\t// out\n        /* \"#utility.yul\":4771:4877   */\n    tag_245:\n      sub(shl(0xa0, 0x01), 0x01)\n        /* \"#utility.yul\":4839:4870   */\n      and\n        /* \"#utility.yul\":4827:4871   */\n      swap1\n      mstore\n        /* \"#utility.yul\":4817:4877   */\n      jump\t// out\n        /* \"#utility.yul\":4882:4975   */\n    tag_247:\n        /* \"#utility.yul\":4959:4960   */\n      0x02\n        /* \"#utility.yul\":4948:4968   */\n      signextend\n        /* \"#utility.yul\":4936:4969   */\n      swap1\n      mstore\n        /* \"#utility.yul\":4926:4975   */\n      jump\t// out\n        /* \"#utility.yul\":4980:5074   */\n    tag_249:\n        /* \"#utility.yul\":5058:5066   */\n      0xffffff\n        /* \"#utility.yul\":5047:5067   */\n      and\n        /* \"#utility.yul\":5035:5068   */\n      swap1\n      mstore\n        /* \"#utility.yul\":5025:5074   */\n      jump\t// out\n        /* \"#utility.yul\":5079:5509   */\n    tag_151:\n      0x00\n        /* \"#utility.yul\":5246:5252   */\n      dup3\n        /* \"#utility.yul\":5240:5253   */\n      mload\n        /* \"#utility.yul\":5271:5274   */\n      dup2\n        /* \"#utility.yul\":5283:5412   */\n    tag_252:\n        /* \"#utility.yul\":5297:5303   */\n      dup2\n        /* \"#utility.yul\":5294:5295   */\n      dup2\n        /* \"#utility.yul\":5291:5304   */\n      lt\n        /* \"#utility.yul\":5283:5412   */\n      iszero\n      tag_254\n      jumpi\n        /* \"#utility.yul\":5395:5399   */\n      0x20\n        /* \"#utility.yul\":5379:5393   */\n      dup2\n      dup7\n      add\n        /* \"#utility.yul\":5375:5400   */\n      dup2\n      add\n        /* \"#utility.yul\":5369:5401   */\n      mload\n        /* \"#utility.yul\":5356:5367   */\n      dup6\n      dup4\n      add\n        /* \"#utility.yul\":5349:5402   */\n      mstore\n        /* \"#utility.yul\":5312:5324   */\n      add\n        /* \"#utility.yul\":5283:5412   */\n      jump(tag_252)\n    tag_254:\n        /* \"#utility.yul\":5430:5436   */\n      dup2\n        /* \"#utility.yul\":5427:5428   */\n      dup2\n        /* \"#utility.yul\":5424:5437   */\n      gt\n        /* \"#utility.yul\":5421:5423   */\n      iszero\n      tag_255\n      jumpi\n        /* \"#utility.yul\":5465:5468   */\n      dup3\n        /* \"#utility.yul\":5456:5462   */\n      dup3\n        /* \"#utility.yul\":5451:5454   */\n      dup6\n        /* \"#utility.yul\":5447:5463   */\n      add\n        /* \"#utility.yul\":5440:5469   */\n      mstore\n        /* \"#utility.yul\":5421:5423   */\n    tag_255:\n      pop\n        /* \"#utility.yul\":5487:5503   */\n      swap2\n      swap1\n      swap2\n      add\n      swap3\n        /* \"#utility.yul\":5216:5509   */\n      swap2\n      pop\n      pop\n      jump\t// out\n        /* \"#utility.yul\":5514:5717   */\n    tag_47:\n      sub(shl(0xa0, 0x01), 0x01)\n        /* \"#utility.yul\":5678:5710   */\n      swap2\n      swap1\n      swap2\n      and\n        /* \"#utility.yul\":5660:5711   */\n      dup2\n      mstore\n        /* \"#utility.yul\":5648:5650   */\n      0x20\n        /* \"#utility.yul\":5633:5651   */\n      add\n      swap1\n        /* \"#utility.yul\":5615:5717   */\n      jump\t// out\n        /* \"#utility.yul\":5722:6097   */\n    tag_149:\n      sub(shl(0xa0, 0x01), 0x01)\n        /* \"#utility.yul\":5980:5995   */\n      swap4\n      dup5\n      and\n        /* \"#utility.yul\":5962:5996   */\n      dup2\n      mstore\n        /* \"#utility.yul\":6032:6047   */\n      swap2\n      swap1\n      swap3\n      and\n        /* \"#utility.yul\":6027:6029   */\n      0x20\n        /* \"#utility.yul\":6012:6030   */\n      dup3\n      add\n        /* \"#utility.yul\":6005:6048   */\n      mstore\n        /* \"#utility.yul\":6079:6081   */\n      0x40\n        /* \"#utility.yul\":6064:6082   */\n      dup2\n      add\n        /* \"#utility.yul\":6057:6091   */\n      swap2\n      swap1\n      swap2\n      mstore\n        /* \"#utility.yul\":5912:5914   */\n      0x60\n        /* \"#utility.yul\":5897:5915   */\n      add\n      swap1\n        /* \"#utility.yul\":5879:6097   */\n      jump\t// out\n        /* \"#utility.yul\":6102:6599   */\n    tag_52:\n      sub(shl(0xa0, 0x01), 0x01)\n        /* \"#utility.yul\":6389:6404   */\n      swap5\n      dup6\n      and\n        /* \"#utility.yul\":6371:6405   */\n      dup2\n      mstore\n      sub(shl(0x80, 0x01), 0x01)\n        /* \"#utility.yul\":6441:6488   */\n      swap4\n      swap1\n      swap4\n      and\n        /* \"#utility.yul\":6436:6438   */\n      0x20\n        /* \"#utility.yul\":6421:6439   */\n      dup5\n      add\n        /* \"#utility.yul\":6414:6489   */\n      mstore\n        /* \"#utility.yul\":6525:6540   */\n      swap1\n      dup4\n      and\n        /* \"#utility.yul\":6520:6522   */\n      0x40\n        /* \"#utility.yul\":6505:6523   */\n      dup4\n      add\n        /* \"#utility.yul\":6498:6541   */\n      mstore\n        /* \"#utility.yul\":6577:6592   */\n      swap1\n      swap2\n      and\n        /* \"#utility.yul\":6572:6574   */\n      0x60\n        /* \"#utility.yul\":6557:6575   */\n      dup3\n      add\n        /* \"#utility.yul\":6550:6593   */\n      mstore\n        /* \"#utility.yul\":6320:6323   */\n      0x80\n        /* \"#utility.yul\":6305:6324   */\n      add\n      swap1\n        /* \"#utility.yul\":6287:6599   */\n      jump\t// out\n        /* \"#utility.yul\":6604:6878   */\n    tag_164:\n      sub(shl(0xa0, 0x01), 0x01)\n        /* \"#utility.yul\":6796:6828   */\n      swap3\n      swap1\n      swap3\n      and\n        /* \"#utility.yul\":6778:6829   */\n      dup3\n      mstore\n        /* \"#utility.yul\":6860:6862   */\n      0x20\n        /* \"#utility.yul\":6845:6863   */\n      dup3\n      add\n        /* \"#utility.yul\":6838:6872   */\n      mstore\n        /* \"#utility.yul\":6766:6768   */\n      0x40\n        /* \"#utility.yul\":6751:6769   */\n      add\n      swap1\n        /* \"#utility.yul\":6733:6878   */\n      jump\t// out\n        /* \"#utility.yul\":6883:7085   */\n    tag_23:\n      not(sub(shl(0xe0, 0x01), 0x01))\n        /* \"#utility.yul\":7045:7078   */\n      swap2\n      swap1\n      swap2\n      and\n        /* \"#utility.yul\":7027:7079   */\n      dup2\n      mstore\n        /* \"#utility.yul\":7015:7017   */\n      0x20\n        /* \"#utility.yul\":7000:7018   */\n      add\n      swap1\n        /* \"#utility.yul\":6982:7085   */\n      jump\t// out\n        /* \"#utility.yul\":7334:7659   */\n    tag_174:\n        /* \"#utility.yul\":7536:7538   */\n      0x20\n        /* \"#utility.yul\":7518:7539   */\n      dup1\n      dup3\n      mstore\n        /* \"#utility.yul\":7575:7576   */\n      0x02\n        /* \"#utility.yul\":7555:7573   */\n      swap1\n      dup3\n      add\n        /* \"#utility.yul\":7548:7577   */\n      mstore\n      shl(0xf0, 0x5341)\n        /* \"#utility.yul\":7608:7610   */\n      0x40\n        /* \"#utility.yul\":7593:7611   */\n      dup3\n      add\n        /* \"#utility.yul\":7586:7618   */\n      mstore\n        /* \"#utility.yul\":7650:7652   */\n      0x60\n        /* \"#utility.yul\":7635:7653   */\n      add\n      swap1\n        /* \"#utility.yul\":7508:7659   */\n      jump\t// out\n        /* \"#utility.yul\":7664:8003   */\n    tag_63:\n        /* \"#utility.yul\":7866:7868   */\n      0x20\n        /* \"#utility.yul\":7848:7869   */\n      dup1\n      dup3\n      mstore\n        /* \"#utility.yul\":7905:7907   */\n      0x0f\n        /* \"#utility.yul\":7885:7903   */\n      swap1\n      dup3\n      add\n        /* \"#utility.yul\":7878:7908   */\n      mstore\n      shl(0x8a, 0x1b9bdd0818481d5b9a5d8cc81b999d)\n        /* \"#utility.yul\":7939:7941   */\n      0x40\n        /* \"#utility.yul\":7924:7942   */\n      dup3\n      add\n        /* \"#utility.yul\":7917:7962   */\n      mstore\n        /* \"#utility.yul\":7994:7996   */\n      0x60\n        /* \"#utility.yul\":7979:7997   */\n      add\n      swap1\n        /* \"#utility.yul\":7838:8003   */\n      jump\t// out\n        /* \"#utility.yul\":8008:8345   */\n    tag_124:\n        /* \"#utility.yul\":8210:8212   */\n      0x20\n        /* \"#utility.yul\":8192:8213   */\n      dup1\n      dup3\n      mstore\n        /* \"#utility.yul\":8249:8251   */\n      0x0d\n        /* \"#utility.yul\":8229:8247   */\n      swap1\n      dup3\n      add\n        /* \"#utility.yul\":8222:8252   */\n      mstore\n      shl(0x99, 0x2737ba103a34329037bbb732b9)\n        /* \"#utility.yul\":8283:8285   */\n      0x40\n        /* \"#utility.yul\":8268:8286   */\n      dup3\n      add\n        /* \"#utility.yul\":8261:8304   */\n      mstore\n        /* \"#utility.yul\":8336:8338   */\n      0x60\n        /* \"#utility.yul\":8321:8339   */\n      add\n      swap1\n        /* \"#utility.yul\":8182:8345   */\n      jump\t// out\n        /* \"#utility.yul\":8350:8675   */\n    tag_186:\n        /* \"#utility.yul\":8552:8554   */\n      0x20\n        /* \"#utility.yul\":8534:8555   */\n      dup1\n      dup3\n      mstore\n        /* \"#utility.yul\":8591:8592   */\n      0x02\n        /* \"#utility.yul\":8571:8589   */\n      swap1\n      dup3\n      add\n        /* \"#utility.yul\":8564:8593   */\n      mstore\n      shl(0xf2, 0x14d5)\n        /* \"#utility.yul\":8624:8626   */\n      0x40\n        /* \"#utility.yul\":8609:8627   */\n      dup3\n      add\n        /* \"#utility.yul\":8602:8634   */\n      mstore\n        /* \"#utility.yul\":8666:8668   */\n      0x60\n        /* \"#utility.yul\":8651:8669   */\n      add\n      swap1\n        /* \"#utility.yul\":8524:8675   */\n      jump\t// out\n        /* \"#utility.yul\":8680:9006   */\n    tag_161:\n        /* \"#utility.yul\":8882:8884   */\n      0x20\n        /* \"#utility.yul\":8864:8885   */\n      dup1\n      dup3\n      mstore\n        /* \"#utility.yul\":8921:8922   */\n      0x03\n        /* \"#utility.yul\":8901:8919   */\n      swap1\n      dup3\n      add\n        /* \"#utility.yul\":8894:8923   */\n      mstore\n      shl(0xe9, 0x29aa23)\n        /* \"#utility.yul\":8954:8956   */\n      0x40\n        /* \"#utility.yul\":8939:8957   */\n      dup3\n      add\n        /* \"#utility.yul\":8932:8965   */\n      mstore\n        /* \"#utility.yul\":8997:8999   */\n      0x60\n        /* \"#utility.yul\":8982:9000   */\n      add\n      swap1\n        /* \"#utility.yul\":8854:9006   */\n      jump\t// out\n        /* \"#utility.yul\":9011:9585   */\n    tag_93:\n        /* \"#utility.yul\":9238:9251   */\n      dup2\n      mload\n        /* \"#utility.yul\":9220:9252   */\n      dup2\n      mstore\n        /* \"#utility.yul\":9312:9316   */\n      0x20\n        /* \"#utility.yul\":9300:9317   */\n      dup1\n      dup4\n      add\n        /* \"#utility.yul\":9294:9318   */\n      mload\n      sub(shl(0xa0, 0x01), 0x01)\n        /* \"#utility.yul\":9290:9340   */\n      and\n        /* \"#utility.yul\":9268:9288   */\n      swap1\n      dup3\n      add\n        /* \"#utility.yul\":9261:9341   */\n      mstore\n        /* \"#utility.yul\":9388:9392   */\n      0x40\n        /* \"#utility.yul\":9376:9393   */\n      dup1\n      dup4\n      add\n        /* \"#utility.yul\":9370:9394   */\n      mload\n      sub(shl(0x80, 0x01), 0x01)\n        /* \"#utility.yul\":9485:9506   */\n      swap1\n      dup2\n      and\n        /* \"#utility.yul\":9463:9483   */\n      swap2\n      dup4\n      add\n        /* \"#utility.yul\":9456:9507   */\n      swap2\n      swap1\n      swap2\n      mstore\n        /* \"#utility.yul\":9567:9571   */\n      0x60\n        /* \"#utility.yul\":9555:9572   */\n      swap3\n      dup4\n      add\n        /* \"#utility.yul\":9549:9573   */\n      mload\n        /* \"#utility.yul\":9545:9578   */\n      and\n        /* \"#utility.yul\":9523:9543   */\n      swap2\n      dup2\n      add\n        /* \"#utility.yul\":9516:9579   */\n      swap2\n      swap1\n      swap2\n      mstore\n        /* \"#utility.yul\":9207:9210   */\n      0x80\n        /* \"#utility.yul\":9192:9211   */\n      add\n      swap1\n        /* \"#utility.yul\":9174:9585   */\n      jump\t// out\n        /* \"#utility.yul\":9590:10150   */\n    tag_128:\n      0x00\n        /* \"#utility.yul\":9806:9809   */\n      0xa0\n        /* \"#utility.yul\":9795:9804   */\n      dup3\n        /* \"#utility.yul\":9791:9810   */\n      add\n        /* \"#utility.yul\":9783:9810   */\n      swap1\n      pop\n        /* \"#utility.yul\":9843:9849   */\n      dup3\n        /* \"#utility.yul\":9837:9850   */\n      mload\n        /* \"#utility.yul\":9826:9835   */\n      dup3\n        /* \"#utility.yul\":9819:9851   */\n      mstore\n      sub(shl(0x80, 0x01), 0x01)\n        /* \"#utility.yul\":9911:9915   */\n      0x20\n        /* \"#utility.yul\":9903:9909   */\n      dup5\n        /* \"#utility.yul\":9899:9916   */\n      add\n        /* \"#utility.yul\":9893:9917   */\n      mload\n        /* \"#utility.yul\":9889:9954   */\n      and\n        /* \"#utility.yul\":9882:9886   */\n      0x20\n        /* \"#utility.yul\":9871:9880   */\n      dup4\n        /* \"#utility.yul\":9867:9887   */\n      add\n        /* \"#utility.yul\":9860:9955   */\n      mstore\n        /* \"#utility.yul\":10011:10015   */\n      0x40\n        /* \"#utility.yul\":10003:10009   */\n      dup4\n        /* \"#utility.yul\":9999:10016   */\n      add\n        /* \"#utility.yul\":9993:10017   */\n      mload\n        /* \"#utility.yul\":9986:9990   */\n      0x40\n        /* \"#utility.yul\":9975:9984   */\n      dup4\n        /* \"#utility.yul\":9971:9991   */\n      add\n        /* \"#utility.yul\":9964:10018   */\n      mstore\n        /* \"#utility.yul\":10074:10078   */\n      0x60\n        /* \"#utility.yul\":10066:10072   */\n      dup4\n        /* \"#utility.yul\":10062:10079   */\n      add\n        /* \"#utility.yul\":10056:10080   */\n      mload\n        /* \"#utility.yul\":10049:10053   */\n      0x60\n        /* \"#utility.yul\":10038:10047   */\n      dup4\n        /* \"#utility.yul\":10034:10054   */\n      add\n        /* \"#utility.yul\":10027:10081   */\n      mstore\n        /* \"#utility.yul\":10137:10141   */\n      0x80\n        /* \"#utility.yul\":10129:10135   */\n      dup4\n        /* \"#utility.yul\":10125:10142   */\n      add\n        /* \"#utility.yul\":10119:10143   */\n      mload\n        /* \"#utility.yul\":10112:10116   */\n      0x80\n        /* \"#utility.yul\":10101:10110   */\n      dup4\n        /* \"#utility.yul\":10097:10117   */\n      add\n        /* \"#utility.yul\":10090:10144   */\n      mstore\n        /* \"#utility.yul\":9773:10150   */\n      swap3\n      swap2\n      pop\n      pop\n      jump\t// out\n        /* \"#utility.yul\":10155:10737   */\n    tag_107:\n      0x00\n        /* \"#utility.yul\":10371:10374   */\n      0xc0\n        /* \"#utility.yul\":10360:10369   */\n      dup3\n        /* \"#utility.yul\":10356:10375   */\n      add\n        /* \"#utility.yul\":10348:10375   */\n      swap1\n      pop\n        /* \"#utility.yul\":10408:10414   */\n      dup3\n        /* \"#utility.yul\":10402:10415   */\n      mload\n        /* \"#utility.yul\":10391:10400   */\n      dup3\n        /* \"#utility.yul\":10384:10416   */\n      mstore\n        /* \"#utility.yul\":10472:10476   */\n      0x20\n        /* \"#utility.yul\":10464:10470   */\n      dup4\n        /* \"#utility.yul\":10460:10477   */\n      add\n        /* \"#utility.yul\":10454:10478   */\n      mload\n        /* \"#utility.yul\":10447:10451   */\n      0x20\n        /* \"#utility.yul\":10436:10445   */\n      dup4\n        /* \"#utility.yul\":10432:10452   */\n      add\n        /* \"#utility.yul\":10425:10479   */\n      mstore\n        /* \"#utility.yul\":10535:10539   */\n      0x40\n        /* \"#utility.yul\":10527:10533   */\n      dup4\n        /* \"#utility.yul\":10523:10540   */\n      add\n        /* \"#utility.yul\":10517:10541   */\n      mload\n        /* \"#utility.yul\":10510:10514   */\n      0x40\n        /* \"#utility.yul\":10499:10508   */\n      dup4\n        /* \"#utility.yul\":10495:10515   */\n      add\n        /* \"#utility.yul\":10488:10542   */\n      mstore\n        /* \"#utility.yul\":10598:10602   */\n      0x60\n        /* \"#utility.yul\":10590:10596   */\n      dup4\n        /* \"#utility.yul\":10586:10603   */\n      add\n        /* \"#utility.yul\":10580:10604   */\n      mload\n        /* \"#utility.yul\":10573:10577   */\n      0x60\n        /* \"#utility.yul\":10562:10571   */\n      dup4\n        /* \"#utility.yul\":10558:10578   */\n      add\n        /* \"#utility.yul\":10551:10605   */\n      mstore\n        /* \"#utility.yul\":10661:10665   */\n      0x80\n        /* \"#utility.yul\":10653:10659   */\n      dup4\n        /* \"#utility.yul\":10649:10666   */\n      add\n        /* \"#utility.yul\":10643:10667   */\n      mload\n        /* \"#utility.yul\":10636:10640   */\n      0x80\n        /* \"#utility.yul\":10625:10634   */\n      dup4\n        /* \"#utility.yul\":10621:10641   */\n      add\n        /* \"#utility.yul\":10614:10668   */\n      mstore\n        /* \"#utility.yul\":10724:10728   */\n      0xa0\n        /* \"#utility.yul\":10716:10722   */\n      dup4\n        /* \"#utility.yul\":10712:10729   */\n      add\n        /* \"#utility.yul\":10706:10730   */\n      mload\n        /* \"#utility.yul\":10699:10703   */\n      0xa0\n        /* \"#utility.yul\":10688:10697   */\n      dup4\n        /* \"#utility.yul\":10684:10704   */\n      add\n        /* \"#utility.yul\":10677:10731   */\n      mstore\n        /* \"#utility.yul\":10338:10737   */\n      swap3\n      swap2\n      pop\n      pop\n      jump\t// out\n        /* \"#utility.yul\":10742:11976   */\n    tag_74:\n      0x00\n        /* \"#utility.yul\":10932:10935   */\n      0x0160\n        /* \"#utility.yul\":10921:10930   */\n      dup3\n        /* \"#utility.yul\":10917:10936   */\n      add\n        /* \"#utility.yul\":10909:10936   */\n      swap1\n      pop\n        /* \"#utility.yul\":10945:10991   */\n      tag_271\n        /* \"#utility.yul\":10981:10990   */\n      dup3\n        /* \"#utility.yul\":10972:10978   */\n      dup5\n        /* \"#utility.yul\":10966:10979   */\n      mload\n        /* \"#utility.yul\":10945:10991   */\n      tag_245\n      jump\t// in\n    tag_271:\n        /* \"#utility.yul\":11038:11042   */\n      0x20\n        /* \"#utility.yul\":11030:11036   */\n      dup4\n        /* \"#utility.yul\":11026:11043   */\n      add\n        /* \"#utility.yul\":11020:11044   */\n      mload\n        /* \"#utility.yul\":11053:11109   */\n      tag_272\n        /* \"#utility.yul\":11103:11107   */\n      0x20\n        /* \"#utility.yul\":11092:11101   */\n      dup5\n        /* \"#utility.yul\":11088:11108   */\n      add\n        /* \"#utility.yul\":11074:11086   */\n      dup3\n        /* \"#utility.yul\":11053:11109   */\n      tag_245\n      jump\t// in\n    tag_272:\n      pop\n        /* \"#utility.yul\":11158:11162   */\n      0x40\n        /* \"#utility.yul\":11150:11156   */\n      dup4\n        /* \"#utility.yul\":11146:11163   */\n      add\n        /* \"#utility.yul\":11140:11164   */\n      mload\n        /* \"#utility.yul\":11173:11230   */\n      tag_273\n        /* \"#utility.yul\":11224:11228   */\n      0x40\n        /* \"#utility.yul\":11213:11222   */\n      dup5\n        /* \"#utility.yul\":11209:11229   */\n      add\n        /* \"#utility.yul\":11193:11207   */\n      dup3\n        /* \"#utility.yul\":11173:11230   */\n      tag_249\n      jump\t// in\n    tag_273:\n      pop\n        /* \"#utility.yul\":11279:11283   */\n      0x60\n        /* \"#utility.yul\":11271:11277   */\n      dup4\n        /* \"#utility.yul\":11267:11284   */\n      add\n        /* \"#utility.yul\":11261:11285   */\n      mload\n        /* \"#utility.yul\":11294:11350   */\n      tag_274\n        /* \"#utility.yul\":11344:11348   */\n      0x60\n        /* \"#utility.yul\":11333:11342   */\n      dup5\n        /* \"#utility.yul\":11329:11349   */\n      add\n        /* \"#utility.yul\":11313:11327   */\n      dup3\n        /* \"#utility.yul\":11294:11350   */\n      tag_247\n      jump\t// in\n    tag_274:\n      pop\n        /* \"#utility.yul\":11399:11403   */\n      0x80\n        /* \"#utility.yul\":11391:11397   */\n      dup4\n        /* \"#utility.yul\":11387:11404   */\n      add\n        /* \"#utility.yul\":11381:11405   */\n      mload\n        /* \"#utility.yul\":11414:11470   */\n      tag_275\n        /* \"#utility.yul\":11464:11468   */\n      0x80\n        /* \"#utility.yul\":11453:11462   */\n      dup5\n        /* \"#utility.yul\":11449:11469   */\n      add\n        /* \"#utility.yul\":11433:11447   */\n      dup3\n        /* \"#utility.yul\":11414:11470   */\n      tag_247\n      jump\t// in\n    tag_275:\n      pop\n        /* \"#utility.yul\":11526:11530   */\n      0xa0\n        /* \"#utility.yul\":11518:11524   */\n      dup4\n        /* \"#utility.yul\":11514:11531   */\n      add\n        /* \"#utility.yul\":11508:11532   */\n      mload\n        /* \"#utility.yul\":11501:11505   */\n      0xa0\n        /* \"#utility.yul\":11490:11499   */\n      dup4\n        /* \"#utility.yul\":11486:11506   */\n      add\n        /* \"#utility.yul\":11479:11533   */\n      mstore\n        /* \"#utility.yul\":11589:11593   */\n      0xc0\n        /* \"#utility.yul\":11581:11587   */\n      dup4\n        /* \"#utility.yul\":11577:11594   */\n      add\n        /* \"#utility.yul\":11571:11595   */\n      mload\n        /* \"#utility.yul\":11564:11568   */\n      0xc0\n        /* \"#utility.yul\":11553:11562   */\n      dup4\n        /* \"#utility.yul\":11549:11569   */\n      add\n        /* \"#utility.yul\":11542:11596   */\n      mstore\n        /* \"#utility.yul\":11652:11656   */\n      0xe0\n        /* \"#utility.yul\":11644:11650   */\n      dup4\n        /* \"#utility.yul\":11640:11657   */\n      add\n        /* \"#utility.yul\":11634:11658   */\n      mload\n        /* \"#utility.yul\":11627:11631   */\n      0xe0\n        /* \"#utility.yul\":11616:11625   */\n      dup4\n        /* \"#utility.yul\":11612:11632   */\n      add\n        /* \"#utility.yul\":11605:11659   */\n      mstore\n        /* \"#utility.yul\":11678:11684   */\n      0x0100\n        /* \"#utility.yul\":11738:11740   */\n      dup1\n        /* \"#utility.yul\":11730:11736   */\n      dup5\n        /* \"#utility.yul\":11726:11741   */\n      add\n        /* \"#utility.yul\":11720:11742   */\n      mload\n        /* \"#utility.yul\":11715:11717   */\n      dup2\n        /* \"#utility.yul\":11704:11713   */\n      dup5\n        /* \"#utility.yul\":11700:11718   */\n      add\n        /* \"#utility.yul\":11693:11743   */\n      mstore\n      pop\n        /* \"#utility.yul\":11762:11768   */\n      0x0120\n        /* \"#utility.yul\":11817:11819   */\n      dup1\n        /* \"#utility.yul\":11809:11815   */\n      dup5\n        /* \"#utility.yul\":11805:11820   */\n      add\n        /* \"#utility.yul\":11799:11821   */\n      mload\n        /* \"#utility.yul\":11830:11886   */\n      tag_276\n        /* \"#utility.yul\":11882:11884   */\n      dup3\n        /* \"#utility.yul\":11871:11880   */\n      dup6\n        /* \"#utility.yul\":11867:11885   */\n      add\n        /* \"#utility.yul\":11851:11865   */\n      dup3\n        /* \"#utility.yul\":11830:11886   */\n      tag_245\n      jump\t// in\n    tag_276:\n      pop\n      pop\n        /* \"#utility.yul\":11905:11911   */\n      0x0140\n        /* \"#utility.yul\":11953:11968   */\n      swap3\n      dup4\n      add\n        /* \"#utility.yul\":11947:11969   */\n      mload\n        /* \"#utility.yul\":11927:11945   */\n      swap2\n      swap1\n      swap3\n      add\n        /* \"#utility.yul\":11920:11970   */\n      mstore\n        /* \"#utility.yul\":10899:11976   */\n      swap1\n      jump\t// out\n        /* \"#utility.yul\":11981:12341   */\n    tag_39:\n      sub(shl(0x80, 0x01), 0x01)\n        /* \"#utility.yul\":12201:12248   */\n      swap4\n      swap1\n      swap4\n      and\n        /* \"#utility.yul\":12183:12249   */\n      dup4\n      mstore\n        /* \"#utility.yul\":12280:12282   */\n      0x20\n        /* \"#utility.yul\":12265:12283   */\n      dup4\n      add\n        /* \"#utility.yul\":12258:12292   */\n      swap2\n      swap1\n      swap2\n      mstore\n        /* \"#utility.yul\":12323:12325   */\n      0x40\n        /* \"#utility.yul\":12308:12326   */\n      dup3\n      add\n        /* \"#utility.yul\":12301:12335   */\n      mstore\n        /* \"#utility.yul\":12171:12173   */\n      0x60\n        /* \"#utility.yul\":12156:12174   */\n      add\n      swap1\n        /* \"#utility.yul\":12138:12341   */\n      jump\t// out\n        /* \"#utility.yul\":12346:12536   */\n    tag_17:\n        /* \"#utility.yul\":12520:12528   */\n      0xffffff\n        /* \"#utility.yul\":12508:12529   */\n      swap2\n      swap1\n      swap2\n      and\n        /* \"#utility.yul\":12490:12530   */\n      dup2\n      mstore\n        /* \"#utility.yul\":12478:12480   */\n      0x20\n        /* \"#utility.yul\":12463:12481   */\n      add\n      swap1\n        /* \"#utility.yul\":12445:12536   */\n      jump\t// out\n        /* \"#utility.yul\":12541:12718   */\n    tag_141:\n        /* \"#utility.yul\":12687:12712   */\n      swap1\n      dup2\n      mstore\n        /* \"#utility.yul\":12675:12677   */\n      0x20\n        /* \"#utility.yul\":12660:12678   */\n      add\n      swap1\n        /* \"#utility.yul\":12642:12718   */\n      jump\t// out\n        /* \"#utility.yul\":12723:13155   */\n    tag_27:\n        /* \"#utility.yul\":12954:12979   */\n      swap4\n      dup5\n      mstore\n      sub(shl(0x80, 0x01), 0x01)\n        /* \"#utility.yul\":13015:13062   */\n      swap3\n      swap1\n      swap3\n      and\n        /* \"#utility.yul\":13010:13012   */\n      0x20\n        /* \"#utility.yul\":12995:13013   */\n      dup5\n      add\n        /* \"#utility.yul\":12988:13063   */\n      mstore\n        /* \"#utility.yul\":13094:13096   */\n      0x40\n        /* \"#utility.yul\":13079:13097   */\n      dup4\n      add\n        /* \"#utility.yul\":13072:13106   */\n      mstore\n        /* \"#utility.yul\":13137:13139   */\n      0x60\n        /* \"#utility.yul\":13122:13140   */\n      dup3\n      add\n        /* \"#utility.yul\":13115:13149   */\n      mstore\n        /* \"#utility.yul\":12941:12944   */\n      0x80\n        /* \"#utility.yul\":12926:12945   */\n      add\n      swap1\n        /* \"#utility.yul\":12908:13155   */\n      jump\t// out\n        /* \"#utility.yul\":13160:13408   */\n    tag_33:\n        /* \"#utility.yul\":13334:13359   */\n      swap2\n      dup3\n      mstore\n        /* \"#utility.yul\":13390:13392   */\n      0x20\n        /* \"#utility.yul\":13375:13393   */\n      dup3\n      add\n        /* \"#utility.yul\":13368:13402   */\n      mstore\n        /* \"#utility.yul\":13322:13324   */\n      0x40\n        /* \"#utility.yul\":13307:13325   */\n      add\n      swap1\n        /* \"#utility.yul\":13289:13408   */\n      jump\t// out\n        /* \"#utility.yul\":13413:13629   */\n    tag_126:\n      0x00\n      sub(shl(0x80, 0x01), 0x01)\n        /* \"#utility.yul\":13540:13542   */\n      dup1\n        /* \"#utility.yul\":13537:13538   */\n      dup5\n        /* \"#utility.yul\":13533:13543   */\n      and\n        /* \"#utility.yul\":13562:13565   */\n      dup1\n        /* \"#utility.yul\":13552:13554   */\n      tag_284\n      jumpi\n        /* \"#utility.yul\":13569:13587   */\n      tag_284\n      tag_285\n      jump\t// in\n    tag_284:\n        /* \"#utility.yul\":13607:13617   */\n      swap3\n      and\n        /* \"#utility.yul\":13603:13623   */\n      swap2\n      swap1\n      swap2\n      div\n      swap3\n        /* \"#utility.yul\":13459:13629   */\n      swap2\n      pop\n      pop\n      jump\t// out\n        /* \"#utility.yul\":13634:13754   */\n    tag_192:\n      0x00\n        /* \"#utility.yul\":13700:13701   */\n      dup3\n        /* \"#utility.yul\":13690:13692   */\n      tag_288\n      jumpi\n        /* \"#utility.yul\":13705:13723   */\n      tag_288\n      tag_285\n      jump\t// in\n    tag_288:\n      pop\n        /* \"#utility.yul\":13739:13748   */\n      div\n      swap1\n        /* \"#utility.yul\":13680:13754   */\n      jump\t// out\n        /* \"#utility.yul\":13759:13927   */\n    tag_190:\n      0x00\n        /* \"#utility.yul\":13865:13866   */\n      dup2\n        /* \"#utility.yul\":13861:13862   */\n      0x00\n        /* \"#utility.yul\":13857:13863   */\n      not\n        /* \"#utility.yul\":13853:13867   */\n      div\n        /* \"#utility.yul\":13850:13851   */\n      dup4\n        /* \"#utility.yul\":13847:13868   */\n      gt\n        /* \"#utility.yul\":13842:13843   */\n      dup3\n        /* \"#utility.yul\":13835:13844   */\n      iszero\n        /* \"#utility.yul\":13828:13845   */\n      iszero\n        /* \"#utility.yul\":13824:13869   */\n      and\n        /* \"#utility.yul\":13821:13823   */\n      iszero\n      tag_291\n      jumpi\n        /* \"#utility.yul\":13872:13890   */\n      tag_291\n      tag_292\n      jump\t// in\n    tag_291:\n      pop\n        /* \"#utility.yul\":13912:13921   */\n      mul\n      swap1\n        /* \"#utility.yul\":13811:13927   */\n      jump\t// out\n        /* \"#utility.yul\":13932:14057   */\n    tag_84:\n      0x00\n        /* \"#utility.yul\":14000:14001   */\n      dup3\n        /* \"#utility.yul\":13997:13998   */\n      dup3\n        /* \"#utility.yul\":13994:14002   */\n      lt\n        /* \"#utility.yul\":13991:13993   */\n      iszero\n      tag_295\n      jumpi\n        /* \"#utility.yul\":14005:14023   */\n      tag_295\n      tag_292\n      jump\t// in\n    tag_295:\n      pop\n        /* \"#utility.yul\":14042:14051   */\n      sub\n      swap1\n        /* \"#utility.yul\":13981:14057   */\n      jump\t// out\n        /* \"#utility.yul\":14062:14189   */\n    tag_292:\n        /* \"#utility.yul\":14123:14133   */\n      0x4e487b71\n        /* \"#utility.yul\":14118:14121   */\n      0xe0\n        /* \"#utility.yul\":14114:14134   */\n      shl\n        /* \"#utility.yul\":14111:14112   */\n      0x00\n        /* \"#utility.yul\":14104:14135   */\n      mstore\n        /* \"#utility.yul\":14154:14158   */\n      0x11\n        /* \"#utility.yul\":14151:14152   */\n      0x04\n        /* \"#utility.yul\":14144:14159   */\n      mstore\n        /* \"#utility.yul\":14178:14182   */\n      0x24\n        /* \"#utility.yul\":14175:14176   */\n      0x00\n        /* \"#utility.yul\":14168:14183   */\n      revert\n        /* \"#utility.yul\":14194:14321   */\n    tag_285:\n        /* \"#utility.yul\":14255:14265   */\n      0x4e487b71\n        /* \"#utility.yul\":14250:14253   */\n      0xe0\n        /* \"#utility.yul\":14246:14266   */\n      shl\n        /* \"#utility.yul\":14243:14244   */\n      0x00\n        /* \"#utility.yul\":14236:14267   */\n      mstore\n        /* \"#utility.yul\":14286:14290   */\n      0x12\n        /* \"#utility.yul\":14283:14284   */\n      0x04\n        /* \"#utility.yul\":14276:14291   */\n      mstore\n        /* \"#utility.yul\":14310:14314   */\n      0x24\n        /* \"#utility.yul\":14307:14308   */\n      0x00\n        /* \"#utility.yul\":14300:14315   */\n      revert\n        /* \"#utility.yul\":14326:14459   */\n    tag_200:\n      sub(shl(0xa0, 0x01), 0x01)\n        /* \"#utility.yul\":14403:14434   */\n      dup2\n      and\n        /* \"#utility.yul\":14393:14435   */\n      dup2\n      eq\n        /* \"#utility.yul\":14383:14385   */\n      tag_299\n      jumpi\n        /* \"#utility.yul\":14449:14450   */\n      0x00\n        /* \"#utility.yul\":14446:14447   */\n      dup1\n        /* \"#utility.yul\":14439:14451   */\n      revert\n        /* \"#utility.yul\":14383:14385   */\n    tag_299:\n        /* \"#utility.yul\":14373:14459   */\n      pop\n      jump\t// out\n    stop\n    data_65cfeff779fe42d2d5b4c2c078348cb18abbc731a2e3837262888dd9b50bb10e 000000000000000000000000c36442b4a4522e871399cd717abdd847ab11fe88\n\n    auxdata: 0xa2646970667358221220225e377ebefa2947160d5469786e2bee6a37935767bf201d20b457a848b0d65964736f6c63430008000033\n}\n",
				"bytecode": {
					"linkReferences": {},
					"object": "608060405234801561001057600080fd5b506115a4806100206000396000f3fe608060405234801561001057600080fd5b506004361061009e5760003560e01c80638187b4c5116100665780638187b4c51461013c57806389a302711461014f578063b02c43d014610164578063b44a272214610187578063e0bab4c41461018f5761009e565b8063089fe6aa146100a3578063150b7a02146100c1578063306d9c61146100e157806346ce96dd146100f9578063617d6d6e1461011a575b600080fd5b6100ab610197565b6040516100b8919061144f565b60405180910390f35b6100d46100cf366004610eac565b61019d565b6040516100b891906111fc565b6100e96101f1565b6040516100b89493929190611468565b61010c610107366004610fa1565b610482565b6040516100b892919061148c565b61012d610128366004611017565b610544565b6040516100b89392919061142e565b61010c61014a366004610fa1565b6106f5565b6101576108f4565b6040516100b89190611177565b610177610172366004610fa1565b61090c565b6040516100b894939291906111af565b61015761094c565b61015761095e565b6101f481565b60003360008051602061154f833981519152146101d55760405162461bcd60e51b81526004016101cc9061122d565b60405180910390fd5b6101df8685610976565b50630a85bd0160e11b95945050505050565b60008080806305f5e10063060438e0610220733db4b7da67dd5af61cb9b3c70501b1bdb24b2c22333085610b23565b61024073da10009cbd5d07dd0cecc66161fc93d7c9000da1333084610b23565b61026d733db4b7da67dd5af61cb9b3c70501b1bdb24b2c2260008051602061154f83398151915284610c1b565b61029a73da10009cbd5d07dd0cecc66161fc93d7c9000da160008051602061154f83398151915283610c1b565b6040805161016081018252733db4b7da67dd5af61cb9b3c70501b1bdb24b2c22815273da10009cbd5d07dd0cecc66161fc93d7c9000da160208201526101f481830152610419196060820152610410608082015260a0810184905260c08101839052600060e0820181905261010082015230610120820152426101408201529051634418b22b60e11b815260008051602061154f83398151915290638831645690610349908490600401611380565b608060405180830381600087803b15801561036357600080fd5b505af1158015610377573d6000803e3d6000fd5b505050506040513d601f19601f8201168201806040525081019061039b9190610fb9565b929950909750955093506103af3388610976565b82851015610414576103e5733db4b7da67dd5af61cb9b3c70501b1bdb24b2c2260008051602061154f8339815191526000610c1b565b60006103f186856114f3565b9050610412733db4b7da67dd5af61cb9b3c70501b1bdb24b2c223383610d10565b505b818410156104795761044a73da10009cbd5d07dd0cecc66161fc93d7c9000da160008051602061154f8339815191526000610c1b565b600061045685846114f3565b905061047773da10009cbd5d07dd0cecc66161fc93d7c9000da13383610d10565b505b50505090919293565b604080516080810182528281523060208201526001600160801b038183018190526060820152905163fc6f786560e01b8152600091829160008051602061154f8339815191529063fc6f7865906104dd9084906004016112b6565b6040805180830381600087803b1580156104f657600080fd5b505af115801561050a573d6000803e3d6000fd5b505050506040513d601f19601f8201168201806040525081019061052e9190610ff4565b909350915061053e848484610dfe565b50915091565b60008381526020819052604081206002810154600390910154829182916001600160a01b03918216911661057a8233308a610b23565b61058681333089610b23565b61059f8260008051602061154f83398151915289610c1b565b6105b88160008051602061154f83398151915288610c1b565b6040805160c0810182528981526020810189905280820188905260006060820181905260808201524260a0820152905163219f5d1760e01b815260008051602061154f8339815191529063219f5d179061061690849060040161133c565b606060405180830381600087803b15801561063057600080fd5b505af1158015610644573d6000803e3d6000fd5b505050506040513d601f19601f820116820180604052508101906106689190610f6d565b91975095509350878510156106ac576106918360008051602061154f8339815191526000610c1b565b600061069d868a6114f3565b90506106aa843383610d10565b505b868410156106e9576106ce8260008051602061154f8339815191526000610c1b565b60006106da85896114f3565b90506106e7833383610d10565b505b50505093509350939050565b60008181526020819052604081205481906001600160a01b0316331461072d5760405162461bcd60e51b81526004016101cc90611256565b6000838152602081905260408120600101546001600160801b03169061075460028361149a565b905060006040518060a00160405280878152602001836001600160801b03168152602001600081526020016000815260200142815250905060006040518060800160405280888152602001306001600160a01b031681526020016001600160801b03801681526020016001600160801b038016815250905060008051602061154f8339815191526001600160a01b0316630c49ccbe836040518263ffffffff1660e01b815260040161080691906112f9565b6040805180830381600087803b15801561081f57600080fd5b505af1158015610833573d6000803e3d6000fd5b505050506040513d601f19601f820116820180604052508101906108579190610ff4565b60405163fc6f786560e01b8152919750955060008051602061154f8339815191529063fc6f78659061088d9084906004016112b6565b6040805180830381600087803b1580156108a657600080fd5b505af11580156108ba573d6000803e3d6000fd5b505050506040513d601f19601f820116820180604052508101906108de9190610ff4565b50506108eb878787610dfe565b50505050915091565b733db4b7da67dd5af61cb9b3c70501b1bdb24b2c2281565b60006020819052908152604090208054600182015460028301546003909301546001600160a01b03928316936001600160801b0390921692918216911684565b60008051602061154f83398151915281565b73da10009cbd5d07dd0cecc66161fc93d7c9000da181565b60405163133f757160e31b81526000908190819060008051602061154f833981519152906399fbab88906109ae90879060040161145f565b6101806040518083038186803b1580156109c757600080fd5b505afa1580156109db573d6000803e3d6000fd5b505050506040513d601f19601f820116820180604052508101906109ff9190611042565b5050505097505050509450945050506040518060800160405280866001600160a01b03168152602001826001600160801b03168152602001846001600160a01b03168152602001836001600160a01b031681525060008086815260200190815260200160002060008201518160000160006101000a8154816001600160a01b0302191690836001600160a01b0316021790555060208201518160010160006101000a8154816001600160801b0302191690836001600160801b0316021790555060408201518160020160006101000a8154816001600160a01b0302191690836001600160a01b0316021790555060608201518160030160006101000a8154816001600160a01b0302191690836001600160a01b031602179055509050505050505050565b600080856001600160a01b03166323b872dd60e01b868686604051602401610b4d9392919061118b565b60408051601f198184030181529181526020820180516001600160e01b03166001600160e01b0319909416939093179092529051610b8b919061113e565b6000604051808303816000865af19150503d8060008114610bc8576040519150601f19603f3d011682016040523d82523d6000602084013e610bcd565b606091505b5091509150818015610bf7575080511580610bf7575080806020019051810190610bf79190610f46565b610c135760405162461bcd60e51b81526004016101cc90611299565b505050505050565b600080846001600160a01b031663095ea7b360e01b8585604051602401610c439291906111e3565b60408051601f198184030181529181526020820180516001600160e01b03166001600160e01b0319909416939093179092529051610c81919061113e565b6000604051808303816000865af19150503d8060008114610cbe576040519150601f19603f3d011682016040523d82523d6000602084013e610cc3565b606091505b5091509150818015610ced575080511580610ced575080806020019051810190610ced9190610f46565b610d095760405162461bcd60e51b81526004016101cc90611211565b5050505050565b600080846001600160a01b031663a9059cbb60e01b8585604051602401610d389291906111e3565b60408051601f198184030181529181526020820180516001600160e01b03166001600160e01b0319909416939093179092529051610d76919061113e565b6000604051808303816000865af19150503d8060008114610db3576040519150601f19603f3d011682016040523d82523d6000602084013e610db8565b606091505b5091509150818015610de2575080511580610de2575080806020019051810190610de29190610f46565b610d095760405162461bcd60e51b81526004016101cc9061127d565b6000838152602081905260409020805460028201546003909201546001600160a01b039182169282169116610e4c82846103e8610e3d896103de6114d4565b610e4791906114c0565b610d10565b610c1381846103e8610e3d886103de6114d4565b8051610e6b81611536565b919050565b8051600281900b8114610e6b57600080fd5b80516001600160801b0381168114610e6b57600080fd5b805162ffffff81168114610e6b57600080fd5b600080600080600060808688031215610ec3578081fd5b8535610ece81611536565b94506020860135610ede81611536565b935060408601359250606086013567ffffffffffffffff80821115610f01578283fd5b818801915088601f830112610f14578283fd5b813581811115610f22578384fd5b896020828501011115610f33578384fd5b9699959850939650602001949392505050565b600060208284031215610f57578081fd5b81518015158114610f66578182fd5b9392505050565b600080600060608486031215610f81578283fd5b610f8a84610e82565b925060208401519150604084015190509250925092565b600060208284031215610fb2578081fd5b5035919050565b60008060008060808587031215610fce578384fd5b84519350610fde60208601610e82565b6040860151606090960151949790965092505050565b60008060408385031215611006578182fd5b505080516020909101519092909150565b60008060006060848603121561102b578283fd5b505081359360208301359350604090920135919050565b6000806000806000806000806000806000806101808d8f031215611064578687fd5b8c516bffffffffffffffffffffffff8116811461107f578788fd5b9b5061108d60208e01610e60565b9a5061109b60408e01610e60565b99506110a960608e01610e60565b98506110b760808e01610e99565b97506110c560a08e01610e70565b96506110d360c08e01610e70565b95506110e160e08e01610e82565b94506101008d015193506101208d015192506111006101408e01610e82565b915061110f6101608e01610e82565b90509295989b509295989b509295989b565b6001600160a01b03169052565b60020b9052565b62ffffff169052565b60008251815b8181101561115e5760208186018101518583015201611144565b8181111561116c5782828501525b509190910192915050565b6001600160a01b0391909116815260200190565b6001600160a01b039384168152919092166020820152604081019190915260600190565b6001600160a01b0394851681526001600160801b039390931660208401529083166040830152909116606082015260800190565b6001600160a01b03929092168252602082015260400190565b6001600160e01b031991909116815260200190565b602080825260029082015261534160f01b604082015260600190565b6020808252600f908201526e1b9bdd0818481d5b9a5d8cc81b999d608a1b604082015260600190565b6020808252600d908201526c2737ba103a34329037bbb732b960991b604082015260600190565b60208082526002908201526114d560f21b604082015260600190565b60208082526003908201526229aa2360e91b604082015260600190565b815181526020808301516001600160a01b0316908201526040808301516001600160801b0390811691830191909152606092830151169181019190915260800190565b600060a082019050825182526001600160801b03602084015116602083015260408301516040830152606083015160608301526080830151608083015292915050565b600060c082019050825182526020830151602083015260408301516040830152606083015160608301526080830151608083015260a083015160a083015292915050565b600061016082019050611394828451611121565b60208301516113a66020840182611121565b5060408301516113b96040840182611135565b5060608301516113cc606084018261112e565b5060808301516113df608084018261112e565b5060a083015160a083015260c083015160c083015260e083015160e08301526101008084015181840152506101208084015161141d82850182611121565b505061014092830151919092015290565b6001600160801b039390931683526020830191909152604082015260600190565b62ffffff91909116815260200190565b90815260200190565b9384526001600160801b039290921660208401526040830152606082015260800190565b918252602082015260400190565b60006001600160801b03808416806114b4576114b4611520565b92169190910492915050565b6000826114cf576114cf611520565b500490565b60008160001904831182151516156114ee576114ee61150a565b500290565b6000828210156115055761150561150a565b500390565b634e487b7160e01b600052601160045260246000fd5b634e487b7160e01b600052601260045260246000fd5b6001600160a01b038116811461154b57600080fd5b5056fe000000000000000000000000c36442b4a4522e871399cd717abdd847ab11fe88a2646970667358221220225e377ebefa2947160d5469786e2bee6a37935767bf201d20b457a848b0d65964736f6c63430008000033",
					"opcodes": "PUSH1 0x80 PUSH1 0x40 MSTORE CALLVALUE DUP1 ISZERO PUSH2 0x10 JUMPI PUSH1 0x0 DUP1 REVERT JUMPDEST POP PUSH2 0x15A4 DUP1 PUSH2 0x20 PUSH1 0x0 CODECOPY PUSH1 0x0 RETURN INVALID PUSH1 0x80 PUSH1 0x40 MSTORE CALLVALUE DUP1 ISZERO PUSH2 0x10 JUMPI PUSH1 0x0 DUP1 REVERT JUMPDEST POP PUSH1 0x4 CALLDATASIZE LT PUSH2 0x9E JUMPI PUSH1 0x0 CALLDATALOAD PUSH1 0xE0 SHR DUP1 PUSH4 0x8187B4C5 GT PUSH2 0x66 JUMPI DUP1 PUSH4 0x8187B4C5 EQ PUSH2 0x13C JUMPI DUP1 PUSH4 0x89A30271 EQ PUSH2 0x14F JUMPI DUP1 PUSH4 0xB02C43D0 EQ PUSH2 0x164 JUMPI DUP1 PUSH4 0xB44A2722 EQ PUSH2 0x187 JUMPI DUP1 PUSH4 0xE0BAB4C4 EQ PUSH2 0x18F JUMPI PUSH2 0x9E JUMP JUMPDEST DUP1 PUSH4 0x89FE6AA EQ PUSH2 0xA3 JUMPI DUP1 PUSH4 0x150B7A02 EQ PUSH2 0xC1 JUMPI DUP1 PUSH4 0x306D9C61 EQ PUSH2 0xE1 JUMPI DUP1 PUSH4 0x46CE96DD EQ PUSH2 0xF9 JUMPI DUP1 PUSH4 0x617D6D6E EQ PUSH2 0x11A JUMPI JUMPDEST PUSH1 0x0 DUP1 REVERT JUMPDEST PUSH2 0xAB PUSH2 0x197 JUMP JUMPDEST PUSH1 0x40 MLOAD PUSH2 0xB8 SWAP2 SWAP1 PUSH2 0x144F JUMP JUMPDEST PUSH1 0x40 MLOAD DUP1 SWAP2 SUB SWAP1 RETURN JUMPDEST PUSH2 0xD4 PUSH2 0xCF CALLDATASIZE PUSH1 0x4 PUSH2 0xEAC JUMP JUMPDEST PUSH2 0x19D JUMP JUMPDEST PUSH1 0x40 MLOAD PUSH2 0xB8 SWAP2 SWAP1 PUSH2 0x11FC JUMP JUMPDEST PUSH2 0xE9 PUSH2 0x1F1 JUMP JUMPDEST PUSH1 0x40 MLOAD PUSH2 0xB8 SWAP5 SWAP4 SWAP3 SWAP2 SWAP1 PUSH2 0x1468 JUMP JUMPDEST PUSH2 0x10C PUSH2 0x107 CALLDATASIZE PUSH1 0x4 PUSH2 0xFA1 JUMP JUMPDEST PUSH2 0x482 JUMP JUMPDEST PUSH1 0x40 MLOAD PUSH2 0xB8 SWAP3 SWAP2 SWAP1 PUSH2 0x148C JUMP JUMPDEST PUSH2 0x12D PUSH2 0x128 CALLDATASIZE PUSH1 0x4 PUSH2 0x1017 JUMP JUMPDEST PUSH2 0x544 JUMP JUMPDEST PUSH1 0x40 MLOAD PUSH2 0xB8 SWAP4 SWAP3 SWAP2 SWAP1 PUSH2 0x142E JUMP JUMPDEST PUSH2 0x10C PUSH2 0x14A CALLDATASIZE PUSH1 0x4 PUSH2 0xFA1 JUMP JUMPDEST PUSH2 0x6F5 JUMP JUMPDEST PUSH2 0x157 PUSH2 0x8F4 JUMP JUMPDEST PUSH1 0x40 MLOAD PUSH2 0xB8 SWAP2 SWAP1 PUSH2 0x1177 JUMP JUMPDEST PUSH2 0x177 PUSH2 0x172 CALLDATASIZE PUSH1 0x4 PUSH2 0xFA1 JUMP JUMPDEST PUSH2 0x90C JUMP JUMPDEST PUSH1 0x40 MLOAD PUSH2 0xB8 SWAP5 SWAP4 SWAP3 SWAP2 SWAP1 PUSH2 0x11AF JUMP JUMPDEST PUSH2 0x157 PUSH2 0x94C JUMP JUMPDEST PUSH2 0x157 PUSH2 0x95E JUMP JUMPDEST PUSH2 0x1F4 DUP2 JUMP JUMPDEST PUSH1 0x0 CALLER PUSH1 0x0 DUP1 MLOAD PUSH1 0x20 PUSH2 0x154F DUP4 CODECOPY DUP2 MLOAD SWAP2 MSTORE EQ PUSH2 0x1D5 JUMPI PUSH1 0x40 MLOAD PUSH3 0x461BCD PUSH1 0xE5 SHL DUP2 MSTORE PUSH1 0x4 ADD PUSH2 0x1CC SWAP1 PUSH2 0x122D JUMP JUMPDEST PUSH1 0x40 MLOAD DUP1 SWAP2 SUB SWAP1 REVERT JUMPDEST PUSH2 0x1DF DUP7 DUP6 PUSH2 0x976 JUMP JUMPDEST POP PUSH4 0xA85BD01 PUSH1 0xE1 SHL SWAP6 SWAP5 POP POP POP POP POP JUMP JUMPDEST PUSH1 0x0 DUP1 DUP1 DUP1 PUSH4 0x5F5E100 PUSH4 0x60438E0 PUSH2 0x220 PUSH20 0x3DB4B7DA67DD5AF61CB9B3C70501B1BDB24B2C22 CALLER ADDRESS DUP6 PUSH2 0xB23 JUMP JUMPDEST PUSH2 0x240 PUSH20 0xDA10009CBD5D07DD0CECC66161FC93D7C9000DA1 CALLER ADDRESS DUP5 PUSH2 0xB23 JUMP JUMPDEST PUSH2 0x26D PUSH20 0x3DB4B7DA67DD5AF61CB9B3C70501B1BDB24B2C22 PUSH1 0x0 DUP1 MLOAD PUSH1 0x20 PUSH2 0x154F DUP4 CODECOPY DUP2 MLOAD SWAP2 MSTORE DUP5 PUSH2 0xC1B JUMP JUMPDEST PUSH2 0x29A PUSH20 0xDA10009CBD5D07DD0CECC66161FC93D7C9000DA1 PUSH1 0x0 DUP1 MLOAD PUSH1 0x20 PUSH2 0x154F DUP4 CODECOPY DUP2 MLOAD SWAP2 MSTORE DUP4 PUSH2 0xC1B JUMP JUMPDEST PUSH1 0x40 DUP1 MLOAD PUSH2 0x160 DUP2 ADD DUP3 MSTORE PUSH20 0x3DB4B7DA67DD5AF61CB9B3C70501B1BDB24B2C22 DUP2 MSTORE PUSH20 0xDA10009CBD5D07DD0CECC66161FC93D7C9000DA1 PUSH1 0x20 DUP3 ADD MSTORE PUSH2 0x1F4 DUP2 DUP4 ADD MSTORE PUSH2 0x419 NOT PUSH1 0x60 DUP3 ADD MSTORE PUSH2 0x410 PUSH1 0x80 DUP3 ADD MSTORE PUSH1 0xA0 DUP2 ADD DUP5 SWAP1 MSTORE PUSH1 0xC0 DUP2 ADD DUP4 SWAP1 MSTORE PUSH1 0x0 PUSH1 0xE0 DUP3 ADD DUP2 SWAP1 MSTORE PUSH2 0x100 DUP3 ADD MSTORE ADDRESS PUSH2 0x120 DUP3 ADD MSTORE TIMESTAMP PUSH2 0x140 DUP3 ADD MSTORE SWAP1 MLOAD PUSH4 0x4418B22B PUSH1 0xE1 SHL DUP2 MSTORE PUSH1 0x0 DUP1 MLOAD PUSH1 0x20 PUSH2 0x154F DUP4 CODECOPY DUP2 MLOAD SWAP2 MSTORE SWAP1 PUSH4 0x88316456 SWAP1 PUSH2 0x349 SWAP1 DUP5 SWAP1 PUSH1 0x4 ADD PUSH2 0x1380 JUMP JUMPDEST PUSH1 0x80 PUSH1 0x40 MLOAD DUP1 DUP4 SUB DUP2 PUSH1 0x0 DUP8 DUP1 EXTCODESIZE ISZERO DUP1 ISZERO PUSH2 0x363 JUMPI PUSH1 0x0 DUP1 REVERT JUMPDEST POP GAS CALL ISZERO DUP1 ISZERO PUSH2 0x377 JUMPI RETURNDATASIZE PUSH1 0x0 DUP1 RETURNDATACOPY RETURNDATASIZE PUSH1 0x0 REVERT JUMPDEST POP POP POP POP PUSH1 0x40 MLOAD RETURNDATASIZE PUSH1 0x1F NOT PUSH1 0x1F DUP3 ADD AND DUP3 ADD DUP1 PUSH1 0x40 MSTORE POP DUP2 ADD SWAP1 PUSH2 0x39B SWAP2 SWAP1 PUSH2 0xFB9 JUMP JUMPDEST SWAP3 SWAP10 POP SWAP1 SWAP8 POP SWAP6 POP SWAP4 POP PUSH2 0x3AF CALLER DUP9 PUSH2 0x976 JUMP JUMPDEST DUP3 DUP6 LT ISZERO PUSH2 0x414 JUMPI PUSH2 0x3E5 PUSH20 0x3DB4B7DA67DD5AF61CB9B3C70501B1BDB24B2C22 PUSH1 0x0 DUP1 MLOAD PUSH1 0x20 PUSH2 0x154F DUP4 CODECOPY DUP2 MLOAD SWAP2 MSTORE PUSH1 0x0 PUSH2 0xC1B JUMP JUMPDEST PUSH1 0x0 PUSH2 0x3F1 DUP7 DUP6 PUSH2 0x14F3 JUMP JUMPDEST SWAP1 POP PUSH2 0x412 PUSH20 0x3DB4B7DA67DD5AF61CB9B3C70501B1BDB24B2C22 CALLER DUP4 PUSH2 0xD10 JUMP JUMPDEST POP JUMPDEST DUP2 DUP5 LT ISZERO PUSH2 0x479 JUMPI PUSH2 0x44A PUSH20 0xDA10009CBD5D07DD0CECC66161FC93D7C9000DA1 PUSH1 0x0 DUP1 MLOAD PUSH1 0x20 PUSH2 0x154F DUP4 CODECOPY DUP2 MLOAD SWAP2 MSTORE PUSH1 0x0 PUSH2 0xC1B JUMP JUMPDEST PUSH1 0x0 PUSH2 0x456 DUP6 DUP5 PUSH2 0x14F3 JUMP JUMPDEST SWAP1 POP PUSH2 0x477 PUSH20 0xDA10009CBD5D07DD0CECC66161FC93D7C9000DA1 CALLER DUP4 PUSH2 0xD10 JUMP JUMPDEST POP JUMPDEST POP POP POP SWAP1 SWAP2 SWAP3 SWAP4 JUMP JUMPDEST PUSH1 0x40 DUP1 MLOAD PUSH1 0x80 DUP2 ADD DUP3 MSTORE DUP3 DUP2 MSTORE ADDRESS PUSH1 0x20 DUP3 ADD MSTORE PUSH1 0x1 PUSH1 0x1 PUSH1 0x80 SHL SUB DUP2 DUP4 ADD DUP2 SWAP1 MSTORE PUSH1 0x60 DUP3 ADD MSTORE SWAP1 MLOAD PUSH4 0xFC6F7865 PUSH1 0xE0 SHL DUP2 MSTORE PUSH1 0x0 SWAP2 DUP3 SWAP2 PUSH1 0x0 DUP1 MLOAD PUSH1 0x20 PUSH2 0x154F DUP4 CODECOPY DUP2 MLOAD SWAP2 MSTORE SWAP1 PUSH4 0xFC6F7865 SWAP1 PUSH2 0x4DD SWAP1 DUP5 SWAP1 PUSH1 0x4 ADD PUSH2 0x12B6 JUMP JUMPDEST PUSH1 0x40 DUP1 MLOAD DUP1 DUP4 SUB DUP2 PUSH1 0x0 DUP8 DUP1 EXTCODESIZE ISZERO DUP1 ISZERO PUSH2 0x4F6 JUMPI PUSH1 0x0 DUP1 REVERT JUMPDEST POP GAS CALL ISZERO DUP1 ISZERO PUSH2 0x50A JUMPI RETURNDATASIZE PUSH1 0x0 DUP1 RETURNDATACOPY RETURNDATASIZE PUSH1 0x0 REVERT JUMPDEST POP POP POP POP PUSH1 0x40 MLOAD RETURNDATASIZE PUSH1 0x1F NOT PUSH1 0x1F DUP3 ADD AND DUP3 ADD DUP1 PUSH1 0x40 MSTORE POP DUP2 ADD SWAP1 PUSH2 0x52E SWAP2 SWAP1 PUSH2 0xFF4 JUMP JUMPDEST SWAP1 SWAP4 POP SWAP2 POP PUSH2 0x53E DUP5 DUP5 DUP5 PUSH2 0xDFE JUMP JUMPDEST POP SWAP2 POP SWAP2 JUMP JUMPDEST PUSH1 0x0 DUP4 DUP2 MSTORE PUSH1 0x20 DUP2 SWAP1 MSTORE PUSH1 0x40 DUP2 KECCAK256 PUSH1 0x2 DUP2 ADD SLOAD PUSH1 0x3 SWAP1 SWAP2 ADD SLOAD DUP3 SWAP2 DUP3 SWAP2 PUSH1 0x1 PUSH1 0x1 PUSH1 0xA0 SHL SUB SWAP2 DUP3 AND SWAP2 AND PUSH2 0x57A DUP3 CALLER ADDRESS DUP11 PUSH2 0xB23 JUMP JUMPDEST PUSH2 0x586 DUP2 CALLER ADDRESS DUP10 PUSH2 0xB23 JUMP JUMPDEST PUSH2 0x59F DUP3 PUSH1 0x0 DUP1 MLOAD PUSH1 0x20 PUSH2 0x154F DUP4 CODECOPY DUP2 MLOAD SWAP2 MSTORE DUP10 PUSH2 0xC1B JUMP JUMPDEST PUSH2 0x5B8 DUP2 PUSH1 0x0 DUP1 MLOAD PUSH1 0x20 PUSH2 0x154F DUP4 CODECOPY DUP2 MLOAD SWAP2 MSTORE DUP9 PUSH2 0xC1B JUMP JUMPDEST PUSH1 0x40 DUP1 MLOAD PUSH1 0xC0 DUP2 ADD DUP3 MSTORE DUP10 DUP2 MSTORE PUSH1 0x20 DUP2 ADD DUP10 SWAP1 MSTORE DUP1 DUP3 ADD DUP9 SWAP1 MSTORE PUSH1 0x0 PUSH1 0x60 DUP3 ADD DUP2 SWAP1 MSTORE PUSH1 0x80 DUP3 ADD MSTORE TIMESTAMP PUSH1 0xA0 DUP3 ADD MSTORE SWAP1 MLOAD PUSH4 0x219F5D17 PUSH1 0xE0 SHL DUP2 MSTORE PUSH1 0x0 DUP1 MLOAD PUSH1 0x20 PUSH2 0x154F DUP4 CODECOPY DUP2 MLOAD SWAP2 MSTORE SWAP1 PUSH4 0x219F5D17 SWAP1 PUSH2 0x616 SWAP1 DUP5 SWAP1 PUSH1 0x4 ADD PUSH2 0x133C JUMP JUMPDEST PUSH1 0x60 PUSH1 0x40 MLOAD DUP1 DUP4 SUB DUP2 PUSH1 0x0 DUP8 DUP1 EXTCODESIZE ISZERO DUP1 ISZERO PUSH2 0x630 JUMPI PUSH1 0x0 DUP1 REVERT JUMPDEST POP GAS CALL ISZERO DUP1 ISZERO PUSH2 0x644 JUMPI RETURNDATASIZE PUSH1 0x0 DUP1 RETURNDATACOPY RETURNDATASIZE PUSH1 0x0 REVERT JUMPDEST POP POP POP POP PUSH1 0x40 MLOAD RETURNDATASIZE PUSH1 0x1F NOT PUSH1 0x1F DUP3 ADD AND DUP3 ADD DUP1 PUSH1 0x40 MSTORE POP DUP2 ADD SWAP1 PUSH2 0x668 SWAP2 SWAP1 PUSH2 0xF6D JUMP JUMPDEST SWAP2 SWAP8 POP SWAP6 POP SWAP4 POP DUP8 DUP6 LT ISZERO PUSH2 0x6AC JUMPI PUSH2 0x691 DUP4 PUSH1 0x0 DUP1 MLOAD PUSH1 0x20 PUSH2 0x154F DUP4 CODECOPY DUP2 MLOAD SWAP2 MSTORE PUSH1 0x0 PUSH2 0xC1B JUMP JUMPDEST PUSH1 0x0 PUSH2 0x69D DUP7 DUP11 PUSH2 0x14F3 JUMP JUMPDEST SWAP1 POP PUSH2 0x6AA DUP5 CALLER DUP4 PUSH2 0xD10 JUMP JUMPDEST POP JUMPDEST DUP7 DUP5 LT ISZERO PUSH2 0x6E9 JUMPI PUSH2 0x6CE DUP3 PUSH1 0x0 DUP1 MLOAD PUSH1 0x20 PUSH2 0x154F DUP4 CODECOPY DUP2 MLOAD SWAP2 MSTORE PUSH1 0x0 PUSH2 0xC1B JUMP JUMPDEST PUSH1 0x0 PUSH2 0x6DA DUP6 DUP10 PUSH2 0x14F3 JUMP JUMPDEST SWAP1 POP PUSH2 0x6E7 DUP4 CALLER DUP4 PUSH2 0xD10 JUMP JUMPDEST POP JUMPDEST POP POP POP SWAP4 POP SWAP4 POP SWAP4 SWAP1 POP JUMP JUMPDEST PUSH1 0x0 DUP2 DUP2 MSTORE PUSH1 0x20 DUP2 SWAP1 MSTORE PUSH1 0x40 DUP2 KECCAK256 SLOAD DUP2 SWAP1 PUSH1 0x1 PUSH1 0x1 PUSH1 0xA0 SHL SUB AND CALLER EQ PUSH2 0x72D JUMPI PUSH1 0x40 MLOAD PUSH3 0x461BCD PUSH1 0xE5 SHL DUP2 MSTORE PUSH1 0x4 ADD PUSH2 0x1CC SWAP1 PUSH2 0x1256 JUMP JUMPDEST PUSH1 0x0 DUP4 DUP2 MSTORE PUSH1 0x20 DUP2 SWAP1 MSTORE PUSH1 0x40 DUP2 KECCAK256 PUSH1 0x1 ADD SLOAD PUSH1 0x1 PUSH1 0x1 PUSH1 0x80 SHL SUB AND SWAP1 PUSH2 0x754 PUSH1 0x2 DUP4 PUSH2 0x149A JUMP JUMPDEST SWAP1 POP PUSH1 0x0 PUSH1 0x40 MLOAD DUP1 PUSH1 0xA0 ADD PUSH1 0x40 MSTORE DUP1 DUP8 DUP2 MSTORE PUSH1 0x20 ADD DUP4 PUSH1 0x1 PUSH1 0x1 PUSH1 0x80 SHL SUB AND DUP2 MSTORE PUSH1 0x20 ADD PUSH1 0x0 DUP2 MSTORE PUSH1 0x20 ADD PUSH1 0x0 DUP2 MSTORE PUSH1 0x20 ADD TIMESTAMP DUP2 MSTORE POP SWAP1 POP PUSH1 0x0 PUSH1 0x40 MLOAD DUP1 PUSH1 0x80 ADD PUSH1 0x40 MSTORE DUP1 DUP9 DUP2 MSTORE PUSH1 0x20 ADD ADDRESS PUSH1 0x1 PUSH1 0x1 PUSH1 0xA0 SHL SUB AND DUP2 MSTORE PUSH1 0x20 ADD PUSH1 0x1 PUSH1 0x1 PUSH1 0x80 SHL SUB DUP1 AND DUP2 MSTORE PUSH1 0x20 ADD PUSH1 0x1 PUSH1 0x1 PUSH1 0x80 SHL SUB DUP1 AND DUP2 MSTORE POP SWAP1 POP PUSH1 0x0 DUP1 MLOAD PUSH1 0x20 PUSH2 0x154F DUP4 CODECOPY DUP2 MLOAD SWAP2 MSTORE PUSH1 0x1 PUSH1 0x1 PUSH1 0xA0 SHL SUB AND PUSH4 0xC49CCBE DUP4 PUSH1 0x40 MLOAD DUP3 PUSH4 0xFFFFFFFF AND PUSH1 0xE0 SHL DUP2 MSTORE PUSH1 0x4 ADD PUSH2 0x806 SWAP2 SWAP1 PUSH2 0x12F9 JUMP JUMPDEST PUSH1 0x40 DUP1 MLOAD DUP1 DUP4 SUB DUP2 PUSH1 0x0 DUP8 DUP1 EXTCODESIZE ISZERO DUP1 ISZERO PUSH2 0x81F JUMPI PUSH1 0x0 DUP1 REVERT JUMPDEST POP GAS CALL ISZERO DUP1 ISZERO PUSH2 0x833 JUMPI RETURNDATASIZE PUSH1 0x0 DUP1 RETURNDATACOPY RETURNDATASIZE PUSH1 0x0 REVERT JUMPDEST POP POP POP POP PUSH1 0x40 MLOAD RETURNDATASIZE PUSH1 0x1F NOT PUSH1 0x1F DUP3 ADD AND DUP3 ADD DUP1 PUSH1 0x40 MSTORE POP DUP2 ADD SWAP1 PUSH2 0x857 SWAP2 SWAP1 PUSH2 0xFF4 JUMP JUMPDEST PUSH1 0x40 MLOAD PUSH4 0xFC6F7865 PUSH1 0xE0 SHL DUP2 MSTORE SWAP2 SWAP8 POP SWAP6 POP PUSH1 0x0 DUP1 MLOAD PUSH1 0x20 PUSH2 0x154F DUP4 CODECOPY DUP2 MLOAD SWAP2 MSTORE SWAP1 PUSH4 0xFC6F7865 SWAP1 PUSH2 0x88D SWAP1 DUP5 SWAP1 PUSH1 0x4 ADD PUSH2 0x12B6 JUMP JUMPDEST PUSH1 0x40 DUP1 MLOAD DUP1 DUP4 SUB DUP2 PUSH1 0x0 DUP8 DUP1 EXTCODESIZE ISZERO DUP1 ISZERO PUSH2 0x8A6 JUMPI PUSH1 0x0 DUP1 REVERT JUMPDEST POP GAS CALL ISZERO DUP1 ISZERO PUSH2 0x8BA JUMPI RETURNDATASIZE PUSH1 0x0 DUP1 RETURNDATACOPY RETURNDATASIZE PUSH1 0x0 REVERT JUMPDEST POP POP POP POP PUSH1 0x40 MLOAD RETURNDATASIZE PUSH1 0x1F NOT PUSH1 0x1F DUP3 ADD AND DUP3 ADD DUP1 PUSH1 0x40 MSTORE POP DUP2 ADD SWAP1 PUSH2 0x8DE SWAP2 SWAP1 PUSH2 0xFF4 JUMP JUMPDEST POP POP PUSH2 0x8EB DUP8 DUP8 DUP8 PUSH2 0xDFE JUMP JUMPDEST POP POP POP POP SWAP2 POP SWAP2 JUMP JUMPDEST PUSH20 0x3DB4B7DA67DD5AF61CB9B3C70501B1BDB24B2C22 DUP2 JUMP JUMPDEST PUSH1 0x0 PUSH1 0x20 DUP2 SWAP1 MSTORE SWAP1 DUP2 MSTORE PUSH1 0x40 SWAP1 KECCAK256 DUP1 SLOAD PUSH1 0x1 DUP3 ADD SLOAD PUSH1 0x2 DUP4 ADD SLOAD PUSH1 0x3 SWAP1 SWAP4 ADD SLOAD PUSH1 0x1 PUSH1 0x1 PUSH1 0xA0 SHL SUB SWAP3 DUP4 AND SWAP4 PUSH1 0x1 PUSH1 0x1 PUSH1 0x80 SHL SUB SWAP1 SWAP3 AND SWAP3 SWAP2 DUP3 AND SWAP2 AND DUP5 JUMP JUMPDEST PUSH1 0x0 DUP1 MLOAD PUSH1 0x20 PUSH2 0x154F DUP4 CODECOPY DUP2 MLOAD SWAP2 MSTORE DUP2 JUMP JUMPDEST PUSH20 0xDA10009CBD5D07DD0CECC66161FC93D7C9000DA1 DUP2 JUMP JUMPDEST PUSH1 0x40 MLOAD PUSH4 0x133F7571 PUSH1 0xE3 SHL DUP2 MSTORE PUSH1 0x0 SWAP1 DUP2 SWAP1 DUP2 SWAP1 PUSH1 0x0 DUP1 MLOAD PUSH1 0x20 PUSH2 0x154F DUP4 CODECOPY DUP2 MLOAD SWAP2 MSTORE SWAP1 PUSH4 0x99FBAB88 SWAP1 PUSH2 0x9AE SWAP1 DUP8 SWAP1 PUSH1 0x4 ADD PUSH2 0x145F JUMP JUMPDEST PUSH2 0x180 PUSH1 0x40 MLOAD DUP1 DUP4 SUB DUP2 DUP7 DUP1 EXTCODESIZE ISZERO DUP1 ISZERO PUSH2 0x9C7 JUMPI PUSH1 0x0 DUP1 REVERT JUMPDEST POP GAS STATICCALL ISZERO DUP1 ISZERO PUSH2 0x9DB JUMPI RETURNDATASIZE PUSH1 0x0 DUP1 RETURNDATACOPY RETURNDATASIZE PUSH1 0x0 REVERT JUMPDEST POP POP POP POP PUSH1 0x40 MLOAD RETURNDATASIZE PUSH1 0x1F NOT PUSH1 0x1F DUP3 ADD AND DUP3 ADD DUP1 PUSH1 0x40 MSTORE POP DUP2 ADD SWAP1 PUSH2 0x9FF SWAP2 SWAP1 PUSH2 0x1042 JUMP JUMPDEST POP POP POP POP SWAP8 POP POP POP POP SWAP5 POP SWAP5 POP POP POP PUSH1 0x40 MLOAD DUP1 PUSH1 0x80 ADD PUSH1 0x40 MSTORE DUP1 DUP7 PUSH1 0x1 PUSH1 0x1 PUSH1 0xA0 SHL SUB AND DUP2 MSTORE PUSH1 0x20 ADD DUP3 PUSH1 0x1 PUSH1 0x1 PUSH1 0x80 SHL SUB AND DUP2 MSTORE PUSH1 0x20 ADD DUP5 PUSH1 0x1 PUSH1 0x1 PUSH1 0xA0 SHL SUB AND DUP2 MSTORE PUSH1 0x20 ADD DUP4 PUSH1 0x1 PUSH1 0x1 PUSH1 0xA0 SHL SUB AND DUP2 MSTORE POP PUSH1 0x0 DUP1 DUP7 DUP2 MSTORE PUSH1 0x20 ADD SWAP1 DUP2 MSTORE PUSH1 0x20 ADD PUSH1 0x0 KECCAK256 PUSH1 0x0 DUP3 ADD MLOAD DUP2 PUSH1 0x0 ADD PUSH1 0x0 PUSH2 0x100 EXP DUP2 SLOAD DUP2 PUSH1 0x1 PUSH1 0x1 PUSH1 0xA0 SHL SUB MUL NOT AND SWAP1 DUP4 PUSH1 0x1 PUSH1 0x1 PUSH1 0xA0 SHL SUB AND MUL OR SWAP1 SSTORE POP PUSH1 0x20 DUP3 ADD MLOAD DUP2 PUSH1 0x1 ADD PUSH1 0x0 PUSH2 0x100 EXP DUP2 SLOAD DUP2 PUSH1 0x1 PUSH1 0x1 PUSH1 0x80 SHL SUB MUL NOT AND SWAP1 DUP4 PUSH1 0x1 PUSH1 0x1 PUSH1 0x80 SHL SUB AND MUL OR SWAP1 SSTORE POP PUSH1 0x40 DUP3 ADD MLOAD DUP2 PUSH1 0x2 ADD PUSH1 0x0 PUSH2 0x100 EXP DUP2 SLOAD DUP2 PUSH1 0x1 PUSH1 0x1 PUSH1 0xA0 SHL SUB MUL NOT AND SWAP1 DUP4 PUSH1 0x1 PUSH1 0x1 PUSH1 0xA0 SHL SUB AND MUL OR SWAP1 SSTORE POP PUSH1 0x60 DUP3 ADD MLOAD DUP2 PUSH1 0x3 ADD PUSH1 0x0 PUSH2 0x100 EXP DUP2 SLOAD DUP2 PUSH1 0x1 PUSH1 0x1 PUSH1 0xA0 SHL SUB MUL NOT AND SWAP1 DUP4 PUSH1 0x1 PUSH1 0x1 PUSH1 0xA0 SHL SUB AND MUL OR SWAP1 SSTORE POP SWAP1 POP POP POP POP POP POP POP JUMP JUMPDEST PUSH1 0x0 DUP1 DUP6 PUSH1 0x1 PUSH1 0x1 PUSH1 0xA0 SHL SUB AND PUSH4 0x23B872DD PUSH1 0xE0 SHL DUP7 DUP7 DUP7 PUSH1 0x40 MLOAD PUSH1 0x24 ADD PUSH2 0xB4D SWAP4 SWAP3 SWAP2 SWAP1 PUSH2 0x118B JUMP JUMPDEST PUSH1 0x40 DUP1 MLOAD PUSH1 0x1F NOT DUP2 DUP5 SUB ADD DUP2 MSTORE SWAP2 DUP2 MSTORE PUSH1 0x20 DUP3 ADD DUP1 MLOAD PUSH1 0x1 PUSH1 0x1 PUSH1 0xE0 SHL SUB AND PUSH1 0x1 PUSH1 0x1 PUSH1 0xE0 SHL SUB NOT SWAP1 SWAP5 AND SWAP4 SWAP1 SWAP4 OR SWAP1 SWAP3 MSTORE SWAP1 MLOAD PUSH2 0xB8B SWAP2 SWAP1 PUSH2 0x113E JUMP JUMPDEST PUSH1 0x0 PUSH1 0x40 MLOAD DUP1 DUP4 SUB DUP2 PUSH1 0x0 DUP7 GAS CALL SWAP2 POP POP RETURNDATASIZE DUP1 PUSH1 0x0 DUP2 EQ PUSH2 0xBC8 JUMPI PUSH1 0x40 MLOAD SWAP2 POP PUSH1 0x1F NOT PUSH1 0x3F RETURNDATASIZE ADD AND DUP3 ADD PUSH1 0x40 MSTORE RETURNDATASIZE DUP3 MSTORE RETURNDATASIZE PUSH1 0x0 PUSH1 0x20 DUP5 ADD RETURNDATACOPY PUSH2 0xBCD JUMP JUMPDEST PUSH1 0x60 SWAP2 POP JUMPDEST POP SWAP2 POP SWAP2 POP DUP2 DUP1 ISZERO PUSH2 0xBF7 JUMPI POP DUP1 MLOAD ISZERO DUP1 PUSH2 0xBF7 JUMPI POP DUP1 DUP1 PUSH1 0x20 ADD SWAP1 MLOAD DUP2 ADD SWAP1 PUSH2 0xBF7 SWAP2 SWAP1 PUSH2 0xF46 JUMP JUMPDEST PUSH2 0xC13 JUMPI PUSH1 0x40 MLOAD PUSH3 0x461BCD PUSH1 0xE5 SHL DUP2 MSTORE PUSH1 0x4 ADD PUSH2 0x1CC SWAP1 PUSH2 0x1299 JUMP JUMPDEST POP POP POP POP POP POP JUMP JUMPDEST PUSH1 0x0 DUP1 DUP5 PUSH1 0x1 PUSH1 0x1 PUSH1 0xA0 SHL SUB AND PUSH4 0x95EA7B3 PUSH1 0xE0 SHL DUP6 DUP6 PUSH1 0x40 MLOAD PUSH1 0x24 ADD PUSH2 0xC43 SWAP3 SWAP2 SWAP1 PUSH2 0x11E3 JUMP JUMPDEST PUSH1 0x40 DUP1 MLOAD PUSH1 0x1F NOT DUP2 DUP5 SUB ADD DUP2 MSTORE SWAP2 DUP2 MSTORE PUSH1 0x20 DUP3 ADD DUP1 MLOAD PUSH1 0x1 PUSH1 0x1 PUSH1 0xE0 SHL SUB AND PUSH1 0x1 PUSH1 0x1 PUSH1 0xE0 SHL SUB NOT SWAP1 SWAP5 AND SWAP4 SWAP1 SWAP4 OR SWAP1 SWAP3 MSTORE SWAP1 MLOAD PUSH2 0xC81 SWAP2 SWAP1 PUSH2 0x113E JUMP JUMPDEST PUSH1 0x0 PUSH1 0x40 MLOAD DUP1 DUP4 SUB DUP2 PUSH1 0x0 DUP7 GAS CALL SWAP2 POP POP RETURNDATASIZE DUP1 PUSH1 0x0 DUP2 EQ PUSH2 0xCBE JUMPI PUSH1 0x40 MLOAD SWAP2 POP PUSH1 0x1F NOT PUSH1 0x3F RETURNDATASIZE ADD AND DUP3 ADD PUSH1 0x40 MSTORE RETURNDATASIZE DUP3 MSTORE RETURNDATASIZE PUSH1 0x0 PUSH1 0x20 DUP5 ADD RETURNDATACOPY PUSH2 0xCC3 JUMP JUMPDEST PUSH1 0x60 SWAP2 POP JUMPDEST POP SWAP2 POP SWAP2 POP DUP2 DUP1 ISZERO PUSH2 0xCED JUMPI POP DUP1 MLOAD ISZERO DUP1 PUSH2 0xCED JUMPI POP DUP1 DUP1 PUSH1 0x20 ADD SWAP1 MLOAD DUP2 ADD SWAP1 PUSH2 0xCED SWAP2 SWAP1 PUSH2 0xF46 JUMP JUMPDEST PUSH2 0xD09 JUMPI PUSH1 0x40 MLOAD PUSH3 0x461BCD PUSH1 0xE5 SHL DUP2 MSTORE PUSH1 0x4 ADD PUSH2 0x1CC SWAP1 PUSH2 0x1211 JUMP JUMPDEST POP POP POP POP POP JUMP JUMPDEST PUSH1 0x0 DUP1 DUP5 PUSH1 0x1 PUSH1 0x1 PUSH1 0xA0 SHL SUB AND PUSH4 0xA9059CBB PUSH1 0xE0 SHL DUP6 DUP6 PUSH1 0x40 MLOAD PUSH1 0x24 ADD PUSH2 0xD38 SWAP3 SWAP2 SWAP1 PUSH2 0x11E3 JUMP JUMPDEST PUSH1 0x40 DUP1 MLOAD PUSH1 0x1F NOT DUP2 DUP5 SUB ADD DUP2 MSTORE SWAP2 DUP2 MSTORE PUSH1 0x20 DUP3 ADD DUP1 MLOAD PUSH1 0x1 PUSH1 0x1 PUSH1 0xE0 SHL SUB AND PUSH1 0x1 PUSH1 0x1 PUSH1 0xE0 SHL SUB NOT SWAP1 SWAP5 AND SWAP4 SWAP1 SWAP4 OR SWAP1 SWAP3 MSTORE SWAP1 MLOAD PUSH2 0xD76 SWAP2 SWAP1 PUSH2 0x113E JUMP JUMPDEST PUSH1 0x0 PUSH1 0x40 MLOAD DUP1 DUP4 SUB DUP2 PUSH1 0x0 DUP7 GAS CALL SWAP2 POP POP RETURNDATASIZE DUP1 PUSH1 0x0 DUP2 EQ PUSH2 0xDB3 JUMPI PUSH1 0x40 MLOAD SWAP2 POP PUSH1 0x1F NOT PUSH1 0x3F RETURNDATASIZE ADD AND DUP3 ADD PUSH1 0x40 MSTORE RETURNDATASIZE DUP3 MSTORE RETURNDATASIZE PUSH1 0x0 PUSH1 0x20 DUP5 ADD RETURNDATACOPY PUSH2 0xDB8 JUMP JUMPDEST PUSH1 0x60 SWAP2 POP JUMPDEST POP SWAP2 POP SWAP2 POP DUP2 DUP1 ISZERO PUSH2 0xDE2 JUMPI POP DUP1 MLOAD ISZERO DUP1 PUSH2 0xDE2 JUMPI POP DUP1 DUP1 PUSH1 0x20 ADD SWAP1 MLOAD DUP2 ADD SWAP1 PUSH2 0xDE2 SWAP2 SWAP1 PUSH2 0xF46 JUMP JUMPDEST PUSH2 0xD09 JUMPI PUSH1 0x40 MLOAD PUSH3 0x461BCD PUSH1 0xE5 SHL DUP2 MSTORE PUSH1 0x4 ADD PUSH2 0x1CC SWAP1 PUSH2 0x127D JUMP JUMPDEST PUSH1 0x0 DUP4 DUP2 MSTORE PUSH1 0x20 DUP2 SWAP1 MSTORE PUSH1 0x40 SWAP1 KECCAK256 DUP1 SLOAD PUSH1 0x2 DUP3 ADD SLOAD PUSH1 0x3 SWAP1 SWAP3 ADD SLOAD PUSH1 0x1 PUSH1 0x1 PUSH1 0xA0 SHL SUB SWAP2 DUP3 AND SWAP3 DUP3 AND SWAP2 AND PUSH2 0xE4C DUP3 DUP5 PUSH2 0x3E8 PUSH2 0xE3D DUP10 PUSH2 0x3DE PUSH2 0x14D4 JUMP JUMPDEST PUSH2 0xE47 SWAP2 SWAP1 PUSH2 0x14C0 JUMP JUMPDEST PUSH2 0xD10 JUMP JUMPDEST PUSH2 0xC13 DUP2 DUP5 PUSH2 0x3E8 PUSH2 0xE3D DUP9 PUSH2 0x3DE PUSH2 0x14D4 JUMP JUMPDEST DUP1 MLOAD PUSH2 0xE6B DUP2 PUSH2 0x1536 JUMP JUMPDEST SWAP2 SWAP1 POP JUMP JUMPDEST DUP1 MLOAD PUSH1 0x2 DUP2 SWAP1 SIGNEXTEND DUP2 EQ PUSH2 0xE6B JUMPI PUSH1 0x0 DUP1 REVERT JUMPDEST DUP1 MLOAD PUSH1 0x1 PUSH1 0x1 PUSH1 0x80 SHL SUB DUP2 AND DUP2 EQ PUSH2 0xE6B JUMPI PUSH1 0x0 DUP1 REVERT JUMPDEST DUP1 MLOAD PUSH3 0xFFFFFF DUP2 AND DUP2 EQ PUSH2 0xE6B JUMPI PUSH1 0x0 DUP1 REVERT JUMPDEST PUSH1 0x0 DUP1 PUSH1 0x0 DUP1 PUSH1 0x0 PUSH1 0x80 DUP7 DUP9 SUB SLT ISZERO PUSH2 0xEC3 JUMPI DUP1 DUP2 REVERT JUMPDEST DUP6 CALLDATALOAD PUSH2 0xECE DUP2 PUSH2 0x1536 JUMP JUMPDEST SWAP5 POP PUSH1 0x20 DUP7 ADD CALLDATALOAD PUSH2 0xEDE DUP2 PUSH2 0x1536 JUMP JUMPDEST SWAP4 POP PUSH1 0x40 DUP7 ADD CALLDATALOAD SWAP3 POP PUSH1 0x60 DUP7 ADD CALLDATALOAD PUSH8 0xFFFFFFFFFFFFFFFF DUP1 DUP3 GT ISZERO PUSH2 0xF01 JUMPI DUP3 DUP4 REVERT JUMPDEST DUP2 DUP9 ADD SWAP2 POP DUP9 PUSH1 0x1F DUP4 ADD SLT PUSH2 0xF14 JUMPI DUP3 DUP4 REVERT JUMPDEST DUP2 CALLDATALOAD DUP2 DUP2 GT ISZERO PUSH2 0xF22 JUMPI DUP4 DUP5 REVERT JUMPDEST DUP10 PUSH1 0x20 DUP3 DUP6 ADD ADD GT ISZERO PUSH2 0xF33 JUMPI DUP4 DUP5 REVERT JUMPDEST SWAP7 SWAP10 SWAP6 SWAP9 POP SWAP4 SWAP7 POP PUSH1 0x20 ADD SWAP5 SWAP4 SWAP3 POP POP POP JUMP JUMPDEST PUSH1 0x0 PUSH1 0x20 DUP3 DUP5 SUB SLT ISZERO PUSH2 0xF57 JUMPI DUP1 DUP2 REVERT JUMPDEST DUP2 MLOAD DUP1 ISZERO ISZERO DUP2 EQ PUSH2 0xF66 JUMPI DUP2 DUP3 REVERT JUMPDEST SWAP4 SWAP3 POP POP POP JUMP JUMPDEST PUSH1 0x0 DUP1 PUSH1 0x0 PUSH1 0x60 DUP5 DUP7 SUB SLT ISZERO PUSH2 0xF81 JUMPI DUP3 DUP4 REVERT JUMPDEST PUSH2 0xF8A DUP5 PUSH2 0xE82 JUMP JUMPDEST SWAP3 POP PUSH1 0x20 DUP5 ADD MLOAD SWAP2 POP PUSH1 0x40 DUP5 ADD MLOAD SWAP1 POP SWAP3 POP SWAP3 POP SWAP3 JUMP JUMPDEST PUSH1 0x0 PUSH1 0x20 DUP3 DUP5 SUB SLT ISZERO PUSH2 0xFB2 JUMPI DUP1 DUP2 REVERT JUMPDEST POP CALLDATALOAD SWAP2 SWAP1 POP JUMP JUMPDEST PUSH1 0x0 DUP1 PUSH1 0x0 DUP1 PUSH1 0x80 DUP6 DUP8 SUB SLT ISZERO PUSH2 0xFCE JUMPI DUP4 DUP5 REVERT JUMPDEST DUP5 MLOAD SWAP4 POP PUSH2 0xFDE PUSH1 0x20 DUP7 ADD PUSH2 0xE82 JUMP JUMPDEST PUSH1 0x40 DUP7 ADD MLOAD PUSH1 0x60 SWAP1 SWAP7 ADD MLOAD SWAP5 SWAP8 SWAP1 SWAP7 POP SWAP3 POP POP POP JUMP JUMPDEST PUSH1 0x0 DUP1 PUSH1 0x40 DUP4 DUP6 SUB SLT ISZERO PUSH2 0x1006 JUMPI DUP2 DUP3 REVERT JUMPDEST POP POP DUP1 MLOAD PUSH1 0x20 SWAP1 SWAP2 ADD MLOAD SWAP1 SWAP3 SWAP1 SWAP2 POP JUMP JUMPDEST PUSH1 0x0 DUP1 PUSH1 0x0 PUSH1 0x60 DUP5 DUP7 SUB SLT ISZERO PUSH2 0x102B JUMPI DUP3 DUP4 REVERT JUMPDEST POP POP DUP2 CALLDATALOAD SWAP4 PUSH1 0x20 DUP4 ADD CALLDATALOAD SWAP4 POP PUSH1 0x40 SWAP1 SWAP3 ADD CALLDATALOAD SWAP2 SWAP1 POP JUMP JUMPDEST PUSH1 0x0 DUP1 PUSH1 0x0 DUP1 PUSH1 0x0 DUP1 PUSH1 0x0 DUP1 PUSH1 0x0 DUP1 PUSH1 0x0 DUP1 PUSH2 0x180 DUP14 DUP16 SUB SLT ISZERO PUSH2 0x1064 JUMPI DUP7 DUP8 REVERT JUMPDEST DUP13 MLOAD PUSH12 0xFFFFFFFFFFFFFFFFFFFFFFFF DUP2 AND DUP2 EQ PUSH2 0x107F JUMPI DUP8 DUP9 REVERT JUMPDEST SWAP12 POP PUSH2 0x108D PUSH1 0x20 DUP15 ADD PUSH2 0xE60 JUMP JUMPDEST SWAP11 POP PUSH2 0x109B PUSH1 0x40 DUP15 ADD PUSH2 0xE60 JUMP JUMPDEST SWAP10 POP PUSH2 0x10A9 PUSH1 0x60 DUP15 ADD PUSH2 0xE60 JUMP JUMPDEST SWAP9 POP PUSH2 0x10B7 PUSH1 0x80 DUP15 ADD PUSH2 0xE99 JUMP JUMPDEST SWAP8 POP PUSH2 0x10C5 PUSH1 0xA0 DUP15 ADD PUSH2 0xE70 JUMP JUMPDEST SWAP7 POP PUSH2 0x10D3 PUSH1 0xC0 DUP15 ADD PUSH2 0xE70 JUMP JUMPDEST SWAP6 POP PUSH2 0x10E1 PUSH1 0xE0 DUP15 ADD PUSH2 0xE82 JUMP JUMPDEST SWAP5 POP PUSH2 0x100 DUP14 ADD MLOAD SWAP4 POP PUSH2 0x120 DUP14 ADD MLOAD SWAP3 POP PUSH2 0x1100 PUSH2 0x140 DUP15 ADD PUSH2 0xE82 JUMP JUMPDEST SWAP2 POP PUSH2 0x110F PUSH2 0x160 DUP15 ADD PUSH2 0xE82 JUMP JUMPDEST SWAP1 POP SWAP3 SWAP6 SWAP9 SWAP12 POP SWAP3 SWAP6 SWAP9 SWAP12 POP SWAP3 SWAP6 SWAP9 SWAP12 JUMP JUMPDEST PUSH1 0x1 PUSH1 0x1 PUSH1 0xA0 SHL SUB AND SWAP1 MSTORE JUMP JUMPDEST PUSH1 0x2 SIGNEXTEND SWAP1 MSTORE JUMP JUMPDEST PUSH3 0xFFFFFF AND SWAP1 MSTORE JUMP JUMPDEST PUSH1 0x0 DUP3 MLOAD DUP2 JUMPDEST DUP2 DUP2 LT ISZERO PUSH2 0x115E JUMPI PUSH1 0x20 DUP2 DUP7 ADD DUP2 ADD MLOAD DUP6 DUP4 ADD MSTORE ADD PUSH2 0x1144 JUMP JUMPDEST DUP2 DUP2 GT ISZERO PUSH2 0x116C JUMPI DUP3 DUP3 DUP6 ADD MSTORE JUMPDEST POP SWAP2 SWAP1 SWAP2 ADD SWAP3 SWAP2 POP POP JUMP JUMPDEST PUSH1 0x1 PUSH1 0x1 PUSH1 0xA0 SHL SUB SWAP2 SWAP1 SWAP2 AND DUP2 MSTORE PUSH1 0x20 ADD SWAP1 JUMP JUMPDEST PUSH1 0x1 PUSH1 0x1 PUSH1 0xA0 SHL SUB SWAP4 DUP5 AND DUP2 MSTORE SWAP2 SWAP1 SWAP3 AND PUSH1 0x20 DUP3 ADD MSTORE PUSH1 0x40 DUP2 ADD SWAP2 SWAP1 SWAP2 MSTORE PUSH1 0x60 ADD SWAP1 JUMP JUMPDEST PUSH1 0x1 PUSH1 0x1 PUSH1 0xA0 SHL SUB SWAP5 DUP6 AND DUP2 MSTORE PUSH1 0x1 PUSH1 0x1 PUSH1 0x80 SHL SUB SWAP4 SWAP1 SWAP4 AND PUSH1 0x20 DUP5 ADD MSTORE SWAP1 DUP4 AND PUSH1 0x40 DUP4 ADD MSTORE SWAP1 SWAP2 AND PUSH1 0x60 DUP3 ADD MSTORE PUSH1 0x80 ADD SWAP1 JUMP JUMPDEST PUSH1 0x1 PUSH1 0x1 PUSH1 0xA0 SHL SUB SWAP3 SWAP1 SWAP3 AND DUP3 MSTORE PUSH1 0x20 DUP3 ADD MSTORE PUSH1 0x40 ADD SWAP1 JUMP JUMPDEST PUSH1 0x1 PUSH1 0x1 PUSH1 0xE0 SHL SUB NOT SWAP2 SWAP1 SWAP2 AND DUP2 MSTORE PUSH1 0x20 ADD SWAP1 JUMP JUMPDEST PUSH1 0x20 DUP1 DUP3 MSTORE PUSH1 0x2 SWAP1 DUP3 ADD MSTORE PUSH2 0x5341 PUSH1 0xF0 SHL PUSH1 0x40 DUP3 ADD MSTORE PUSH1 0x60 ADD SWAP1 JUMP JUMPDEST PUSH1 0x20 DUP1 DUP3 MSTORE PUSH1 0xF SWAP1 DUP3 ADD MSTORE PUSH15 0x1B9BDD0818481D5B9A5D8CC81B999D PUSH1 0x8A SHL PUSH1 0x40 DUP3 ADD MSTORE PUSH1 0x60 ADD SWAP1 JUMP JUMPDEST PUSH1 0x20 DUP1 DUP3 MSTORE PUSH1 0xD SWAP1 DUP3 ADD MSTORE PUSH13 0x2737BA103A34329037BBB732B9 PUSH1 0x99 SHL PUSH1 0x40 DUP3 ADD MSTORE PUSH1 0x60 ADD SWAP1 JUMP JUMPDEST PUSH1 0x20 DUP1 DUP3 MSTORE PUSH1 0x2 SWAP1 DUP3 ADD MSTORE PUSH2 0x14D5 PUSH1 0xF2 SHL PUSH1 0x40 DUP3 ADD MSTORE PUSH1 0x60 ADD SWAP1 JUMP JUMPDEST PUSH1 0x20 DUP1 DUP3 MSTORE PUSH1 0x3 SWAP1 DUP3 ADD MSTORE PUSH3 0x29AA23 PUSH1 0xE9 SHL PUSH1 0x40 DUP3 ADD MSTORE PUSH1 0x60 ADD SWAP1 JUMP JUMPDEST DUP2 MLOAD DUP2 MSTORE PUSH1 0x20 DUP1 DUP4 ADD MLOAD PUSH1 0x1 PUSH1 0x1 PUSH1 0xA0 SHL SUB AND SWAP1 DUP3 ADD MSTORE PUSH1 0x40 DUP1 DUP4 ADD MLOAD PUSH1 0x1 PUSH1 0x1 PUSH1 0x80 SHL SUB SWAP1 DUP2 AND SWAP2 DUP4 ADD SWAP2 SWAP1 SWAP2 MSTORE PUSH1 0x60 SWAP3 DUP4 ADD MLOAD AND SWAP2 DUP2 ADD SWAP2 SWAP1 SWAP2 MSTORE PUSH1 0x80 ADD SWAP1 JUMP JUMPDEST PUSH1 0x0 PUSH1 0xA0 DUP3 ADD SWAP1 POP DUP3 MLOAD DUP3 MSTORE PUSH1 0x1 PUSH1 0x1 PUSH1 0x80 SHL SUB PUSH1 0x20 DUP5 ADD MLOAD AND PUSH1 0x20 DUP4 ADD MSTORE PUSH1 0x40 DUP4 ADD MLOAD PUSH1 0x40 DUP4 ADD MSTORE PUSH1 0x60 DUP4 ADD MLOAD PUSH1 0x60 DUP4 ADD MSTORE PUSH1 0x80 DUP4 ADD MLOAD PUSH1 0x80 DUP4 ADD MSTORE SWAP3 SWAP2 POP POP JUMP JUMPDEST PUSH1 0x0 PUSH1 0xC0 DUP3 ADD SWAP1 POP DUP3 MLOAD DUP3 MSTORE PUSH1 0x20 DUP4 ADD MLOAD PUSH1 0x20 DUP4 ADD MSTORE PUSH1 0x40 DUP4 ADD MLOAD PUSH1 0x40 DUP4 ADD MSTORE PUSH1 0x60 DUP4 ADD MLOAD PUSH1 0x60 DUP4 ADD MSTORE PUSH1 0x80 DUP4 ADD MLOAD PUSH1 0x80 DUP4 ADD MSTORE PUSH1 0xA0 DUP4 ADD MLOAD PUSH1 0xA0 DUP4 ADD MSTORE SWAP3 SWAP2 POP POP JUMP JUMPDEST PUSH1 0x0 PUSH2 0x160 DUP3 ADD SWAP1 POP PUSH2 0x1394 DUP3 DUP5 MLOAD PUSH2 0x1121 JUMP JUMPDEST PUSH1 0x20 DUP4 ADD MLOAD PUSH2 0x13A6 PUSH1 0x20 DUP5 ADD DUP3 PUSH2 0x1121 JUMP JUMPDEST POP PUSH1 0x40 DUP4 ADD MLOAD PUSH2 0x13B9 PUSH1 0x40 DUP5 ADD DUP3 PUSH2 0x1135 JUMP JUMPDEST POP PUSH1 0x60 DUP4 ADD MLOAD PUSH2 0x13CC PUSH1 0x60 DUP5 ADD DUP3 PUSH2 0x112E JUMP JUMPDEST POP PUSH1 0x80 DUP4 ADD MLOAD PUSH2 0x13DF PUSH1 0x80 DUP5 ADD DUP3 PUSH2 0x112E JUMP JUMPDEST POP PUSH1 0xA0 DUP4 ADD MLOAD PUSH1 0xA0 DUP4 ADD MSTORE PUSH1 0xC0 DUP4 ADD MLOAD PUSH1 0xC0 DUP4 ADD MSTORE PUSH1 0xE0 DUP4 ADD MLOAD PUSH1 0xE0 DUP4 ADD MSTORE PUSH2 0x100 DUP1 DUP5 ADD MLOAD DUP2 DUP5 ADD MSTORE POP PUSH2 0x120 DUP1 DUP5 ADD MLOAD PUSH2 0x141D DUP3 DUP6 ADD DUP3 PUSH2 0x1121 JUMP JUMPDEST POP POP PUSH2 0x140 SWAP3 DUP4 ADD MLOAD SWAP2 SWAP1 SWAP3 ADD MSTORE SWAP1 JUMP JUMPDEST PUSH1 0x1 PUSH1 0x1 PUSH1 0x80 SHL SUB SWAP4 SWAP1 SWAP4 AND DUP4 MSTORE PUSH1 0x20 DUP4 ADD SWAP2 SWAP1 SWAP2 MSTORE PUSH1 0x40 DUP3 ADD MSTORE PUSH1 0x60 ADD SWAP1 JUMP JUMPDEST PUSH3 0xFFFFFF SWAP2 SWAP1 SWAP2 AND DUP2 MSTORE PUSH1 0x20 ADD SWAP1 JUMP JUMPDEST SWAP1 DUP2 MSTORE PUSH1 0x20 ADD SWAP1 JUMP JUMPDEST SWAP4 DUP5 MSTORE PUSH1 0x1 PUSH1 0x1 PUSH1 0x80 SHL SUB SWAP3 SWAP1 SWAP3 AND PUSH1 0x20 DUP5 ADD MSTORE PUSH1 0x40 DUP4 ADD MSTORE PUSH1 0x60 DUP3 ADD MSTORE PUSH1 0x80 ADD SWAP1 JUMP JUMPDEST SWAP2 DUP3 MSTORE PUSH1 0x20 DUP3 ADD MSTORE PUSH1 0x40 ADD SWAP1 JUMP JUMPDEST PUSH1 0x0 PUSH1 0x1 PUSH1 0x1 PUSH1 0x80 SHL SUB DUP1 DUP5 AND DUP1 PUSH2 0x14B4 JUMPI PUSH2 0x14B4 PUSH2 0x1520 JUMP JUMPDEST SWAP3 AND SWAP2 SWAP1 SWAP2 DIV SWAP3 SWAP2 POP POP JUMP JUMPDEST PUSH1 0x0 DUP3 PUSH2 0x14CF JUMPI PUSH2 0x14CF PUSH2 0x1520 JUMP JUMPDEST POP DIV SWAP1 JUMP JUMPDEST PUSH1 0x0 DUP2 PUSH1 0x0 NOT DIV DUP4 GT DUP3 ISZERO ISZERO AND ISZERO PUSH2 0x14EE JUMPI PUSH2 0x14EE PUSH2 0x150A JUMP JUMPDEST POP MUL SWAP1 JUMP JUMPDEST PUSH1 0x0 DUP3 DUP3 LT ISZERO PUSH2 0x1505 JUMPI PUSH2 0x1505 PUSH2 0x150A JUMP JUMPDEST POP SUB SWAP1 JUMP JUMPDEST PUSH4 0x4E487B71 PUSH1 0xE0 SHL PUSH1 0x0 MSTORE PUSH1 0x11 PUSH1 0x4 MSTORE PUSH1 0x24 PUSH1 0x0 REVERT JUMPDEST PUSH4 0x4E487B71 PUSH1 0xE0 SHL PUSH1 0x0 MSTORE PUSH1 0x12 PUSH1 0x4 MSTORE PUSH1 0x24 PUSH1 0x0 REVERT JUMPDEST PUSH1 0x1 PUSH1 0x1 PUSH1 0xA0 SHL SUB DUP2 AND DUP2 EQ PUSH2 0x154B JUMPI PUSH1 0x0 DUP1 REVERT JUMPDEST POP JUMP INVALID STOP STOP STOP STOP STOP STOP STOP STOP STOP STOP STOP STOP 0xC3 PUSH5 0x42B4A4522E DUP8 SGT SWAP10 0xCD PUSH18 0x7ABDD847AB11FE88A2646970667358221220 0x22 0x5E CALLDATACOPY PUSH31 0xBEFA2947160D5469786E2BEE6A37935767BF201D20B457A848B0D65964736F PUSH13 0x63430008000033000000000000 "
				},
				"gasEstimates": {
					"creation": {
						"codeDepositCost": "1108000",
						"executionCost": "1154",
						"totalCost": "1109154"
					},
					"external": {
						"DAI()": "340",
						"USDC()": "274",
						"collectAllFees(uint256)": "infinite",
						"decreaseLiquidityInHalf(uint256)": "infinite",
						"deposits(uint256)": "3840",
						"increaseLiquidityCurrentRange(uint256,uint256,uint256)": "infinite",
						"mintNewPosition()": "infinite",
						"nonfungiblePositionManager()": "infinite",
						"onERC721Received(address,address,uint256,bytes)": "infinite",
						"poolFee()": "241"
					},
					"internal": {
						"_createDeposit(address,uint256)": "infinite",
						"_sendToOwner(uint256,uint256,uint256)": "infinite"
					}
				},
				"methodIdentifiers": {
					"DAI()": "e0bab4c4",
					"USDC()": "89a30271",
					"collectAllFees(uint256)": "46ce96dd",
					"decreaseLiquidityInHalf(uint256)": "8187b4c5",
					"deposits(uint256)": "b02c43d0",
					"increaseLiquidityCurrentRange(uint256,uint256,uint256)": "617d6d6e",
					"mintNewPosition()": "306d9c61",
					"nonfungiblePositionManager()": "b44a2722",
					"onERC721Received(address,address,uint256,bytes)": "150b7a02",
					"poolFee()": "089fe6aa"
				}
			},
			"storageLayout": {
				"storage": [
					{
						"astId": 830,
						"contract": "contracts/uniswapv3lp.sol:LiquidityExamples",
						"label": "deposits",
						"offset": 0,
						"slot": "0",
						"type": "t_mapping(t_uint256,t_struct(Deposit)824_storage)"
					}
				],
				"types": {
					"t_address": {
						"encoding": "inplace",
						"label": "address",
						"numberOfBytes": "20"
					},
					"t_mapping(t_uint256,t_struct(Deposit)824_storage)": {
						"encoding": "mapping",
						"key": "t_uint256",
						"label": "mapping(uint256 => struct LiquidityExamples.Deposit)",
						"numberOfBytes": "32",
						"value": "t_struct(Deposit)824_storage"
					},
					"t_struct(Deposit)824_storage": {
						"encoding": "inplace",
						"label": "struct LiquidityExamples.Deposit",
						"members": [
							{
								"astId": 817,
								"contract": "contracts/uniswapv3lp.sol:LiquidityExamples",
								"label": "owner",
								"offset": 0,
								"slot": "0",
								"type": "t_address"
							},
							{
								"astId": 819,
								"contract": "contracts/uniswapv3lp.sol:LiquidityExamples",
								"label": "liquidity",
								"offset": 0,
								"slot": "1",
								"type": "t_uint128"
							},
							{
								"astId": 821,
								"contract": "contracts/uniswapv3lp.sol:LiquidityExamples",
								"label": "token0",
								"offset": 0,
								"slot": "2",
								"type": "t_address"
							},
							{
								"astId": 823,
								"contract": "contracts/uniswapv3lp.sol:LiquidityExamples",
								"label": "token1",
								"offset": 0,
								"slot": "3",
								"type": "t_address"
							}
						],
						"numberOfBytes": "128"
					},
					"t_uint128": {
						"encoding": "inplace",
						"label": "uint128",
						"numberOfBytes": "16"
					},
					"t_uint256": {
						"encoding": "inplace",
						"label": "uint256",
						"numberOfBytes": "32"
					}
				}
			},
			"userdoc": {
				"kind": "user",
				"methods": {
					"collectAllFees(uint256)": {
						"notice": "Collects the fees associated with provided liquidity"
					},
					"decreaseLiquidityInHalf(uint256)": {
						"notice": "A function that decreases the current liquidity by half. An example to show how to call the `decreaseLiquidity` function defined in periphery."
					},
					"increaseLiquidityCurrentRange(uint256,uint256,uint256)": {
						"notice": "Increases liquidity in the current range"
					},
					"mintNewPosition()": {
						"notice": "Calls the mint function defined in periphery, mints the same amount of each token. For this example we are providing 1000 DAI and 1000 USDC in liquidity"
					}
				},
				"version": 1
			}
		}
	}
}