{
	"contracts/uniswapv3lp.sol": {
		"LiquidityExamples": {
			"abi": [
				{
					"anonymous": false,
					"inputs": [
						{
							"indexed": true,
							"internalType": "address",
							"name": "previousOwner",
							"type": "address"
						},
						{
							"indexed": true,
							"internalType": "address",
							"name": "newOwner",
							"type": "address"
						}
					],
					"name": "OwnershipTransferred",
					"type": "event"
				},
				{
					"inputs": [],
					"name": "DAI",
					"outputs": [
						{
							"internalType": "address",
							"name": "",
							"type": "address"
						}
					],
					"stateMutability": "view",
					"type": "function"
				},
				{
					"inputs": [
						{
							"internalType": "uint256",
							"name": "",
							"type": "uint256"
						}
					],
					"name": "LPs",
					"outputs": [
						{
							"internalType": "contract LPtoken",
							"name": "",
							"type": "address"
						}
					],
					"stateMutability": "view",
					"type": "function"
				},
				{
					"inputs": [],
					"name": "USDC",
					"outputs": [
						{
							"internalType": "address",
							"name": "",
							"type": "address"
						}
					],
					"stateMutability": "view",
					"type": "function"
				},
				{
					"inputs": [
						{
							"internalType": "uint256",
							"name": "tokenId",
							"type": "uint256"
						}
					],
					"name": "collectFees",
					"outputs": [
						{
							"internalType": "uint256",
							"name": "amount0",
							"type": "uint256"
						},
						{
							"internalType": "uint256",
							"name": "amount1",
							"type": "uint256"
						}
					],
					"stateMutability": "nonpayable",
					"type": "function"
				},
				{
					"inputs": [
						{
							"internalType": "uint256",
							"name": "tokenId",
							"type": "uint256"
						},
						{
							"internalType": "uint128",
							"name": "_liquidity",
							"type": "uint128"
						},
						{
							"internalType": "uint256",
							"name": "slippage",
							"type": "uint256"
						}
					],
					"name": "decreaseLiquidity",
					"outputs": [
						{
							"internalType": "uint256",
							"name": "amount0",
							"type": "uint256"
						},
						{
							"internalType": "uint256",
							"name": "amount1",
							"type": "uint256"
						}
					],
					"stateMutability": "nonpayable",
					"type": "function"
				},
				{
					"inputs": [
						{
							"internalType": "uint256",
							"name": "",
							"type": "uint256"
						}
					],
					"name": "deposits",
					"outputs": [
						{
							"internalType": "address",
							"name": "owner",
							"type": "address"
						},
						{
							"internalType": "uint128",
							"name": "liquidity",
							"type": "uint128"
						},
						{
							"internalType": "address",
							"name": "token0",
							"type": "address"
						},
						{
							"internalType": "address",
							"name": "token1",
							"type": "address"
						}
					],
					"stateMutability": "view",
					"type": "function"
				},
				{
					"inputs": [
						{
							"internalType": "uint256",
							"name": "tokenId",
							"type": "uint256"
						},
						{
							"internalType": "uint256",
							"name": "amountAdd0",
							"type": "uint256"
						},
						{
							"internalType": "uint256",
							"name": "amountAdd1",
							"type": "uint256"
						},
						{
							"internalType": "uint256",
							"name": "slippage",
							"type": "uint256"
						}
					],
					"name": "increaseLiquidityCurrentRange",
					"outputs": [
						{
							"internalType": "uint128",
							"name": "liquidity",
							"type": "uint128"
						},
						{
							"internalType": "uint256",
							"name": "amount0",
							"type": "uint256"
						},
						{
							"internalType": "uint256",
							"name": "amount1",
							"type": "uint256"
						}
					],
					"stateMutability": "nonpayable",
					"type": "function"
				},
				{
					"inputs": [
						{
							"internalType": "address",
							"name": "t0",
							"type": "address"
						},
						{
							"internalType": "address",
							"name": "t1",
							"type": "address"
						},
						{
							"internalType": "int24",
							"name": "tlow",
							"type": "int24"
						},
						{
							"internalType": "int24",
							"name": "tup",
							"type": "int24"
						},
						{
							"internalType": "uint256",
							"name": "amount0ToMint",
							"type": "uint256"
						},
						{
							"internalType": "uint256",
							"name": "amount1ToMint",
							"type": "uint256"
						},
						{
							"internalType": "uint256",
							"name": "slippage",
							"type": "uint256"
						},
						{
							"internalType": "contract LPtoken",
							"name": "_LPtoken",
							"type": "address"
						}
					],
					"name": "mintNewPosition",
					"outputs": [
						{
							"internalType": "uint256",
							"name": "tokenId",
							"type": "uint256"
						},
						{
							"internalType": "uint128",
							"name": "liquidity",
							"type": "uint128"
						},
						{
							"internalType": "uint256",
							"name": "amount0",
							"type": "uint256"
						},
						{
							"internalType": "uint256",
							"name": "amount1",
							"type": "uint256"
						}
					],
					"stateMutability": "nonpayable",
					"type": "function"
				},
				{
					"inputs": [],
					"name": "nonfungiblePositionManager",
					"outputs": [
						{
							"internalType": "contract INonfungiblePositionManager",
							"name": "",
							"type": "address"
						}
					],
					"stateMutability": "view",
					"type": "function"
				},
				{
					"inputs": [
						{
							"internalType": "address",
							"name": "operator",
							"type": "address"
						},
						{
							"internalType": "address",
							"name": "",
							"type": "address"
						},
						{
							"internalType": "uint256",
							"name": "tokenId",
							"type": "uint256"
						},
						{
							"internalType": "bytes",
							"name": "",
							"type": "bytes"
						}
					],
					"name": "onERC721Received",
					"outputs": [
						{
							"internalType": "bytes4",
							"name": "",
							"type": "bytes4"
						}
					],
					"stateMutability": "nonpayable",
					"type": "function"
				},
				{
					"inputs": [],
					"name": "owner",
					"outputs": [
						{
							"internalType": "address",
							"name": "",
							"type": "address"
						}
					],
					"stateMutability": "view",
					"type": "function"
				},
				{
					"inputs": [],
					"name": "poolFee",
					"outputs": [
						{
							"internalType": "uint24",
							"name": "",
							"type": "uint24"
						}
					],
					"stateMutability": "view",
					"type": "function"
				},
				{
					"inputs": [],
					"name": "renounceOwnership",
					"outputs": [],
					"stateMutability": "nonpayable",
					"type": "function"
				},
				{
					"inputs": [
						{
							"internalType": "address",
							"name": "newOwner",
							"type": "address"
						}
					],
					"name": "transferOwnership",
					"outputs": [],
					"stateMutability": "nonpayable",
					"type": "function"
				}
			],
			"devdoc": {
				"kind": "dev",
				"methods": {
					"collectFees(uint256)": {
						"details": "The contract must hold the erc721 token before it can collect fees",
						"params": {
							"tokenId": "The id of the erc721 token"
						},
						"returns": {
							"amount0": "The amount of fees collected in token0",
							"amount1": "The amount of fees collected in token1"
						}
					},
					"decreaseLiquidity(uint256,uint128,uint256)": {
						"params": {
							"tokenId": "The id of the erc721 token"
						},
						"returns": {
							"amount0": "The amount received back in token0",
							"amount1": "The amount returned back in token1"
						}
					},
					"increaseLiquidityCurrentRange(uint256,uint256,uint256,uint256)": {
						"details": "Pool must be initialized already to add liquidity",
						"params": {
							"amount0": "The amount to add of token0",
							"amount1": "The amount to add of token1",
							"tokenId": "The id of the erc721 token"
						}
					},
					"mintNewPosition(address,address,int24,int24,uint256,uint256,uint256,address)": {
						"returns": {
							"amount0": "The amount of token0",
							"amount1": "The amount of token1",
							"liquidity": "The amount of liquidity for the position",
							"tokenId": "The id of the newly minted ERC721"
						}
					},
					"owner()": {
						"details": "Returns the address of the current owner."
					},
					"renounceOwnership()": {
						"details": "Leaves the contract without owner. It will not be possible to call `onlyOwner` functions anymore. Can only be called by the current owner. NOTE: Renouncing ownership will leave the contract without an owner, thereby removing any functionality that is only available to the owner."
					},
					"transferOwnership(address)": {
						"details": "Transfers ownership of the contract to a new account (`newOwner`). Can only be called by the current owner."
					}
				},
				"stateVariables": {
					"deposits": {
						"details": "deposits[tokenId] => Deposit"
					}
				},
				"version": 1
			},
			"evm": {
				"assembly": "    /* \"contracts/uniswapv3lp.sol\":618:12484  contract LiquidityExamples is IERC721Receiver,Ownable {... */\n  mstore(0x40, 0x80)\n  callvalue\n  dup1\n  iszero\n  tag_1\n  jumpi\n  0x00\n  dup1\n  revert\ntag_1:\n  pop\n    /* \"@openzeppelin/contracts/access/Ownable.sol\":936:968  _transferOwnership(_msgSender()) */\n  tag_4\n    /* \"@openzeppelin/contracts/utils/Context.sol\":719:729  msg.sender */\n  caller\n    /* \"@openzeppelin/contracts/access/Ownable.sol\":936:954  _transferOwnership */\n  tag_7\n    /* \"@openzeppelin/contracts/access/Ownable.sol\":936:968  _transferOwnership(_msgSender()) */\n  jump\t// in\ntag_4:\n    /* \"contracts/uniswapv3lp.sol\":618:12484  contract LiquidityExamples is IERC721Receiver,Ownable {... */\n  jump(tag_8)\n    /* \"@openzeppelin/contracts/access/Ownable.sol\":2433:2620  function _transferOwnership(address newOwner) internal virtual {... */\ntag_7:\n    /* \"@openzeppelin/contracts/access/Ownable.sol\":2506:2522  address oldOwner */\n  0x00\n    /* \"@openzeppelin/contracts/access/Ownable.sol\":2525:2531  _owner */\n  dup1\n  sload\n  sub(shl(0xa0, 0x01), 0x01)\n    /* \"@openzeppelin/contracts/access/Ownable.sol\":2541:2558  _owner = newOwner */\n  dup4\n  dup2\n  and\n  not(sub(shl(0xa0, 0x01), 0x01))\n  dup4\n  and\n  dup2\n  or\n  dup5\n  sstore\n    /* \"@openzeppelin/contracts/access/Ownable.sol\":2573:2613  OwnershipTransferred(oldOwner, newOwner) */\n  mload(0x40)\n    /* \"@openzeppelin/contracts/access/Ownable.sol\":2525:2531  _owner */\n  swap2\n  swap1\n  swap3\n  and\n  swap3\n  dup4\n  swap2\n    /* \"@openzeppelin/contracts/access/Ownable.sol\":2573:2613  OwnershipTransferred(oldOwner, newOwner) */\n  0x8be0079c531659141344cd1fd0a4f28419497f9722a3daafe3b4186f6b6457e0\n  swap2\n    /* \"@openzeppelin/contracts/access/Ownable.sol\":2506:2522  address oldOwner */\n  swap1\n    /* \"@openzeppelin/contracts/access/Ownable.sol\":2573:2613  OwnershipTransferred(oldOwner, newOwner) */\n  log3\n    /* \"@openzeppelin/contracts/access/Ownable.sol\":2496:2620  {... */\n  pop\n    /* \"@openzeppelin/contracts/access/Ownable.sol\":2433:2620  function _transferOwnership(address newOwner) internal virtual {... */\n  pop\n  jump\t// out\n    /* \"contracts/uniswapv3lp.sol\":618:12484  contract LiquidityExamples is IERC721Receiver,Ownable {... */\ntag_8:\n  dataSize(sub_0)\n  dup1\n  dataOffset(sub_0)\n  0x00\n  codecopy\n  0x00\n  return\nstop\n\nsub_0: assembly {\n        /* \"contracts/uniswapv3lp.sol\":618:12484  contract LiquidityExamples is IERC721Receiver,Ownable {... */\n      mstore(0x40, 0x80)\n      callvalue\n      dup1\n      iszero\n      tag_1\n      jumpi\n      0x00\n      dup1\n      revert\n    tag_1:\n      pop\n      jumpi(tag_2, lt(calldatasize, 0x04))\n      shr(0xe0, calldataload(0x00))\n      dup1\n      0xa7459ac8\n      gt\n      tag_17\n      jumpi\n      dup1\n      0xb44a2722\n      gt\n      tag_18\n      jumpi\n      dup1\n      0xb44a2722\n      eq\n      tag_13\n      jumpi\n      dup1\n      0xe0bab4c4\n      eq\n      tag_14\n      jumpi\n      dup1\n      0xf2fde38b\n      eq\n      tag_15\n      jumpi\n      dup1\n      0xff0388a0\n      eq\n      tag_16\n      jumpi\n      0x00\n      dup1\n      revert\n    tag_18:\n      dup1\n      0xa7459ac8\n      eq\n      tag_10\n      jumpi\n      dup1\n      0xb02c43d0\n      eq\n      tag_11\n      jumpi\n      dup1\n      0xb17acdcd\n      eq\n      tag_12\n      jumpi\n      0x00\n      dup1\n      revert\n    tag_17:\n      dup1\n      0x715018a6\n      gt\n      tag_19\n      jumpi\n      dup1\n      0x715018a6\n      eq\n      tag_6\n      jumpi\n      dup1\n      0x89a30271\n      eq\n      tag_7\n      jumpi\n      dup1\n      0x8da5cb5b\n      eq\n      tag_8\n      jumpi\n      dup1\n      0x957c524f\n      eq\n      tag_9\n      jumpi\n      0x00\n      dup1\n      revert\n    tag_19:\n      dup1\n      0x089fe6aa\n      eq\n      tag_3\n      jumpi\n      dup1\n      0x150b7a02\n      eq\n      tag_4\n      jumpi\n      dup1\n      0x5846ce4e\n      eq\n      tag_5\n      jumpi\n    tag_2:\n      0x00\n      dup1\n      revert\n        /* \"contracts/uniswapv3lp.sol\":989:1025  uint24 public constant poolFee = 500 */\n    tag_3:\n      tag_20\n        /* \"contracts/uniswapv3lp.sol\":1022:1025  500 */\n      0x01f4\n        /* \"contracts/uniswapv3lp.sol\":989:1025  uint24 public constant poolFee = 500 */\n      dup2\n      jump\n    tag_20:\n      mload(0x40)\n        /* \"#utility.yul\":285:293   */\n      0xffffff\n        /* \"#utility.yul\":273:294   */\n      swap1\n      swap2\n      and\n        /* \"#utility.yul\":255:295   */\n      dup2\n      mstore\n        /* \"#utility.yul\":243:245   */\n      0x20\n        /* \"#utility.yul\":228:246   */\n      add\n        /* \"contracts/uniswapv3lp.sol\":989:1025  uint24 public constant poolFee = 500 */\n    tag_22:\n      mload(0x40)\n      dup1\n      swap2\n      sub\n      swap1\n      return\n        /* \"contracts/uniswapv3lp.sol\":1540:1892  function onERC721Received(... */\n    tag_4:\n      tag_24\n      tag_25\n      calldatasize\n      0x04\n      tag_26\n      jump\t// in\n    tag_25:\n      tag_27\n      jump\t// in\n    tag_24:\n      mload(0x40)\n      not(sub(shl(0xe0, 0x01), 0x01))\n        /* \"#utility.yul\":1545:1578   */\n      swap1\n      swap2\n      and\n        /* \"#utility.yul\":1527:1579   */\n      dup2\n      mstore\n        /* \"#utility.yul\":1515:1517   */\n      0x20\n        /* \"#utility.yul\":1500:1518   */\n      add\n        /* \"contracts/uniswapv3lp.sol\":1540:1892  function onERC721Received(... */\n      tag_22\n        /* \"#utility.yul\":1383:1585   */\n      jump\n        /* \"contracts/uniswapv3lp.sol\":8911:10913  function increaseLiquidityCurrentRange(... */\n    tag_5:\n      tag_30\n      tag_31\n      calldatasize\n      0x04\n      tag_32\n      jump\t// in\n    tag_31:\n      tag_33\n      jump\t// in\n    tag_30:\n      0x40\n      dup1\n      mload\n      sub(shl(0x80, 0x01), 0x01)\n        /* \"#utility.yul\":2200:2247   */\n      swap1\n      swap5\n      and\n        /* \"#utility.yul\":2182:2248   */\n      dup5\n      mstore\n        /* \"#utility.yul\":2279:2281   */\n      0x20\n        /* \"#utility.yul\":2264:2282   */\n      dup5\n      add\n        /* \"#utility.yul\":2257:2291   */\n      swap3\n      swap1\n      swap3\n      mstore\n        /* \"#utility.yul\":2307:2325   */\n      swap1\n      dup3\n      add\n        /* \"#utility.yul\":2300:2334   */\n      mstore\n        /* \"#utility.yul\":2170:2172   */\n      0x60\n        /* \"#utility.yul\":2155:2173   */\n      add\n        /* \"contracts/uniswapv3lp.sol\":8911:10913  function increaseLiquidityCurrentRange(... */\n      tag_22\n        /* \"#utility.yul\":1980:2340   */\n      jump\n        /* \"@openzeppelin/contracts/access/Ownable.sol\":1831:1932  function renounceOwnership() public virtual onlyOwner {... */\n    tag_6:\n      tag_36\n      tag_37\n      jump\t// in\n    tag_36:\n      stop\n        /* \"contracts/uniswapv3lp.sol\":909:982  address public constant USDC = 0x3DB4B7DA67dd5aF61Cb9b3C70501B1BdB24b2C22 */\n    tag_7:\n      tag_38\n        /* \"contracts/uniswapv3lp.sol\":940:982  0x3DB4B7DA67dd5aF61Cb9b3C70501B1BdB24b2C22 */\n      0x3db4b7da67dd5af61cb9b3c70501b1bdb24b2c22\n        /* \"contracts/uniswapv3lp.sol\":909:982  address public constant USDC = 0x3DB4B7DA67dd5aF61Cb9b3C70501B1BdB24b2C22 */\n      dup2\n      jump\n    tag_38:\n      mload(0x40)\n      sub(shl(0xa0, 0x01), 0x01)\n        /* \"#utility.yul\":2618:2650   */\n      swap1\n      swap2\n      and\n        /* \"#utility.yul\":2600:2651   */\n      dup2\n      mstore\n        /* \"#utility.yul\":2588:2590   */\n      0x20\n        /* \"#utility.yul\":2573:2591   */\n      add\n        /* \"contracts/uniswapv3lp.sol\":909:982  address public constant USDC = 0x3DB4B7DA67dd5aF61Cb9b3C70501B1BdB24b2C22 */\n      tag_22\n        /* \"#utility.yul\":2454:2657   */\n      jump\n        /* \"@openzeppelin/contracts/access/Ownable.sol\":1201:1286  function owner() public view virtual returns (address) {... */\n    tag_8:\n        /* \"@openzeppelin/contracts/access/Ownable.sol\":1247:1254  address */\n      0x00\n        /* \"@openzeppelin/contracts/access/Ownable.sol\":1273:1279  _owner */\n      sload\n      sub(shl(0xa0, 0x01), 0x01)\n      and\n        /* \"@openzeppelin/contracts/access/Ownable.sol\":1201:1286  function owner() public view virtual returns (address) {... */\n      jump(tag_38)\n        /* \"contracts/uniswapv3lp.sol\":7058:8626  function decreaseLiquidity(uint256 tokenId, uint128 _liquidity, uint256 slippage) external returns (uint256 amount0, uint256 amount1) {... */\n    tag_9:\n      tag_45\n      tag_46\n      calldatasize\n      0x04\n      tag_47\n      jump\t// in\n    tag_46:\n      tag_48\n      jump\t// in\n    tag_45:\n      0x40\n      dup1\n      mload\n        /* \"#utility.yul\":3375:3400   */\n      swap3\n      dup4\n      mstore\n        /* \"#utility.yul\":3431:3433   */\n      0x20\n        /* \"#utility.yul\":3416:3434   */\n      dup4\n      add\n        /* \"#utility.yul\":3409:3443   */\n      swap2\n      swap1\n      swap2\n      mstore\n        /* \"#utility.yul\":3348:3366   */\n      add\n        /* \"contracts/uniswapv3lp.sol\":7058:8626  function decreaseLiquidity(uint256 tokenId, uint128 _liquidity, uint256 slippage) external returns (uint256 amount0, uint256 amount1) {... */\n      tag_22\n        /* \"#utility.yul\":3201:3449   */\n      jump\n        /* \"contracts/uniswapv3lp.sol\":1322:1360  mapping(uint256 => LPtoken) public LPs */\n    tag_10:\n      tag_38\n      tag_52\n      calldatasize\n      0x04\n      tag_53\n      jump\t// in\n    tag_52:\n      mstore(0x20, 0x02)\n      0x00\n      swap1\n      dup2\n      mstore\n      0x40\n      swap1\n      keccak256\n      sload\n      sub(shl(0xa0, 0x01), 0x01)\n      and\n      dup2\n      jump\n        /* \"contracts/uniswapv3lp.sol\":1270:1313  mapping(uint256 => Deposit) public deposits */\n    tag_11:\n      tag_57\n      tag_58\n      calldatasize\n      0x04\n      tag_53\n      jump\t// in\n    tag_58:\n      0x01\n      0x20\n      dup2\n      swap1\n      mstore\n      0x00\n      swap2\n      dup3\n      mstore\n      0x40\n      swap1\n      swap2\n      keccak256\n      dup1\n      sload\n      swap2\n      dup2\n      add\n      sload\n      0x02\n      dup3\n      add\n      sload\n      0x03\n      swap1\n      swap3\n      add\n      sload\n      sub(shl(0xa0, 0x01), 0x01)\n      swap4\n      dup5\n      and\n      swap4\n      sub(shl(0x80, 0x01), 0x01)\n      swap1\n      swap3\n      and\n      swap3\n      dup3\n      and\n      swap2\n      and\n      dup5\n      jump\n    tag_57:\n      0x40\n      dup1\n      mload\n      sub(shl(0xa0, 0x01), 0x01)\n        /* \"#utility.yul\":4149:4164   */\n      swap6\n      dup7\n      and\n        /* \"#utility.yul\":4131:4165   */\n      dup2\n      mstore\n      sub(shl(0x80, 0x01), 0x01)\n        /* \"#utility.yul\":4201:4248   */\n      swap1\n      swap5\n      and\n        /* \"#utility.yul\":4196:4198   */\n      0x20\n        /* \"#utility.yul\":4181:4199   */\n      dup6\n      add\n        /* \"#utility.yul\":4174:4249   */\n      mstore\n        /* \"#utility.yul\":4285:4300   */\n      swap2\n      dup5\n      and\n        /* \"#utility.yul\":4265:4283   */\n      swap2\n      dup4\n      add\n        /* \"#utility.yul\":4258:4301   */\n      swap2\n      swap1\n      swap2\n      mstore\n        /* \"#utility.yul\":4337:4352   */\n      swap2\n      swap1\n      swap2\n      and\n        /* \"#utility.yul\":4332:4334   */\n      0x60\n        /* \"#utility.yul\":4317:4335   */\n      dup3\n      add\n        /* \"#utility.yul\":4310:4353   */\n      mstore\n        /* \"#utility.yul\":4080:4083   */\n      0x80\n        /* \"#utility.yul\":4065:4084   */\n      add\n        /* \"contracts/uniswapv3lp.sol\":1270:1313  mapping(uint256 => Deposit) public deposits */\n      tag_22\n        /* \"#utility.yul\":3862:4359   */\n      jump\n        /* \"contracts/uniswapv3lp.sol\":5689:6719  function collectFees(uint256 tokenId) external onlyOwner returns (uint256 amount0, uint256 amount1) {... */\n    tag_12:\n      tag_45\n      tag_63\n      calldatasize\n      0x04\n      tag_53\n      jump\t// in\n    tag_63:\n      tag_64\n      jump\t// in\n        /* \"contracts/uniswapv3lp.sol\":679:823  INonfungiblePositionManager public constant nonfungiblePositionManager = INonfungiblePositionManager(0xC36442b4a4522E871399CD717aBDD847Ab11FE88) */\n    tag_13:\n      tag_38\n      0x00\n      dup1\n      mload\n      0x20\n      data_65cfeff779fe42d2d5b4c2c078348cb18abbc731a2e3837262888dd9b50bb10e\n      dup4\n      codecopy\n      dup2\n      mload\n      swap2\n      mstore\n      dup2\n      jump\n        /* \"contracts/uniswapv3lp.sol\":830:902  address public constant DAI = 0xDA10009cBd5D07dd0CeCc66161FC93D7c9000da1 */\n    tag_14:\n      tag_38\n        /* \"contracts/uniswapv3lp.sol\":860:902  0xDA10009cBd5D07dd0CeCc66161FC93D7c9000da1 */\n      0xda10009cbd5d07dd0cecc66161fc93d7c9000da1\n        /* \"contracts/uniswapv3lp.sol\":830:902  address public constant DAI = 0xDA10009cBd5D07dd0CeCc66161FC93D7c9000da1 */\n      dup2\n      jump\n        /* \"@openzeppelin/contracts/access/Ownable.sol\":2081:2279  function transferOwnership(address newOwner) public virtual onlyOwner {... */\n    tag_15:\n      tag_36\n      tag_74\n      calldatasize\n      0x04\n      tag_75\n      jump\t// in\n    tag_74:\n      tag_76\n      jump\t// in\n        /* \"contracts/uniswapv3lp.sol\":2888:5351  function mintNewPosition(address t0, address t1, int24 tlow,  int24 tup, uint256 amount0ToMint, uint256 amount1ToMint, uint256 slippage, LPtoken _LPtoken)... */\n    tag_16:\n      tag_77\n      tag_78\n      calldatasize\n      0x04\n      tag_79\n      jump\t// in\n    tag_78:\n      tag_80\n      jump\t// in\n    tag_77:\n      0x40\n      dup1\n      mload\n        /* \"#utility.yul\":6246:6271   */\n      swap5\n      dup6\n      mstore\n      sub(shl(0x80, 0x01), 0x01)\n        /* \"#utility.yul\":6307:6354   */\n      swap1\n      swap4\n      and\n        /* \"#utility.yul\":6302:6304   */\n      0x20\n        /* \"#utility.yul\":6287:6305   */\n      dup6\n      add\n        /* \"#utility.yul\":6280:6355   */\n      mstore\n        /* \"#utility.yul\":6371:6389   */\n      swap2\n      dup4\n      add\n        /* \"#utility.yul\":6364:6398   */\n      mstore\n        /* \"#utility.yul\":6429:6431   */\n      0x60\n        /* \"#utility.yul\":6414:6432   */\n      dup3\n      add\n        /* \"#utility.yul\":6407:6441   */\n      mstore\n        /* \"#utility.yul\":6233:6236   */\n      0x80\n        /* \"#utility.yul\":6218:6237   */\n      add\n        /* \"contracts/uniswapv3lp.sol\":2888:5351  function mintNewPosition(address t0, address t1, int24 tlow,  int24 tup, uint256 amount0ToMint, uint256 amount1ToMint, uint256 slippage, LPtoken _LPtoken)... */\n      tag_22\n        /* \"#utility.yul\":6015:6447   */\n      jump\n        /* \"contracts/uniswapv3lp.sol\":1540:1892  function onERC721Received(... */\n    tag_27:\n        /* \"contracts/uniswapv3lp.sol\":1696:1702  bytes4 */\n      0x00\n        /* \"contracts/uniswapv3lp.sol\":1723:1733  msg.sender */\n      caller\n      0x00\n      dup1\n      mload\n      0x20\n      data_65cfeff779fe42d2d5b4c2c078348cb18abbc731a2e3837262888dd9b50bb10e\n      dup4\n      codecopy\n      dup2\n      mload\n      swap2\n      mstore\n        /* \"contracts/uniswapv3lp.sol\":1723:1772  msg.sender == address(nonfungiblePositionManager) */\n      eq\n        /* \"contracts/uniswapv3lp.sol\":1715:1792  require(msg.sender == address(nonfungiblePositionManager), 'not a univ3 nft') */\n      tag_84\n      jumpi\n      mload(0x40)\n      shl(0xe5, 0x461bcd)\n      dup2\n      mstore\n        /* \"#utility.yul\":6654:6656   */\n      0x20\n        /* \"contracts/uniswapv3lp.sol\":1715:1792  require(msg.sender == address(nonfungiblePositionManager), 'not a univ3 nft') */\n      0x04\n      dup3\n      add\n        /* \"#utility.yul\":6636:6657   */\n      mstore\n        /* \"#utility.yul\":6693:6695   */\n      0x0f\n        /* \"#utility.yul\":6673:6691   */\n      0x24\n      dup3\n      add\n        /* \"#utility.yul\":6666:6696   */\n      mstore\n      shl(0x8a, 0x1b9bdd0818481d5b9a5d8cc81b999d)\n        /* \"#utility.yul\":6712:6730   */\n      0x44\n      dup3\n      add\n        /* \"#utility.yul\":6705:6750   */\n      mstore\n        /* \"#utility.yul\":6767:6785   */\n      0x64\n      add\n        /* \"contracts/uniswapv3lp.sol\":1715:1792  require(msg.sender == address(nonfungiblePositionManager), 'not a univ3 nft') */\n    tag_85:\n      mload(0x40)\n      dup1\n      swap2\n      sub\n      swap1\n      revert\n    tag_84:\n        /* \"contracts/uniswapv3lp.sol\":1803:1836  _createDeposit(operator, tokenId) */\n      tag_87\n        /* \"contracts/uniswapv3lp.sol\":1818:1826  operator */\n      dup7\n        /* \"contracts/uniswapv3lp.sol\":1828:1835  tokenId */\n      dup6\n        /* \"contracts/uniswapv3lp.sol\":1803:1817  _createDeposit */\n      tag_88\n        /* \"contracts/uniswapv3lp.sol\":1803:1836  _createDeposit(operator, tokenId) */\n      jump\t// in\n    tag_87:\n      pop\n      shl(0xe1, 0x0a85bd01)\n        /* \"contracts/uniswapv3lp.sol\":1540:1892  function onERC721Received(... */\n      swap6\n      swap5\n      pop\n      pop\n      pop\n      pop\n      pop\n      jump\t// out\n        /* \"contracts/uniswapv3lp.sol\":8911:10913  function increaseLiquidityCurrentRange(... */\n    tag_33:\n        /* \"contracts/uniswapv3lp.sol\":9118:9135  uint128 liquidity */\n      0x00\n        /* \"contracts/uniswapv3lp.sol\":9236:9248  LPs[tokenId] */\n      dup5\n      dup2\n      mstore\n        /* \"contracts/uniswapv3lp.sol\":9236:9239  LPs */\n      0x02\n        /* \"contracts/uniswapv3lp.sol\":9236:9248  LPs[tokenId] */\n      0x20\n      dup2\n      dup2\n      mstore\n      0x40\n      dup1\n      dup5\n      keccak256\n      sload\n      0x01\n        /* \"contracts/uniswapv3lp.sol\":9276:9293  deposits[tokenId] */\n      swap1\n      swap3\n      mstore\n      dup4\n      keccak256\n        /* \"contracts/uniswapv3lp.sol\":9276:9300  deposits[tokenId].token0 */\n      swap2\n      dup3\n      add\n      sload\n        /* \"contracts/uniswapv3lp.sol\":9328:9352  deposits[tokenId].token1 */\n      0x03\n      swap1\n      swap3\n      add\n      sload\n        /* \"contracts/uniswapv3lp.sol\":9118:9135  uint128 liquidity */\n      dup4\n      swap3\n      dup4\n      swap3\n      sub(shl(0xa0, 0x01), 0x01)\n        /* \"contracts/uniswapv3lp.sol\":9236:9248  LPs[tokenId] */\n      swap1\n      dup2\n      and\n      swap3\n        /* \"contracts/uniswapv3lp.sol\":9276:9300  deposits[tokenId].token0 */\n      swap2\n      dup2\n      and\n      swap2\n        /* \"contracts/uniswapv3lp.sol\":9328:9352  deposits[tokenId].token1 */\n      and\n        /* \"contracts/uniswapv3lp.sol\":9363:9441  TransferHelper.safeTransferFrom(token0, msg.sender, address(this), amountAdd0) */\n      tag_90\n        /* \"contracts/uniswapv3lp.sol\":9276:9300  deposits[tokenId].token0 */\n      dup3\n        /* \"contracts/uniswapv3lp.sol\":9403:9413  msg.sender */\n      caller\n        /* \"contracts/uniswapv3lp.sol\":9423:9427  this */\n      address\n        /* \"contracts/uniswapv3lp.sol\":9430:9440  amountAdd0 */\n      dup13\n        /* \"contracts/uniswapv3lp.sol\":9363:9394  TransferHelper.safeTransferFrom */\n      tag_91\n        /* \"contracts/uniswapv3lp.sol\":9363:9441  TransferHelper.safeTransferFrom(token0, msg.sender, address(this), amountAdd0) */\n      jump\t// in\n    tag_90:\n        /* \"contracts/uniswapv3lp.sol\":9452:9530  TransferHelper.safeTransferFrom(token1, msg.sender, address(this), amountAdd1) */\n      tag_92\n        /* \"contracts/uniswapv3lp.sol\":9484:9490  token1 */\n      dup2\n        /* \"contracts/uniswapv3lp.sol\":9492:9502  msg.sender */\n      caller\n        /* \"contracts/uniswapv3lp.sol\":9512:9516  this */\n      address\n        /* \"contracts/uniswapv3lp.sol\":9519:9529  amountAdd1 */\n      dup12\n        /* \"contracts/uniswapv3lp.sol\":9452:9483  TransferHelper.safeTransferFrom */\n      tag_91\n        /* \"contracts/uniswapv3lp.sol\":9452:9530  TransferHelper.safeTransferFrom(token1, msg.sender, address(this), amountAdd1) */\n      jump\t// in\n    tag_92:\n        /* \"contracts/uniswapv3lp.sol\":9543:9626  TransferHelper.safeApprove(token0, address(nonfungiblePositionManager), amountAdd0) */\n      tag_93\n        /* \"contracts/uniswapv3lp.sol\":9570:9576  token0 */\n      dup3\n      0x00\n      dup1\n      mload\n      0x20\n      data_65cfeff779fe42d2d5b4c2c078348cb18abbc731a2e3837262888dd9b50bb10e\n      dup4\n      codecopy\n      dup2\n      mload\n      swap2\n      mstore\n        /* \"contracts/uniswapv3lp.sol\":9615:9625  amountAdd0 */\n      dup12\n        /* \"contracts/uniswapv3lp.sol\":9543:9569  TransferHelper.safeApprove */\n      tag_94\n        /* \"contracts/uniswapv3lp.sol\":9543:9626  TransferHelper.safeApprove(token0, address(nonfungiblePositionManager), amountAdd0) */\n      jump\t// in\n    tag_93:\n        /* \"contracts/uniswapv3lp.sol\":9637:9720  TransferHelper.safeApprove(token1, address(nonfungiblePositionManager), amountAdd1) */\n      tag_95\n        /* \"contracts/uniswapv3lp.sol\":9664:9670  token1 */\n      dup2\n      0x00\n      dup1\n      mload\n      0x20\n      data_65cfeff779fe42d2d5b4c2c078348cb18abbc731a2e3837262888dd9b50bb10e\n      dup4\n      codecopy\n      dup2\n      mload\n      swap2\n      mstore\n        /* \"contracts/uniswapv3lp.sol\":9709:9719  amountAdd1 */\n      dup11\n        /* \"contracts/uniswapv3lp.sol\":9637:9663  TransferHelper.safeApprove */\n      tag_94\n        /* \"contracts/uniswapv3lp.sol\":9637:9720  TransferHelper.safeApprove(token1, address(nonfungiblePositionManager), amountAdd1) */\n      jump\t// in\n    tag_95:\n        /* \"contracts/uniswapv3lp.sol\":9733:9798  INonfungiblePositionManager.IncreaseLiquidityParams memory params */\n      0x00\n        /* \"contracts/uniswapv3lp.sol\":9814:10177  INonfungiblePositionManager.IncreaseLiquidityParams({... */\n      mload(0x40)\n      dup1\n      0xc0\n      add\n      0x40\n      mstore\n      dup1\n        /* \"contracts/uniswapv3lp.sol\":9894:9901  tokenId */\n      dup13\n        /* \"contracts/uniswapv3lp.sol\":9814:10177  INonfungiblePositionManager.IncreaseLiquidityParams({... */\n      dup2\n      mstore\n      0x20\n      add\n        /* \"contracts/uniswapv3lp.sol\":9936:9946  amountAdd0 */\n      dup12\n        /* \"contracts/uniswapv3lp.sol\":9814:10177  INonfungiblePositionManager.IncreaseLiquidityParams({... */\n      dup2\n      mstore\n      0x20\n      add\n        /* \"contracts/uniswapv3lp.sol\":9981:9991  amountAdd1 */\n      dup11\n        /* \"contracts/uniswapv3lp.sol\":9814:10177  INonfungiblePositionManager.IncreaseLiquidityParams({... */\n      dup2\n      mstore\n      0x20\n      add\n        /* \"contracts/uniswapv3lp.sol\":10022:10054  slippagify(amountAdd0, slippage) */\n      tag_96\n        /* \"contracts/uniswapv3lp.sol\":10033:10043  amountAdd0 */\n      dup13\n        /* \"contracts/uniswapv3lp.sol\":10045:10053  slippage */\n      dup12\n        /* \"contracts/uniswapv3lp.sol\":10022:10032  slippagify */\n      tag_97\n        /* \"contracts/uniswapv3lp.sol\":10022:10054  slippagify(amountAdd0, slippage) */\n      jump\t// in\n    tag_96:\n        /* \"contracts/uniswapv3lp.sol\":9814:10177  INonfungiblePositionManager.IncreaseLiquidityParams({... */\n      dup2\n      mstore\n      0x20\n      add\n        /* \"contracts/uniswapv3lp.sol\":10085:10117  slippagify(amountAdd1, slippage) */\n      tag_98\n        /* \"contracts/uniswapv3lp.sol\":10096:10106  amountAdd1 */\n      dup12\n        /* \"contracts/uniswapv3lp.sol\":10108:10116  slippage */\n      dup12\n        /* \"contracts/uniswapv3lp.sol\":10085:10095  slippagify */\n      tag_97\n        /* \"contracts/uniswapv3lp.sol\":10085:10117  slippagify(amountAdd1, slippage) */\n      jump\t// in\n    tag_98:\n        /* \"contracts/uniswapv3lp.sol\":9814:10177  INonfungiblePositionManager.IncreaseLiquidityParams({... */\n      dup2\n      mstore\n        /* \"contracts/uniswapv3lp.sol\":10146:10161  block.timestamp */\n      timestamp\n        /* \"contracts/uniswapv3lp.sol\":9814:10177  INonfungiblePositionManager.IncreaseLiquidityParams({... */\n      0x20\n      swap2\n      dup3\n      add\n      mstore\n        /* \"contracts/uniswapv3lp.sol\":10222:10274  nonfungiblePositionManager.increaseLiquidity(params) */\n      0x40\n      dup1\n      mload\n      shl(0xe0, 0x219f5d17)\n      dup2\n      mstore\n        /* \"#utility.yul\":7043:7056   */\n      dup4\n      mload\n        /* \"contracts/uniswapv3lp.sol\":10222:10274  nonfungiblePositionManager.increaseLiquidity(params) */\n      0x04\n      dup3\n      add\n        /* \"#utility.yul\":7025:7057   */\n      mstore\n        /* \"#utility.yul\":7101:7118   */\n      swap2\n      dup4\n      add\n        /* \"#utility.yul\":7095:7119   */\n      mload\n        /* \"#utility.yul\":7073:7093   */\n      0x24\n      dup4\n      add\n        /* \"#utility.yul\":7066:7120   */\n      mstore\n        /* \"#utility.yul\":7164:7181   */\n      dup3\n      add\n        /* \"#utility.yul\":7158:7182   */\n      mload\n        /* \"#utility.yul\":7136:7156   */\n      0x44\n      dup3\n      add\n        /* \"#utility.yul\":7129:7183   */\n      mstore\n        /* \"#utility.yul\":7239:7243   */\n      0x60\n        /* \"#utility.yul\":7227:7244   */\n      dup3\n      add\n        /* \"#utility.yul\":7221:7245   */\n      mload\n        /* \"#utility.yul\":7199:7219   */\n      0x64\n      dup3\n      add\n        /* \"#utility.yul\":7192:7246   */\n      mstore\n        /* \"#utility.yul\":7302:7306   */\n      0x80\n        /* \"#utility.yul\":7290:7307   */\n      dup3\n      add\n        /* \"#utility.yul\":7284:7308   */\n      mload\n        /* \"#utility.yul\":7262:7282   */\n      0x84\n      dup3\n      add\n        /* \"#utility.yul\":7255:7309   */\n      mstore\n        /* \"#utility.yul\":7365:7369   */\n      0xa0\n        /* \"#utility.yul\":7353:7370   */\n      dup3\n      add\n        /* \"#utility.yul\":7347:7371   */\n      mload\n        /* \"#utility.yul\":7325:7345   */\n      0xa4\n      dup3\n      add\n        /* \"#utility.yul\":7318:7372   */\n      mstore\n        /* \"contracts/uniswapv3lp.sol\":9733:10177  INonfungiblePositionManager.IncreaseLiquidityParams memory params =... */\n      swap1\n      swap2\n      pop\n      0x00\n      dup1\n      mload\n      0x20\n      data_65cfeff779fe42d2d5b4c2c078348cb18abbc731a2e3837262888dd9b50bb10e\n      dup4\n      codecopy\n      dup2\n      mload\n      swap2\n      mstore\n        /* \"contracts/uniswapv3lp.sol\":780:822  0xC36442b4a4522E871399CD717aBDD847Ab11FE88 */\n      swap1\n        /* \"contracts/uniswapv3lp.sol\":10222:10266  nonfungiblePositionManager.increaseLiquidity */\n      0x219f5d17\n      swap1\n        /* \"#utility.yul\":6997:7016   */\n      0xc4\n      add\n        /* \"contracts/uniswapv3lp.sol\":10222:10274  nonfungiblePositionManager.increaseLiquidity(params) */\n      0x60\n      mload(0x40)\n      dup1\n      dup4\n      sub\n      dup2\n      0x00\n      dup8\n      gas\n      call\n      iszero\n      dup1\n      iszero\n      tag_102\n      jumpi\n      returndatasize\n      0x00\n      dup1\n      returndatacopy\n      revert(0x00, returndatasize)\n    tag_102:\n      pop\n      pop\n      pop\n      pop\n      mload(0x40)\n      returndatasize\n      not(0x1f)\n      0x1f\n      dup3\n      add\n      and\n      dup3\n      add\n      dup1\n      0x40\n      mstore\n      pop\n      dup2\n      add\n      swap1\n      tag_103\n      swap2\n      swap1\n      tag_104\n      jump\t// in\n    tag_103:\n        /* \"contracts/uniswapv3lp.sol\":10190:10274  (liquidity, amount0, amount1) = nonfungiblePositionManager.increaseLiquidity(params) */\n      swap2\n      swap9\n      pop\n      swap7\n      pop\n      swap5\n      pop\n        /* \"contracts/uniswapv3lp.sol\":10355:10375  amount0 < amountAdd0 */\n      dup10\n      dup7\n      lt\n        /* \"contracts/uniswapv3lp.sol\":10351:10602  if (amount0 < amountAdd0) {... */\n      iszero\n      tag_105\n      jumpi\n        /* \"contracts/uniswapv3lp.sol\":10392:10466  TransferHelper.safeApprove(token0, address(nonfungiblePositionManager), 0) */\n      tag_106\n        /* \"contracts/uniswapv3lp.sol\":10419:10425  token0 */\n      dup4\n      0x00\n      dup1\n      mload\n      0x20\n      data_65cfeff779fe42d2d5b4c2c078348cb18abbc731a2e3837262888dd9b50bb10e\n      dup4\n      codecopy\n      dup2\n      mload\n      swap2\n      mstore\n        /* \"contracts/uniswapv3lp.sol\":10464:10465  0 */\n      0x00\n        /* \"contracts/uniswapv3lp.sol\":10392:10418  TransferHelper.safeApprove */\n      tag_94\n        /* \"contracts/uniswapv3lp.sol\":10392:10466  TransferHelper.safeApprove(token0, address(nonfungiblePositionManager), 0) */\n      jump\t// in\n    tag_106:\n        /* \"contracts/uniswapv3lp.sol\":10481:10496  uint256 refund0 */\n      0x00\n        /* \"contracts/uniswapv3lp.sol\":10499:10519  amountAdd0 - amount0 */\n      tag_107\n        /* \"contracts/uniswapv3lp.sol\":10512:10519  amount0 */\n      dup8\n        /* \"contracts/uniswapv3lp.sol\":10499:10509  amountAdd0 */\n      dup13\n        /* \"contracts/uniswapv3lp.sol\":10499:10519  amountAdd0 - amount0 */\n      tag_108\n      jump\t// in\n    tag_107:\n        /* \"contracts/uniswapv3lp.sol\":10481:10519  uint256 refund0 = amountAdd0 - amount0 */\n      swap1\n      pop\n        /* \"contracts/uniswapv3lp.sol\":10534:10590  TransferHelper.safeTransfer(token0, msg.sender, refund0) */\n      tag_109\n        /* \"contracts/uniswapv3lp.sol\":10562:10568  token0 */\n      dup5\n        /* \"contracts/uniswapv3lp.sol\":10570:10580  msg.sender */\n      caller\n        /* \"contracts/uniswapv3lp.sol\":10582:10589  refund0 */\n      dup4\n        /* \"contracts/uniswapv3lp.sol\":10534:10561  TransferHelper.safeTransfer */\n      tag_110\n        /* \"contracts/uniswapv3lp.sol\":10534:10590  TransferHelper.safeTransfer(token0, msg.sender, refund0) */\n      jump\t// in\n    tag_109:\n        /* \"contracts/uniswapv3lp.sol\":10377:10602  {... */\n      pop\n        /* \"contracts/uniswapv3lp.sol\":10351:10602  if (amount0 < amountAdd0) {... */\n    tag_105:\n        /* \"contracts/uniswapv3lp.sol\":10628:10638  amountAdd1 */\n      dup9\n        /* \"contracts/uniswapv3lp.sol\":10618:10625  amount1 */\n      dup6\n        /* \"contracts/uniswapv3lp.sol\":10618:10638  amount1 < amountAdd1 */\n      lt\n        /* \"contracts/uniswapv3lp.sol\":10614:10865  if (amount1 < amountAdd1) {... */\n      iszero\n      tag_111\n      jumpi\n        /* \"contracts/uniswapv3lp.sol\":10655:10729  TransferHelper.safeApprove(token1, address(nonfungiblePositionManager), 0) */\n      tag_112\n        /* \"contracts/uniswapv3lp.sol\":10682:10688  token1 */\n      dup3\n      0x00\n      dup1\n      mload\n      0x20\n      data_65cfeff779fe42d2d5b4c2c078348cb18abbc731a2e3837262888dd9b50bb10e\n      dup4\n      codecopy\n      dup2\n      mload\n      swap2\n      mstore\n        /* \"contracts/uniswapv3lp.sol\":10727:10728  0 */\n      0x00\n        /* \"contracts/uniswapv3lp.sol\":10655:10681  TransferHelper.safeApprove */\n      tag_94\n        /* \"contracts/uniswapv3lp.sol\":10655:10729  TransferHelper.safeApprove(token1, address(nonfungiblePositionManager), 0) */\n      jump\t// in\n    tag_112:\n        /* \"contracts/uniswapv3lp.sol\":10744:10759  uint256 refund1 */\n      0x00\n        /* \"contracts/uniswapv3lp.sol\":10762:10782  amountAdd1 - amount1 */\n      tag_113\n        /* \"contracts/uniswapv3lp.sol\":10775:10782  amount1 */\n      dup7\n        /* \"contracts/uniswapv3lp.sol\":10762:10772  amountAdd1 */\n      dup12\n        /* \"contracts/uniswapv3lp.sol\":10762:10782  amountAdd1 - amount1 */\n      tag_108\n      jump\t// in\n    tag_113:\n        /* \"contracts/uniswapv3lp.sol\":10744:10782  uint256 refund1 = amountAdd1 - amount1 */\n      swap1\n      pop\n        /* \"contracts/uniswapv3lp.sol\":10797:10853  TransferHelper.safeTransfer(token1, msg.sender, refund1) */\n      tag_114\n        /* \"contracts/uniswapv3lp.sol\":10825:10831  token1 */\n      dup4\n        /* \"contracts/uniswapv3lp.sol\":10833:10843  msg.sender */\n      caller\n        /* \"contracts/uniswapv3lp.sol\":10845:10852  refund1 */\n      dup4\n        /* \"contracts/uniswapv3lp.sol\":10797:10824  TransferHelper.safeTransfer */\n      tag_110\n        /* \"contracts/uniswapv3lp.sol\":10797:10853  TransferHelper.safeTransfer(token1, msg.sender, refund1) */\n      jump\t// in\n    tag_114:\n        /* \"contracts/uniswapv3lp.sol\":10640:10865  {... */\n      pop\n        /* \"contracts/uniswapv3lp.sol\":10614:10865  if (amount1 < amountAdd1) {... */\n    tag_111:\n        /* \"contracts/uniswapv3lp.sol\":10875:10905  lp.mint(msg.sender, liquidity) */\n      mload(0x40)\n      shl(0xe0, 0x40c10f19)\n      dup2\n      mstore\n      sub(shl(0xa0, 0x01), 0x01)\n        /* \"contracts/uniswapv3lp.sol\":10875:10882  lp.mint */\n      dup6\n      and\n      swap1\n      0x40c10f19\n      swap1\n        /* \"contracts/uniswapv3lp.sol\":10875:10905  lp.mint(msg.sender, liquidity) */\n      tag_115\n      swap1\n        /* \"contracts/uniswapv3lp.sol\":10883:10893  msg.sender */\n      caller\n      swap1\n        /* \"contracts/uniswapv3lp.sol\":10895:10904  liquidity */\n      dup12\n      swap1\n        /* \"contracts/uniswapv3lp.sol\":10875:10905  lp.mint(msg.sender, liquidity) */\n      0x04\n      add\n      tag_116\n      jump\t// in\n    tag_115:\n      0x00\n      mload(0x40)\n      dup1\n      dup4\n      sub\n      dup2\n      0x00\n      dup8\n      dup1\n      extcodesize\n      iszero\n      dup1\n      iszero\n      tag_117\n      jumpi\n      0x00\n      dup1\n      revert\n    tag_117:\n      pop\n      gas\n      call\n      iszero\n      dup1\n      iszero\n      tag_119\n      jumpi\n      returndatasize\n      0x00\n      dup1\n      returndatacopy\n      revert(0x00, returndatasize)\n    tag_119:\n      pop\n      pop\n      pop\n      pop\n        /* \"contracts/uniswapv3lp.sol\":9212:10913  {... */\n      pop\n      pop\n      pop\n      pop\n        /* \"contracts/uniswapv3lp.sol\":8911:10913  function increaseLiquidityCurrentRange(... */\n      swap5\n      pop\n      swap5\n      pop\n      swap5\n      swap2\n      pop\n      pop\n      jump\t// out\n        /* \"@openzeppelin/contracts/access/Ownable.sol\":1831:1932  function renounceOwnership() public virtual onlyOwner {... */\n    tag_37:\n        /* \"@openzeppelin/contracts/access/Ownable.sol\":1094:1107  _checkOwner() */\n      tag_121\n        /* \"@openzeppelin/contracts/access/Ownable.sol\":1094:1105  _checkOwner */\n      tag_122\n        /* \"@openzeppelin/contracts/access/Ownable.sol\":1094:1107  _checkOwner() */\n      jump\t// in\n    tag_121:\n        /* \"@openzeppelin/contracts/access/Ownable.sol\":1895:1925  _transferOwnership(address(0)) */\n      tag_124\n        /* \"@openzeppelin/contracts/access/Ownable.sol\":1922:1923  0 */\n      0x00\n        /* \"@openzeppelin/contracts/access/Ownable.sol\":1895:1913  _transferOwnership */\n      tag_125\n        /* \"@openzeppelin/contracts/access/Ownable.sol\":1895:1925  _transferOwnership(address(0)) */\n      jump\t// in\n    tag_124:\n        /* \"@openzeppelin/contracts/access/Ownable.sol\":1831:1932  function renounceOwnership() public virtual onlyOwner {... */\n      jump\t// out\n        /* \"contracts/uniswapv3lp.sol\":7058:8626  function decreaseLiquidity(uint256 tokenId, uint128 _liquidity, uint256 slippage) external returns (uint256 amount0, uint256 amount1) {... */\n    tag_48:\n        /* \"contracts/uniswapv3lp.sol\":7158:7173  uint256 amount0 */\n      0x00\n        /* \"contracts/uniswapv3lp.sol\":7264:7276  LPs[tokenId] */\n      dup4\n      dup2\n      mstore\n        /* \"contracts/uniswapv3lp.sol\":7264:7267  LPs */\n      0x02\n        /* \"contracts/uniswapv3lp.sol\":7264:7276  LPs[tokenId] */\n      0x20\n      mstore\n      0x40\n      dup1\n      dup3\n      keccak256\n      sload\n        /* \"contracts/uniswapv3lp.sol\":7295:7319  lp.balanceOf(msg.sender) */\n      swap1\n      mload\n      shl(0xe0, 0x70a08231)\n      dup2\n      mstore\n        /* \"contracts/uniswapv3lp.sol\":7308:7318  msg.sender */\n      caller\n        /* \"contracts/uniswapv3lp.sol\":7295:7319  lp.balanceOf(msg.sender) */\n      0x04\n      dup3\n      add\n        /* \"#utility.yul\":2600:2651   */\n      mstore\n        /* \"contracts/uniswapv3lp.sol\":7158:7173  uint256 amount0 */\n      dup3\n      swap2\n      sub(shl(0xa0, 0x01), 0x01)\n        /* \"contracts/uniswapv3lp.sol\":7264:7276  LPs[tokenId] */\n      and\n      swap1\n      sub(shl(0x80, 0x01), 0x01)\n        /* \"contracts/uniswapv3lp.sol\":7295:7333  lp.balanceOf(msg.sender) >= _liquidity */\n      dup7\n      and\n      swap1\n        /* \"contracts/uniswapv3lp.sol\":7264:7276  LPs[tokenId] */\n      dup3\n      swap1\n        /* \"contracts/uniswapv3lp.sol\":7295:7307  lp.balanceOf */\n      0x70a08231\n      swap1\n        /* \"#utility.yul\":2573:2591   */\n      0x24\n      add\n        /* \"contracts/uniswapv3lp.sol\":7295:7319  lp.balanceOf(msg.sender) */\n      0x20\n      mload(0x40)\n      dup1\n      dup4\n      sub\n      dup2\n      dup7\n      gas\n      staticcall\n      iszero\n      dup1\n      iszero\n      tag_130\n      jumpi\n      returndatasize\n      0x00\n      dup1\n      returndatacopy\n      revert(0x00, returndatasize)\n    tag_130:\n      pop\n      pop\n      pop\n      pop\n      mload(0x40)\n      returndatasize\n      not(0x1f)\n      0x1f\n      dup3\n      add\n      and\n      dup3\n      add\n      dup1\n      0x40\n      mstore\n      pop\n      dup2\n      add\n      swap1\n      tag_131\n      swap2\n      swap1\n      tag_132\n      jump\t// in\n    tag_131:\n        /* \"contracts/uniswapv3lp.sol\":7295:7333  lp.balanceOf(msg.sender) >= _liquidity */\n      lt\n      iszero\n        /* \"contracts/uniswapv3lp.sol\":7287:7353  require(lp.balanceOf(msg.sender) >= _liquidity, \"balance too low\") */\n      tag_133\n      jumpi\n      mload(0x40)\n      shl(0xe5, 0x461bcd)\n      dup2\n      mstore\n        /* \"#utility.yul\":8877:8879   */\n      0x20\n        /* \"contracts/uniswapv3lp.sol\":7287:7353  require(lp.balanceOf(msg.sender) >= _liquidity, \"balance too low\") */\n      0x04\n      dup3\n      add\n        /* \"#utility.yul\":8859:8880   */\n      mstore\n        /* \"#utility.yul\":8916:8918   */\n      0x0f\n        /* \"#utility.yul\":8896:8914   */\n      0x24\n      dup3\n      add\n        /* \"#utility.yul\":8889:8919   */\n      mstore\n      shl(0x88, 0x62616c616e636520746f6f206c6f77)\n        /* \"#utility.yul\":8935:8953   */\n      0x44\n      dup3\n      add\n        /* \"#utility.yul\":8928:8973   */\n      mstore\n        /* \"#utility.yul\":8990:9008   */\n      0x64\n      add\n        /* \"contracts/uniswapv3lp.sol\":7287:7353  require(lp.balanceOf(msg.sender) >= _liquidity, \"balance too low\") */\n      tag_85\n        /* \"#utility.yul\":8675:9014   */\n      jump\n        /* \"contracts/uniswapv3lp.sol\":7287:7353  require(lp.balanceOf(msg.sender) >= _liquidity, \"balance too low\") */\n    tag_133:\n        /* \"contracts/uniswapv3lp.sol\":7618:7946  INonfungiblePositionManager.DecreaseLiquidityParams({... */\n      0x40\n      dup1\n      mload\n      0xa0\n      dup2\n      add\n      dup3\n      mstore\n      dup8\n      dup2\n      mstore\n      sub(shl(0x80, 0x01), 0x01)\n      dup8\n      and\n      0x20\n      dup3\n      add\n      mstore\n        /* \"contracts/uniswapv3lp.sol\":7537:7602  INonfungiblePositionManager.DecreaseLiquidityParams memory params */\n      0x00\n      swap2\n        /* \"contracts/uniswapv3lp.sol\":7618:7946  INonfungiblePositionManager.DecreaseLiquidityParams({... */\n      dup2\n      add\n        /* \"contracts/uniswapv3lp.sol\":7776:7815  slippagify(_liquidity*45/100, slippage) */\n      tag_136\n        /* \"contracts/uniswapv3lp.sol\":7801:7804  100 */\n      0x64\n        /* \"contracts/uniswapv3lp.sol\":7787:7800  _liquidity*45 */\n      tag_137\n        /* \"contracts/uniswapv3lp.sol\":7735:7745  _liquidity */\n      dup11\n        /* \"contracts/uniswapv3lp.sol\":7798:7800  45 */\n      0x2d\n        /* \"contracts/uniswapv3lp.sol\":7787:7800  _liquidity*45 */\n      tag_138\n      jump\t// in\n    tag_137:\n        /* \"contracts/uniswapv3lp.sol\":7787:7804  _liquidity*45/100 */\n      tag_139\n      swap2\n      swap1\n      tag_140\n      jump\t// in\n    tag_139:\n      sub(shl(0x80, 0x01), 0x01)\n        /* \"contracts/uniswapv3lp.sol\":7776:7815  slippagify(_liquidity*45/100, slippage) */\n      and\n        /* \"contracts/uniswapv3lp.sol\":7806:7814  slippage */\n      dup9\n        /* \"contracts/uniswapv3lp.sol\":7776:7786  slippagify */\n      tag_97\n        /* \"contracts/uniswapv3lp.sol\":7776:7815  slippagify(_liquidity*45/100, slippage) */\n      jump\t// in\n    tag_136:\n        /* \"contracts/uniswapv3lp.sol\":7618:7946  INonfungiblePositionManager.DecreaseLiquidityParams({... */\n      dup2\n      mstore\n      0x20\n      add\n        /* \"contracts/uniswapv3lp.sol\":7847:7886  slippagify(_liquidity*45/100, slippage) */\n      tag_141\n        /* \"contracts/uniswapv3lp.sol\":7872:7875  100 */\n      0x64\n        /* \"contracts/uniswapv3lp.sol\":7858:7871  _liquidity*45 */\n      tag_137\n        /* \"contracts/uniswapv3lp.sol\":7858:7868  _liquidity */\n      dup11\n        /* \"contracts/uniswapv3lp.sol\":7869:7871  45 */\n      0x2d\n        /* \"contracts/uniswapv3lp.sol\":7858:7871  _liquidity*45 */\n      tag_138\n      jump\t// in\n        /* \"contracts/uniswapv3lp.sol\":7847:7886  slippagify(_liquidity*45/100, slippage) */\n    tag_141:\n        /* \"contracts/uniswapv3lp.sol\":7618:7946  INonfungiblePositionManager.DecreaseLiquidityParams({... */\n      dup2\n      mstore\n        /* \"contracts/uniswapv3lp.sol\":7915:7930  block.timestamp */\n      timestamp\n        /* \"contracts/uniswapv3lp.sol\":7618:7946  INonfungiblePositionManager.DecreaseLiquidityParams({... */\n      0x20\n      swap2\n      dup3\n      add\n      mstore\n        /* \"contracts/uniswapv3lp.sol\":8039:8313  INonfungiblePositionManager.CollectParams({... */\n      0x40\n      dup1\n      mload\n      0x80\n      dup1\n      dup3\n      add\n      dup4\n      mstore\n      dup12\n      dup3\n      mstore\n        /* \"contracts/uniswapv3lp.sol\":8154:8158  this */\n      address\n        /* \"contracts/uniswapv3lp.sol\":8039:8313  INonfungiblePositionManager.CollectParams({... */\n      dup3\n      dup6\n      add\n      mstore\n      sub(shl(0x80, 0x01), 0x01)\n      dup3\n      dup5\n      add\n      dup2\n      swap1\n      mstore\n      0x60\n      dup1\n      dup5\n      add\n      dup3\n      swap1\n      mstore\n        /* \"contracts/uniswapv3lp.sol\":8347:8399  nonfungiblePositionManager.decreaseLiquidity(params) */\n      dup5\n      mload\n      shl(0xe1, 0x0624e65f)\n      dup2\n      mstore\n        /* \"#utility.yul\":9911:9924   */\n      dup8\n      mload\n        /* \"contracts/uniswapv3lp.sol\":8347:8399  nonfungiblePositionManager.decreaseLiquidity(params) */\n      0x04\n      dup3\n      add\n        /* \"#utility.yul\":9893:9925   */\n      mstore\n        /* \"#utility.yul\":9973:9990   */\n      swap6\n      dup8\n      add\n        /* \"#utility.yul\":9967:9991   */\n      mload\n        /* \"#utility.yul\":9963:10028   */\n      swap1\n      swap2\n      and\n        /* \"#utility.yul\":9941:9961   */\n      0x24\n      dup7\n      add\n        /* \"#utility.yul\":9934:10029   */\n      mstore\n        /* \"#utility.yul\":10073:10090   */\n      swap3\n      dup6\n      add\n        /* \"#utility.yul\":10067:10091   */\n      mload\n        /* \"#utility.yul\":10045:10065   */\n      0x44\n      dup6\n      add\n        /* \"#utility.yul\":10038:10092   */\n      mstore\n        /* \"#utility.yul\":10136:10153   */\n      swap2\n      dup5\n      add\n        /* \"#utility.yul\":10130:10154   */\n      mload\n        /* \"#utility.yul\":10108:10128   */\n      0x64\n      dup5\n      add\n        /* \"#utility.yul\":10101:10155   */\n      mstore\n        /* \"#utility.yul\":10199:10216   */\n      swap1\n      dup4\n      add\n        /* \"#utility.yul\":10193:10217   */\n      mload\n        /* \"#utility.yul\":10171:10191   */\n      0x84\n      dup4\n      add\n        /* \"#utility.yul\":10164:10218   */\n      mstore\n        /* \"contracts/uniswapv3lp.sol\":7537:7946  INonfungiblePositionManager.DecreaseLiquidityParams memory params =... */\n      swap2\n      swap3\n      pop\n      0x00\n      dup1\n      mload\n      0x20\n      data_65cfeff779fe42d2d5b4c2c078348cb18abbc731a2e3837262888dd9b50bb10e\n      dup4\n      codecopy\n      dup2\n      mload\n      swap2\n      mstore\n        /* \"contracts/uniswapv3lp.sol\":780:822  0xC36442b4a4522E871399CD717aBDD847Ab11FE88 */\n      swap1\n        /* \"contracts/uniswapv3lp.sol\":8347:8391  nonfungiblePositionManager.decreaseLiquidity */\n      0x0c49ccbe\n      swap1\n        /* \"#utility.yul\":9865:9884   */\n      0xa4\n      add\n        /* \"contracts/uniswapv3lp.sol\":8347:8399  nonfungiblePositionManager.decreaseLiquidity(params) */\n      0x40\n      dup1\n      mload\n      dup1\n      dup4\n      sub\n      dup2\n      0x00\n      dup8\n      gas\n      call\n      iszero\n      dup1\n      iszero\n      tag_147\n      jumpi\n      returndatasize\n      0x00\n      dup1\n      returndatacopy\n      revert(0x00, returndatasize)\n    tag_147:\n      pop\n      pop\n      pop\n      pop\n      mload(0x40)\n      returndatasize\n      not(0x1f)\n      0x1f\n      dup3\n      add\n      and\n      dup3\n      add\n      dup1\n      0x40\n      mstore\n      pop\n      dup2\n      add\n      swap1\n      tag_148\n      swap2\n      swap1\n      tag_149\n      jump\t// in\n    tag_148:\n        /* \"contracts/uniswapv3lp.sol\":8410:8453  nonfungiblePositionManager.collect(params2) */\n      mload(0x40)\n      shl(0xe0, 0xfc6f7865)\n      dup2\n      mstore\n        /* \"contracts/uniswapv3lp.sol\":8326:8399  (amount0, amount1) = nonfungiblePositionManager.decreaseLiquidity(params) */\n      swap2\n      swap7\n      pop\n      swap5\n      pop\n      0x00\n      dup1\n      mload\n      0x20\n      data_65cfeff779fe42d2d5b4c2c078348cb18abbc731a2e3837262888dd9b50bb10e\n      dup4\n      codecopy\n      dup2\n      mload\n      swap2\n      mstore\n        /* \"contracts/uniswapv3lp.sol\":780:822  0xC36442b4a4522E871399CD717aBDD847Ab11FE88 */\n      swap1\n        /* \"contracts/uniswapv3lp.sol\":8410:8444  nonfungiblePositionManager.collect */\n      0xfc6f7865\n      swap1\n        /* \"contracts/uniswapv3lp.sol\":8410:8453  nonfungiblePositionManager.collect(params2) */\n      tag_150\n      swap1\n        /* \"contracts/uniswapv3lp.sol\":8445:8452  params2 */\n      dup5\n      swap1\n        /* \"contracts/uniswapv3lp.sol\":8410:8453  nonfungiblePositionManager.collect(params2) */\n      0x04\n      add\n      tag_151\n      jump\t// in\n    tag_150:\n      0x40\n      dup1\n      mload\n      dup1\n      dup4\n      sub\n      dup2\n      0x00\n      dup8\n      gas\n      call\n      iszero\n      dup1\n      iszero\n      tag_153\n      jumpi\n      returndatasize\n      0x00\n      dup1\n      returndatacopy\n      revert(0x00, returndatasize)\n    tag_153:\n      pop\n      pop\n      pop\n      pop\n      mload(0x40)\n      returndatasize\n      not(0x1f)\n      0x1f\n      dup3\n      add\n      and\n      dup3\n      add\n      dup1\n      0x40\n      mstore\n      pop\n      dup2\n      add\n      swap1\n      tag_154\n      swap2\n      swap1\n      tag_149\n      jump\t// in\n    tag_154:\n      pop\n      pop\n        /* \"contracts/uniswapv3lp.sol\":8507:8546  _sendToOwner(tokenId, amount0, amount1) */\n      tag_155\n        /* \"contracts/uniswapv3lp.sol\":8520:8527  tokenId */\n      dup9\n        /* \"contracts/uniswapv3lp.sol\":8529:8536  amount0 */\n      dup7\n        /* \"contracts/uniswapv3lp.sol\":8538:8545  amount1 */\n      dup7\n        /* \"contracts/uniswapv3lp.sol\":8507:8519  _sendToOwner */\n      tag_156\n        /* \"contracts/uniswapv3lp.sol\":8507:8546  _sendToOwner(tokenId, amount0, amount1) */\n      jump\t// in\n    tag_155:\n        /* \"contracts/uniswapv3lp.sol\":8587:8618  lp.burn(msg.sender, _liquidity) */\n      mload(0x40)\n      shl(0xe2, 0x2770a7eb)\n      dup2\n      mstore\n      sub(shl(0xa0, 0x01), 0x01)\n        /* \"contracts/uniswapv3lp.sol\":8587:8594  lp.burn */\n      dup5\n      and\n      swap1\n      0x9dc29fac\n      swap1\n        /* \"contracts/uniswapv3lp.sol\":8587:8618  lp.burn(msg.sender, _liquidity) */\n      tag_157\n      swap1\n        /* \"contracts/uniswapv3lp.sol\":8595:8605  msg.sender */\n      caller\n      swap1\n        /* \"contracts/uniswapv3lp.sol\":8607:8617  _liquidity */\n      dup12\n      swap1\n        /* \"contracts/uniswapv3lp.sol\":8587:8618  lp.burn(msg.sender, _liquidity) */\n      0x04\n      add\n      tag_116\n      jump\t// in\n    tag_157:\n      0x00\n      mload(0x40)\n      dup1\n      dup4\n      sub\n      dup2\n      0x00\n      dup8\n      dup1\n      extcodesize\n      iszero\n      dup1\n      iszero\n      tag_158\n      jumpi\n      0x00\n      dup1\n      revert\n    tag_158:\n      pop\n      gas\n      call\n      iszero\n      dup1\n      iszero\n      tag_160\n      jumpi\n      returndatasize\n      0x00\n      dup1\n      returndatacopy\n      revert(0x00, returndatasize)\n    tag_160:\n      pop\n      pop\n      pop\n      pop\n        /* \"contracts/uniswapv3lp.sol\":7192:8626  {... */\n      pop\n      pop\n      pop\n        /* \"contracts/uniswapv3lp.sol\":7058:8626  function decreaseLiquidity(uint256 tokenId, uint128 _liquidity, uint256 slippage) external returns (uint256 amount0, uint256 amount1) {... */\n      swap4\n      pop\n      swap4\n      swap2\n      pop\n      pop\n      jump\t// out\n        /* \"contracts/uniswapv3lp.sol\":5689:6719  function collectFees(uint256 tokenId) external onlyOwner returns (uint256 amount0, uint256 amount1) {... */\n    tag_64:\n        /* \"contracts/uniswapv3lp.sol\":5755:5770  uint256 amount0 */\n      0x00\n        /* \"contracts/uniswapv3lp.sol\":5772:5787  uint256 amount1 */\n      dup1\n        /* \"@openzeppelin/contracts/access/Ownable.sol\":1094:1107  _checkOwner() */\n      tag_162\n        /* \"@openzeppelin/contracts/access/Ownable.sol\":1094:1105  _checkOwner */\n      tag_122\n        /* \"@openzeppelin/contracts/access/Ownable.sol\":1094:1107  _checkOwner() */\n      jump\t// in\n    tag_162:\n        /* \"contracts/uniswapv3lp.sol\":6137:6369  INonfungiblePositionManager.CollectParams({... */\n      0x40\n      dup1\n      mload\n      0x80\n      dup2\n      add\n      dup3\n      mstore\n      dup5\n      dup2\n      mstore\n        /* \"contracts/uniswapv3lp.sol\":6252:6256  this */\n      address\n        /* \"contracts/uniswapv3lp.sol\":6137:6369  INonfungiblePositionManager.CollectParams({... */\n      0x20\n      dup3\n      add\n      mstore\n      sub(shl(0x80, 0x01), 0x01)\n      dup2\n      dup4\n      add\n      dup2\n      swap1\n      mstore\n      0x60\n      dup3\n      add\n      mstore\n        /* \"contracts/uniswapv3lp.sol\":6403:6445  nonfungiblePositionManager.collect(params) */\n      swap1\n      mload\n      shl(0xe0, 0xfc6f7865)\n      dup2\n      mstore\n      0x00\n      dup1\n      mload\n      0x20\n      data_65cfeff779fe42d2d5b4c2c078348cb18abbc731a2e3837262888dd9b50bb10e\n      dup4\n      codecopy\n      dup2\n      mload\n      swap2\n      mstore\n        /* \"contracts/uniswapv3lp.sol\":780:822  0xC36442b4a4522E871399CD717aBDD847Ab11FE88 */\n      swap1\n        /* \"contracts/uniswapv3lp.sol\":6403:6437  nonfungiblePositionManager.collect */\n      0xfc6f7865\n      swap1\n        /* \"contracts/uniswapv3lp.sol\":6403:6445  nonfungiblePositionManager.collect(params) */\n      tag_164\n      swap1\n        /* \"contracts/uniswapv3lp.sol\":6137:6369  INonfungiblePositionManager.CollectParams({... */\n      dup5\n      swap1\n        /* \"contracts/uniswapv3lp.sol\":6403:6445  nonfungiblePositionManager.collect(params) */\n      0x04\n      add\n      tag_151\n      jump\t// in\n    tag_164:\n      0x40\n      dup1\n      mload\n      dup1\n      dup4\n      sub\n      dup2\n      0x00\n      dup8\n      gas\n      call\n      iszero\n      dup1\n      iszero\n      tag_166\n      jumpi\n      returndatasize\n      0x00\n      dup1\n      returndatacopy\n      revert(0x00, returndatasize)\n    tag_166:\n      pop\n      pop\n      pop\n      pop\n      mload(0x40)\n      returndatasize\n      not(0x1f)\n      0x1f\n      dup3\n      add\n      and\n      dup3\n      add\n      dup1\n      0x40\n      mstore\n      pop\n      dup2\n      add\n      swap1\n      tag_167\n      swap2\n      swap1\n      tag_149\n      jump\t// in\n    tag_167:\n        /* \"contracts/uniswapv3lp.sol\":6458:6472  address token0 */\n      0x00\n        /* \"contracts/uniswapv3lp.sol\":6475:6492  deposits[tokenId] */\n      dup7\n      dup2\n      mstore\n        /* \"contracts/uniswapv3lp.sol\":6475:6483  deposits */\n      0x01\n        /* \"contracts/uniswapv3lp.sol\":6475:6492  deposits[tokenId] */\n      0x20\n      mstore\n      0x40\n      swap1\n      dup2\n      swap1\n      keccak256\n        /* \"contracts/uniswapv3lp.sol\":6475:6499  deposits[tokenId].token0 */\n      0x02\n      dup2\n      add\n      sload\n        /* \"contracts/uniswapv3lp.sol\":6527:6551  deposits[tokenId].token1 */\n      0x03\n      swap1\n      swap2\n      add\n      sload\n        /* \"contracts/uniswapv3lp.sol\":6630:6669  IERC20(token0).balanceOf(address(this)) */\n      swap2\n      mload\n      shl(0xe0, 0x70a08231)\n      dup2\n      mstore\n        /* \"contracts/uniswapv3lp.sol\":6663:6667  this */\n      address\n        /* \"contracts/uniswapv3lp.sol\":6630:6669  IERC20(token0).balanceOf(address(this)) */\n      0x04\n      dup3\n      add\n        /* \"#utility.yul\":2600:2651   */\n      mstore\n        /* \"contracts/uniswapv3lp.sol\":6382:6445  (amount0, amount1) = nonfungiblePositionManager.collect(params) */\n      swap4\n      swap7\n      pop\n      swap2\n      swap5\n      pop\n      sub(shl(0xa0, 0x01), 0x01)\n        /* \"contracts/uniswapv3lp.sol\":6475:6499  deposits[tokenId].token0 */\n      swap2\n      dup3\n      and\n      swap3\n        /* \"contracts/uniswapv3lp.sol\":6527:6551  deposits[tokenId].token1 */\n      swap2\n      and\n      swap1\n        /* \"contracts/uniswapv3lp.sol\":6608:6711  _sendToOwner(tokenId, IERC20(token0).balanceOf(address(this)), IERC20(token1).balanceOf(address(this))) */\n      tag_168\n      swap1\n        /* \"contracts/uniswapv3lp.sol\":6475:6492  deposits[tokenId] */\n      dup8\n      swap1\n        /* \"contracts/uniswapv3lp.sol\":6475:6499  deposits[tokenId].token0 */\n      dup5\n      swap1\n        /* \"contracts/uniswapv3lp.sol\":6630:6654  IERC20(token0).balanceOf */\n      0x70a08231\n      swap1\n        /* \"#utility.yul\":2573:2591   */\n      0x24\n      add\n        /* \"contracts/uniswapv3lp.sol\":6630:6669  IERC20(token0).balanceOf(address(this)) */\n      0x20\n      mload(0x40)\n      dup1\n      dup4\n      sub\n      dup2\n      dup7\n      gas\n      staticcall\n      iszero\n      dup1\n      iszero\n      tag_171\n      jumpi\n      returndatasize\n      0x00\n      dup1\n      returndatacopy\n      revert(0x00, returndatasize)\n    tag_171:\n      pop\n      pop\n      pop\n      pop\n      mload(0x40)\n      returndatasize\n      not(0x1f)\n      0x1f\n      dup3\n      add\n      and\n      dup3\n      add\n      dup1\n      0x40\n      mstore\n      pop\n      dup2\n      add\n      swap1\n      tag_172\n      swap2\n      swap1\n      tag_132\n      jump\t// in\n    tag_172:\n        /* \"contracts/uniswapv3lp.sol\":6671:6710  IERC20(token1).balanceOf(address(this)) */\n      mload(0x40)\n      shl(0xe0, 0x70a08231)\n      dup2\n      mstore\n        /* \"contracts/uniswapv3lp.sol\":6704:6708  this */\n      address\n        /* \"contracts/uniswapv3lp.sol\":6671:6710  IERC20(token1).balanceOf(address(this)) */\n      0x04\n      dup3\n      add\n        /* \"#utility.yul\":2600:2651   */\n      mstore\n      sub(shl(0xa0, 0x01), 0x01)\n        /* \"contracts/uniswapv3lp.sol\":6671:6695  IERC20(token1).balanceOf */\n      dup6\n      and\n      swap1\n      0x70a08231\n      swap1\n        /* \"#utility.yul\":2573:2591   */\n      0x24\n      add\n        /* \"contracts/uniswapv3lp.sol\":6671:6710  IERC20(token1).balanceOf(address(this)) */\n      0x20\n      mload(0x40)\n      dup1\n      dup4\n      sub\n      dup2\n      dup7\n      gas\n      staticcall\n      iszero\n      dup1\n      iszero\n      tag_175\n      jumpi\n      returndatasize\n      0x00\n      dup1\n      returndatacopy\n      revert(0x00, returndatasize)\n    tag_175:\n      pop\n      pop\n      pop\n      pop\n      mload(0x40)\n      returndatasize\n      not(0x1f)\n      0x1f\n      dup3\n      add\n      and\n      dup3\n      add\n      dup1\n      0x40\n      mstore\n      pop\n      dup2\n      add\n      swap1\n      tag_176\n      swap2\n      swap1\n      tag_132\n      jump\t// in\n    tag_176:\n        /* \"contracts/uniswapv3lp.sol\":6608:6620  _sendToOwner */\n      tag_156\n        /* \"contracts/uniswapv3lp.sol\":6608:6711  _sendToOwner(tokenId, IERC20(token0).balanceOf(address(this)), IERC20(token1).balanceOf(address(this))) */\n      jump\t// in\n    tag_168:\n        /* \"contracts/uniswapv3lp.sol\":5789:6719  {... */\n      pop\n      pop\n      pop\n        /* \"contracts/uniswapv3lp.sol\":5689:6719  function collectFees(uint256 tokenId) external onlyOwner returns (uint256 amount0, uint256 amount1) {... */\n      swap2\n      pop\n      swap2\n      jump\t// out\n        /* \"@openzeppelin/contracts/access/Ownable.sol\":2081:2279  function transferOwnership(address newOwner) public virtual onlyOwner {... */\n    tag_76:\n        /* \"@openzeppelin/contracts/access/Ownable.sol\":1094:1107  _checkOwner() */\n      tag_178\n        /* \"@openzeppelin/contracts/access/Ownable.sol\":1094:1105  _checkOwner */\n      tag_122\n        /* \"@openzeppelin/contracts/access/Ownable.sol\":1094:1107  _checkOwner() */\n      jump\t// in\n    tag_178:\n      sub(shl(0xa0, 0x01), 0x01)\n        /* \"@openzeppelin/contracts/access/Ownable.sol\":2169:2191  newOwner != address(0) */\n      dup2\n      and\n        /* \"@openzeppelin/contracts/access/Ownable.sol\":2161:2234  require(newOwner != address(0), \"Ownable: new owner is the zero address\") */\n      tag_180\n      jumpi\n      mload(0x40)\n      shl(0xe5, 0x461bcd)\n      dup2\n      mstore\n        /* \"#utility.yul\":11260:11262   */\n      0x20\n        /* \"@openzeppelin/contracts/access/Ownable.sol\":2161:2234  require(newOwner != address(0), \"Ownable: new owner is the zero address\") */\n      0x04\n      dup3\n      add\n        /* \"#utility.yul\":11242:11263   */\n      mstore\n        /* \"#utility.yul\":11299:11301   */\n      0x26\n        /* \"#utility.yul\":11279:11297   */\n      0x24\n      dup3\n      add\n        /* \"#utility.yul\":11272:11302   */\n      mstore\n        /* \"#utility.yul\":11338:11372   */\n      0x4f776e61626c653a206e6577206f776e657220697320746865207a65726f2061\n        /* \"#utility.yul\":11318:11336   */\n      0x44\n      dup3\n      add\n        /* \"#utility.yul\":11311:11373   */\n      mstore\n      shl(0xd0, 0x646472657373)\n        /* \"#utility.yul\":11389:11407   */\n      0x64\n      dup3\n      add\n        /* \"#utility.yul\":11382:11418   */\n      mstore\n        /* \"#utility.yul\":11435:11454   */\n      0x84\n      add\n        /* \"@openzeppelin/contracts/access/Ownable.sol\":2161:2234  require(newOwner != address(0), \"Ownable: new owner is the zero address\") */\n      tag_85\n        /* \"#utility.yul\":11058:11460   */\n      jump\n        /* \"@openzeppelin/contracts/access/Ownable.sol\":2161:2234  require(newOwner != address(0), \"Ownable: new owner is the zero address\") */\n    tag_180:\n        /* \"@openzeppelin/contracts/access/Ownable.sol\":2244:2272  _transferOwnership(newOwner) */\n      tag_183\n        /* \"@openzeppelin/contracts/access/Ownable.sol\":2263:2271  newOwner */\n      dup2\n        /* \"@openzeppelin/contracts/access/Ownable.sol\":2244:2262  _transferOwnership */\n      tag_125\n        /* \"@openzeppelin/contracts/access/Ownable.sol\":2244:2272  _transferOwnership(newOwner) */\n      jump\t// in\n    tag_183:\n        /* \"@openzeppelin/contracts/access/Ownable.sol\":2081:2279  function transferOwnership(address newOwner) public virtual onlyOwner {... */\n      pop\n      jump\t// out\n        /* \"contracts/uniswapv3lp.sol\":2888:5351  function mintNewPosition(address t0, address t1, int24 tlow,  int24 tup, uint256 amount0ToMint, uint256 amount1ToMint, uint256 slippage, LPtoken _LPtoken)... */\n    tag_80:\n        /* \"contracts/uniswapv3lp.sol\":3104:3119  uint256 tokenId */\n      0x00\n        /* \"contracts/uniswapv3lp.sol\":3134:3151  uint128 liquidity */\n      dup1\n        /* \"contracts/uniswapv3lp.sol\":3166:3181  uint256 amount0 */\n      0x00\n        /* \"contracts/uniswapv3lp.sol\":3196:3211  uint256 amount1 */\n      dup1\n        /* \"@openzeppelin/contracts/access/Ownable.sol\":1094:1107  _checkOwner() */\n      tag_185\n        /* \"@openzeppelin/contracts/access/Ownable.sol\":1094:1105  _checkOwner */\n      tag_122\n        /* \"@openzeppelin/contracts/access/Ownable.sol\":1094:1107  _checkOwner() */\n      jump\t// in\n    tag_185:\n        /* \"contracts/uniswapv3lp.sol\":3285:3362  TransferHelper.safeTransferFrom(t0, msg.sender, address(this), amount0ToMint) */\n      tag_187\n        /* \"contracts/uniswapv3lp.sol\":3317:3319  t0 */\n      dup13\n        /* \"contracts/uniswapv3lp.sol\":3321:3331  msg.sender */\n      caller\n        /* \"contracts/uniswapv3lp.sol\":3341:3345  this */\n      address\n        /* \"contracts/uniswapv3lp.sol\":3348:3361  amount0ToMint */\n      dup12\n        /* \"contracts/uniswapv3lp.sol\":3285:3316  TransferHelper.safeTransferFrom */\n      tag_91\n        /* \"contracts/uniswapv3lp.sol\":3285:3362  TransferHelper.safeTransferFrom(t0, msg.sender, address(this), amount0ToMint) */\n      jump\t// in\n    tag_187:\n        /* \"contracts/uniswapv3lp.sol\":3373:3450  TransferHelper.safeTransferFrom(t1, msg.sender, address(this), amount1ToMint) */\n      tag_188\n        /* \"contracts/uniswapv3lp.sol\":3405:3407  t1 */\n      dup12\n        /* \"contracts/uniswapv3lp.sol\":3409:3419  msg.sender */\n      caller\n        /* \"contracts/uniswapv3lp.sol\":3429:3433  this */\n      address\n        /* \"contracts/uniswapv3lp.sol\":3436:3449  amount1ToMint */\n      dup11\n        /* \"contracts/uniswapv3lp.sol\":3373:3404  TransferHelper.safeTransferFrom */\n      tag_91\n        /* \"contracts/uniswapv3lp.sol\":3373:3450  TransferHelper.safeTransferFrom(t1, msg.sender, address(this), amount1ToMint) */\n      jump\t// in\n    tag_188:\n        /* \"contracts/uniswapv3lp.sol\":3504:3586  TransferHelper.safeApprove(t0, address(nonfungiblePositionManager), amount0ToMint) */\n      tag_189\n        /* \"contracts/uniswapv3lp.sol\":3531:3533  t0 */\n      dup13\n      0x00\n      dup1\n      mload\n      0x20\n      data_65cfeff779fe42d2d5b4c2c078348cb18abbc731a2e3837262888dd9b50bb10e\n      dup4\n      codecopy\n      dup2\n      mload\n      swap2\n      mstore\n        /* \"contracts/uniswapv3lp.sol\":3572:3585  amount0ToMint */\n      dup11\n        /* \"contracts/uniswapv3lp.sol\":3504:3530  TransferHelper.safeApprove */\n      tag_94\n        /* \"contracts/uniswapv3lp.sol\":3504:3586  TransferHelper.safeApprove(t0, address(nonfungiblePositionManager), amount0ToMint) */\n      jump\t// in\n    tag_189:\n        /* \"contracts/uniswapv3lp.sol\":3597:3679  TransferHelper.safeApprove(t1, address(nonfungiblePositionManager), amount1ToMint) */\n      tag_190\n        /* \"contracts/uniswapv3lp.sol\":3624:3626  t1 */\n      dup12\n      0x00\n      dup1\n      mload\n      0x20\n      data_65cfeff779fe42d2d5b4c2c078348cb18abbc731a2e3837262888dd9b50bb10e\n      dup4\n      codecopy\n      dup2\n      mload\n      swap2\n      mstore\n        /* \"contracts/uniswapv3lp.sol\":3665:3678  amount1ToMint */\n      dup10\n        /* \"contracts/uniswapv3lp.sol\":3597:3623  TransferHelper.safeApprove */\n      tag_94\n        /* \"contracts/uniswapv3lp.sol\":3597:3679  TransferHelper.safeApprove(t1, address(nonfungiblePositionManager), amount1ToMint) */\n      jump\t// in\n    tag_190:\n        /* \"contracts/uniswapv3lp.sol\":3841:3893  INonfungiblePositionManager.MintParams memory params */\n      0x00\n        /* \"contracts/uniswapv3lp.sol\":3909:4401  INonfungiblePositionManager.MintParams({... */\n      mload(0x40)\n      dup1\n      0x0160\n      add\n      0x40\n      mstore\n      dup1\n        /* \"contracts/uniswapv3lp.sol\":3975:3977  t0 */\n      dup15\n      sub(shl(0xa0, 0x01), 0x01)\n        /* \"contracts/uniswapv3lp.sol\":3909:4401  INonfungiblePositionManager.MintParams({... */\n      and\n      dup2\n      mstore\n      0x20\n      add\n        /* \"contracts/uniswapv3lp.sol\":4004:4006  t1 */\n      dup14\n      sub(shl(0xa0, 0x01), 0x01)\n        /* \"contracts/uniswapv3lp.sol\":3909:4401  INonfungiblePositionManager.MintParams({... */\n      and\n      dup2\n      mstore\n      0x20\n      add\n        /* \"contracts/uniswapv3lp.sol\":1022:1025  500 */\n      0x01f4\n        /* \"contracts/uniswapv3lp.sol\":3909:4401  INonfungiblePositionManager.MintParams({... */\n      0xffffff\n      and\n      dup2\n      mstore\n      0x20\n      add\n        /* \"contracts/uniswapv3lp.sol\":4067:4071  tlow */\n      dup13\n        /* \"contracts/uniswapv3lp.sol\":3909:4401  INonfungiblePositionManager.MintParams({... */\n      0x02\n      signextend\n      dup2\n      mstore\n      0x20\n      add\n        /* \"contracts/uniswapv3lp.sol\":4101:4104  tup */\n      dup12\n        /* \"contracts/uniswapv3lp.sol\":3909:4401  INonfungiblePositionManager.MintParams({... */\n      0x02\n      signextend\n      dup2\n      mstore\n      0x20\n      add\n        /* \"contracts/uniswapv3lp.sol\":4139:4152  amount0ToMint */\n      dup11\n        /* \"contracts/uniswapv3lp.sol\":3909:4401  INonfungiblePositionManager.MintParams({... */\n      dup2\n      mstore\n      0x20\n      add\n        /* \"contracts/uniswapv3lp.sol\":4187:4200  amount1ToMint */\n      dup10\n        /* \"contracts/uniswapv3lp.sol\":3909:4401  INonfungiblePositionManager.MintParams({... */\n      dup2\n      mstore\n      0x20\n      add\n        /* \"contracts/uniswapv3lp.sol\":4231:4266  slippagify(amount0ToMint, slippage) */\n      tag_191\n        /* \"contracts/uniswapv3lp.sol\":4242:4255  amount0ToMint */\n      dup12\n        /* \"contracts/uniswapv3lp.sol\":4257:4265  slippage */\n      dup11\n        /* \"contracts/uniswapv3lp.sol\":4231:4241  slippagify */\n      tag_97\n        /* \"contracts/uniswapv3lp.sol\":4231:4266  slippagify(amount0ToMint, slippage) */\n      jump\t// in\n    tag_191:\n        /* \"contracts/uniswapv3lp.sol\":3909:4401  INonfungiblePositionManager.MintParams({... */\n      dup2\n      mstore\n      0x20\n      add\n        /* \"contracts/uniswapv3lp.sol\":4297:4298  0 */\n      0x00\n        /* \"contracts/uniswapv3lp.sol\":3909:4401  INonfungiblePositionManager.MintParams({... */\n      dup2\n      mstore\n      0x20\n      add\n        /* \"contracts/uniswapv3lp.sol\":4336:4340  this */\n      address\n      sub(shl(0xa0, 0x01), 0x01)\n        /* \"contracts/uniswapv3lp.sol\":3909:4401  INonfungiblePositionManager.MintParams({... */\n      and\n      dup2\n      mstore\n      0x20\n      add\n        /* \"contracts/uniswapv3lp.sol\":4370:4385  block.timestamp */\n      timestamp\n        /* \"contracts/uniswapv3lp.sol\":3909:4401  INonfungiblePositionManager.MintParams({... */\n      dup2\n      mstore\n      pop\n        /* \"contracts/uniswapv3lp.sol\":3841:4401  INonfungiblePositionManager.MintParams memory params =... */\n      swap1\n      pop\n      0x00\n      dup1\n      mload\n      0x20\n      data_65cfeff779fe42d2d5b4c2c078348cb18abbc731a2e3837262888dd9b50bb10e\n      dup4\n      codecopy\n      dup2\n      mload\n      swap2\n      mstore\n      sub(shl(0xa0, 0x01), 0x01)\n        /* \"contracts/uniswapv3lp.sol\":4543:4574  nonfungiblePositionManager.mint */\n      and\n      0x88316456\n        /* \"contracts/uniswapv3lp.sol\":4575:4581  params */\n      dup3\n        /* \"contracts/uniswapv3lp.sol\":4543:4582  nonfungiblePositionManager.mint(params) */\n      mload(0x40)\n      dup3\n      0xffffffff\n      and\n      0xe0\n      shl\n      dup2\n      mstore\n      0x04\n      add\n      tag_192\n      swap2\n      swap1\n      tag_193\n      jump\t// in\n    tag_192:\n      0x80\n      mload(0x40)\n      dup1\n      dup4\n      sub\n      dup2\n      0x00\n      dup8\n      gas\n      call\n      iszero\n      dup1\n      iszero\n      tag_195\n      jumpi\n      returndatasize\n      0x00\n      dup1\n      returndatacopy\n      revert(0x00, returndatasize)\n    tag_195:\n      pop\n      pop\n      pop\n      pop\n      mload(0x40)\n      returndatasize\n      not(0x1f)\n      0x1f\n      dup3\n      add\n      and\n      dup3\n      add\n      dup1\n      0x40\n      mstore\n      pop\n      dup2\n      add\n      swap1\n      tag_196\n      swap2\n      swap1\n      tag_197\n      jump\t// in\n    tag_196:\n        /* \"contracts/uniswapv3lp.sol\":4502:4582  (tokenId, liquidity, amount0, amount1) = nonfungiblePositionManager.mint(params) */\n      swap3\n      swap8\n      pop\n      swap1\n      swap6\n      pop\n      swap4\n      pop\n      swap2\n      pop\n        /* \"contracts/uniswapv3lp.sol\":4624:4659  _createDeposit(msg.sender, tokenId) */\n      tag_198\n        /* \"contracts/uniswapv3lp.sol\":4639:4649  msg.sender */\n      caller\n        /* \"contracts/uniswapv3lp.sol\":4502:4582  (tokenId, liquidity, amount0, amount1) = nonfungiblePositionManager.mint(params) */\n      dup7\n        /* \"contracts/uniswapv3lp.sol\":4624:4638  _createDeposit */\n      tag_88\n        /* \"contracts/uniswapv3lp.sol\":4624:4659  _createDeposit(msg.sender, tokenId) */\n      jump\t// in\n    tag_198:\n        /* \"contracts/uniswapv3lp.sol\":4697:4709  LPs[tokenId] */\n      0x00\n      dup6\n      dup2\n      mstore\n        /* \"contracts/uniswapv3lp.sol\":4697:4700  LPs */\n      0x02\n        /* \"contracts/uniswapv3lp.sol\":4697:4709  LPs[tokenId] */\n      0x20\n      mstore\n      0x40\n      swap1\n      keccak256\n        /* \"contracts/uniswapv3lp.sol\":4697:4720  LPs[tokenId] = _LPtoken */\n      dup1\n      sload\n      not(sub(shl(0xa0, 0x01), 0x01))\n      and\n      sub(shl(0xa0, 0x01), 0x01)\n      dup9\n      and\n      or\n      swap1\n      sstore\n        /* \"contracts/uniswapv3lp.sol\":4791:4814  amount0 < amount0ToMint */\n      dup9\n      dup4\n      lt\n        /* \"contracts/uniswapv3lp.sol\":4787:5036  if (amount0 < amount0ToMint) {... */\n      iszero\n      tag_199\n      jumpi\n        /* \"contracts/uniswapv3lp.sol\":4831:4901  TransferHelper.safeApprove(t0, address(nonfungiblePositionManager), 0) */\n      tag_200\n        /* \"contracts/uniswapv3lp.sol\":4858:4860  t0 */\n      dup14\n      0x00\n      dup1\n      mload\n      0x20\n      data_65cfeff779fe42d2d5b4c2c078348cb18abbc731a2e3837262888dd9b50bb10e\n      dup4\n      codecopy\n      dup2\n      mload\n      swap2\n      mstore\n        /* \"contracts/uniswapv3lp.sol\":4899:4900  0 */\n      0x00\n        /* \"contracts/uniswapv3lp.sol\":4831:4857  TransferHelper.safeApprove */\n      tag_94\n        /* \"contracts/uniswapv3lp.sol\":4831:4901  TransferHelper.safeApprove(t0, address(nonfungiblePositionManager), 0) */\n      jump\t// in\n    tag_200:\n        /* \"contracts/uniswapv3lp.sol\":4916:4931  uint256 refund0 */\n      0x00\n        /* \"contracts/uniswapv3lp.sol\":4934:4957  amount0ToMint - amount0 */\n      tag_201\n        /* \"contracts/uniswapv3lp.sol\":4950:4957  amount0 */\n      dup5\n        /* \"contracts/uniswapv3lp.sol\":4934:4947  amount0ToMint */\n      dup12\n        /* \"contracts/uniswapv3lp.sol\":4934:4957  amount0ToMint - amount0 */\n      tag_108\n      jump\t// in\n    tag_201:\n        /* \"contracts/uniswapv3lp.sol\":4916:4957  uint256 refund0 = amount0ToMint - amount0 */\n      swap1\n      pop\n        /* \"contracts/uniswapv3lp.sol\":4972:5024  TransferHelper.safeTransfer(t0, msg.sender, refund0) */\n      tag_202\n        /* \"contracts/uniswapv3lp.sol\":5000:5002  t0 */\n      dup15\n        /* \"contracts/uniswapv3lp.sol\":5004:5014  msg.sender */\n      caller\n        /* \"contracts/uniswapv3lp.sol\":5016:5023  refund0 */\n      dup4\n        /* \"contracts/uniswapv3lp.sol\":4972:4999  TransferHelper.safeTransfer */\n      tag_110\n        /* \"contracts/uniswapv3lp.sol\":4972:5024  TransferHelper.safeTransfer(t0, msg.sender, refund0) */\n      jump\t// in\n    tag_202:\n        /* \"contracts/uniswapv3lp.sol\":4816:5036  {... */\n      pop\n        /* \"contracts/uniswapv3lp.sol\":4787:5036  if (amount0 < amount0ToMint) {... */\n    tag_199:\n        /* \"contracts/uniswapv3lp.sol\":5062:5075  amount1ToMint */\n      dup8\n        /* \"contracts/uniswapv3lp.sol\":5052:5059  amount1 */\n      dup3\n        /* \"contracts/uniswapv3lp.sol\":5052:5075  amount1 < amount1ToMint */\n      lt\n        /* \"contracts/uniswapv3lp.sol\":5048:5297  if (amount1 < amount1ToMint) {... */\n      iszero\n      tag_203\n      jumpi\n        /* \"contracts/uniswapv3lp.sol\":5092:5162  TransferHelper.safeApprove(t1, address(nonfungiblePositionManager), 0) */\n      tag_204\n        /* \"contracts/uniswapv3lp.sol\":5119:5121  t1 */\n      dup13\n      0x00\n      dup1\n      mload\n      0x20\n      data_65cfeff779fe42d2d5b4c2c078348cb18abbc731a2e3837262888dd9b50bb10e\n      dup4\n      codecopy\n      dup2\n      mload\n      swap2\n      mstore\n        /* \"contracts/uniswapv3lp.sol\":5160:5161  0 */\n      0x00\n        /* \"contracts/uniswapv3lp.sol\":5092:5118  TransferHelper.safeApprove */\n      tag_94\n        /* \"contracts/uniswapv3lp.sol\":5092:5162  TransferHelper.safeApprove(t1, address(nonfungiblePositionManager), 0) */\n      jump\t// in\n    tag_204:\n        /* \"contracts/uniswapv3lp.sol\":5177:5192  uint256 refund1 */\n      0x00\n        /* \"contracts/uniswapv3lp.sol\":5195:5218  amount1ToMint - amount1 */\n      tag_205\n        /* \"contracts/uniswapv3lp.sol\":5211:5218  amount1 */\n      dup4\n        /* \"contracts/uniswapv3lp.sol\":5195:5208  amount1ToMint */\n      dup11\n        /* \"contracts/uniswapv3lp.sol\":5195:5218  amount1ToMint - amount1 */\n      tag_108\n      jump\t// in\n    tag_205:\n        /* \"contracts/uniswapv3lp.sol\":5177:5218  uint256 refund1 = amount1ToMint - amount1 */\n      swap1\n      pop\n        /* \"contracts/uniswapv3lp.sol\":5233:5285  TransferHelper.safeTransfer(t1, msg.sender, refund1) */\n      tag_206\n        /* \"contracts/uniswapv3lp.sol\":5261:5263  t1 */\n      dup14\n        /* \"contracts/uniswapv3lp.sol\":5265:5275  msg.sender */\n      caller\n        /* \"contracts/uniswapv3lp.sol\":5277:5284  refund1 */\n      dup4\n        /* \"contracts/uniswapv3lp.sol\":5233:5260  TransferHelper.safeTransfer */\n      tag_110\n        /* \"contracts/uniswapv3lp.sol\":5233:5285  TransferHelper.safeTransfer(t1, msg.sender, refund1) */\n      jump\t// in\n    tag_206:\n        /* \"contracts/uniswapv3lp.sol\":5077:5297  {... */\n      pop\n        /* \"contracts/uniswapv3lp.sol\":5048:5297  if (amount1 < amount1ToMint) {... */\n    tag_203:\n        /* \"contracts/uniswapv3lp.sol\":5307:5343  _LPtoken.mint(msg.sender, liquidity) */\n      mload(0x40)\n      shl(0xe0, 0x40c10f19)\n      dup2\n      mstore\n      sub(shl(0xa0, 0x01), 0x01)\n        /* \"contracts/uniswapv3lp.sol\":5307:5320  _LPtoken.mint */\n      dup8\n      and\n      swap1\n      0x40c10f19\n      swap1\n        /* \"contracts/uniswapv3lp.sol\":5307:5343  _LPtoken.mint(msg.sender, liquidity) */\n      tag_207\n      swap1\n        /* \"contracts/uniswapv3lp.sol\":5321:5331  msg.sender */\n      caller\n      swap1\n        /* \"contracts/uniswapv3lp.sol\":5333:5342  liquidity */\n      dup9\n      swap1\n        /* \"contracts/uniswapv3lp.sol\":5307:5343  _LPtoken.mint(msg.sender, liquidity) */\n      0x04\n      add\n      tag_116\n      jump\t// in\n    tag_207:\n      0x00\n      mload(0x40)\n      dup1\n      dup4\n      sub\n      dup2\n      0x00\n      dup8\n      dup1\n      extcodesize\n      iszero\n      dup1\n      iszero\n      tag_208\n      jumpi\n      0x00\n      dup1\n      revert\n    tag_208:\n      pop\n      gas\n      call\n      iszero\n      dup1\n      iszero\n      tag_210\n      jumpi\n      returndatasize\n      0x00\n      dup1\n      returndatacopy\n      revert(0x00, returndatasize)\n    tag_210:\n      pop\n      pop\n      pop\n      pop\n        /* \"contracts/uniswapv3lp.sol\":3232:5351  {... */\n      pop\n        /* \"contracts/uniswapv3lp.sol\":2888:5351  function mintNewPosition(address t0, address t1, int24 tlow,  int24 tup, uint256 amount0ToMint, uint256 amount1ToMint, uint256 slippage, LPtoken _LPtoken)... */\n      swap9\n      pop\n      swap9\n      pop\n      swap9\n      pop\n      swap9\n      swap5\n      pop\n      pop\n      pop\n      pop\n      pop\n      jump\t// out\n        /* \"contracts/uniswapv3lp.sol\":1900:2270  function _createDeposit(address owner, uint256 tokenId) internal {... */\n    tag_88:\n        /* \"contracts/uniswapv3lp.sol\":2061:2106  nonfungiblePositionManager.positions(tokenId) */\n      mload(0x40)\n      shl(0xe3, 0x133f7571)\n      dup2\n      mstore\n      0x04\n      dup2\n      add\n        /* \"#utility.yul\":13374:13399   */\n      dup3\n      swap1\n      mstore\n        /* \"contracts/uniswapv3lp.sol\":1981:1995  address token0 */\n      0x00\n      swap1\n      dup2\n      swap1\n      dup2\n      swap1\n      0x00\n      dup1\n      mload\n      0x20\n      data_65cfeff779fe42d2d5b4c2c078348cb18abbc731a2e3837262888dd9b50bb10e\n      dup4\n      codecopy\n      dup2\n      mload\n      swap2\n      mstore\n        /* \"contracts/uniswapv3lp.sol\":780:822  0xC36442b4a4522E871399CD717aBDD847Ab11FE88 */\n      swap1\n        /* \"contracts/uniswapv3lp.sol\":2061:2097  nonfungiblePositionManager.positions */\n      0x99fbab88\n      swap1\n        /* \"#utility.yul\":13347:13365   */\n      0x24\n      add\n        /* \"contracts/uniswapv3lp.sol\":2061:2106  nonfungiblePositionManager.positions(tokenId) */\n      0x0180\n      mload(0x40)\n      dup1\n      dup4\n      sub\n      dup2\n      dup7\n      gas\n      staticcall\n      iszero\n      dup1\n      iszero\n      tag_215\n      jumpi\n      returndatasize\n      0x00\n      dup1\n      returndatacopy\n      revert(0x00, returndatasize)\n    tag_215:\n      pop\n      pop\n      pop\n      pop\n      mload(0x40)\n      returndatasize\n      not(0x1f)\n      0x1f\n      dup3\n      add\n      and\n      dup3\n      add\n      dup1\n      0x40\n      mstore\n      pop\n      dup2\n      add\n      swap1\n      tag_216\n      swap2\n      swap1\n      tag_217\n      jump\t// in\n    tag_216:\n        /* \"contracts/uniswapv3lp.sol\":1976:2106  (, , address token0, address token1, , , , uint128 liquidity, , , , ) =... */\n      pop\n      pop\n      pop\n      pop\n      swap8\n      pop\n      pop\n      pop\n      pop\n      swap5\n      pop\n      swap5\n      pop\n      pop\n      pop\n        /* \"contracts/uniswapv3lp.sol\":2185:2262  Deposit({owner: owner, liquidity: liquidity, token0: token0, token1: token1}) */\n      mload(0x40)\n      dup1\n      0x80\n      add\n      0x40\n      mstore\n      dup1\n        /* \"contracts/uniswapv3lp.sol\":2201:2206  owner */\n      dup7\n      sub(shl(0xa0, 0x01), 0x01)\n        /* \"contracts/uniswapv3lp.sol\":2185:2262  Deposit({owner: owner, liquidity: liquidity, token0: token0, token1: token1}) */\n      and\n      dup2\n      mstore\n      0x20\n      add\n        /* \"contracts/uniswapv3lp.sol\":2219:2228  liquidity */\n      dup3\n      sub(shl(0x80, 0x01), 0x01)\n        /* \"contracts/uniswapv3lp.sol\":2185:2262  Deposit({owner: owner, liquidity: liquidity, token0: token0, token1: token1}) */\n      and\n      dup2\n      mstore\n      0x20\n      add\n        /* \"contracts/uniswapv3lp.sol\":2238:2244  token0 */\n      dup5\n      sub(shl(0xa0, 0x01), 0x01)\n        /* \"contracts/uniswapv3lp.sol\":2185:2262  Deposit({owner: owner, liquidity: liquidity, token0: token0, token1: token1}) */\n      and\n      dup2\n      mstore\n      0x20\n      add\n        /* \"contracts/uniswapv3lp.sol\":2254:2260  token1 */\n      dup4\n      sub(shl(0xa0, 0x01), 0x01)\n        /* \"contracts/uniswapv3lp.sol\":2185:2262  Deposit({owner: owner, liquidity: liquidity, token0: token0, token1: token1}) */\n      and\n      dup2\n      mstore\n      pop\n        /* \"contracts/uniswapv3lp.sol\":2165:2173  deposits */\n      0x01\n        /* \"contracts/uniswapv3lp.sol\":2165:2182  deposits[tokenId] */\n      0x00\n        /* \"contracts/uniswapv3lp.sol\":2174:2181  tokenId */\n      dup7\n        /* \"contracts/uniswapv3lp.sol\":2165:2182  deposits[tokenId] */\n      dup2\n      mstore\n      0x20\n      add\n      swap1\n      dup2\n      mstore\n      0x20\n      add\n      0x00\n      keccak256\n        /* \"contracts/uniswapv3lp.sol\":2165:2262  deposits[tokenId] = Deposit({owner: owner, liquidity: liquidity, token0: token0, token1: token1}) */\n      0x00\n      dup3\n      add\n      mload\n      dup2\n      0x00\n      add\n      exp(0x0100, 0x00)\n      dup2\n      sload\n      dup2\n      sub(shl(0xa0, 0x01), 0x01)\n      mul\n      not\n      and\n      swap1\n      dup4\n      sub(shl(0xa0, 0x01), 0x01)\n      and\n      mul\n      or\n      swap1\n      sstore\n      pop\n      0x20\n      dup3\n      add\n      mload\n      dup2\n      0x01\n      add\n      exp(0x0100, 0x00)\n      dup2\n      sload\n      dup2\n      sub(shl(0x80, 0x01), 0x01)\n      mul\n      not\n      and\n      swap1\n      dup4\n      sub(shl(0x80, 0x01), 0x01)\n      and\n      mul\n      or\n      swap1\n      sstore\n      pop\n      0x40\n      dup3\n      add\n      mload\n      dup2\n      0x02\n      add\n      exp(0x0100, 0x00)\n      dup2\n      sload\n      dup2\n      sub(shl(0xa0, 0x01), 0x01)\n      mul\n      not\n      and\n      swap1\n      dup4\n      sub(shl(0xa0, 0x01), 0x01)\n      and\n      mul\n      or\n      swap1\n      sstore\n      pop\n      0x60\n      dup3\n      add\n      mload\n      dup2\n      0x03\n      add\n      exp(0x0100, 0x00)\n      dup2\n      sload\n      dup2\n      sub(shl(0xa0, 0x01), 0x01)\n      mul\n      not\n      and\n      swap1\n      dup4\n      sub(shl(0xa0, 0x01), 0x01)\n      and\n      mul\n      or\n      swap1\n      sstore\n      pop\n      swap1\n      pop\n      pop\n        /* \"contracts/uniswapv3lp.sol\":1965:2270  {... */\n      pop\n      pop\n      pop\n        /* \"contracts/uniswapv3lp.sol\":1900:2270  function _createDeposit(address owner, uint256 tokenId) internal {... */\n      pop\n      pop\n      jump\t// out\n        /* \"@uniswap/v3-periphery/contracts/libraries/TransferHelper.sol\":561:919  function safeTransferFrom(... */\n    tag_91:\n        /* \"@uniswap/v3-periphery/contracts/libraries/TransferHelper.sol\":759:828  abi.encodeWithSelector(IERC20.transferFrom.selector, from, to, value) */\n      0x40\n      dup1\n      mload\n      sub(shl(0xa0, 0x01), 0x01)\n        /* \"#utility.yul\":15311:15326   */\n      dup6\n      dup2\n      and\n        /* \"@uniswap/v3-periphery/contracts/libraries/TransferHelper.sol\":759:828  abi.encodeWithSelector(IERC20.transferFrom.selector, from, to, value) */\n      0x24\n      dup4\n      add\n        /* \"#utility.yul\":15293:15327   */\n      mstore\n        /* \"#utility.yul\":15363:15378   */\n      dup5\n      dup2\n      and\n        /* \"#utility.yul\":15343:15361   */\n      0x44\n      dup4\n      add\n        /* \"#utility.yul\":15336:15379   */\n      mstore\n        /* \"#utility.yul\":15395:15413   */\n      0x64\n      dup1\n      dup4\n      add\n        /* \"#utility.yul\":15388:15422   */\n      dup6\n      swap1\n      mstore\n        /* \"@uniswap/v3-periphery/contracts/libraries/TransferHelper.sol\":759:828  abi.encodeWithSelector(IERC20.transferFrom.selector, from, to, value) */\n      dup4\n      mload\n      dup1\n      dup5\n      sub\n      swap1\n      swap2\n      add\n      dup2\n      mstore\n        /* \"#utility.yul\":15228:15246   */\n      0x84\n      swap1\n      swap3\n      add\n        /* \"@uniswap/v3-periphery/contracts/libraries/TransferHelper.sol\":759:828  abi.encodeWithSelector(IERC20.transferFrom.selector, from, to, value) */\n      dup4\n      mstore\n      0x20\n      dup3\n      add\n      dup1\n      mload\n      sub(shl(0xe0, 0x01), 0x01)\n      and\n      shl(0xe0, 0x23b872dd)\n      or\n      swap1\n      mstore\n        /* \"@uniswap/v3-periphery/contracts/libraries/TransferHelper.sol\":748:829  token.call(abi.encodeWithSelector(IERC20.transferFrom.selector, from, to, value)) */\n      swap2\n      mload\n      0x00\n      swap3\n      dup4\n      swap3\n        /* \"@uniswap/v3-periphery/contracts/libraries/TransferHelper.sol\":748:758  token.call */\n      swap1\n      dup9\n      and\n      swap2\n        /* \"@uniswap/v3-periphery/contracts/libraries/TransferHelper.sol\":748:829  token.call(abi.encodeWithSelector(IERC20.transferFrom.selector, from, to, value)) */\n      tag_221\n      swap2\n        /* \"@uniswap/v3-periphery/contracts/libraries/TransferHelper.sol\":759:828  abi.encodeWithSelector(IERC20.transferFrom.selector, from, to, value) */\n      swap1\n        /* \"@uniswap/v3-periphery/contracts/libraries/TransferHelper.sol\":748:829  token.call(abi.encodeWithSelector(IERC20.transferFrom.selector, from, to, value)) */\n      tag_222\n      jump\t// in\n    tag_221:\n      0x00\n      mload(0x40)\n      dup1\n      dup4\n      sub\n      dup2\n      0x00\n      dup7\n      gas\n      call\n      swap2\n      pop\n      pop\n      returndatasize\n      dup1\n      0x00\n      dup2\n      eq\n      tag_225\n      jumpi\n      mload(0x40)\n      swap2\n      pop\n      and(add(returndatasize, 0x3f), not(0x1f))\n      dup3\n      add\n      0x40\n      mstore\n      returndatasize\n      dup3\n      mstore\n      returndatasize\n      0x00\n      0x20\n      dup5\n      add\n      returndatacopy\n      jump(tag_224)\n    tag_225:\n      0x60\n      swap2\n      pop\n    tag_224:\n      pop\n        /* \"@uniswap/v3-periphery/contracts/libraries/TransferHelper.sol\":700:829  (bool success, bytes memory data) =... */\n      swap2\n      pop\n      swap2\n      pop\n        /* \"@uniswap/v3-periphery/contracts/libraries/TransferHelper.sol\":847:854  success */\n      dup2\n        /* \"@uniswap/v3-periphery/contracts/libraries/TransferHelper.sol\":847:904  success && (data.length == 0 || abi.decode(data, (bool))) */\n      dup1\n      iszero\n      tag_228\n      jumpi\n      pop\n        /* \"@uniswap/v3-periphery/contracts/libraries/TransferHelper.sol\":859:870  data.length */\n      dup1\n      mload\n        /* \"@uniswap/v3-periphery/contracts/libraries/TransferHelper.sol\":859:875  data.length == 0 */\n      iszero\n      dup1\n        /* \"@uniswap/v3-periphery/contracts/libraries/TransferHelper.sol\":859:903  data.length == 0 || abi.decode(data, (bool)) */\n      tag_228\n      jumpi\n      pop\n        /* \"@uniswap/v3-periphery/contracts/libraries/TransferHelper.sol\":890:894  data */\n      dup1\n        /* \"@uniswap/v3-periphery/contracts/libraries/TransferHelper.sol\":879:903  abi.decode(data, (bool)) */\n      dup1\n      0x20\n      add\n      swap1\n      mload\n      dup2\n      add\n      swap1\n      tag_228\n      swap2\n      swap1\n      tag_229\n      jump\t// in\n    tag_228:\n        /* \"@uniswap/v3-periphery/contracts/libraries/TransferHelper.sol\":839:912  require(success && (data.length == 0 || abi.decode(data, (bool))), 'STF') */\n      tag_230\n      jumpi\n      mload(0x40)\n      shl(0xe5, 0x461bcd)\n      dup2\n      mstore\n        /* \"#utility.yul\":16348:16350   */\n      0x20\n        /* \"@uniswap/v3-periphery/contracts/libraries/TransferHelper.sol\":839:912  require(success && (data.length == 0 || abi.decode(data, (bool))), 'STF') */\n      0x04\n      dup3\n      add\n        /* \"#utility.yul\":16330:16351   */\n      mstore\n        /* \"#utility.yul\":16387:16388   */\n      0x03\n        /* \"#utility.yul\":16367:16385   */\n      0x24\n      dup3\n      add\n        /* \"#utility.yul\":16360:16389   */\n      mstore\n      shl(0xe9, 0x29aa23)\n        /* \"#utility.yul\":16405:16423   */\n      0x44\n      dup3\n      add\n        /* \"#utility.yul\":16398:16431   */\n      mstore\n        /* \"#utility.yul\":16448:16466   */\n      0x64\n      add\n        /* \"@uniswap/v3-periphery/contracts/libraries/TransferHelper.sol\":839:912  require(success && (data.length == 0 || abi.decode(data, (bool))), 'STF') */\n      tag_85\n        /* \"#utility.yul\":16146:16472   */\n      jump\n        /* \"@uniswap/v3-periphery/contracts/libraries/TransferHelper.sol\":839:912  require(success && (data.length == 0 || abi.decode(data, (bool))), 'STF') */\n    tag_230:\n        /* \"@uniswap/v3-periphery/contracts/libraries/TransferHelper.sol\":690:919  {... */\n      pop\n      pop\n        /* \"@uniswap/v3-periphery/contracts/libraries/TransferHelper.sol\":561:919  function safeTransferFrom(... */\n      pop\n      pop\n      pop\n      pop\n      jump\t// out\n        /* \"@uniswap/v3-periphery/contracts/libraries/TransferHelper.sol\":1873:2180  function safeApprove(... */\n    tag_94:\n        /* \"@uniswap/v3-periphery/contracts/libraries/TransferHelper.sol\":2032:2090  abi.encodeWithSelector(IERC20.approve.selector, to, value) */\n      0x40\n      dup1\n      mload\n      sub(shl(0xa0, 0x01), 0x01)\n        /* \"#utility.yul\":16669:16701   */\n      dup5\n      dup2\n      and\n        /* \"@uniswap/v3-periphery/contracts/libraries/TransferHelper.sol\":2032:2090  abi.encodeWithSelector(IERC20.approve.selector, to, value) */\n      0x24\n      dup4\n      add\n        /* \"#utility.yul\":16651:16702   */\n      mstore\n        /* \"#utility.yul\":16718:16736   */\n      0x44\n      dup1\n      dup4\n      add\n        /* \"#utility.yul\":16711:16745   */\n      dup6\n      swap1\n      mstore\n        /* \"@uniswap/v3-periphery/contracts/libraries/TransferHelper.sol\":2032:2090  abi.encodeWithSelector(IERC20.approve.selector, to, value) */\n      dup4\n      mload\n      dup1\n      dup5\n      sub\n      swap1\n      swap2\n      add\n      dup2\n      mstore\n        /* \"#utility.yul\":16624:16642   */\n      0x64\n      swap1\n      swap3\n      add\n        /* \"@uniswap/v3-periphery/contracts/libraries/TransferHelper.sol\":2032:2090  abi.encodeWithSelector(IERC20.approve.selector, to, value) */\n      dup4\n      mstore\n      0x20\n      dup3\n      add\n      dup1\n      mload\n      sub(shl(0xe0, 0x01), 0x01)\n      and\n      shl(0xe0, 0x095ea7b3)\n      or\n      swap1\n      mstore\n        /* \"@uniswap/v3-periphery/contracts/libraries/TransferHelper.sol\":2021:2091  token.call(abi.encodeWithSelector(IERC20.approve.selector, to, value)) */\n      swap2\n      mload\n      0x00\n      swap3\n      dup4\n      swap3\n        /* \"@uniswap/v3-periphery/contracts/libraries/TransferHelper.sol\":2021:2031  token.call */\n      swap1\n      dup8\n      and\n      swap2\n        /* \"@uniswap/v3-periphery/contracts/libraries/TransferHelper.sol\":2021:2091  token.call(abi.encodeWithSelector(IERC20.approve.selector, to, value)) */\n      tag_236\n      swap2\n        /* \"@uniswap/v3-periphery/contracts/libraries/TransferHelper.sol\":2032:2090  abi.encodeWithSelector(IERC20.approve.selector, to, value) */\n      swap1\n        /* \"@uniswap/v3-periphery/contracts/libraries/TransferHelper.sol\":2021:2091  token.call(abi.encodeWithSelector(IERC20.approve.selector, to, value)) */\n      tag_222\n      jump\t// in\n    tag_236:\n      0x00\n      mload(0x40)\n      dup1\n      dup4\n      sub\n      dup2\n      0x00\n      dup7\n      gas\n      call\n      swap2\n      pop\n      pop\n      returndatasize\n      dup1\n      0x00\n      dup2\n      eq\n      tag_239\n      jumpi\n      mload(0x40)\n      swap2\n      pop\n      and(add(returndatasize, 0x3f), not(0x1f))\n      dup3\n      add\n      0x40\n      mstore\n      returndatasize\n      dup3\n      mstore\n      returndatasize\n      0x00\n      0x20\n      dup5\n      add\n      returndatacopy\n      jump(tag_238)\n    tag_239:\n      0x60\n      swap2\n      pop\n    tag_238:\n      pop\n        /* \"@uniswap/v3-periphery/contracts/libraries/TransferHelper.sol\":1985:2091  (bool success, bytes memory data) = token.call(abi.encodeWithSelector(IERC20.approve.selector, to, value)) */\n      swap2\n      pop\n      swap2\n      pop\n        /* \"@uniswap/v3-periphery/contracts/libraries/TransferHelper.sol\":2109:2116  success */\n      dup2\n        /* \"@uniswap/v3-periphery/contracts/libraries/TransferHelper.sol\":2109:2166  success && (data.length == 0 || abi.decode(data, (bool))) */\n      dup1\n      iszero\n      tag_242\n      jumpi\n      pop\n        /* \"@uniswap/v3-periphery/contracts/libraries/TransferHelper.sol\":2121:2132  data.length */\n      dup1\n      mload\n        /* \"@uniswap/v3-periphery/contracts/libraries/TransferHelper.sol\":2121:2137  data.length == 0 */\n      iszero\n      dup1\n        /* \"@uniswap/v3-periphery/contracts/libraries/TransferHelper.sol\":2121:2165  data.length == 0 || abi.decode(data, (bool)) */\n      tag_242\n      jumpi\n      pop\n        /* \"@uniswap/v3-periphery/contracts/libraries/TransferHelper.sol\":2152:2156  data */\n      dup1\n        /* \"@uniswap/v3-periphery/contracts/libraries/TransferHelper.sol\":2141:2165  abi.decode(data, (bool)) */\n      dup1\n      0x20\n      add\n      swap1\n      mload\n      dup2\n      add\n      swap1\n      tag_242\n      swap2\n      swap1\n      tag_229\n      jump\t// in\n    tag_242:\n        /* \"@uniswap/v3-periphery/contracts/libraries/TransferHelper.sol\":2101:2173  require(success && (data.length == 0 || abi.decode(data, (bool))), 'SA') */\n      tag_243\n      jumpi\n      mload(0x40)\n      shl(0xe5, 0x461bcd)\n      dup2\n      mstore\n        /* \"#utility.yul\":16958:16960   */\n      0x20\n        /* \"@uniswap/v3-periphery/contracts/libraries/TransferHelper.sol\":2101:2173  require(success && (data.length == 0 || abi.decode(data, (bool))), 'SA') */\n      0x04\n      dup3\n      add\n        /* \"#utility.yul\":16940:16961   */\n      mstore\n        /* \"#utility.yul\":16997:16998   */\n      0x02\n        /* \"#utility.yul\":16977:16995   */\n      0x24\n      dup3\n      add\n        /* \"#utility.yul\":16970:16999   */\n      mstore\n      shl(0xf0, 0x5341)\n        /* \"#utility.yul\":17015:17033   */\n      0x44\n      dup3\n      add\n        /* \"#utility.yul\":17008:17040   */\n      mstore\n        /* \"#utility.yul\":17057:17075   */\n      0x64\n      add\n        /* \"@uniswap/v3-periphery/contracts/libraries/TransferHelper.sol\":2101:2173  require(success && (data.length == 0 || abi.decode(data, (bool))), 'SA') */\n      tag_85\n        /* \"#utility.yul\":16756:17081   */\n      jump\n        /* \"@uniswap/v3-periphery/contracts/libraries/TransferHelper.sol\":2101:2173  require(success && (data.length == 0 || abi.decode(data, (bool))), 'SA') */\n    tag_243:\n        /* \"@uniswap/v3-periphery/contracts/libraries/TransferHelper.sol\":1975:2180  {... */\n      pop\n      pop\n        /* \"@uniswap/v3-periphery/contracts/libraries/TransferHelper.sol\":1873:2180  function safeApprove(... */\n      pop\n      pop\n      pop\n      jump\t// out\n        /* \"contracts/uniswapv3lp.sol\":2278:2482  function slippagify(uint256 amount, uint256 slippage) internal pure returns(uint256) {... */\n    tag_97:\n        /* \"contracts/uniswapv3lp.sol\":2354:2361  uint256 */\n      0x00\n        /* \"contracts/uniswapv3lp.sol\":2411:2414  1e5 */\n      0x0186a0\n        /* \"contracts/uniswapv3lp.sol\":2399:2407  slippage */\n      dup3\n        /* \"contracts/uniswapv3lp.sol\":2399:2414  slippage <= 1e5 */\n      gt\n      iszero\n        /* \"contracts/uniswapv3lp.sol\":2374:2431  require(slippage >= 0 && slippage <= 1e5, \"not in range\") */\n      tag_248\n      jumpi\n      mload(0x40)\n      shl(0xe5, 0x461bcd)\n      dup2\n      mstore\n        /* \"#utility.yul\":17288:17290   */\n      0x20\n        /* \"contracts/uniswapv3lp.sol\":2374:2431  require(slippage >= 0 && slippage <= 1e5, \"not in range\") */\n      0x04\n      dup3\n      add\n        /* \"#utility.yul\":17270:17291   */\n      mstore\n        /* \"#utility.yul\":17327:17329   */\n      0x0c\n        /* \"#utility.yul\":17307:17325   */\n      0x24\n      dup3\n      add\n        /* \"#utility.yul\":17300:17330   */\n      mstore\n      shl(0xa0, 0x6e6f7420696e2072616e6765)\n        /* \"#utility.yul\":17346:17364   */\n      0x44\n      dup3\n      add\n        /* \"#utility.yul\":17339:17381   */\n      mstore\n        /* \"#utility.yul\":17398:17416   */\n      0x64\n      add\n        /* \"contracts/uniswapv3lp.sol\":2374:2431  require(slippage >= 0 && slippage <= 1e5, \"not in range\") */\n      tag_85\n        /* \"#utility.yul\":17086:17422   */\n      jump\n        /* \"contracts/uniswapv3lp.sol\":2374:2431  require(slippage >= 0 && slippage <= 1e5, \"not in range\") */\n    tag_248:\n        /* \"contracts/uniswapv3lp.sol\":2471:2474  1e5 */\n      0x0186a0\n        /* \"contracts/uniswapv3lp.sol\":2457:2469  1e5-slippage */\n      tag_251\n        /* \"contracts/uniswapv3lp.sol\":2461:2469  slippage */\n      dup4\n        /* \"contracts/uniswapv3lp.sol\":2471:2474  1e5 */\n      dup3\n        /* \"contracts/uniswapv3lp.sol\":2457:2469  1e5-slippage */\n      tag_108\n      jump\t// in\n    tag_251:\n        /* \"contracts/uniswapv3lp.sol\":2449:2470  amount*(1e5-slippage) */\n      tag_252\n      swap1\n        /* \"contracts/uniswapv3lp.sol\":2449:2455  amount */\n      dup6\n        /* \"contracts/uniswapv3lp.sol\":2449:2470  amount*(1e5-slippage) */\n      tag_253\n      jump\t// in\n    tag_252:\n        /* \"contracts/uniswapv3lp.sol\":2449:2474  amount*(1e5-slippage)/1e5 */\n      tag_254\n      swap2\n      swap1\n      tag_255\n      jump\t// in\n    tag_254:\n        /* \"contracts/uniswapv3lp.sol\":2442:2474  return amount*(1e5-slippage)/1e5 */\n      swap4\n        /* \"contracts/uniswapv3lp.sol\":2278:2482  function slippagify(uint256 amount, uint256 slippage) internal pure returns(uint256) {... */\n      swap3\n      pop\n      pop\n      pop\n      jump\t// out\n        /* \"@uniswap/v3-periphery/contracts/libraries/TransferHelper.sol\":1211:1520  function safeTransfer(... */\n    tag_110:\n        /* \"@uniswap/v3-periphery/contracts/libraries/TransferHelper.sol\":1371:1430  abi.encodeWithSelector(IERC20.transfer.selector, to, value) */\n      0x40\n      dup1\n      mload\n      sub(shl(0xa0, 0x01), 0x01)\n        /* \"#utility.yul\":16669:16701   */\n      dup5\n      dup2\n      and\n        /* \"@uniswap/v3-periphery/contracts/libraries/TransferHelper.sol\":1371:1430  abi.encodeWithSelector(IERC20.transfer.selector, to, value) */\n      0x24\n      dup4\n      add\n        /* \"#utility.yul\":16651:16702   */\n      mstore\n        /* \"#utility.yul\":16718:16736   */\n      0x44\n      dup1\n      dup4\n      add\n        /* \"#utility.yul\":16711:16745   */\n      dup6\n      swap1\n      mstore\n        /* \"@uniswap/v3-periphery/contracts/libraries/TransferHelper.sol\":1371:1430  abi.encodeWithSelector(IERC20.transfer.selector, to, value) */\n      dup4\n      mload\n      dup1\n      dup5\n      sub\n      swap1\n      swap2\n      add\n      dup2\n      mstore\n        /* \"#utility.yul\":16624:16642   */\n      0x64\n      swap1\n      swap3\n      add\n        /* \"@uniswap/v3-periphery/contracts/libraries/TransferHelper.sol\":1371:1430  abi.encodeWithSelector(IERC20.transfer.selector, to, value) */\n      dup4\n      mstore\n      0x20\n      dup3\n      add\n      dup1\n      mload\n      sub(shl(0xe0, 0x01), 0x01)\n      and\n      shl(0xe0, 0xa9059cbb)\n      or\n      swap1\n      mstore\n        /* \"@uniswap/v3-periphery/contracts/libraries/TransferHelper.sol\":1360:1431  token.call(abi.encodeWithSelector(IERC20.transfer.selector, to, value)) */\n      swap2\n      mload\n      0x00\n      swap3\n      dup4\n      swap3\n        /* \"@uniswap/v3-periphery/contracts/libraries/TransferHelper.sol\":1360:1370  token.call */\n      swap1\n      dup8\n      and\n      swap2\n        /* \"@uniswap/v3-periphery/contracts/libraries/TransferHelper.sol\":1360:1431  token.call(abi.encodeWithSelector(IERC20.transfer.selector, to, value)) */\n      tag_258\n      swap2\n        /* \"@uniswap/v3-periphery/contracts/libraries/TransferHelper.sol\":1371:1430  abi.encodeWithSelector(IERC20.transfer.selector, to, value) */\n      swap1\n        /* \"@uniswap/v3-periphery/contracts/libraries/TransferHelper.sol\":1360:1431  token.call(abi.encodeWithSelector(IERC20.transfer.selector, to, value)) */\n      tag_222\n      jump\t// in\n    tag_258:\n      0x00\n      mload(0x40)\n      dup1\n      dup4\n      sub\n      dup2\n      0x00\n      dup7\n      gas\n      call\n      swap2\n      pop\n      pop\n      returndatasize\n      dup1\n      0x00\n      dup2\n      eq\n      tag_261\n      jumpi\n      mload(0x40)\n      swap2\n      pop\n      and(add(returndatasize, 0x3f), not(0x1f))\n      dup3\n      add\n      0x40\n      mstore\n      returndatasize\n      dup3\n      mstore\n      returndatasize\n      0x00\n      0x20\n      dup5\n      add\n      returndatacopy\n      jump(tag_260)\n    tag_261:\n      0x60\n      swap2\n      pop\n    tag_260:\n      pop\n        /* \"@uniswap/v3-periphery/contracts/libraries/TransferHelper.sol\":1324:1431  (bool success, bytes memory data) = token.call(abi.encodeWithSelector(IERC20.transfer.selector, to, value)) */\n      swap2\n      pop\n      swap2\n      pop\n        /* \"@uniswap/v3-periphery/contracts/libraries/TransferHelper.sol\":1449:1456  success */\n      dup2\n        /* \"@uniswap/v3-periphery/contracts/libraries/TransferHelper.sol\":1449:1506  success && (data.length == 0 || abi.decode(data, (bool))) */\n      dup1\n      iszero\n      tag_264\n      jumpi\n      pop\n        /* \"@uniswap/v3-periphery/contracts/libraries/TransferHelper.sol\":1461:1472  data.length */\n      dup1\n      mload\n        /* \"@uniswap/v3-periphery/contracts/libraries/TransferHelper.sol\":1461:1477  data.length == 0 */\n      iszero\n      dup1\n        /* \"@uniswap/v3-periphery/contracts/libraries/TransferHelper.sol\":1461:1505  data.length == 0 || abi.decode(data, (bool)) */\n      tag_264\n      jumpi\n      pop\n        /* \"@uniswap/v3-periphery/contracts/libraries/TransferHelper.sol\":1492:1496  data */\n      dup1\n        /* \"@uniswap/v3-periphery/contracts/libraries/TransferHelper.sol\":1481:1505  abi.decode(data, (bool)) */\n      dup1\n      0x20\n      add\n      swap1\n      mload\n      dup2\n      add\n      swap1\n      tag_264\n      swap2\n      swap1\n      tag_229\n      jump\t// in\n    tag_264:\n        /* \"@uniswap/v3-periphery/contracts/libraries/TransferHelper.sol\":1441:1513  require(success && (data.length == 0 || abi.decode(data, (bool))), 'ST') */\n      tag_243\n      jumpi\n      mload(0x40)\n      shl(0xe5, 0x461bcd)\n      dup2\n      mstore\n        /* \"#utility.yul\":17927:17929   */\n      0x20\n        /* \"@uniswap/v3-periphery/contracts/libraries/TransferHelper.sol\":1441:1513  require(success && (data.length == 0 || abi.decode(data, (bool))), 'ST') */\n      0x04\n      dup3\n      add\n        /* \"#utility.yul\":17909:17930   */\n      mstore\n        /* \"#utility.yul\":17966:17967   */\n      0x02\n        /* \"#utility.yul\":17946:17964   */\n      0x24\n      dup3\n      add\n        /* \"#utility.yul\":17939:17968   */\n      mstore\n      shl(0xf2, 0x14d5)\n        /* \"#utility.yul\":17984:18002   */\n      0x44\n      dup3\n      add\n        /* \"#utility.yul\":17977:18009   */\n      mstore\n        /* \"#utility.yul\":18026:18044   */\n      0x64\n      add\n        /* \"@uniswap/v3-periphery/contracts/libraries/TransferHelper.sol\":1441:1513  require(success && (data.length == 0 || abi.decode(data, (bool))), 'ST') */\n      tag_85\n        /* \"#utility.yul\":17725:18050   */\n      jump\n        /* \"@openzeppelin/contracts/access/Ownable.sol\":1359:1489  function _checkOwner() internal view virtual {... */\n    tag_122:\n        /* \"@openzeppelin/contracts/access/Ownable.sol\":1247:1254  address */\n      0x00\n        /* \"@openzeppelin/contracts/access/Ownable.sol\":1273:1279  _owner */\n      sload\n      sub(shl(0xa0, 0x01), 0x01)\n      and\n        /* \"@openzeppelin/contracts/utils/Context.sol\":719:729  msg.sender */\n      caller\n        /* \"@openzeppelin/contracts/access/Ownable.sol\":1422:1445  owner() == _msgSender() */\n      eq\n        /* \"@openzeppelin/contracts/access/Ownable.sol\":1414:1482  require(owner() == _msgSender(), \"Ownable: caller is not the owner\") */\n      tag_124\n      jumpi\n      mload(0x40)\n      shl(0xe5, 0x461bcd)\n      dup2\n      mstore\n        /* \"#utility.yul\":18257:18259   */\n      0x20\n        /* \"@openzeppelin/contracts/access/Ownable.sol\":1414:1482  require(owner() == _msgSender(), \"Ownable: caller is not the owner\") */\n      0x04\n      dup3\n      add\n        /* \"#utility.yul\":18239:18260   */\n      dup2\n      swap1\n      mstore\n        /* \"#utility.yul\":18276:18294   */\n      0x24\n      dup3\n      add\n        /* \"#utility.yul\":18269:18299   */\n      mstore\n        /* \"#utility.yul\":18335:18369   */\n      0x4f776e61626c653a2063616c6c6572206973206e6f7420746865206f776e6572\n        /* \"#utility.yul\":18315:18333   */\n      0x44\n      dup3\n      add\n        /* \"#utility.yul\":18308:18370   */\n      mstore\n        /* \"#utility.yul\":18387:18405   */\n      0x64\n      add\n        /* \"@openzeppelin/contracts/access/Ownable.sol\":1414:1482  require(owner() == _msgSender(), \"Ownable: caller is not the owner\") */\n      tag_85\n        /* \"#utility.yul\":18055:18411   */\n      jump\n        /* \"@openzeppelin/contracts/access/Ownable.sol\":2433:2620  function _transferOwnership(address newOwner) internal virtual {... */\n    tag_125:\n        /* \"@openzeppelin/contracts/access/Ownable.sol\":2506:2522  address oldOwner */\n      0x00\n        /* \"@openzeppelin/contracts/access/Ownable.sol\":2525:2531  _owner */\n      dup1\n      sload\n      sub(shl(0xa0, 0x01), 0x01)\n        /* \"@openzeppelin/contracts/access/Ownable.sol\":2541:2558  _owner = newOwner */\n      dup4\n      dup2\n      and\n      not(sub(shl(0xa0, 0x01), 0x01))\n      dup4\n      and\n      dup2\n      or\n      dup5\n      sstore\n        /* \"@openzeppelin/contracts/access/Ownable.sol\":2573:2613  OwnershipTransferred(oldOwner, newOwner) */\n      mload(0x40)\n        /* \"@openzeppelin/contracts/access/Ownable.sol\":2525:2531  _owner */\n      swap2\n      swap1\n      swap3\n      and\n      swap3\n      dup4\n      swap2\n        /* \"@openzeppelin/contracts/access/Ownable.sol\":2573:2613  OwnershipTransferred(oldOwner, newOwner) */\n      0x8be0079c531659141344cd1fd0a4f28419497f9722a3daafe3b4186f6b6457e0\n      swap2\n        /* \"@openzeppelin/contracts/access/Ownable.sol\":2506:2522  address oldOwner */\n      swap1\n        /* \"@openzeppelin/contracts/access/Ownable.sol\":2573:2613  OwnershipTransferred(oldOwner, newOwner) */\n      log3\n        /* \"@openzeppelin/contracts/access/Ownable.sol\":2496:2620  {... */\n      pop\n        /* \"@openzeppelin/contracts/access/Ownable.sol\":2433:2620  function _transferOwnership(address newOwner) internal virtual {... */\n      pop\n      jump\t// out\n        /* \"contracts/uniswapv3lp.sol\":11105:11583  function _sendToOwner(... */\n    tag_156:\n        /* \"contracts/uniswapv3lp.sol\":11265:11278  address owner */\n      0x00\n        /* \"contracts/uniswapv3lp.sol\":11281:11298  deposits[tokenId] */\n      dup4\n      dup2\n      mstore\n        /* \"contracts/uniswapv3lp.sol\":11281:11289  deposits */\n      0x01\n        /* \"contracts/uniswapv3lp.sol\":11281:11298  deposits[tokenId] */\n      0x20\n      mstore\n      0x40\n      swap1\n      keccak256\n        /* \"contracts/uniswapv3lp.sol\":11281:11304  deposits[tokenId].owner */\n      dup1\n      sload\n        /* \"contracts/uniswapv3lp.sol\":11334:11358  deposits[tokenId].token0 */\n      0x02\n      dup3\n      add\n      sload\n        /* \"contracts/uniswapv3lp.sol\":11386:11410  deposits[tokenId].token1 */\n      0x03\n      swap1\n      swap3\n      add\n      sload\n      sub(shl(0xa0, 0x01), 0x01)\n        /* \"contracts/uniswapv3lp.sol\":11281:11304  deposits[tokenId].owner */\n      swap2\n      dup3\n      and\n      swap3\n        /* \"contracts/uniswapv3lp.sol\":11334:11358  deposits[tokenId].token0 */\n      dup3\n      and\n      swap2\n        /* \"contracts/uniswapv3lp.sol\":11386:11410  deposits[tokenId].token1 */\n      and\n        /* \"contracts/uniswapv3lp.sol\":11462:11513  TransferHelper.safeTransfer(token0, owner, amount0) */\n      tag_277\n        /* \"contracts/uniswapv3lp.sol\":11334:11358  deposits[tokenId].token0 */\n      dup3\n        /* \"contracts/uniswapv3lp.sol\":11281:11304  deposits[tokenId].owner */\n      dup5\n        /* \"contracts/uniswapv3lp.sol\":11505:11512  amount0 */\n      dup8\n        /* \"contracts/uniswapv3lp.sol\":11462:11489  TransferHelper.safeTransfer */\n      tag_110\n        /* \"contracts/uniswapv3lp.sol\":11462:11513  TransferHelper.safeTransfer(token0, owner, amount0) */\n      jump\t// in\n    tag_277:\n        /* \"contracts/uniswapv3lp.sol\":11524:11575  TransferHelper.safeTransfer(token1, owner, amount1) */\n      tag_230\n        /* \"contracts/uniswapv3lp.sol\":11552:11558  token1 */\n      dup2\n        /* \"contracts/uniswapv3lp.sol\":11560:11565  owner */\n      dup5\n        /* \"contracts/uniswapv3lp.sol\":11567:11574  amount1 */\n      dup7\n        /* \"contracts/uniswapv3lp.sol\":11524:11551  TransferHelper.safeTransfer */\n      tag_110\n        /* \"contracts/uniswapv3lp.sol\":11524:11575  TransferHelper.safeTransfer(token1, owner, amount1) */\n      jump\t// in\n        /* \"#utility.yul\":306:437   */\n    tag_281:\n      sub(shl(0xa0, 0x01), 0x01)\n        /* \"#utility.yul\":381:412   */\n      dup2\n      and\n        /* \"#utility.yul\":371:413   */\n      dup2\n      eq\n        /* \"#utility.yul\":361:431   */\n      tag_183\n      jumpi\n        /* \"#utility.yul\":427:428   */\n      0x00\n        /* \"#utility.yul\":424:425   */\n      dup1\n        /* \"#utility.yul\":417:429   */\n      revert\n        /* \"#utility.yul\":442:1378   */\n    tag_26:\n        /* \"#utility.yul\":539:545   */\n      0x00\n        /* \"#utility.yul\":547:553   */\n      dup1\n        /* \"#utility.yul\":555:561   */\n      0x00\n        /* \"#utility.yul\":563:569   */\n      dup1\n        /* \"#utility.yul\":571:577   */\n      0x00\n        /* \"#utility.yul\":624:627   */\n      0x80\n        /* \"#utility.yul\":612:621   */\n      dup7\n        /* \"#utility.yul\":603:610   */\n      dup9\n        /* \"#utility.yul\":599:622   */\n      sub\n        /* \"#utility.yul\":595:628   */\n      slt\n        /* \"#utility.yul\":592:645   */\n      iszero\n      tag_298\n      jumpi\n        /* \"#utility.yul\":641:642   */\n      0x00\n        /* \"#utility.yul\":638:639   */\n      dup1\n        /* \"#utility.yul\":631:643   */\n      revert\n        /* \"#utility.yul\":592:645   */\n    tag_298:\n        /* \"#utility.yul\":680:689   */\n      dup6\n        /* \"#utility.yul\":667:690   */\n      calldataload\n        /* \"#utility.yul\":699:730   */\n      tag_299\n        /* \"#utility.yul\":724:729   */\n      dup2\n        /* \"#utility.yul\":699:730   */\n      tag_281\n      jump\t// in\n    tag_299:\n        /* \"#utility.yul\":749:754   */\n      swap5\n      pop\n        /* \"#utility.yul\":806:808   */\n      0x20\n        /* \"#utility.yul\":791:809   */\n      dup7\n      add\n        /* \"#utility.yul\":778:810   */\n      calldataload\n        /* \"#utility.yul\":819:852   */\n      tag_300\n        /* \"#utility.yul\":778:810   */\n      dup2\n        /* \"#utility.yul\":819:852   */\n      tag_281\n      jump\t// in\n    tag_300:\n        /* \"#utility.yul\":871:878   */\n      swap4\n      pop\n        /* \"#utility.yul\":925:927   */\n      0x40\n        /* \"#utility.yul\":910:928   */\n      dup7\n      add\n        /* \"#utility.yul\":897:929   */\n      calldataload\n      swap3\n      pop\n        /* \"#utility.yul\":980:982   */\n      0x60\n        /* \"#utility.yul\":965:983   */\n      dup7\n      add\n        /* \"#utility.yul\":952:984   */\n      calldataload\n        /* \"#utility.yul\":1003:1021   */\n      0xffffffffffffffff\n        /* \"#utility.yul\":1033:1047   */\n      dup1\n      dup3\n      gt\n        /* \"#utility.yul\":1030:1064   */\n      iszero\n      tag_301\n      jumpi\n        /* \"#utility.yul\":1060:1061   */\n      0x00\n        /* \"#utility.yul\":1057:1058   */\n      dup1\n        /* \"#utility.yul\":1050:1062   */\n      revert\n        /* \"#utility.yul\":1030:1064   */\n    tag_301:\n        /* \"#utility.yul\":1098:1104   */\n      dup2\n        /* \"#utility.yul\":1087:1096   */\n      dup9\n        /* \"#utility.yul\":1083:1105   */\n      add\n        /* \"#utility.yul\":1073:1105   */\n      swap2\n      pop\n        /* \"#utility.yul\":1143:1150   */\n      dup9\n        /* \"#utility.yul\":1136:1140   */\n      0x1f\n        /* \"#utility.yul\":1132:1134   */\n      dup4\n        /* \"#utility.yul\":1128:1141   */\n      add\n        /* \"#utility.yul\":1124:1151   */\n      slt\n        /* \"#utility.yul\":1114:1169   */\n      tag_302\n      jumpi\n        /* \"#utility.yul\":1165:1166   */\n      0x00\n        /* \"#utility.yul\":1162:1163   */\n      dup1\n        /* \"#utility.yul\":1155:1167   */\n      revert\n        /* \"#utility.yul\":1114:1169   */\n    tag_302:\n        /* \"#utility.yul\":1205:1207   */\n      dup2\n        /* \"#utility.yul\":1192:1208   */\n      calldataload\n        /* \"#utility.yul\":1231:1233   */\n      dup2\n        /* \"#utility.yul\":1223:1229   */\n      dup2\n        /* \"#utility.yul\":1220:1234   */\n      gt\n        /* \"#utility.yul\":1217:1251   */\n      iszero\n      tag_303\n      jumpi\n        /* \"#utility.yul\":1247:1248   */\n      0x00\n        /* \"#utility.yul\":1244:1245   */\n      dup1\n        /* \"#utility.yul\":1237:1249   */\n      revert\n        /* \"#utility.yul\":1217:1251   */\n    tag_303:\n        /* \"#utility.yul\":1292:1299   */\n      dup10\n        /* \"#utility.yul\":1287:1289   */\n      0x20\n        /* \"#utility.yul\":1278:1284   */\n      dup3\n        /* \"#utility.yul\":1274:1276   */\n      dup6\n        /* \"#utility.yul\":1270:1285   */\n      add\n        /* \"#utility.yul\":1266:1290   */\n      add\n        /* \"#utility.yul\":1263:1300   */\n      gt\n        /* \"#utility.yul\":1260:1317   */\n      iszero\n      tag_304\n      jumpi\n        /* \"#utility.yul\":1313:1314   */\n      0x00\n        /* \"#utility.yul\":1310:1311   */\n      dup1\n        /* \"#utility.yul\":1303:1315   */\n      revert\n        /* \"#utility.yul\":1260:1317   */\n    tag_304:\n        /* \"#utility.yul\":442:1378   */\n      swap7\n      swap10\n      swap6\n      swap9\n      pop\n      swap4\n      swap7\n      pop\n        /* \"#utility.yul\":1344:1346   */\n      0x20\n        /* \"#utility.yul\":1336:1347   */\n      add\n      swap5\n        /* \"#utility.yul\":1366:1372   */\n      swap4\n        /* \"#utility.yul\":442:1378   */\n      swap3\n      pop\n      pop\n      pop\n      jump\t// out\n        /* \"#utility.yul\":1590:1975   */\n    tag_32:\n        /* \"#utility.yul\":1676:1682   */\n      0x00\n        /* \"#utility.yul\":1684:1690   */\n      dup1\n        /* \"#utility.yul\":1692:1698   */\n      0x00\n        /* \"#utility.yul\":1700:1706   */\n      dup1\n        /* \"#utility.yul\":1753:1756   */\n      0x80\n        /* \"#utility.yul\":1741:1750   */\n      dup6\n        /* \"#utility.yul\":1732:1739   */\n      dup8\n        /* \"#utility.yul\":1728:1751   */\n      sub\n        /* \"#utility.yul\":1724:1757   */\n      slt\n        /* \"#utility.yul\":1721:1774   */\n      iszero\n      tag_307\n      jumpi\n        /* \"#utility.yul\":1770:1771   */\n      0x00\n        /* \"#utility.yul\":1767:1768   */\n      dup1\n        /* \"#utility.yul\":1760:1772   */\n      revert\n        /* \"#utility.yul\":1721:1774   */\n    tag_307:\n      pop\n      pop\n        /* \"#utility.yul\":1793:1816   */\n      dup3\n      calldataload\n      swap5\n        /* \"#utility.yul\":1863:1865   */\n      0x20\n        /* \"#utility.yul\":1848:1866   */\n      dup5\n      add\n        /* \"#utility.yul\":1835:1867   */\n      calldataload\n      swap5\n      pop\n        /* \"#utility.yul\":1914:1916   */\n      0x40\n        /* \"#utility.yul\":1899:1917   */\n      dup5\n      add\n        /* \"#utility.yul\":1886:1918   */\n      calldataload\n      swap4\n        /* \"#utility.yul\":1965:1967   */\n      0x60\n        /* \"#utility.yul\":1950:1968   */\n      add\n        /* \"#utility.yul\":1937:1969   */\n      calldataload\n      swap3\n      pop\n        /* \"#utility.yul\":1590:1975   */\n      swap1\n      pop\n      jump\t// out\n        /* \"#utility.yul\":2662:2808   */\n    tag_283:\n      sub(shl(0x80, 0x01), 0x01)\n        /* \"#utility.yul\":2741:2746   */\n      dup2\n        /* \"#utility.yul\":2737:2783   */\n      and\n        /* \"#utility.yul\":2730:2735   */\n      dup2\n        /* \"#utility.yul\":2727:2784   */\n      eq\n        /* \"#utility.yul\":2717:2802   */\n      tag_183\n      jumpi\n        /* \"#utility.yul\":2798:2799   */\n      0x00\n        /* \"#utility.yul\":2795:2796   */\n      dup1\n        /* \"#utility.yul\":2788:2800   */\n      revert\n        /* \"#utility.yul\":2813:3196   */\n    tag_47:\n        /* \"#utility.yul\":2890:2896   */\n      0x00\n        /* \"#utility.yul\":2898:2904   */\n      dup1\n        /* \"#utility.yul\":2906:2912   */\n      0x00\n        /* \"#utility.yul\":2959:2961   */\n      0x60\n        /* \"#utility.yul\":2947:2956   */\n      dup5\n        /* \"#utility.yul\":2938:2945   */\n      dup7\n        /* \"#utility.yul\":2934:2957   */\n      sub\n        /* \"#utility.yul\":2930:2962   */\n      slt\n        /* \"#utility.yul\":2927:2979   */\n      iszero\n      tag_314\n      jumpi\n        /* \"#utility.yul\":2975:2976   */\n      0x00\n        /* \"#utility.yul\":2972:2973   */\n      dup1\n        /* \"#utility.yul\":2965:2977   */\n      revert\n        /* \"#utility.yul\":2927:2979   */\n    tag_314:\n        /* \"#utility.yul\":3011:3020   */\n      dup4\n        /* \"#utility.yul\":2998:3021   */\n      calldataload\n        /* \"#utility.yul\":2988:3021   */\n      swap3\n      pop\n        /* \"#utility.yul\":3071:3073   */\n      0x20\n        /* \"#utility.yul\":3060:3069   */\n      dup5\n        /* \"#utility.yul\":3056:3074   */\n      add\n        /* \"#utility.yul\":3043:3075   */\n      calldataload\n        /* \"#utility.yul\":3084:3115   */\n      tag_315\n        /* \"#utility.yul\":3109:3114   */\n      dup2\n        /* \"#utility.yul\":3084:3115   */\n      tag_283\n      jump\t// in\n    tag_315:\n        /* \"#utility.yul\":2813:3196   */\n      swap3\n      swap6\n        /* \"#utility.yul\":3134:3139   */\n      swap3\n      swap5\n      pop\n      pop\n      pop\n        /* \"#utility.yul\":3186:3188   */\n      0x40\n        /* \"#utility.yul\":3171:3189   */\n      swap2\n      swap1\n      swap2\n      add\n        /* \"#utility.yul\":3158:3190   */\n      calldataload\n      swap1\n        /* \"#utility.yul\":2813:3196   */\n      jump\t// out\n        /* \"#utility.yul\":3454:3634   */\n    tag_53:\n        /* \"#utility.yul\":3513:3519   */\n      0x00\n        /* \"#utility.yul\":3566:3568   */\n      0x20\n        /* \"#utility.yul\":3554:3563   */\n      dup3\n        /* \"#utility.yul\":3545:3552   */\n      dup5\n        /* \"#utility.yul\":3541:3564   */\n      sub\n        /* \"#utility.yul\":3537:3569   */\n      slt\n        /* \"#utility.yul\":3534:3586   */\n      iszero\n      tag_318\n      jumpi\n        /* \"#utility.yul\":3582:3583   */\n      0x00\n        /* \"#utility.yul\":3579:3580   */\n      dup1\n        /* \"#utility.yul\":3572:3584   */\n      revert\n        /* \"#utility.yul\":3534:3586   */\n    tag_318:\n      pop\n        /* \"#utility.yul\":3605:3628   */\n      calldataload\n      swap2\n        /* \"#utility.yul\":3454:3634   */\n      swap1\n      pop\n      jump\t// out\n        /* \"#utility.yul\":4608:4855   */\n    tag_75:\n        /* \"#utility.yul\":4667:4673   */\n      0x00\n        /* \"#utility.yul\":4720:4722   */\n      0x20\n        /* \"#utility.yul\":4708:4717   */\n      dup3\n        /* \"#utility.yul\":4699:4706   */\n      dup5\n        /* \"#utility.yul\":4695:4718   */\n      sub\n        /* \"#utility.yul\":4691:4723   */\n      slt\n        /* \"#utility.yul\":4688:4740   */\n      iszero\n      tag_323\n      jumpi\n        /* \"#utility.yul\":4736:4737   */\n      0x00\n        /* \"#utility.yul\":4733:4734   */\n      dup1\n        /* \"#utility.yul\":4726:4738   */\n      revert\n        /* \"#utility.yul\":4688:4740   */\n    tag_323:\n        /* \"#utility.yul\":4775:4784   */\n      dup2\n        /* \"#utility.yul\":4762:4785   */\n      calldataload\n        /* \"#utility.yul\":4794:4825   */\n      tag_254\n        /* \"#utility.yul\":4819:4824   */\n      dup2\n        /* \"#utility.yul\":4794:4825   */\n      tag_281\n      jump\t// in\n        /* \"#utility.yul\":4860:4978   */\n    tag_284:\n        /* \"#utility.yul\":4947:4952   */\n      dup1\n        /* \"#utility.yul\":4944:4945   */\n      0x02\n        /* \"#utility.yul\":4933:4953   */\n      signextend\n        /* \"#utility.yul\":4926:4931   */\n      dup2\n        /* \"#utility.yul\":4923:4954   */\n      eq\n        /* \"#utility.yul\":4913:4972   */\n      tag_183\n      jumpi\n        /* \"#utility.yul\":4968:4969   */\n      0x00\n        /* \"#utility.yul\":4965:4966   */\n      dup1\n        /* \"#utility.yul\":4958:4970   */\n      revert\n        /* \"#utility.yul\":4983:6010   */\n    tag_79:\n        /* \"#utility.yul\":5116:5122   */\n      0x00\n        /* \"#utility.yul\":5124:5130   */\n      dup1\n        /* \"#utility.yul\":5132:5138   */\n      0x00\n        /* \"#utility.yul\":5140:5146   */\n      dup1\n        /* \"#utility.yul\":5148:5154   */\n      0x00\n        /* \"#utility.yul\":5156:5162   */\n      dup1\n        /* \"#utility.yul\":5164:5170   */\n      0x00\n        /* \"#utility.yul\":5172:5178   */\n      dup1\n        /* \"#utility.yul\":5225:5228   */\n      0x0100\n        /* \"#utility.yul\":5213:5222   */\n      dup10\n        /* \"#utility.yul\":5204:5211   */\n      dup12\n        /* \"#utility.yul\":5200:5223   */\n      sub\n        /* \"#utility.yul\":5196:5229   */\n      slt\n        /* \"#utility.yul\":5193:5246   */\n      iszero\n      tag_328\n      jumpi\n        /* \"#utility.yul\":5242:5243   */\n      0x00\n        /* \"#utility.yul\":5239:5240   */\n      dup1\n        /* \"#utility.yul\":5232:5244   */\n      revert\n        /* \"#utility.yul\":5193:5246   */\n    tag_328:\n        /* \"#utility.yul\":5281:5290   */\n      dup9\n        /* \"#utility.yul\":5268:5291   */\n      calldataload\n        /* \"#utility.yul\":5300:5331   */\n      tag_329\n        /* \"#utility.yul\":5325:5330   */\n      dup2\n        /* \"#utility.yul\":5300:5331   */\n      tag_281\n      jump\t// in\n    tag_329:\n        /* \"#utility.yul\":5350:5355   */\n      swap8\n      pop\n        /* \"#utility.yul\":5407:5409   */\n      0x20\n        /* \"#utility.yul\":5392:5410   */\n      dup10\n      add\n        /* \"#utility.yul\":5379:5411   */\n      calldataload\n        /* \"#utility.yul\":5420:5453   */\n      tag_330\n        /* \"#utility.yul\":5379:5411   */\n      dup2\n        /* \"#utility.yul\":5420:5453   */\n      tag_281\n      jump\t// in\n    tag_330:\n        /* \"#utility.yul\":5472:5479   */\n      swap7\n      pop\n        /* \"#utility.yul\":5531:5533   */\n      0x40\n        /* \"#utility.yul\":5516:5534   */\n      dup10\n      add\n        /* \"#utility.yul\":5503:5535   */\n      calldataload\n        /* \"#utility.yul\":5544:5575   */\n      tag_331\n        /* \"#utility.yul\":5503:5535   */\n      dup2\n        /* \"#utility.yul\":5544:5575   */\n      tag_284\n      jump\t// in\n    tag_331:\n        /* \"#utility.yul\":5594:5601   */\n      swap6\n      pop\n        /* \"#utility.yul\":5653:5655   */\n      0x60\n        /* \"#utility.yul\":5638:5656   */\n      dup10\n      add\n        /* \"#utility.yul\":5625:5657   */\n      calldataload\n        /* \"#utility.yul\":5666:5697   */\n      tag_332\n        /* \"#utility.yul\":5625:5657   */\n      dup2\n        /* \"#utility.yul\":5666:5697   */\n      tag_284\n      jump\t// in\n    tag_332:\n        /* \"#utility.yul\":5716:5723   */\n      swap5\n      pop\n        /* \"#utility.yul\":5770:5773   */\n      0x80\n        /* \"#utility.yul\":5755:5774   */\n      dup10\n      add\n        /* \"#utility.yul\":5742:5775   */\n      calldataload\n      swap4\n      pop\n        /* \"#utility.yul\":5822:5825   */\n      0xa0\n        /* \"#utility.yul\":5807:5826   */\n      dup10\n      add\n        /* \"#utility.yul\":5794:5827   */\n      calldataload\n      swap3\n      pop\n        /* \"#utility.yul\":5874:5877   */\n      0xc0\n        /* \"#utility.yul\":5859:5878   */\n      dup10\n      add\n        /* \"#utility.yul\":5846:5879   */\n      calldataload\n      swap2\n      pop\n        /* \"#utility.yul\":5931:5934   */\n      0xe0\n        /* \"#utility.yul\":5916:5935   */\n      dup10\n      add\n        /* \"#utility.yul\":5903:5936   */\n      calldataload\n        /* \"#utility.yul\":5945:5978   */\n      tag_333\n        /* \"#utility.yul\":5903:5936   */\n      dup2\n        /* \"#utility.yul\":5945:5978   */\n      tag_281\n      jump\t// in\n    tag_333:\n        /* \"#utility.yul\":5997:6004   */\n      dup1\n        /* \"#utility.yul\":5987:6004   */\n      swap2\n      pop\n      pop\n        /* \"#utility.yul\":4983:6010   */\n      swap3\n      swap6\n      swap9\n      pop\n      swap3\n      swap6\n      swap9\n      swap1\n      swap4\n      swap7\n      pop\n      jump\t// out\n        /* \"#utility.yul\":7383:7521   */\n    tag_285:\n        /* \"#utility.yul\":7462:7475   */\n      dup1\n      mload\n        /* \"#utility.yul\":7484:7515   */\n      tag_338\n        /* \"#utility.yul\":7462:7475   */\n      dup2\n        /* \"#utility.yul\":7484:7515   */\n      tag_283\n      jump\t// in\n    tag_338:\n        /* \"#utility.yul\":7383:7521   */\n      swap2\n      swap1\n      pop\n      jump\t// out\n        /* \"#utility.yul\":7526:7899   */\n    tag_104:\n        /* \"#utility.yul\":7614:7620   */\n      0x00\n        /* \"#utility.yul\":7622:7628   */\n      dup1\n        /* \"#utility.yul\":7630:7636   */\n      0x00\n        /* \"#utility.yul\":7683:7685   */\n      0x60\n        /* \"#utility.yul\":7671:7680   */\n      dup5\n        /* \"#utility.yul\":7662:7669   */\n      dup7\n        /* \"#utility.yul\":7658:7681   */\n      sub\n        /* \"#utility.yul\":7654:7686   */\n      slt\n        /* \"#utility.yul\":7651:7703   */\n      iszero\n      tag_340\n      jumpi\n        /* \"#utility.yul\":7699:7700   */\n      0x00\n        /* \"#utility.yul\":7696:7697   */\n      dup1\n        /* \"#utility.yul\":7689:7701   */\n      revert\n        /* \"#utility.yul\":7651:7703   */\n    tag_340:\n        /* \"#utility.yul\":7731:7740   */\n      dup4\n        /* \"#utility.yul\":7725:7741   */\n      mload\n        /* \"#utility.yul\":7750:7781   */\n      tag_341\n        /* \"#utility.yul\":7775:7780   */\n      dup2\n        /* \"#utility.yul\":7750:7781   */\n      tag_283\n      jump\t// in\n    tag_341:\n        /* \"#utility.yul\":7845:7847   */\n      0x20\n        /* \"#utility.yul\":7830:7848   */\n      dup6\n      add\n        /* \"#utility.yul\":7824:7849   */\n      mload\n        /* \"#utility.yul\":7889:7891   */\n      0x40\n        /* \"#utility.yul\":7874:7892   */\n      swap1\n      swap6\n      add\n        /* \"#utility.yul\":7868:7893   */\n      mload\n        /* \"#utility.yul\":7800:7805   */\n      swap1\n      swap7\n        /* \"#utility.yul\":7824:7849   */\n      swap5\n      swap6\n      pop\n        /* \"#utility.yul\":7868:7893   */\n      swap4\n        /* \"#utility.yul\":7526:7899   */\n      swap3\n      pop\n      pop\n      pop\n      jump\t// out\n        /* \"#utility.yul\":7904:8031   */\n    tag_286:\n        /* \"#utility.yul\":7965:7975   */\n      0x4e487b71\n        /* \"#utility.yul\":7960:7963   */\n      0xe0\n        /* \"#utility.yul\":7956:7976   */\n      shl\n        /* \"#utility.yul\":7953:7954   */\n      0x00\n        /* \"#utility.yul\":7946:7977   */\n      mstore\n        /* \"#utility.yul\":7996:8000   */\n      0x11\n        /* \"#utility.yul\":7993:7994   */\n      0x04\n        /* \"#utility.yul\":7986:8001   */\n      mstore\n        /* \"#utility.yul\":8020:8024   */\n      0x24\n        /* \"#utility.yul\":8017:8018   */\n      0x00\n        /* \"#utility.yul\":8010:8025   */\n      revert\n        /* \"#utility.yul\":8036:8161   */\n    tag_108:\n        /* \"#utility.yul\":8076:8080   */\n      0x00\n        /* \"#utility.yul\":8104:8105   */\n      dup3\n        /* \"#utility.yul\":8101:8102   */\n      dup3\n        /* \"#utility.yul\":8098:8106   */\n      lt\n        /* \"#utility.yul\":8095:8129   */\n      iszero\n      tag_345\n      jumpi\n        /* \"#utility.yul\":8109:8127   */\n      tag_345\n      tag_286\n      jump\t// in\n    tag_345:\n      pop\n        /* \"#utility.yul\":8146:8155   */\n      sub\n      swap1\n        /* \"#utility.yul\":8036:8161   */\n      jump\t// out\n        /* \"#utility.yul\":8166:8481   */\n    tag_116:\n      sub(shl(0xa0, 0x01), 0x01)\n        /* \"#utility.yul\":8358:8390   */\n      swap3\n      swap1\n      swap3\n      and\n        /* \"#utility.yul\":8340:8391   */\n      dup3\n      mstore\n      sub(shl(0x80, 0x01), 0x01)\n        /* \"#utility.yul\":8427:8474   */\n      and\n        /* \"#utility.yul\":8422:8424   */\n      0x20\n        /* \"#utility.yul\":8407:8425   */\n      dup3\n      add\n        /* \"#utility.yul\":8400:8475   */\n      mstore\n        /* \"#utility.yul\":8328:8330   */\n      0x40\n        /* \"#utility.yul\":8313:8331   */\n      add\n      swap1\n        /* \"#utility.yul\":8166:8481   */\n      jump\t// out\n        /* \"#utility.yul\":8486:8670   */\n    tag_132:\n        /* \"#utility.yul\":8556:8562   */\n      0x00\n        /* \"#utility.yul\":8609:8611   */\n      0x20\n        /* \"#utility.yul\":8597:8606   */\n      dup3\n        /* \"#utility.yul\":8588:8595   */\n      dup5\n        /* \"#utility.yul\":8584:8607   */\n      sub\n        /* \"#utility.yul\":8580:8612   */\n      slt\n        /* \"#utility.yul\":8577:8629   */\n      iszero\n      tag_348\n      jumpi\n        /* \"#utility.yul\":8625:8626   */\n      0x00\n        /* \"#utility.yul\":8622:8623   */\n      dup1\n        /* \"#utility.yul\":8615:8627   */\n      revert\n        /* \"#utility.yul\":8577:8629   */\n    tag_348:\n      pop\n        /* \"#utility.yul\":8648:8664   */\n      mload\n      swap2\n        /* \"#utility.yul\":8486:8670   */\n      swap1\n      pop\n      jump\t// out\n        /* \"#utility.yul\":9019:9306   */\n    tag_138:\n        /* \"#utility.yul\":9059:9066   */\n      0x00\n      sub(shl(0x80, 0x01), 0x01)\n        /* \"#utility.yul\":9152:9154   */\n      dup1\n        /* \"#utility.yul\":9149:9150   */\n      dup4\n        /* \"#utility.yul\":9145:9155   */\n      and\n        /* \"#utility.yul\":9182:9184   */\n      dup2\n        /* \"#utility.yul\":9179:9180   */\n      dup6\n        /* \"#utility.yul\":9175:9185   */\n      and\n        /* \"#utility.yul\":9238:9241   */\n      dup2\n        /* \"#utility.yul\":9234:9236   */\n      dup4\n        /* \"#utility.yul\":9230:9242   */\n      div\n        /* \"#utility.yul\":9225:9228   */\n      dup2\n        /* \"#utility.yul\":9222:9243   */\n      gt\n        /* \"#utility.yul\":9215:9218   */\n      dup3\n        /* \"#utility.yul\":9208:9219   */\n      iszero\n        /* \"#utility.yul\":9201:9220   */\n      iszero\n        /* \"#utility.yul\":9197:9244   */\n      and\n        /* \"#utility.yul\":9194:9267   */\n      iszero\n      tag_352\n      jumpi\n        /* \"#utility.yul\":9247:9265   */\n      tag_352\n      tag_286\n      jump\t// in\n    tag_352:\n        /* \"#utility.yul\":9287:9300   */\n      mul\n      swap5\n        /* \"#utility.yul\":9019:9306   */\n      swap4\n      pop\n      pop\n      pop\n      pop\n      jump\t// out\n        /* \"#utility.yul\":9311:9438   */\n    tag_287:\n        /* \"#utility.yul\":9372:9382   */\n      0x4e487b71\n        /* \"#utility.yul\":9367:9370   */\n      0xe0\n        /* \"#utility.yul\":9363:9383   */\n      shl\n        /* \"#utility.yul\":9360:9361   */\n      0x00\n        /* \"#utility.yul\":9353:9384   */\n      mstore\n        /* \"#utility.yul\":9403:9407   */\n      0x12\n        /* \"#utility.yul\":9400:9401   */\n      0x04\n        /* \"#utility.yul\":9393:9408   */\n      mstore\n        /* \"#utility.yul\":9427:9431   */\n      0x24\n        /* \"#utility.yul\":9424:9425   */\n      0x00\n        /* \"#utility.yul\":9417:9432   */\n      revert\n        /* \"#utility.yul\":9443:9659   */\n    tag_140:\n        /* \"#utility.yul\":9483:9484   */\n      0x00\n      sub(shl(0x80, 0x01), 0x01)\n        /* \"#utility.yul\":9570:9572   */\n      dup1\n        /* \"#utility.yul\":9567:9568   */\n      dup5\n        /* \"#utility.yul\":9563:9573   */\n      and\n        /* \"#utility.yul\":9592:9595   */\n      dup1\n        /* \"#utility.yul\":9582:9619   */\n      tag_356\n      jumpi\n        /* \"#utility.yul\":9599:9617   */\n      tag_356\n      tag_287\n      jump\t// in\n    tag_356:\n        /* \"#utility.yul\":9637:9647   */\n      swap3\n      and\n        /* \"#utility.yul\":9633:9653   */\n      swap2\n      swap1\n      swap2\n      div\n      swap3\n        /* \"#utility.yul\":9443:9659   */\n      swap2\n      pop\n      pop\n      jump\t// out\n        /* \"#utility.yul\":10229:10474   */\n    tag_149:\n        /* \"#utility.yul\":10308:10314   */\n      0x00\n        /* \"#utility.yul\":10316:10322   */\n      dup1\n        /* \"#utility.yul\":10369:10371   */\n      0x40\n        /* \"#utility.yul\":10357:10366   */\n      dup4\n        /* \"#utility.yul\":10348:10355   */\n      dup6\n        /* \"#utility.yul\":10344:10367   */\n      sub\n        /* \"#utility.yul\":10340:10372   */\n      slt\n        /* \"#utility.yul\":10337:10389   */\n      iszero\n      tag_359\n      jumpi\n        /* \"#utility.yul\":10385:10386   */\n      0x00\n        /* \"#utility.yul\":10382:10383   */\n      dup1\n        /* \"#utility.yul\":10375:10387   */\n      revert\n        /* \"#utility.yul\":10337:10389   */\n    tag_359:\n      pop\n      pop\n        /* \"#utility.yul\":10408:10424   */\n      dup1\n      mload\n        /* \"#utility.yul\":10464:10466   */\n      0x20\n        /* \"#utility.yul\":10449:10467   */\n      swap1\n      swap2\n      add\n        /* \"#utility.yul\":10443:10468   */\n      mload\n        /* \"#utility.yul\":10408:10424   */\n      swap1\n      swap3\n        /* \"#utility.yul\":10443:10468   */\n      swap1\n      swap2\n      pop\n        /* \"#utility.yul\":10229:10474   */\n      jump\t// out\n        /* \"#utility.yul\":10479:11053   */\n    tag_151:\n        /* \"#utility.yul\":10706:10719   */\n      dup2\n      mload\n        /* \"#utility.yul\":10688:10720   */\n      dup2\n      mstore\n        /* \"#utility.yul\":10780:10784   */\n      0x20\n        /* \"#utility.yul\":10768:10785   */\n      dup1\n      dup4\n      add\n        /* \"#utility.yul\":10762:10786   */\n      mload\n      sub(shl(0xa0, 0x01), 0x01)\n        /* \"#utility.yul\":10758:10808   */\n      and\n        /* \"#utility.yul\":10736:10756   */\n      swap1\n      dup3\n      add\n        /* \"#utility.yul\":10729:10809   */\n      mstore\n        /* \"#utility.yul\":10856:10860   */\n      0x40\n        /* \"#utility.yul\":10844:10861   */\n      dup1\n      dup4\n      add\n        /* \"#utility.yul\":10838:10862   */\n      mload\n      sub(shl(0x80, 0x01), 0x01)\n        /* \"#utility.yul\":10953:10974   */\n      swap1\n      dup2\n      and\n        /* \"#utility.yul\":10931:10951   */\n      swap2\n      dup4\n      add\n        /* \"#utility.yul\":10924:10975   */\n      swap2\n      swap1\n      swap2\n      mstore\n        /* \"#utility.yul\":11035:11039   */\n      0x60\n        /* \"#utility.yul\":11023:11040   */\n      swap3\n      dup4\n      add\n        /* \"#utility.yul\":11017:11041   */\n      mload\n        /* \"#utility.yul\":11013:11046   */\n      and\n        /* \"#utility.yul\":10991:11011   */\n      swap2\n      dup2\n      add\n        /* \"#utility.yul\":10984:11047   */\n      swap2\n      swap1\n      swap2\n      mstore\n        /* \"#utility.yul\":10675:10678   */\n      0x80\n        /* \"#utility.yul\":10660:10679   */\n      add\n      swap1\n        /* \"#utility.yul\":10479:11053   */\n      jump\t// out\n        /* \"#utility.yul\":11561:12783   */\n    tag_193:\n        /* \"#utility.yul\":11783:11796   */\n      dup2\n      mload\n      sub(shl(0xa0, 0x01), 0x01)\n        /* \"#utility.yul\":2411:2442   */\n      and\n        /* \"#utility.yul\":2399:2443   */\n      dup2\n      mstore\n        /* \"#utility.yul\":11751:11754   */\n      0x0160\n        /* \"#utility.yul\":11736:11755   */\n      dup2\n      add\n        /* \"#utility.yul\":11855:11859   */\n      0x20\n        /* \"#utility.yul\":11847:11853   */\n      dup4\n        /* \"#utility.yul\":11843:11860   */\n      add\n        /* \"#utility.yul\":11837:11861   */\n      mload\n        /* \"#utility.yul\":11870:11924   */\n      tag_365\n        /* \"#utility.yul\":11918:11922   */\n      0x20\n        /* \"#utility.yul\":11907:11916   */\n      dup5\n        /* \"#utility.yul\":11903:11923   */\n      add\n        /* \"#utility.yul\":11889:11901   */\n      dup3\n      sub(shl(0xa0, 0x01), 0x01)\n        /* \"#utility.yul\":2411:2442   */\n      and\n        /* \"#utility.yul\":2399:2443   */\n      swap1\n      mstore\n        /* \"#utility.yul\":2345:2449   */\n      jump\n        /* \"#utility.yul\":11870:11924   */\n    tag_365:\n      pop\n        /* \"#utility.yul\":11973:11977   */\n      0x40\n        /* \"#utility.yul\":11965:11971   */\n      dup4\n        /* \"#utility.yul\":11961:11978   */\n      add\n        /* \"#utility.yul\":11955:11979   */\n      mload\n        /* \"#utility.yul\":11988:12043   */\n      tag_366\n        /* \"#utility.yul\":12037:12041   */\n      0x40\n        /* \"#utility.yul\":12026:12035   */\n      dup5\n        /* \"#utility.yul\":12022:12042   */\n      add\n        /* \"#utility.yul\":12006:12020   */\n      dup3\n        /* \"#utility.yul\":90:98   */\n      0xffffff\n        /* \"#utility.yul\":79:99   */\n      and\n        /* \"#utility.yul\":67:100   */\n      swap1\n      mstore\n        /* \"#utility.yul\":14:106   */\n      jump\n        /* \"#utility.yul\":11988:12043   */\n    tag_366:\n      pop\n        /* \"#utility.yul\":12092:12096   */\n      0x60\n        /* \"#utility.yul\":12084:12090   */\n      dup4\n        /* \"#utility.yul\":12080:12097   */\n      add\n        /* \"#utility.yul\":12074:12098   */\n      mload\n        /* \"#utility.yul\":12107:12161   */\n      tag_367\n        /* \"#utility.yul\":12155:12159   */\n      0x60\n        /* \"#utility.yul\":12144:12153   */\n      dup5\n        /* \"#utility.yul\":12140:12160   */\n      add\n        /* \"#utility.yul\":12124:12138   */\n      dup3\n        /* \"#utility.yul\":11540:11541   */\n      0x02\n        /* \"#utility.yul\":11529:11549   */\n      signextend\n        /* \"#utility.yul\":11517:11550   */\n      swap1\n      mstore\n        /* \"#utility.yul\":11465:11556   */\n      jump\n        /* \"#utility.yul\":12107:12161   */\n    tag_367:\n      pop\n        /* \"#utility.yul\":12210:12214   */\n      0x80\n        /* \"#utility.yul\":12202:12208   */\n      dup4\n        /* \"#utility.yul\":12198:12215   */\n      add\n        /* \"#utility.yul\":12192:12216   */\n      mload\n        /* \"#utility.yul\":12225:12279   */\n      tag_368\n        /* \"#utility.yul\":12273:12277   */\n      0x80\n        /* \"#utility.yul\":12262:12271   */\n      dup5\n        /* \"#utility.yul\":12258:12278   */\n      add\n        /* \"#utility.yul\":12242:12256   */\n      dup3\n        /* \"#utility.yul\":11540:11541   */\n      0x02\n        /* \"#utility.yul\":11529:11549   */\n      signextend\n        /* \"#utility.yul\":11517:11550   */\n      swap1\n      mstore\n        /* \"#utility.yul\":11465:11556   */\n      jump\n        /* \"#utility.yul\":12225:12279   */\n    tag_368:\n      pop\n        /* \"#utility.yul\":12335:12339   */\n      0xa0\n        /* \"#utility.yul\":12327:12333   */\n      dup4\n        /* \"#utility.yul\":12323:12340   */\n      add\n        /* \"#utility.yul\":12317:12341   */\n      mload\n        /* \"#utility.yul\":12310:12314   */\n      0xa0\n        /* \"#utility.yul\":12299:12308   */\n      dup4\n        /* \"#utility.yul\":12295:12315   */\n      add\n        /* \"#utility.yul\":12288:12342   */\n      mstore\n        /* \"#utility.yul\":12398:12402   */\n      0xc0\n        /* \"#utility.yul\":12390:12396   */\n      dup4\n        /* \"#utility.yul\":12386:12403   */\n      add\n        /* \"#utility.yul\":12380:12404   */\n      mload\n        /* \"#utility.yul\":12373:12377   */\n      0xc0\n        /* \"#utility.yul\":12362:12371   */\n      dup4\n        /* \"#utility.yul\":12358:12378   */\n      add\n        /* \"#utility.yul\":12351:12405   */\n      mstore\n        /* \"#utility.yul\":12461:12465   */\n      0xe0\n        /* \"#utility.yul\":12453:12459   */\n      dup4\n        /* \"#utility.yul\":12449:12466   */\n      add\n        /* \"#utility.yul\":12443:12467   */\n      mload\n        /* \"#utility.yul\":12436:12440   */\n      0xe0\n        /* \"#utility.yul\":12425:12434   */\n      dup4\n        /* \"#utility.yul\":12421:12441   */\n      add\n        /* \"#utility.yul\":12414:12468   */\n      mstore\n        /* \"#utility.yul\":12487:12493   */\n      0x0100\n        /* \"#utility.yul\":12547:12549   */\n      dup1\n        /* \"#utility.yul\":12539:12545   */\n      dup5\n        /* \"#utility.yul\":12535:12550   */\n      add\n        /* \"#utility.yul\":12529:12551   */\n      mload\n        /* \"#utility.yul\":12524:12526   */\n      dup2\n        /* \"#utility.yul\":12513:12522   */\n      dup5\n        /* \"#utility.yul\":12509:12527   */\n      add\n        /* \"#utility.yul\":12502:12552   */\n      mstore\n      pop\n        /* \"#utility.yul\":12571:12577   */\n      0x0120\n        /* \"#utility.yul\":12626:12628   */\n      dup1\n        /* \"#utility.yul\":12618:12624   */\n      dup5\n        /* \"#utility.yul\":12614:12629   */\n      add\n        /* \"#utility.yul\":12608:12630   */\n      mload\n        /* \"#utility.yul\":12639:12693   */\n      tag_369\n        /* \"#utility.yul\":12689:12691   */\n      dup3\n        /* \"#utility.yul\":12678:12687   */\n      dup6\n        /* \"#utility.yul\":12674:12692   */\n      add\n        /* \"#utility.yul\":12658:12672   */\n      dup3\n      sub(shl(0xa0, 0x01), 0x01)\n        /* \"#utility.yul\":2411:2442   */\n      and\n        /* \"#utility.yul\":2399:2443   */\n      swap1\n      mstore\n        /* \"#utility.yul\":2345:2449   */\n      jump\n        /* \"#utility.yul\":12639:12693   */\n    tag_369:\n      pop\n      pop\n        /* \"#utility.yul\":12712:12718   */\n      0x0140\n        /* \"#utility.yul\":12760:12775   */\n      swap3\n      dup4\n      add\n        /* \"#utility.yul\":12754:12776   */\n      mload\n        /* \"#utility.yul\":12734:12752   */\n      swap2\n      swap1\n      swap3\n      add\n        /* \"#utility.yul\":12727:12777   */\n      mstore\n        /* \"#utility.yul\":11561:12783   */\n      swap1\n      jump\t// out\n        /* \"#utility.yul\":12788:13223   */\n    tag_197:\n        /* \"#utility.yul\":12885:12891   */\n      0x00\n        /* \"#utility.yul\":12893:12899   */\n      dup1\n        /* \"#utility.yul\":12901:12907   */\n      0x00\n        /* \"#utility.yul\":12909:12915   */\n      dup1\n        /* \"#utility.yul\":12962:12965   */\n      0x80\n        /* \"#utility.yul\":12950:12959   */\n      dup6\n        /* \"#utility.yul\":12941:12948   */\n      dup8\n        /* \"#utility.yul\":12937:12960   */\n      sub\n        /* \"#utility.yul\":12933:12966   */\n      slt\n        /* \"#utility.yul\":12930:12983   */\n      iszero\n      tag_371\n      jumpi\n        /* \"#utility.yul\":12979:12980   */\n      0x00\n        /* \"#utility.yul\":12976:12977   */\n      dup1\n        /* \"#utility.yul\":12969:12981   */\n      revert\n        /* \"#utility.yul\":12930:12983   */\n    tag_371:\n        /* \"#utility.yul\":13008:13017   */\n      dup5\n        /* \"#utility.yul\":13002:13018   */\n      mload\n        /* \"#utility.yul\":12992:13018   */\n      swap4\n      pop\n        /* \"#utility.yul\":13061:13063   */\n      0x20\n        /* \"#utility.yul\":13050:13059   */\n      dup6\n        /* \"#utility.yul\":13046:13064   */\n      add\n        /* \"#utility.yul\":13040:13065   */\n      mload\n        /* \"#utility.yul\":13074:13105   */\n      tag_372\n        /* \"#utility.yul\":13099:13104   */\n      dup2\n        /* \"#utility.yul\":13074:13105   */\n      tag_283\n      jump\t// in\n    tag_372:\n        /* \"#utility.yul\":13169:13171   */\n      0x40\n        /* \"#utility.yul\":13154:13172   */\n      dup7\n      add\n        /* \"#utility.yul\":13148:13173   */\n      mload\n        /* \"#utility.yul\":13213:13215   */\n      0x60\n        /* \"#utility.yul\":13198:13216   */\n      swap1\n      swap7\n      add\n        /* \"#utility.yul\":13192:13217   */\n      mload\n        /* \"#utility.yul\":12788:13223   */\n      swap5\n      swap8\n        /* \"#utility.yul\":13124:13129   */\n      swap1\n      swap7\n      pop\n        /* \"#utility.yul\":12788:13223   */\n      swap3\n      pop\n      pop\n      pop\n      jump\t// out\n        /* \"#utility.yul\":13410:13548   */\n    tag_289:\n        /* \"#utility.yul\":13489:13502   */\n      dup1\n      mload\n        /* \"#utility.yul\":13511:13542   */\n      tag_338\n        /* \"#utility.yul\":13489:13502   */\n      dup2\n        /* \"#utility.yul\":13511:13542   */\n      tag_281\n      jump\t// in\n        /* \"#utility.yul\":13553:13718   */\n    tag_290:\n        /* \"#utility.yul\":13631:13644   */\n      dup1\n      mload\n        /* \"#utility.yul\":13684:13692   */\n      0xffffff\n        /* \"#utility.yul\":13673:13693   */\n      dup2\n      and\n        /* \"#utility.yul\":13663:13694   */\n      dup2\n      eq\n        /* \"#utility.yul\":13653:13712   */\n      tag_338\n      jumpi\n        /* \"#utility.yul\":13708:13709   */\n      0x00\n        /* \"#utility.yul\":13705:13706   */\n      dup1\n        /* \"#utility.yul\":13698:13710   */\n      revert\n        /* \"#utility.yul\":13723:13857   */\n    tag_291:\n        /* \"#utility.yul\":13800:13813   */\n      dup1\n      mload\n        /* \"#utility.yul\":13822:13851   */\n      tag_338\n        /* \"#utility.yul\":13800:13813   */\n      dup2\n        /* \"#utility.yul\":13822:13851   */\n      tag_284\n      jump\t// in\n        /* \"#utility.yul\":13862:15048   */\n    tag_217:\n        /* \"#utility.yul\":14025:14031   */\n      0x00\n        /* \"#utility.yul\":14033:14039   */\n      dup1\n        /* \"#utility.yul\":14041:14047   */\n      0x00\n        /* \"#utility.yul\":14049:14055   */\n      dup1\n        /* \"#utility.yul\":14057:14063   */\n      0x00\n        /* \"#utility.yul\":14065:14071   */\n      dup1\n        /* \"#utility.yul\":14073:14079   */\n      0x00\n        /* \"#utility.yul\":14081:14087   */\n      dup1\n        /* \"#utility.yul\":14089:14095   */\n      0x00\n        /* \"#utility.yul\":14097:14103   */\n      dup1\n        /* \"#utility.yul\":14105:14112   */\n      0x00\n        /* \"#utility.yul\":14114:14121   */\n      dup1\n        /* \"#utility.yul\":14168:14171   */\n      0x0180\n        /* \"#utility.yul\":14156:14165   */\n      dup14\n        /* \"#utility.yul\":14147:14154   */\n      dup16\n        /* \"#utility.yul\":14143:14166   */\n      sub\n        /* \"#utility.yul\":14139:14172   */\n      slt\n        /* \"#utility.yul\":14136:14189   */\n      iszero\n      tag_381\n      jumpi\n        /* \"#utility.yul\":14185:14186   */\n      0x00\n        /* \"#utility.yul\":14182:14183   */\n      dup1\n        /* \"#utility.yul\":14175:14187   */\n      revert\n        /* \"#utility.yul\":14136:14189   */\n    tag_381:\n        /* \"#utility.yul\":14217:14226   */\n      dup13\n        /* \"#utility.yul\":14211:14227   */\n      mload\n        /* \"#utility.yul\":14267:14293   */\n      0xffffffffffffffffffffffff\n        /* \"#utility.yul\":14260:14265   */\n      dup2\n        /* \"#utility.yul\":14256:14294   */\n      and\n        /* \"#utility.yul\":14249:14254   */\n      dup2\n        /* \"#utility.yul\":14246:14295   */\n      eq\n        /* \"#utility.yul\":14236:14313   */\n      tag_382\n      jumpi\n        /* \"#utility.yul\":14309:14310   */\n      0x00\n        /* \"#utility.yul\":14306:14307   */\n      dup1\n        /* \"#utility.yul\":14299:14311   */\n      revert\n        /* \"#utility.yul\":14236:14313   */\n    tag_382:\n        /* \"#utility.yul\":14332:14337   */\n      swap12\n      pop\n        /* \"#utility.yul\":14356:14405   */\n      tag_383\n        /* \"#utility.yul\":14401:14403   */\n      0x20\n        /* \"#utility.yul\":14386:14404   */\n      dup15\n      add\n        /* \"#utility.yul\":14356:14405   */\n      tag_289\n      jump\t// in\n    tag_383:\n        /* \"#utility.yul\":14346:14405   */\n      swap11\n      pop\n        /* \"#utility.yul\":14424:14473   */\n      tag_384\n        /* \"#utility.yul\":14469:14471   */\n      0x40\n        /* \"#utility.yul\":14458:14467   */\n      dup15\n        /* \"#utility.yul\":14454:14472   */\n      add\n        /* \"#utility.yul\":14424:14473   */\n      tag_289\n      jump\t// in\n    tag_384:\n        /* \"#utility.yul\":14414:14473   */\n      swap10\n      pop\n        /* \"#utility.yul\":14492:14541   */\n      tag_385\n        /* \"#utility.yul\":14537:14539   */\n      0x60\n        /* \"#utility.yul\":14526:14535   */\n      dup15\n        /* \"#utility.yul\":14522:14540   */\n      add\n        /* \"#utility.yul\":14492:14541   */\n      tag_289\n      jump\t// in\n    tag_385:\n        /* \"#utility.yul\":14482:14541   */\n      swap9\n      pop\n        /* \"#utility.yul\":14560:14609   */\n      tag_386\n        /* \"#utility.yul\":14604:14607   */\n      0x80\n        /* \"#utility.yul\":14593:14602   */\n      dup15\n        /* \"#utility.yul\":14589:14608   */\n      add\n        /* \"#utility.yul\":14560:14609   */\n      tag_290\n      jump\t// in\n    tag_386:\n        /* \"#utility.yul\":14550:14609   */\n      swap8\n      pop\n        /* \"#utility.yul\":14628:14676   */\n      tag_387\n        /* \"#utility.yul\":14671:14674   */\n      0xa0\n        /* \"#utility.yul\":14660:14669   */\n      dup15\n        /* \"#utility.yul\":14656:14675   */\n      add\n        /* \"#utility.yul\":14628:14676   */\n      tag_291\n      jump\t// in\n    tag_387:\n        /* \"#utility.yul\":14618:14676   */\n      swap7\n      pop\n        /* \"#utility.yul\":14695:14743   */\n      tag_388\n        /* \"#utility.yul\":14738:14741   */\n      0xc0\n        /* \"#utility.yul\":14727:14736   */\n      dup15\n        /* \"#utility.yul\":14723:14742   */\n      add\n        /* \"#utility.yul\":14695:14743   */\n      tag_291\n      jump\t// in\n    tag_388:\n        /* \"#utility.yul\":14685:14743   */\n      swap6\n      pop\n        /* \"#utility.yul\":14762:14812   */\n      tag_389\n        /* \"#utility.yul\":14807:14810   */\n      0xe0\n        /* \"#utility.yul\":14796:14805   */\n      dup15\n        /* \"#utility.yul\":14792:14811   */\n      add\n        /* \"#utility.yul\":14762:14812   */\n      tag_285\n      jump\t// in\n    tag_389:\n        /* \"#utility.yul\":14752:14812   */\n      swap5\n      pop\n        /* \"#utility.yul\":14852:14855   */\n      0x0100\n        /* \"#utility.yul\":14841:14850   */\n      dup14\n        /* \"#utility.yul\":14837:14856   */\n      add\n        /* \"#utility.yul\":14831:14857   */\n      mload\n        /* \"#utility.yul\":14821:14857   */\n      swap4\n      pop\n        /* \"#utility.yul\":14897:14900   */\n      0x0120\n        /* \"#utility.yul\":14886:14895   */\n      dup14\n        /* \"#utility.yul\":14882:14901   */\n      add\n        /* \"#utility.yul\":14876:14902   */\n      mload\n        /* \"#utility.yul\":14866:14902   */\n      swap3\n      pop\n        /* \"#utility.yul\":14922:14972   */\n      tag_390\n        /* \"#utility.yul\":14967:14970   */\n      0x0140\n        /* \"#utility.yul\":14956:14965   */\n      dup15\n        /* \"#utility.yul\":14952:14971   */\n      add\n        /* \"#utility.yul\":14922:14972   */\n      tag_285\n      jump\t// in\n    tag_390:\n        /* \"#utility.yul\":14911:14972   */\n      swap2\n      pop\n        /* \"#utility.yul\":14992:15042   */\n      tag_391\n        /* \"#utility.yul\":15037:15040   */\n      0x0160\n        /* \"#utility.yul\":15026:15035   */\n      dup15\n        /* \"#utility.yul\":15022:15041   */\n      add\n        /* \"#utility.yul\":14992:15042   */\n      tag_285\n      jump\t// in\n    tag_391:\n        /* \"#utility.yul\":14981:15042   */\n      swap1\n      pop\n        /* \"#utility.yul\":13862:15048   */\n      swap3\n      swap6\n      swap9\n      swap12\n      pop\n      swap3\n      swap6\n      swap9\n      swap12\n      pop\n      swap3\n      swap6\n      swap9\n      swap12\n      jump\t// out\n        /* \"#utility.yul\":15433:15859   */\n    tag_222:\n        /* \"#utility.yul\":15562:15565   */\n      0x00\n        /* \"#utility.yul\":15600:15606   */\n      dup3\n        /* \"#utility.yul\":15594:15607   */\n      mload\n        /* \"#utility.yul\":15625:15626   */\n      0x00\n        /* \"#utility.yul\":15635:15764   */\n    tag_394:\n        /* \"#utility.yul\":15649:15655   */\n      dup2\n        /* \"#utility.yul\":15646:15647   */\n      dup2\n        /* \"#utility.yul\":15643:15656   */\n      lt\n        /* \"#utility.yul\":15635:15764   */\n      iszero\n      tag_396\n      jumpi\n        /* \"#utility.yul\":15747:15751   */\n      0x20\n        /* \"#utility.yul\":15731:15745   */\n      dup2\n      dup7\n      add\n        /* \"#utility.yul\":15727:15752   */\n      dup2\n      add\n        /* \"#utility.yul\":15721:15753   */\n      mload\n        /* \"#utility.yul\":15708:15719   */\n      dup6\n      dup4\n      add\n        /* \"#utility.yul\":15701:15754   */\n      mstore\n        /* \"#utility.yul\":15664:15676   */\n      add\n        /* \"#utility.yul\":15635:15764   */\n      jump(tag_394)\n    tag_396:\n        /* \"#utility.yul\":15782:15788   */\n      dup2\n        /* \"#utility.yul\":15779:15780   */\n      dup2\n        /* \"#utility.yul\":15776:15789   */\n      gt\n        /* \"#utility.yul\":15773:15821   */\n      iszero\n      tag_397\n      jumpi\n        /* \"#utility.yul\":15817:15818   */\n      0x00\n        /* \"#utility.yul\":15808:15814   */\n      dup3\n        /* \"#utility.yul\":15803:15806   */\n      dup6\n        /* \"#utility.yul\":15799:15815   */\n      add\n        /* \"#utility.yul\":15792:15819   */\n      mstore\n        /* \"#utility.yul\":15773:15821   */\n    tag_397:\n      pop\n        /* \"#utility.yul\":15837:15853   */\n      swap2\n      swap1\n      swap2\n      add\n      swap3\n        /* \"#utility.yul\":15433:15859   */\n      swap2\n      pop\n      pop\n      jump\t// out\n        /* \"#utility.yul\":15864:16141   */\n    tag_229:\n        /* \"#utility.yul\":15931:15937   */\n      0x00\n        /* \"#utility.yul\":15984:15986   */\n      0x20\n        /* \"#utility.yul\":15972:15981   */\n      dup3\n        /* \"#utility.yul\":15963:15970   */\n      dup5\n        /* \"#utility.yul\":15959:15982   */\n      sub\n        /* \"#utility.yul\":15955:15987   */\n      slt\n        /* \"#utility.yul\":15952:16004   */\n      iszero\n      tag_399\n      jumpi\n        /* \"#utility.yul\":16000:16001   */\n      0x00\n        /* \"#utility.yul\":15997:15998   */\n      dup1\n        /* \"#utility.yul\":15990:16002   */\n      revert\n        /* \"#utility.yul\":15952:16004   */\n    tag_399:\n        /* \"#utility.yul\":16032:16041   */\n      dup2\n        /* \"#utility.yul\":16026:16042   */\n      mload\n        /* \"#utility.yul\":16085:16090   */\n      dup1\n        /* \"#utility.yul\":16078:16091   */\n      iszero\n        /* \"#utility.yul\":16071:16092   */\n      iszero\n        /* \"#utility.yul\":16064:16069   */\n      dup2\n        /* \"#utility.yul\":16061:16093   */\n      eq\n        /* \"#utility.yul\":16051:16111   */\n      tag_254\n      jumpi\n        /* \"#utility.yul\":16107:16108   */\n      0x00\n        /* \"#utility.yul\":16104:16105   */\n      dup1\n        /* \"#utility.yul\":16097:16109   */\n      revert\n        /* \"#utility.yul\":17427:17595   */\n    tag_253:\n        /* \"#utility.yul\":17467:17474   */\n      0x00\n        /* \"#utility.yul\":17533:17534   */\n      dup2\n        /* \"#utility.yul\":17529:17530   */\n      0x00\n        /* \"#utility.yul\":17525:17531   */\n      not\n        /* \"#utility.yul\":17521:17535   */\n      div\n        /* \"#utility.yul\":17518:17519   */\n      dup4\n        /* \"#utility.yul\":17515:17536   */\n      gt\n        /* \"#utility.yul\":17510:17511   */\n      dup3\n        /* \"#utility.yul\":17503:17512   */\n      iszero\n        /* \"#utility.yul\":17496:17513   */\n      iszero\n        /* \"#utility.yul\":17492:17537   */\n      and\n        /* \"#utility.yul\":17489:17560   */\n      iszero\n      tag_407\n      jumpi\n        /* \"#utility.yul\":17540:17558   */\n      tag_407\n      tag_286\n      jump\t// in\n    tag_407:\n      pop\n        /* \"#utility.yul\":17580:17589   */\n      mul\n      swap1\n        /* \"#utility.yul\":17427:17595   */\n      jump\t// out\n        /* \"#utility.yul\":17600:17720   */\n    tag_255:\n        /* \"#utility.yul\":17640:17641   */\n      0x00\n        /* \"#utility.yul\":17666:17667   */\n      dup3\n        /* \"#utility.yul\":17656:17691   */\n      tag_410\n      jumpi\n        /* \"#utility.yul\":17671:17689   */\n      tag_410\n      tag_287\n      jump\t// in\n    tag_410:\n      pop\n        /* \"#utility.yul\":17705:17714   */\n      div\n      swap1\n        /* \"#utility.yul\":17600:17720   */\n      jump\t// out\n    stop\n    data_65cfeff779fe42d2d5b4c2c078348cb18abbc731a2e3837262888dd9b50bb10e 000000000000000000000000c36442b4a4522e871399cd717abdd847ab11fe88\n\n    auxdata: 0xa26469706673582212202dee28de39429147bf728d9a602b729ef6bed3ee577c384d28c530be69efc0e164736f6c634300080c0033\n}\n",
				"bytecode": {
					"linkReferences": {},
					"object": "608060405234801561001057600080fd5b5061001a3361001f565b61006f565b600080546001600160a01b038381166001600160a01b0319831681178455604051919092169283917f8be0079c531659141344cd1fd0a4f28419497f9722a3daafe3b4186f6b6457e09190a35050565b6119f98061007e6000396000f3fe608060405234801561001057600080fd5b50600436106100ea5760003560e01c8063a7459ac81161008c578063b44a272211610066578063b44a2722146102b2578063e0bab4c4146102c7578063f2fde38b146102e2578063ff0388a0146102f557600080fd5b8063a7459ac8146101eb578063b02c43d014610214578063b17acdcd1461029f57600080fd5b8063715018a6116100c8578063715018a61461017557806389a302711461017f5780638da5cb5b146101b2578063957c524f146101c357600080fd5b8063089fe6aa146100ef578063150b7a02146101115780635846ce4e1461013d575b600080fd5b6100f86101f481565b60405162ffffff90911681526020015b60405180910390f35b61012461011f366004611395565b610330565b6040516001600160e01b03199091168152602001610108565b61015061014b366004611434565b6103a2565b604080516001600160801b039094168452602084019290925290820152606001610108565b61017d6105f7565b005b61019a733db4b7da67dd5af61cb9b3c70501b1bdb24b2c2281565b6040516001600160a01b039091168152602001610108565b6000546001600160a01b031661019a565b6101d66101d136600461147b565b61060b565b60408051928352602083019190915201610108565b61019a6101f93660046114b3565b6002602052600090815260409020546001600160a01b031681565b6102636102223660046114b3565b600160208190526000918252604090912080549181015460028201546003909201546001600160a01b03938416936001600160801b03909216928216911684565b604080516001600160a01b0395861681526001600160801b03909416602085015291841691830191909152919091166060820152608001610108565b6101d66102ad3660046114b3565b6108e9565b61019a6000805160206119a483398151915281565b61019a73da10009cbd5d07dd0cecc66161fc93d7c9000da181565b61017d6102f03660046114cc565b610a95565b6103086103033660046114f8565b610b0e565b604080519485526001600160801b039093166020850152918301526060820152608001610108565b6000336000805160206119a4833981519152146103865760405162461bcd60e51b815260206004820152600f60248201526e1b9bdd0818481d5b9a5d8cc81b999d608a1b60448201526064015b60405180910390fd5b6103908685610d8a565b50630a85bd0160e11b95945050505050565b6000848152600260208181526040808420546001909252832091820154600390920154839283926001600160a01b039081169291811691166103e68233308c610f25565b6103f28133308b610f25565b61040b826000805160206119a48339815191528b61102f565b610424816000805160206119a48339815191528a61102f565b60006040518060c001604052808c81526020018b81526020018a815260200161044d8c8b61112f565b815260200161045c8b8b61112f565b8152426020918201526040805163219f5d1760e01b8152835160048201529183015160248301528201516044820152606082015160648201526080820151608482015260a082015160a48201529091506000805160206119a48339815191529063219f5d179060c4016060604051808303816000875af11580156104e4573d6000803e3d6000fd5b505050506040513d601f19601f820116820180604052508101906105089190611596565b919850965094508986101561054c57610531836000805160206119a4833981519152600061102f565b600061053d878c6115e3565b905061054a84338361119c565b505b888510156105895761056e826000805160206119a4833981519152600061102f565b600061057a868b6115e3565b905061058783338361119c565b505b6040516340c10f1960e01b81526001600160a01b038516906340c10f19906105b79033908b906004016115fa565b600060405180830381600087803b1580156105d157600080fd5b505af11580156105e5573d6000803e3d6000fd5b50505050505050509450945094915050565b6105ff611295565b61060960006112ef565b565b6000838152600260205260408082205490516370a0823160e01b815233600482015282916001600160a01b0316906001600160801b0386169082906370a0823190602401602060405180830381865afa15801561066c573d6000803e3d6000fd5b505050506040513d601f19601f82011682018060405250810190610690919061161c565b10156106d05760405162461bcd60e51b815260206004820152600f60248201526e62616c616e636520746f6f206c6f7760881b604482015260640161037d565b6040805160a0810182528781526001600160801b0387166020820152600091810161071a60646107018a602d611635565b61070b919061167a565b6001600160801b03168861112f565b815260200161072f60646107018a602d611635565b81524260209182015260408051608080820183528b825230828501526001600160801b0382840181905260608084018290528451630624e65f60e11b8152875160048201529587015190911660248601529285015160448501529184015160648401529083015160848301529192506000805160206119a483398151915290630c49ccbe9060a40160408051808303816000875af11580156107d5573d6000803e3d6000fd5b505050506040513d601f19601f820116820180604052508101906107f991906116a0565b60405163fc6f786560e01b815291965094506000805160206119a48339815191529063fc6f78659061082f9084906004016116c4565b60408051808303816000875af115801561084d573d6000803e3d6000fd5b505050506040513d601f19601f8201168201806040525081019061087191906116a0565b505061087e88868661133f565b604051632770a7eb60e21b81526001600160a01b03841690639dc29fac906108ac9033908b906004016115fa565b600060405180830381600087803b1580156108c657600080fd5b505af11580156108da573d6000803e3d6000fd5b50505050505050935093915050565b6000806108f4611295565b604080516080810182528481523060208201526001600160801b038183018190526060820152905163fc6f786560e01b81526000805160206119a48339815191529063fc6f78659061094a9084906004016116c4565b60408051808303816000875af1158015610968573d6000803e3d6000fd5b505050506040513d601f19601f8201168201806040525081019061098c91906116a0565b60008681526001602052604090819020600281015460039091015491516370a0823160e01b81523060048201529396509194506001600160a01b0391821692911690610a8d90879084906370a0823190602401602060405180830381865afa1580156109fc573d6000803e3d6000fd5b505050506040513d601f19601f82011682018060405250810190610a20919061161c565b6040516370a0823160e01b81523060048201526001600160a01b038516906370a0823190602401602060405180830381865afa158015610a64573d6000803e3d6000fd5b505050506040513d601f19601f82011682018060405250810190610a88919061161c565b61133f565b505050915091565b610a9d611295565b6001600160a01b038116610b025760405162461bcd60e51b815260206004820152602660248201527f4f776e61626c653a206e6577206f776e657220697320746865207a65726f206160448201526564647265737360d01b606482015260840161037d565b610b0b816112ef565b50565b600080600080610b1c611295565b610b288c33308b610f25565b610b348b33308a610f25565b610b4d8c6000805160206119a48339815191528a61102f565b610b668b6000805160206119a48339815191528961102f565b60006040518061016001604052808e6001600160a01b031681526020018d6001600160a01b031681526020016101f462ffffff1681526020018c60020b81526020018b60020b81526020018a8152602001898152602001610bc78b8a61112f565b815260200160008152602001306001600160a01b031681526020014281525090506000805160206119a48339815191526001600160a01b03166388316456826040518263ffffffff1660e01b8152600401610c229190611707565b6080604051808303816000875af1158015610c41573d6000803e3d6000fd5b505050506040513d601f19601f82011682018060405250810190610c6591906117cb565b92975090955093509150610c793386610d8a565b600085815260026020526040902080546001600160a01b0319166001600160a01b03881617905588831015610cdd57610cc28d6000805160206119a4833981519152600061102f565b6000610cce848b6115e3565b9050610cdb8e338361119c565b505b87821015610d1a57610cff8c6000805160206119a4833981519152600061102f565b6000610d0b838a6115e3565b9050610d188d338361119c565b505b6040516340c10f1960e01b81526001600160a01b038716906340c10f1990610d4890339088906004016115fa565b600060405180830381600087803b158015610d6257600080fd5b505af1158015610d76573d6000803e3d6000fd5b505050505098509850985098945050505050565b60405163133f757160e31b815260048101829052600090819081906000805160206119a4833981519152906399fbab889060240161018060405180830381865afa158015610ddc573d6000803e3d6000fd5b505050506040513d601f19601f82011682018060405250810190610e009190611832565b5050505097505050509450945050506040518060800160405280866001600160a01b03168152602001826001600160801b03168152602001846001600160a01b03168152602001836001600160a01b03168152506001600086815260200190815260200160002060008201518160000160006101000a8154816001600160a01b0302191690836001600160a01b0316021790555060208201518160010160006101000a8154816001600160801b0302191690836001600160801b0316021790555060408201518160020160006101000a8154816001600160a01b0302191690836001600160a01b0316021790555060608201518160030160006101000a8154816001600160a01b0302191690836001600160a01b031602179055509050505050505050565b604080516001600160a01b0385811660248301528481166044830152606480830185905283518084039091018152608490920183526020820180516001600160e01b03166323b872dd60e01b1790529151600092839290881691610f899190611913565b6000604051808303816000865af19150503d8060008114610fc6576040519150601f19603f3d011682016040523d82523d6000602084013e610fcb565b606091505b5091509150818015610ff5575080511580610ff5575080806020019051810190610ff5919061194e565b6110275760405162461bcd60e51b815260206004820152600360248201526229aa2360e91b604482015260640161037d565b505050505050565b604080516001600160a01b038481166024830152604480830185905283518084039091018152606490920183526020820180516001600160e01b031663095ea7b360e01b179052915160009283929087169161108b9190611913565b6000604051808303816000865af19150503d80600081146110c8576040519150601f19603f3d011682016040523d82523d6000602084013e6110cd565b606091505b50915091508180156110f75750805115806110f75750808060200190518101906110f7919061194e565b6111285760405162461bcd60e51b8152602060048201526002602482015261534160f01b604482015260640161037d565b5050505050565b6000620186a08211156111735760405162461bcd60e51b815260206004820152600c60248201526b6e6f7420696e2072616e676560a01b604482015260640161037d565b620186a061118183826115e3565b61118b9085611970565b611195919061198f565b9392505050565b604080516001600160a01b038481166024830152604480830185905283518084039091018152606490920183526020820180516001600160e01b031663a9059cbb60e01b17905291516000928392908716916111f89190611913565b6000604051808303816000865af19150503d8060008114611235576040519150601f19603f3d011682016040523d82523d6000602084013e61123a565b606091505b5091509150818015611264575080511580611264575080806020019051810190611264919061194e565b6111285760405162461bcd60e51b815260206004820152600260248201526114d560f21b604482015260640161037d565b6000546001600160a01b031633146106095760405162461bcd60e51b815260206004820181905260248201527f4f776e61626c653a2063616c6c6572206973206e6f7420746865206f776e6572604482015260640161037d565b600080546001600160a01b038381166001600160a01b0319831681178455604051919092169283917f8be0079c531659141344cd1fd0a4f28419497f9722a3daafe3b4186f6b6457e09190a35050565b6000838152600160205260409020805460028201546003909201546001600160a01b03918216928216911661137582848761119c565b61102781848661119c565b6001600160a01b0381168114610b0b57600080fd5b6000806000806000608086880312156113ad57600080fd5b85356113b881611380565b945060208601356113c881611380565b935060408601359250606086013567ffffffffffffffff808211156113ec57600080fd5b818801915088601f83011261140057600080fd5b81358181111561140f57600080fd5b89602082850101111561142157600080fd5b9699959850939650602001949392505050565b6000806000806080858703121561144a57600080fd5b5050823594602084013594506040840135936060013592509050565b6001600160801b0381168114610b0b57600080fd5b60008060006060848603121561149057600080fd5b8335925060208401356114a281611466565b929592945050506040919091013590565b6000602082840312156114c557600080fd5b5035919050565b6000602082840312156114de57600080fd5b813561119581611380565b8060020b8114610b0b57600080fd5b600080600080600080600080610100898b03121561151557600080fd5b883561152081611380565b9750602089013561153081611380565b96506040890135611540816114e9565b95506060890135611550816114e9565b94506080890135935060a0890135925060c0890135915060e089013561157581611380565b809150509295985092959890939650565b805161159181611466565b919050565b6000806000606084860312156115ab57600080fd5b83516115b681611466565b602085015160409095015190969495509392505050565b634e487b7160e01b600052601160045260246000fd5b6000828210156115f5576115f56115cd565b500390565b6001600160a01b039290921682526001600160801b0316602082015260400190565b60006020828403121561162e57600080fd5b5051919050565b60006001600160801b038083168185168183048111821515161561165b5761165b6115cd565b02949350505050565b634e487b7160e01b600052601260045260246000fd5b60006001600160801b038084168061169457611694611664565b92169190910492915050565b600080604083850312156116b357600080fd5b505080516020909101519092909150565b815181526020808301516001600160a01b0316908201526040808301516001600160801b0390811691830191909152606092830151169181019190915260800190565b81516001600160a01b031681526101608101602083015161173360208401826001600160a01b03169052565b50604083015161174a604084018262ffffff169052565b50606083015161175f606084018260020b9052565b506080830151611774608084018260020b9052565b5060a083015160a083015260c083015160c083015260e083015160e0830152610100808401518184015250610120808401516117ba828501826001600160a01b03169052565b505061014092830151919092015290565b600080600080608085870312156117e157600080fd5b8451935060208501516117f381611466565b6040860151606090960151949790965092505050565b805161159181611380565b805162ffffff8116811461159157600080fd5b8051611591816114e9565b6000806000806000806000806000806000806101808d8f03121561185557600080fd5b8c516bffffffffffffffffffffffff8116811461187157600080fd5b9b5061187f60208e01611809565b9a5061188d60408e01611809565b995061189b60608e01611809565b98506118a960808e01611814565b97506118b760a08e01611827565b96506118c560c08e01611827565b95506118d360e08e01611586565b94506101008d015193506101208d015192506118f26101408e01611586565b91506119016101608e01611586565b90509295989b509295989b509295989b565b6000825160005b81811015611934576020818601810151858301520161191a565b81811115611943576000828501525b509190910192915050565b60006020828403121561196057600080fd5b8151801515811461119557600080fd5b600081600019048311821515161561198a5761198a6115cd565b500290565b60008261199e5761199e611664565b50049056fe000000000000000000000000c36442b4a4522e871399cd717abdd847ab11fe88a26469706673582212202dee28de39429147bf728d9a602b729ef6bed3ee577c384d28c530be69efc0e164736f6c634300080c0033",
					"opcodes": "PUSH1 0x80 PUSH1 0x40 MSTORE CALLVALUE DUP1 ISZERO PUSH2 0x10 JUMPI PUSH1 0x0 DUP1 REVERT JUMPDEST POP PUSH2 0x1A CALLER PUSH2 0x1F JUMP JUMPDEST PUSH2 0x6F JUMP JUMPDEST PUSH1 0x0 DUP1 SLOAD PUSH1 0x1 PUSH1 0x1 PUSH1 0xA0 SHL SUB DUP4 DUP2 AND PUSH1 0x1 PUSH1 0x1 PUSH1 0xA0 SHL SUB NOT DUP4 AND DUP2 OR DUP5 SSTORE PUSH1 0x40 MLOAD SWAP2 SWAP1 SWAP3 AND SWAP3 DUP4 SWAP2 PUSH32 0x8BE0079C531659141344CD1FD0A4F28419497F9722A3DAAFE3B4186F6B6457E0 SWAP2 SWAP1 LOG3 POP POP JUMP JUMPDEST PUSH2 0x19F9 DUP1 PUSH2 0x7E PUSH1 0x0 CODECOPY PUSH1 0x0 RETURN INVALID PUSH1 0x80 PUSH1 0x40 MSTORE CALLVALUE DUP1 ISZERO PUSH2 0x10 JUMPI PUSH1 0x0 DUP1 REVERT JUMPDEST POP PUSH1 0x4 CALLDATASIZE LT PUSH2 0xEA JUMPI PUSH1 0x0 CALLDATALOAD PUSH1 0xE0 SHR DUP1 PUSH4 0xA7459AC8 GT PUSH2 0x8C JUMPI DUP1 PUSH4 0xB44A2722 GT PUSH2 0x66 JUMPI DUP1 PUSH4 0xB44A2722 EQ PUSH2 0x2B2 JUMPI DUP1 PUSH4 0xE0BAB4C4 EQ PUSH2 0x2C7 JUMPI DUP1 PUSH4 0xF2FDE38B EQ PUSH2 0x2E2 JUMPI DUP1 PUSH4 0xFF0388A0 EQ PUSH2 0x2F5 JUMPI PUSH1 0x0 DUP1 REVERT JUMPDEST DUP1 PUSH4 0xA7459AC8 EQ PUSH2 0x1EB JUMPI DUP1 PUSH4 0xB02C43D0 EQ PUSH2 0x214 JUMPI DUP1 PUSH4 0xB17ACDCD EQ PUSH2 0x29F JUMPI PUSH1 0x0 DUP1 REVERT JUMPDEST DUP1 PUSH4 0x715018A6 GT PUSH2 0xC8 JUMPI DUP1 PUSH4 0x715018A6 EQ PUSH2 0x175 JUMPI DUP1 PUSH4 0x89A30271 EQ PUSH2 0x17F JUMPI DUP1 PUSH4 0x8DA5CB5B EQ PUSH2 0x1B2 JUMPI DUP1 PUSH4 0x957C524F EQ PUSH2 0x1C3 JUMPI PUSH1 0x0 DUP1 REVERT JUMPDEST DUP1 PUSH4 0x89FE6AA EQ PUSH2 0xEF JUMPI DUP1 PUSH4 0x150B7A02 EQ PUSH2 0x111 JUMPI DUP1 PUSH4 0x5846CE4E EQ PUSH2 0x13D JUMPI JUMPDEST PUSH1 0x0 DUP1 REVERT JUMPDEST PUSH2 0xF8 PUSH2 0x1F4 DUP2 JUMP JUMPDEST PUSH1 0x40 MLOAD PUSH3 0xFFFFFF SWAP1 SWAP2 AND DUP2 MSTORE PUSH1 0x20 ADD JUMPDEST PUSH1 0x40 MLOAD DUP1 SWAP2 SUB SWAP1 RETURN JUMPDEST PUSH2 0x124 PUSH2 0x11F CALLDATASIZE PUSH1 0x4 PUSH2 0x1395 JUMP JUMPDEST PUSH2 0x330 JUMP JUMPDEST PUSH1 0x40 MLOAD PUSH1 0x1 PUSH1 0x1 PUSH1 0xE0 SHL SUB NOT SWAP1 SWAP2 AND DUP2 MSTORE PUSH1 0x20 ADD PUSH2 0x108 JUMP JUMPDEST PUSH2 0x150 PUSH2 0x14B CALLDATASIZE PUSH1 0x4 PUSH2 0x1434 JUMP JUMPDEST PUSH2 0x3A2 JUMP JUMPDEST PUSH1 0x40 DUP1 MLOAD PUSH1 0x1 PUSH1 0x1 PUSH1 0x80 SHL SUB SWAP1 SWAP5 AND DUP5 MSTORE PUSH1 0x20 DUP5 ADD SWAP3 SWAP1 SWAP3 MSTORE SWAP1 DUP3 ADD MSTORE PUSH1 0x60 ADD PUSH2 0x108 JUMP JUMPDEST PUSH2 0x17D PUSH2 0x5F7 JUMP JUMPDEST STOP JUMPDEST PUSH2 0x19A PUSH20 0x3DB4B7DA67DD5AF61CB9B3C70501B1BDB24B2C22 DUP2 JUMP JUMPDEST PUSH1 0x40 MLOAD PUSH1 0x1 PUSH1 0x1 PUSH1 0xA0 SHL SUB SWAP1 SWAP2 AND DUP2 MSTORE PUSH1 0x20 ADD PUSH2 0x108 JUMP JUMPDEST PUSH1 0x0 SLOAD PUSH1 0x1 PUSH1 0x1 PUSH1 0xA0 SHL SUB AND PUSH2 0x19A JUMP JUMPDEST PUSH2 0x1D6 PUSH2 0x1D1 CALLDATASIZE PUSH1 0x4 PUSH2 0x147B JUMP JUMPDEST PUSH2 0x60B JUMP JUMPDEST PUSH1 0x40 DUP1 MLOAD SWAP3 DUP4 MSTORE PUSH1 0x20 DUP4 ADD SWAP2 SWAP1 SWAP2 MSTORE ADD PUSH2 0x108 JUMP JUMPDEST PUSH2 0x19A PUSH2 0x1F9 CALLDATASIZE PUSH1 0x4 PUSH2 0x14B3 JUMP JUMPDEST PUSH1 0x2 PUSH1 0x20 MSTORE PUSH1 0x0 SWAP1 DUP2 MSTORE PUSH1 0x40 SWAP1 KECCAK256 SLOAD PUSH1 0x1 PUSH1 0x1 PUSH1 0xA0 SHL SUB AND DUP2 JUMP JUMPDEST PUSH2 0x263 PUSH2 0x222 CALLDATASIZE PUSH1 0x4 PUSH2 0x14B3 JUMP JUMPDEST PUSH1 0x1 PUSH1 0x20 DUP2 SWAP1 MSTORE PUSH1 0x0 SWAP2 DUP3 MSTORE PUSH1 0x40 SWAP1 SWAP2 KECCAK256 DUP1 SLOAD SWAP2 DUP2 ADD SLOAD PUSH1 0x2 DUP3 ADD SLOAD PUSH1 0x3 SWAP1 SWAP3 ADD SLOAD PUSH1 0x1 PUSH1 0x1 PUSH1 0xA0 SHL SUB SWAP4 DUP5 AND SWAP4 PUSH1 0x1 PUSH1 0x1 PUSH1 0x80 SHL SUB SWAP1 SWAP3 AND SWAP3 DUP3 AND SWAP2 AND DUP5 JUMP JUMPDEST PUSH1 0x40 DUP1 MLOAD PUSH1 0x1 PUSH1 0x1 PUSH1 0xA0 SHL SUB SWAP6 DUP7 AND DUP2 MSTORE PUSH1 0x1 PUSH1 0x1 PUSH1 0x80 SHL SUB SWAP1 SWAP5 AND PUSH1 0x20 DUP6 ADD MSTORE SWAP2 DUP5 AND SWAP2 DUP4 ADD SWAP2 SWAP1 SWAP2 MSTORE SWAP2 SWAP1 SWAP2 AND PUSH1 0x60 DUP3 ADD MSTORE PUSH1 0x80 ADD PUSH2 0x108 JUMP JUMPDEST PUSH2 0x1D6 PUSH2 0x2AD CALLDATASIZE PUSH1 0x4 PUSH2 0x14B3 JUMP JUMPDEST PUSH2 0x8E9 JUMP JUMPDEST PUSH2 0x19A PUSH1 0x0 DUP1 MLOAD PUSH1 0x20 PUSH2 0x19A4 DUP4 CODECOPY DUP2 MLOAD SWAP2 MSTORE DUP2 JUMP JUMPDEST PUSH2 0x19A PUSH20 0xDA10009CBD5D07DD0CECC66161FC93D7C9000DA1 DUP2 JUMP JUMPDEST PUSH2 0x17D PUSH2 0x2F0 CALLDATASIZE PUSH1 0x4 PUSH2 0x14CC JUMP JUMPDEST PUSH2 0xA95 JUMP JUMPDEST PUSH2 0x308 PUSH2 0x303 CALLDATASIZE PUSH1 0x4 PUSH2 0x14F8 JUMP JUMPDEST PUSH2 0xB0E JUMP JUMPDEST PUSH1 0x40 DUP1 MLOAD SWAP5 DUP6 MSTORE PUSH1 0x1 PUSH1 0x1 PUSH1 0x80 SHL SUB SWAP1 SWAP4 AND PUSH1 0x20 DUP6 ADD MSTORE SWAP2 DUP4 ADD MSTORE PUSH1 0x60 DUP3 ADD MSTORE PUSH1 0x80 ADD PUSH2 0x108 JUMP JUMPDEST PUSH1 0x0 CALLER PUSH1 0x0 DUP1 MLOAD PUSH1 0x20 PUSH2 0x19A4 DUP4 CODECOPY DUP2 MLOAD SWAP2 MSTORE EQ PUSH2 0x386 JUMPI PUSH1 0x40 MLOAD PUSH3 0x461BCD PUSH1 0xE5 SHL DUP2 MSTORE PUSH1 0x20 PUSH1 0x4 DUP3 ADD MSTORE PUSH1 0xF PUSH1 0x24 DUP3 ADD MSTORE PUSH15 0x1B9BDD0818481D5B9A5D8CC81B999D PUSH1 0x8A SHL PUSH1 0x44 DUP3 ADD MSTORE PUSH1 0x64 ADD JUMPDEST PUSH1 0x40 MLOAD DUP1 SWAP2 SUB SWAP1 REVERT JUMPDEST PUSH2 0x390 DUP7 DUP6 PUSH2 0xD8A JUMP JUMPDEST POP PUSH4 0xA85BD01 PUSH1 0xE1 SHL SWAP6 SWAP5 POP POP POP POP POP JUMP JUMPDEST PUSH1 0x0 DUP5 DUP2 MSTORE PUSH1 0x2 PUSH1 0x20 DUP2 DUP2 MSTORE PUSH1 0x40 DUP1 DUP5 KECCAK256 SLOAD PUSH1 0x1 SWAP1 SWAP3 MSTORE DUP4 KECCAK256 SWAP2 DUP3 ADD SLOAD PUSH1 0x3 SWAP1 SWAP3 ADD SLOAD DUP4 SWAP3 DUP4 SWAP3 PUSH1 0x1 PUSH1 0x1 PUSH1 0xA0 SHL SUB SWAP1 DUP2 AND SWAP3 SWAP2 DUP2 AND SWAP2 AND PUSH2 0x3E6 DUP3 CALLER ADDRESS DUP13 PUSH2 0xF25 JUMP JUMPDEST PUSH2 0x3F2 DUP2 CALLER ADDRESS DUP12 PUSH2 0xF25 JUMP JUMPDEST PUSH2 0x40B DUP3 PUSH1 0x0 DUP1 MLOAD PUSH1 0x20 PUSH2 0x19A4 DUP4 CODECOPY DUP2 MLOAD SWAP2 MSTORE DUP12 PUSH2 0x102F JUMP JUMPDEST PUSH2 0x424 DUP2 PUSH1 0x0 DUP1 MLOAD PUSH1 0x20 PUSH2 0x19A4 DUP4 CODECOPY DUP2 MLOAD SWAP2 MSTORE DUP11 PUSH2 0x102F JUMP JUMPDEST PUSH1 0x0 PUSH1 0x40 MLOAD DUP1 PUSH1 0xC0 ADD PUSH1 0x40 MSTORE DUP1 DUP13 DUP2 MSTORE PUSH1 0x20 ADD DUP12 DUP2 MSTORE PUSH1 0x20 ADD DUP11 DUP2 MSTORE PUSH1 0x20 ADD PUSH2 0x44D DUP13 DUP12 PUSH2 0x112F JUMP JUMPDEST DUP2 MSTORE PUSH1 0x20 ADD PUSH2 0x45C DUP12 DUP12 PUSH2 0x112F JUMP JUMPDEST DUP2 MSTORE TIMESTAMP PUSH1 0x20 SWAP2 DUP3 ADD MSTORE PUSH1 0x40 DUP1 MLOAD PUSH4 0x219F5D17 PUSH1 0xE0 SHL DUP2 MSTORE DUP4 MLOAD PUSH1 0x4 DUP3 ADD MSTORE SWAP2 DUP4 ADD MLOAD PUSH1 0x24 DUP4 ADD MSTORE DUP3 ADD MLOAD PUSH1 0x44 DUP3 ADD MSTORE PUSH1 0x60 DUP3 ADD MLOAD PUSH1 0x64 DUP3 ADD MSTORE PUSH1 0x80 DUP3 ADD MLOAD PUSH1 0x84 DUP3 ADD MSTORE PUSH1 0xA0 DUP3 ADD MLOAD PUSH1 0xA4 DUP3 ADD MSTORE SWAP1 SWAP2 POP PUSH1 0x0 DUP1 MLOAD PUSH1 0x20 PUSH2 0x19A4 DUP4 CODECOPY DUP2 MLOAD SWAP2 MSTORE SWAP1 PUSH4 0x219F5D17 SWAP1 PUSH1 0xC4 ADD PUSH1 0x60 PUSH1 0x40 MLOAD DUP1 DUP4 SUB DUP2 PUSH1 0x0 DUP8 GAS CALL ISZERO DUP1 ISZERO PUSH2 0x4E4 JUMPI RETURNDATASIZE PUSH1 0x0 DUP1 RETURNDATACOPY RETURNDATASIZE PUSH1 0x0 REVERT JUMPDEST POP POP POP POP PUSH1 0x40 MLOAD RETURNDATASIZE PUSH1 0x1F NOT PUSH1 0x1F DUP3 ADD AND DUP3 ADD DUP1 PUSH1 0x40 MSTORE POP DUP2 ADD SWAP1 PUSH2 0x508 SWAP2 SWAP1 PUSH2 0x1596 JUMP JUMPDEST SWAP2 SWAP9 POP SWAP7 POP SWAP5 POP DUP10 DUP7 LT ISZERO PUSH2 0x54C JUMPI PUSH2 0x531 DUP4 PUSH1 0x0 DUP1 MLOAD PUSH1 0x20 PUSH2 0x19A4 DUP4 CODECOPY DUP2 MLOAD SWAP2 MSTORE PUSH1 0x0 PUSH2 0x102F JUMP JUMPDEST PUSH1 0x0 PUSH2 0x53D DUP8 DUP13 PUSH2 0x15E3 JUMP JUMPDEST SWAP1 POP PUSH2 0x54A DUP5 CALLER DUP4 PUSH2 0x119C JUMP JUMPDEST POP JUMPDEST DUP9 DUP6 LT ISZERO PUSH2 0x589 JUMPI PUSH2 0x56E DUP3 PUSH1 0x0 DUP1 MLOAD PUSH1 0x20 PUSH2 0x19A4 DUP4 CODECOPY DUP2 MLOAD SWAP2 MSTORE PUSH1 0x0 PUSH2 0x102F JUMP JUMPDEST PUSH1 0x0 PUSH2 0x57A DUP7 DUP12 PUSH2 0x15E3 JUMP JUMPDEST SWAP1 POP PUSH2 0x587 DUP4 CALLER DUP4 PUSH2 0x119C JUMP JUMPDEST POP JUMPDEST PUSH1 0x40 MLOAD PUSH4 0x40C10F19 PUSH1 0xE0 SHL DUP2 MSTORE PUSH1 0x1 PUSH1 0x1 PUSH1 0xA0 SHL SUB DUP6 AND SWAP1 PUSH4 0x40C10F19 SWAP1 PUSH2 0x5B7 SWAP1 CALLER SWAP1 DUP12 SWAP1 PUSH1 0x4 ADD PUSH2 0x15FA JUMP JUMPDEST PUSH1 0x0 PUSH1 0x40 MLOAD DUP1 DUP4 SUB DUP2 PUSH1 0x0 DUP8 DUP1 EXTCODESIZE ISZERO DUP1 ISZERO PUSH2 0x5D1 JUMPI PUSH1 0x0 DUP1 REVERT JUMPDEST POP GAS CALL ISZERO DUP1 ISZERO PUSH2 0x5E5 JUMPI RETURNDATASIZE PUSH1 0x0 DUP1 RETURNDATACOPY RETURNDATASIZE PUSH1 0x0 REVERT JUMPDEST POP POP POP POP POP POP POP POP SWAP5 POP SWAP5 POP SWAP5 SWAP2 POP POP JUMP JUMPDEST PUSH2 0x5FF PUSH2 0x1295 JUMP JUMPDEST PUSH2 0x609 PUSH1 0x0 PUSH2 0x12EF JUMP JUMPDEST JUMP JUMPDEST PUSH1 0x0 DUP4 DUP2 MSTORE PUSH1 0x2 PUSH1 0x20 MSTORE PUSH1 0x40 DUP1 DUP3 KECCAK256 SLOAD SWAP1 MLOAD PUSH4 0x70A08231 PUSH1 0xE0 SHL DUP2 MSTORE CALLER PUSH1 0x4 DUP3 ADD MSTORE DUP3 SWAP2 PUSH1 0x1 PUSH1 0x1 PUSH1 0xA0 SHL SUB AND SWAP1 PUSH1 0x1 PUSH1 0x1 PUSH1 0x80 SHL SUB DUP7 AND SWAP1 DUP3 SWAP1 PUSH4 0x70A08231 SWAP1 PUSH1 0x24 ADD PUSH1 0x20 PUSH1 0x40 MLOAD DUP1 DUP4 SUB DUP2 DUP7 GAS STATICCALL ISZERO DUP1 ISZERO PUSH2 0x66C JUMPI RETURNDATASIZE PUSH1 0x0 DUP1 RETURNDATACOPY RETURNDATASIZE PUSH1 0x0 REVERT JUMPDEST POP POP POP POP PUSH1 0x40 MLOAD RETURNDATASIZE PUSH1 0x1F NOT PUSH1 0x1F DUP3 ADD AND DUP3 ADD DUP1 PUSH1 0x40 MSTORE POP DUP2 ADD SWAP1 PUSH2 0x690 SWAP2 SWAP1 PUSH2 0x161C JUMP JUMPDEST LT ISZERO PUSH2 0x6D0 JUMPI PUSH1 0x40 MLOAD PUSH3 0x461BCD PUSH1 0xE5 SHL DUP2 MSTORE PUSH1 0x20 PUSH1 0x4 DUP3 ADD MSTORE PUSH1 0xF PUSH1 0x24 DUP3 ADD MSTORE PUSH15 0x62616C616E636520746F6F206C6F77 PUSH1 0x88 SHL PUSH1 0x44 DUP3 ADD MSTORE PUSH1 0x64 ADD PUSH2 0x37D JUMP JUMPDEST PUSH1 0x40 DUP1 MLOAD PUSH1 0xA0 DUP2 ADD DUP3 MSTORE DUP8 DUP2 MSTORE PUSH1 0x1 PUSH1 0x1 PUSH1 0x80 SHL SUB DUP8 AND PUSH1 0x20 DUP3 ADD MSTORE PUSH1 0x0 SWAP2 DUP2 ADD PUSH2 0x71A PUSH1 0x64 PUSH2 0x701 DUP11 PUSH1 0x2D PUSH2 0x1635 JUMP JUMPDEST PUSH2 0x70B SWAP2 SWAP1 PUSH2 0x167A JUMP JUMPDEST PUSH1 0x1 PUSH1 0x1 PUSH1 0x80 SHL SUB AND DUP9 PUSH2 0x112F JUMP JUMPDEST DUP2 MSTORE PUSH1 0x20 ADD PUSH2 0x72F PUSH1 0x64 PUSH2 0x701 DUP11 PUSH1 0x2D PUSH2 0x1635 JUMP JUMPDEST DUP2 MSTORE TIMESTAMP PUSH1 0x20 SWAP2 DUP3 ADD MSTORE PUSH1 0x40 DUP1 MLOAD PUSH1 0x80 DUP1 DUP3 ADD DUP4 MSTORE DUP12 DUP3 MSTORE ADDRESS DUP3 DUP6 ADD MSTORE PUSH1 0x1 PUSH1 0x1 PUSH1 0x80 SHL SUB DUP3 DUP5 ADD DUP2 SWAP1 MSTORE PUSH1 0x60 DUP1 DUP5 ADD DUP3 SWAP1 MSTORE DUP5 MLOAD PUSH4 0x624E65F PUSH1 0xE1 SHL DUP2 MSTORE DUP8 MLOAD PUSH1 0x4 DUP3 ADD MSTORE SWAP6 DUP8 ADD MLOAD SWAP1 SWAP2 AND PUSH1 0x24 DUP7 ADD MSTORE SWAP3 DUP6 ADD MLOAD PUSH1 0x44 DUP6 ADD MSTORE SWAP2 DUP5 ADD MLOAD PUSH1 0x64 DUP5 ADD MSTORE SWAP1 DUP4 ADD MLOAD PUSH1 0x84 DUP4 ADD MSTORE SWAP2 SWAP3 POP PUSH1 0x0 DUP1 MLOAD PUSH1 0x20 PUSH2 0x19A4 DUP4 CODECOPY DUP2 MLOAD SWAP2 MSTORE SWAP1 PUSH4 0xC49CCBE SWAP1 PUSH1 0xA4 ADD PUSH1 0x40 DUP1 MLOAD DUP1 DUP4 SUB DUP2 PUSH1 0x0 DUP8 GAS CALL ISZERO DUP1 ISZERO PUSH2 0x7D5 JUMPI RETURNDATASIZE PUSH1 0x0 DUP1 RETURNDATACOPY RETURNDATASIZE PUSH1 0x0 REVERT JUMPDEST POP POP POP POP PUSH1 0x40 MLOAD RETURNDATASIZE PUSH1 0x1F NOT PUSH1 0x1F DUP3 ADD AND DUP3 ADD DUP1 PUSH1 0x40 MSTORE POP DUP2 ADD SWAP1 PUSH2 0x7F9 SWAP2 SWAP1 PUSH2 0x16A0 JUMP JUMPDEST PUSH1 0x40 MLOAD PUSH4 0xFC6F7865 PUSH1 0xE0 SHL DUP2 MSTORE SWAP2 SWAP7 POP SWAP5 POP PUSH1 0x0 DUP1 MLOAD PUSH1 0x20 PUSH2 0x19A4 DUP4 CODECOPY DUP2 MLOAD SWAP2 MSTORE SWAP1 PUSH4 0xFC6F7865 SWAP1 PUSH2 0x82F SWAP1 DUP5 SWAP1 PUSH1 0x4 ADD PUSH2 0x16C4 JUMP JUMPDEST PUSH1 0x40 DUP1 MLOAD DUP1 DUP4 SUB DUP2 PUSH1 0x0 DUP8 GAS CALL ISZERO DUP1 ISZERO PUSH2 0x84D JUMPI RETURNDATASIZE PUSH1 0x0 DUP1 RETURNDATACOPY RETURNDATASIZE PUSH1 0x0 REVERT JUMPDEST POP POP POP POP PUSH1 0x40 MLOAD RETURNDATASIZE PUSH1 0x1F NOT PUSH1 0x1F DUP3 ADD AND DUP3 ADD DUP1 PUSH1 0x40 MSTORE POP DUP2 ADD SWAP1 PUSH2 0x871 SWAP2 SWAP1 PUSH2 0x16A0 JUMP JUMPDEST POP POP PUSH2 0x87E DUP9 DUP7 DUP7 PUSH2 0x133F JUMP JUMPDEST PUSH1 0x40 MLOAD PUSH4 0x2770A7EB PUSH1 0xE2 SHL DUP2 MSTORE PUSH1 0x1 PUSH1 0x1 PUSH1 0xA0 SHL SUB DUP5 AND SWAP1 PUSH4 0x9DC29FAC SWAP1 PUSH2 0x8AC SWAP1 CALLER SWAP1 DUP12 SWAP1 PUSH1 0x4 ADD PUSH2 0x15FA JUMP JUMPDEST PUSH1 0x0 PUSH1 0x40 MLOAD DUP1 DUP4 SUB DUP2 PUSH1 0x0 DUP8 DUP1 EXTCODESIZE ISZERO DUP1 ISZERO PUSH2 0x8C6 JUMPI PUSH1 0x0 DUP1 REVERT JUMPDEST POP GAS CALL ISZERO DUP1 ISZERO PUSH2 0x8DA JUMPI RETURNDATASIZE PUSH1 0x0 DUP1 RETURNDATACOPY RETURNDATASIZE PUSH1 0x0 REVERT JUMPDEST POP POP POP POP POP POP POP SWAP4 POP SWAP4 SWAP2 POP POP JUMP JUMPDEST PUSH1 0x0 DUP1 PUSH2 0x8F4 PUSH2 0x1295 JUMP JUMPDEST PUSH1 0x40 DUP1 MLOAD PUSH1 0x80 DUP2 ADD DUP3 MSTORE DUP5 DUP2 MSTORE ADDRESS PUSH1 0x20 DUP3 ADD MSTORE PUSH1 0x1 PUSH1 0x1 PUSH1 0x80 SHL SUB DUP2 DUP4 ADD DUP2 SWAP1 MSTORE PUSH1 0x60 DUP3 ADD MSTORE SWAP1 MLOAD PUSH4 0xFC6F7865 PUSH1 0xE0 SHL DUP2 MSTORE PUSH1 0x0 DUP1 MLOAD PUSH1 0x20 PUSH2 0x19A4 DUP4 CODECOPY DUP2 MLOAD SWAP2 MSTORE SWAP1 PUSH4 0xFC6F7865 SWAP1 PUSH2 0x94A SWAP1 DUP5 SWAP1 PUSH1 0x4 ADD PUSH2 0x16C4 JUMP JUMPDEST PUSH1 0x40 DUP1 MLOAD DUP1 DUP4 SUB DUP2 PUSH1 0x0 DUP8 GAS CALL ISZERO DUP1 ISZERO PUSH2 0x968 JUMPI RETURNDATASIZE PUSH1 0x0 DUP1 RETURNDATACOPY RETURNDATASIZE PUSH1 0x0 REVERT JUMPDEST POP POP POP POP PUSH1 0x40 MLOAD RETURNDATASIZE PUSH1 0x1F NOT PUSH1 0x1F DUP3 ADD AND DUP3 ADD DUP1 PUSH1 0x40 MSTORE POP DUP2 ADD SWAP1 PUSH2 0x98C SWAP2 SWAP1 PUSH2 0x16A0 JUMP JUMPDEST PUSH1 0x0 DUP7 DUP2 MSTORE PUSH1 0x1 PUSH1 0x20 MSTORE PUSH1 0x40 SWAP1 DUP2 SWAP1 KECCAK256 PUSH1 0x2 DUP2 ADD SLOAD PUSH1 0x3 SWAP1 SWAP2 ADD SLOAD SWAP2 MLOAD PUSH4 0x70A08231 PUSH1 0xE0 SHL DUP2 MSTORE ADDRESS PUSH1 0x4 DUP3 ADD MSTORE SWAP4 SWAP7 POP SWAP2 SWAP5 POP PUSH1 0x1 PUSH1 0x1 PUSH1 0xA0 SHL SUB SWAP2 DUP3 AND SWAP3 SWAP2 AND SWAP1 PUSH2 0xA8D SWAP1 DUP8 SWAP1 DUP5 SWAP1 PUSH4 0x70A08231 SWAP1 PUSH1 0x24 ADD PUSH1 0x20 PUSH1 0x40 MLOAD DUP1 DUP4 SUB DUP2 DUP7 GAS STATICCALL ISZERO DUP1 ISZERO PUSH2 0x9FC JUMPI RETURNDATASIZE PUSH1 0x0 DUP1 RETURNDATACOPY RETURNDATASIZE PUSH1 0x0 REVERT JUMPDEST POP POP POP POP PUSH1 0x40 MLOAD RETURNDATASIZE PUSH1 0x1F NOT PUSH1 0x1F DUP3 ADD AND DUP3 ADD DUP1 PUSH1 0x40 MSTORE POP DUP2 ADD SWAP1 PUSH2 0xA20 SWAP2 SWAP1 PUSH2 0x161C JUMP JUMPDEST PUSH1 0x40 MLOAD PUSH4 0x70A08231 PUSH1 0xE0 SHL DUP2 MSTORE ADDRESS PUSH1 0x4 DUP3 ADD MSTORE PUSH1 0x1 PUSH1 0x1 PUSH1 0xA0 SHL SUB DUP6 AND SWAP1 PUSH4 0x70A08231 SWAP1 PUSH1 0x24 ADD PUSH1 0x20 PUSH1 0x40 MLOAD DUP1 DUP4 SUB DUP2 DUP7 GAS STATICCALL ISZERO DUP1 ISZERO PUSH2 0xA64 JUMPI RETURNDATASIZE PUSH1 0x0 DUP1 RETURNDATACOPY RETURNDATASIZE PUSH1 0x0 REVERT JUMPDEST POP POP POP POP PUSH1 0x40 MLOAD RETURNDATASIZE PUSH1 0x1F NOT PUSH1 0x1F DUP3 ADD AND DUP3 ADD DUP1 PUSH1 0x40 MSTORE POP DUP2 ADD SWAP1 PUSH2 0xA88 SWAP2 SWAP1 PUSH2 0x161C JUMP JUMPDEST PUSH2 0x133F JUMP JUMPDEST POP POP POP SWAP2 POP SWAP2 JUMP JUMPDEST PUSH2 0xA9D PUSH2 0x1295 JUMP JUMPDEST PUSH1 0x1 PUSH1 0x1 PUSH1 0xA0 SHL SUB DUP2 AND PUSH2 0xB02 JUMPI PUSH1 0x40 MLOAD PUSH3 0x461BCD PUSH1 0xE5 SHL DUP2 MSTORE PUSH1 0x20 PUSH1 0x4 DUP3 ADD MSTORE PUSH1 0x26 PUSH1 0x24 DUP3 ADD MSTORE PUSH32 0x4F776E61626C653A206E6577206F776E657220697320746865207A65726F2061 PUSH1 0x44 DUP3 ADD MSTORE PUSH6 0x646472657373 PUSH1 0xD0 SHL PUSH1 0x64 DUP3 ADD MSTORE PUSH1 0x84 ADD PUSH2 0x37D JUMP JUMPDEST PUSH2 0xB0B DUP2 PUSH2 0x12EF JUMP JUMPDEST POP JUMP JUMPDEST PUSH1 0x0 DUP1 PUSH1 0x0 DUP1 PUSH2 0xB1C PUSH2 0x1295 JUMP JUMPDEST PUSH2 0xB28 DUP13 CALLER ADDRESS DUP12 PUSH2 0xF25 JUMP JUMPDEST PUSH2 0xB34 DUP12 CALLER ADDRESS DUP11 PUSH2 0xF25 JUMP JUMPDEST PUSH2 0xB4D DUP13 PUSH1 0x0 DUP1 MLOAD PUSH1 0x20 PUSH2 0x19A4 DUP4 CODECOPY DUP2 MLOAD SWAP2 MSTORE DUP11 PUSH2 0x102F JUMP JUMPDEST PUSH2 0xB66 DUP12 PUSH1 0x0 DUP1 MLOAD PUSH1 0x20 PUSH2 0x19A4 DUP4 CODECOPY DUP2 MLOAD SWAP2 MSTORE DUP10 PUSH2 0x102F JUMP JUMPDEST PUSH1 0x0 PUSH1 0x40 MLOAD DUP1 PUSH2 0x160 ADD PUSH1 0x40 MSTORE DUP1 DUP15 PUSH1 0x1 PUSH1 0x1 PUSH1 0xA0 SHL SUB AND DUP2 MSTORE PUSH1 0x20 ADD DUP14 PUSH1 0x1 PUSH1 0x1 PUSH1 0xA0 SHL SUB AND DUP2 MSTORE PUSH1 0x20 ADD PUSH2 0x1F4 PUSH3 0xFFFFFF AND DUP2 MSTORE PUSH1 0x20 ADD DUP13 PUSH1 0x2 SIGNEXTEND DUP2 MSTORE PUSH1 0x20 ADD DUP12 PUSH1 0x2 SIGNEXTEND DUP2 MSTORE PUSH1 0x20 ADD DUP11 DUP2 MSTORE PUSH1 0x20 ADD DUP10 DUP2 MSTORE PUSH1 0x20 ADD PUSH2 0xBC7 DUP12 DUP11 PUSH2 0x112F JUMP JUMPDEST DUP2 MSTORE PUSH1 0x20 ADD PUSH1 0x0 DUP2 MSTORE PUSH1 0x20 ADD ADDRESS PUSH1 0x1 PUSH1 0x1 PUSH1 0xA0 SHL SUB AND DUP2 MSTORE PUSH1 0x20 ADD TIMESTAMP DUP2 MSTORE POP SWAP1 POP PUSH1 0x0 DUP1 MLOAD PUSH1 0x20 PUSH2 0x19A4 DUP4 CODECOPY DUP2 MLOAD SWAP2 MSTORE PUSH1 0x1 PUSH1 0x1 PUSH1 0xA0 SHL SUB AND PUSH4 0x88316456 DUP3 PUSH1 0x40 MLOAD DUP3 PUSH4 0xFFFFFFFF AND PUSH1 0xE0 SHL DUP2 MSTORE PUSH1 0x4 ADD PUSH2 0xC22 SWAP2 SWAP1 PUSH2 0x1707 JUMP JUMPDEST PUSH1 0x80 PUSH1 0x40 MLOAD DUP1 DUP4 SUB DUP2 PUSH1 0x0 DUP8 GAS CALL ISZERO DUP1 ISZERO PUSH2 0xC41 JUMPI RETURNDATASIZE PUSH1 0x0 DUP1 RETURNDATACOPY RETURNDATASIZE PUSH1 0x0 REVERT JUMPDEST POP POP POP POP PUSH1 0x40 MLOAD RETURNDATASIZE PUSH1 0x1F NOT PUSH1 0x1F DUP3 ADD AND DUP3 ADD DUP1 PUSH1 0x40 MSTORE POP DUP2 ADD SWAP1 PUSH2 0xC65 SWAP2 SWAP1 PUSH2 0x17CB JUMP JUMPDEST SWAP3 SWAP8 POP SWAP1 SWAP6 POP SWAP4 POP SWAP2 POP PUSH2 0xC79 CALLER DUP7 PUSH2 0xD8A JUMP JUMPDEST PUSH1 0x0 DUP6 DUP2 MSTORE PUSH1 0x2 PUSH1 0x20 MSTORE PUSH1 0x40 SWAP1 KECCAK256 DUP1 SLOAD PUSH1 0x1 PUSH1 0x1 PUSH1 0xA0 SHL SUB NOT AND PUSH1 0x1 PUSH1 0x1 PUSH1 0xA0 SHL SUB DUP9 AND OR SWAP1 SSTORE DUP9 DUP4 LT ISZERO PUSH2 0xCDD JUMPI PUSH2 0xCC2 DUP14 PUSH1 0x0 DUP1 MLOAD PUSH1 0x20 PUSH2 0x19A4 DUP4 CODECOPY DUP2 MLOAD SWAP2 MSTORE PUSH1 0x0 PUSH2 0x102F JUMP JUMPDEST PUSH1 0x0 PUSH2 0xCCE DUP5 DUP12 PUSH2 0x15E3 JUMP JUMPDEST SWAP1 POP PUSH2 0xCDB DUP15 CALLER DUP4 PUSH2 0x119C JUMP JUMPDEST POP JUMPDEST DUP8 DUP3 LT ISZERO PUSH2 0xD1A JUMPI PUSH2 0xCFF DUP13 PUSH1 0x0 DUP1 MLOAD PUSH1 0x20 PUSH2 0x19A4 DUP4 CODECOPY DUP2 MLOAD SWAP2 MSTORE PUSH1 0x0 PUSH2 0x102F JUMP JUMPDEST PUSH1 0x0 PUSH2 0xD0B DUP4 DUP11 PUSH2 0x15E3 JUMP JUMPDEST SWAP1 POP PUSH2 0xD18 DUP14 CALLER DUP4 PUSH2 0x119C JUMP JUMPDEST POP JUMPDEST PUSH1 0x40 MLOAD PUSH4 0x40C10F19 PUSH1 0xE0 SHL DUP2 MSTORE PUSH1 0x1 PUSH1 0x1 PUSH1 0xA0 SHL SUB DUP8 AND SWAP1 PUSH4 0x40C10F19 SWAP1 PUSH2 0xD48 SWAP1 CALLER SWAP1 DUP9 SWAP1 PUSH1 0x4 ADD PUSH2 0x15FA JUMP JUMPDEST PUSH1 0x0 PUSH1 0x40 MLOAD DUP1 DUP4 SUB DUP2 PUSH1 0x0 DUP8 DUP1 EXTCODESIZE ISZERO DUP1 ISZERO PUSH2 0xD62 JUMPI PUSH1 0x0 DUP1 REVERT JUMPDEST POP GAS CALL ISZERO DUP1 ISZERO PUSH2 0xD76 JUMPI RETURNDATASIZE PUSH1 0x0 DUP1 RETURNDATACOPY RETURNDATASIZE PUSH1 0x0 REVERT JUMPDEST POP POP POP POP POP SWAP9 POP SWAP9 POP SWAP9 POP SWAP9 SWAP5 POP POP POP POP POP JUMP JUMPDEST PUSH1 0x40 MLOAD PUSH4 0x133F7571 PUSH1 0xE3 SHL DUP2 MSTORE PUSH1 0x4 DUP2 ADD DUP3 SWAP1 MSTORE PUSH1 0x0 SWAP1 DUP2 SWAP1 DUP2 SWAP1 PUSH1 0x0 DUP1 MLOAD PUSH1 0x20 PUSH2 0x19A4 DUP4 CODECOPY DUP2 MLOAD SWAP2 MSTORE SWAP1 PUSH4 0x99FBAB88 SWAP1 PUSH1 0x24 ADD PUSH2 0x180 PUSH1 0x40 MLOAD DUP1 DUP4 SUB DUP2 DUP7 GAS STATICCALL ISZERO DUP1 ISZERO PUSH2 0xDDC JUMPI RETURNDATASIZE PUSH1 0x0 DUP1 RETURNDATACOPY RETURNDATASIZE PUSH1 0x0 REVERT JUMPDEST POP POP POP POP PUSH1 0x40 MLOAD RETURNDATASIZE PUSH1 0x1F NOT PUSH1 0x1F DUP3 ADD AND DUP3 ADD DUP1 PUSH1 0x40 MSTORE POP DUP2 ADD SWAP1 PUSH2 0xE00 SWAP2 SWAP1 PUSH2 0x1832 JUMP JUMPDEST POP POP POP POP SWAP8 POP POP POP POP SWAP5 POP SWAP5 POP POP POP PUSH1 0x40 MLOAD DUP1 PUSH1 0x80 ADD PUSH1 0x40 MSTORE DUP1 DUP7 PUSH1 0x1 PUSH1 0x1 PUSH1 0xA0 SHL SUB AND DUP2 MSTORE PUSH1 0x20 ADD DUP3 PUSH1 0x1 PUSH1 0x1 PUSH1 0x80 SHL SUB AND DUP2 MSTORE PUSH1 0x20 ADD DUP5 PUSH1 0x1 PUSH1 0x1 PUSH1 0xA0 SHL SUB AND DUP2 MSTORE PUSH1 0x20 ADD DUP4 PUSH1 0x1 PUSH1 0x1 PUSH1 0xA0 SHL SUB AND DUP2 MSTORE POP PUSH1 0x1 PUSH1 0x0 DUP7 DUP2 MSTORE PUSH1 0x20 ADD SWAP1 DUP2 MSTORE PUSH1 0x20 ADD PUSH1 0x0 KECCAK256 PUSH1 0x0 DUP3 ADD MLOAD DUP2 PUSH1 0x0 ADD PUSH1 0x0 PUSH2 0x100 EXP DUP2 SLOAD DUP2 PUSH1 0x1 PUSH1 0x1 PUSH1 0xA0 SHL SUB MUL NOT AND SWAP1 DUP4 PUSH1 0x1 PUSH1 0x1 PUSH1 0xA0 SHL SUB AND MUL OR SWAP1 SSTORE POP PUSH1 0x20 DUP3 ADD MLOAD DUP2 PUSH1 0x1 ADD PUSH1 0x0 PUSH2 0x100 EXP DUP2 SLOAD DUP2 PUSH1 0x1 PUSH1 0x1 PUSH1 0x80 SHL SUB MUL NOT AND SWAP1 DUP4 PUSH1 0x1 PUSH1 0x1 PUSH1 0x80 SHL SUB AND MUL OR SWAP1 SSTORE POP PUSH1 0x40 DUP3 ADD MLOAD DUP2 PUSH1 0x2 ADD PUSH1 0x0 PUSH2 0x100 EXP DUP2 SLOAD DUP2 PUSH1 0x1 PUSH1 0x1 PUSH1 0xA0 SHL SUB MUL NOT AND SWAP1 DUP4 PUSH1 0x1 PUSH1 0x1 PUSH1 0xA0 SHL SUB AND MUL OR SWAP1 SSTORE POP PUSH1 0x60 DUP3 ADD MLOAD DUP2 PUSH1 0x3 ADD PUSH1 0x0 PUSH2 0x100 EXP DUP2 SLOAD DUP2 PUSH1 0x1 PUSH1 0x1 PUSH1 0xA0 SHL SUB MUL NOT AND SWAP1 DUP4 PUSH1 0x1 PUSH1 0x1 PUSH1 0xA0 SHL SUB AND MUL OR SWAP1 SSTORE POP SWAP1 POP POP POP POP POP POP POP JUMP JUMPDEST PUSH1 0x40 DUP1 MLOAD PUSH1 0x1 PUSH1 0x1 PUSH1 0xA0 SHL SUB DUP6 DUP2 AND PUSH1 0x24 DUP4 ADD MSTORE DUP5 DUP2 AND PUSH1 0x44 DUP4 ADD MSTORE PUSH1 0x64 DUP1 DUP4 ADD DUP6 SWAP1 MSTORE DUP4 MLOAD DUP1 DUP5 SUB SWAP1 SWAP2 ADD DUP2 MSTORE PUSH1 0x84 SWAP1 SWAP3 ADD DUP4 MSTORE PUSH1 0x20 DUP3 ADD DUP1 MLOAD PUSH1 0x1 PUSH1 0x1 PUSH1 0xE0 SHL SUB AND PUSH4 0x23B872DD PUSH1 0xE0 SHL OR SWAP1 MSTORE SWAP2 MLOAD PUSH1 0x0 SWAP3 DUP4 SWAP3 SWAP1 DUP9 AND SWAP2 PUSH2 0xF89 SWAP2 SWAP1 PUSH2 0x1913 JUMP JUMPDEST PUSH1 0x0 PUSH1 0x40 MLOAD DUP1 DUP4 SUB DUP2 PUSH1 0x0 DUP7 GAS CALL SWAP2 POP POP RETURNDATASIZE DUP1 PUSH1 0x0 DUP2 EQ PUSH2 0xFC6 JUMPI PUSH1 0x40 MLOAD SWAP2 POP PUSH1 0x1F NOT PUSH1 0x3F RETURNDATASIZE ADD AND DUP3 ADD PUSH1 0x40 MSTORE RETURNDATASIZE DUP3 MSTORE RETURNDATASIZE PUSH1 0x0 PUSH1 0x20 DUP5 ADD RETURNDATACOPY PUSH2 0xFCB JUMP JUMPDEST PUSH1 0x60 SWAP2 POP JUMPDEST POP SWAP2 POP SWAP2 POP DUP2 DUP1 ISZERO PUSH2 0xFF5 JUMPI POP DUP1 MLOAD ISZERO DUP1 PUSH2 0xFF5 JUMPI POP DUP1 DUP1 PUSH1 0x20 ADD SWAP1 MLOAD DUP2 ADD SWAP1 PUSH2 0xFF5 SWAP2 SWAP1 PUSH2 0x194E JUMP JUMPDEST PUSH2 0x1027 JUMPI PUSH1 0x40 MLOAD PUSH3 0x461BCD PUSH1 0xE5 SHL DUP2 MSTORE PUSH1 0x20 PUSH1 0x4 DUP3 ADD MSTORE PUSH1 0x3 PUSH1 0x24 DUP3 ADD MSTORE PUSH3 0x29AA23 PUSH1 0xE9 SHL PUSH1 0x44 DUP3 ADD MSTORE PUSH1 0x64 ADD PUSH2 0x37D JUMP JUMPDEST POP POP POP POP POP POP JUMP JUMPDEST PUSH1 0x40 DUP1 MLOAD PUSH1 0x1 PUSH1 0x1 PUSH1 0xA0 SHL SUB DUP5 DUP2 AND PUSH1 0x24 DUP4 ADD MSTORE PUSH1 0x44 DUP1 DUP4 ADD DUP6 SWAP1 MSTORE DUP4 MLOAD DUP1 DUP5 SUB SWAP1 SWAP2 ADD DUP2 MSTORE PUSH1 0x64 SWAP1 SWAP3 ADD DUP4 MSTORE PUSH1 0x20 DUP3 ADD DUP1 MLOAD PUSH1 0x1 PUSH1 0x1 PUSH1 0xE0 SHL SUB AND PUSH4 0x95EA7B3 PUSH1 0xE0 SHL OR SWAP1 MSTORE SWAP2 MLOAD PUSH1 0x0 SWAP3 DUP4 SWAP3 SWAP1 DUP8 AND SWAP2 PUSH2 0x108B SWAP2 SWAP1 PUSH2 0x1913 JUMP JUMPDEST PUSH1 0x0 PUSH1 0x40 MLOAD DUP1 DUP4 SUB DUP2 PUSH1 0x0 DUP7 GAS CALL SWAP2 POP POP RETURNDATASIZE DUP1 PUSH1 0x0 DUP2 EQ PUSH2 0x10C8 JUMPI PUSH1 0x40 MLOAD SWAP2 POP PUSH1 0x1F NOT PUSH1 0x3F RETURNDATASIZE ADD AND DUP3 ADD PUSH1 0x40 MSTORE RETURNDATASIZE DUP3 MSTORE RETURNDATASIZE PUSH1 0x0 PUSH1 0x20 DUP5 ADD RETURNDATACOPY PUSH2 0x10CD JUMP JUMPDEST PUSH1 0x60 SWAP2 POP JUMPDEST POP SWAP2 POP SWAP2 POP DUP2 DUP1 ISZERO PUSH2 0x10F7 JUMPI POP DUP1 MLOAD ISZERO DUP1 PUSH2 0x10F7 JUMPI POP DUP1 DUP1 PUSH1 0x20 ADD SWAP1 MLOAD DUP2 ADD SWAP1 PUSH2 0x10F7 SWAP2 SWAP1 PUSH2 0x194E JUMP JUMPDEST PUSH2 0x1128 JUMPI PUSH1 0x40 MLOAD PUSH3 0x461BCD PUSH1 0xE5 SHL DUP2 MSTORE PUSH1 0x20 PUSH1 0x4 DUP3 ADD MSTORE PUSH1 0x2 PUSH1 0x24 DUP3 ADD MSTORE PUSH2 0x5341 PUSH1 0xF0 SHL PUSH1 0x44 DUP3 ADD MSTORE PUSH1 0x64 ADD PUSH2 0x37D JUMP JUMPDEST POP POP POP POP POP JUMP JUMPDEST PUSH1 0x0 PUSH3 0x186A0 DUP3 GT ISZERO PUSH2 0x1173 JUMPI PUSH1 0x40 MLOAD PUSH3 0x461BCD PUSH1 0xE5 SHL DUP2 MSTORE PUSH1 0x20 PUSH1 0x4 DUP3 ADD MSTORE PUSH1 0xC PUSH1 0x24 DUP3 ADD MSTORE PUSH12 0x6E6F7420696E2072616E6765 PUSH1 0xA0 SHL PUSH1 0x44 DUP3 ADD MSTORE PUSH1 0x64 ADD PUSH2 0x37D JUMP JUMPDEST PUSH3 0x186A0 PUSH2 0x1181 DUP4 DUP3 PUSH2 0x15E3 JUMP JUMPDEST PUSH2 0x118B SWAP1 DUP6 PUSH2 0x1970 JUMP JUMPDEST PUSH2 0x1195 SWAP2 SWAP1 PUSH2 0x198F JUMP JUMPDEST SWAP4 SWAP3 POP POP POP JUMP JUMPDEST PUSH1 0x40 DUP1 MLOAD PUSH1 0x1 PUSH1 0x1 PUSH1 0xA0 SHL SUB DUP5 DUP2 AND PUSH1 0x24 DUP4 ADD MSTORE PUSH1 0x44 DUP1 DUP4 ADD DUP6 SWAP1 MSTORE DUP4 MLOAD DUP1 DUP5 SUB SWAP1 SWAP2 ADD DUP2 MSTORE PUSH1 0x64 SWAP1 SWAP3 ADD DUP4 MSTORE PUSH1 0x20 DUP3 ADD DUP1 MLOAD PUSH1 0x1 PUSH1 0x1 PUSH1 0xE0 SHL SUB AND PUSH4 0xA9059CBB PUSH1 0xE0 SHL OR SWAP1 MSTORE SWAP2 MLOAD PUSH1 0x0 SWAP3 DUP4 SWAP3 SWAP1 DUP8 AND SWAP2 PUSH2 0x11F8 SWAP2 SWAP1 PUSH2 0x1913 JUMP JUMPDEST PUSH1 0x0 PUSH1 0x40 MLOAD DUP1 DUP4 SUB DUP2 PUSH1 0x0 DUP7 GAS CALL SWAP2 POP POP RETURNDATASIZE DUP1 PUSH1 0x0 DUP2 EQ PUSH2 0x1235 JUMPI PUSH1 0x40 MLOAD SWAP2 POP PUSH1 0x1F NOT PUSH1 0x3F RETURNDATASIZE ADD AND DUP3 ADD PUSH1 0x40 MSTORE RETURNDATASIZE DUP3 MSTORE RETURNDATASIZE PUSH1 0x0 PUSH1 0x20 DUP5 ADD RETURNDATACOPY PUSH2 0x123A JUMP JUMPDEST PUSH1 0x60 SWAP2 POP JUMPDEST POP SWAP2 POP SWAP2 POP DUP2 DUP1 ISZERO PUSH2 0x1264 JUMPI POP DUP1 MLOAD ISZERO DUP1 PUSH2 0x1264 JUMPI POP DUP1 DUP1 PUSH1 0x20 ADD SWAP1 MLOAD DUP2 ADD SWAP1 PUSH2 0x1264 SWAP2 SWAP1 PUSH2 0x194E JUMP JUMPDEST PUSH2 0x1128 JUMPI PUSH1 0x40 MLOAD PUSH3 0x461BCD PUSH1 0xE5 SHL DUP2 MSTORE PUSH1 0x20 PUSH1 0x4 DUP3 ADD MSTORE PUSH1 0x2 PUSH1 0x24 DUP3 ADD MSTORE PUSH2 0x14D5 PUSH1 0xF2 SHL PUSH1 0x44 DUP3 ADD MSTORE PUSH1 0x64 ADD PUSH2 0x37D JUMP JUMPDEST PUSH1 0x0 SLOAD PUSH1 0x1 PUSH1 0x1 PUSH1 0xA0 SHL SUB AND CALLER EQ PUSH2 0x609 JUMPI PUSH1 0x40 MLOAD PUSH3 0x461BCD PUSH1 0xE5 SHL DUP2 MSTORE PUSH1 0x20 PUSH1 0x4 DUP3 ADD DUP2 SWAP1 MSTORE PUSH1 0x24 DUP3 ADD MSTORE PUSH32 0x4F776E61626C653A2063616C6C6572206973206E6F7420746865206F776E6572 PUSH1 0x44 DUP3 ADD MSTORE PUSH1 0x64 ADD PUSH2 0x37D JUMP JUMPDEST PUSH1 0x0 DUP1 SLOAD PUSH1 0x1 PUSH1 0x1 PUSH1 0xA0 SHL SUB DUP4 DUP2 AND PUSH1 0x1 PUSH1 0x1 PUSH1 0xA0 SHL SUB NOT DUP4 AND DUP2 OR DUP5 SSTORE PUSH1 0x40 MLOAD SWAP2 SWAP1 SWAP3 AND SWAP3 DUP4 SWAP2 PUSH32 0x8BE0079C531659141344CD1FD0A4F28419497F9722A3DAAFE3B4186F6B6457E0 SWAP2 SWAP1 LOG3 POP POP JUMP JUMPDEST PUSH1 0x0 DUP4 DUP2 MSTORE PUSH1 0x1 PUSH1 0x20 MSTORE PUSH1 0x40 SWAP1 KECCAK256 DUP1 SLOAD PUSH1 0x2 DUP3 ADD SLOAD PUSH1 0x3 SWAP1 SWAP3 ADD SLOAD PUSH1 0x1 PUSH1 0x1 PUSH1 0xA0 SHL SUB SWAP2 DUP3 AND SWAP3 DUP3 AND SWAP2 AND PUSH2 0x1375 DUP3 DUP5 DUP8 PUSH2 0x119C JUMP JUMPDEST PUSH2 0x1027 DUP2 DUP5 DUP7 PUSH2 0x119C JUMP JUMPDEST PUSH1 0x1 PUSH1 0x1 PUSH1 0xA0 SHL SUB DUP2 AND DUP2 EQ PUSH2 0xB0B JUMPI PUSH1 0x0 DUP1 REVERT JUMPDEST PUSH1 0x0 DUP1 PUSH1 0x0 DUP1 PUSH1 0x0 PUSH1 0x80 DUP7 DUP9 SUB SLT ISZERO PUSH2 0x13AD JUMPI PUSH1 0x0 DUP1 REVERT JUMPDEST DUP6 CALLDATALOAD PUSH2 0x13B8 DUP2 PUSH2 0x1380 JUMP JUMPDEST SWAP5 POP PUSH1 0x20 DUP7 ADD CALLDATALOAD PUSH2 0x13C8 DUP2 PUSH2 0x1380 JUMP JUMPDEST SWAP4 POP PUSH1 0x40 DUP7 ADD CALLDATALOAD SWAP3 POP PUSH1 0x60 DUP7 ADD CALLDATALOAD PUSH8 0xFFFFFFFFFFFFFFFF DUP1 DUP3 GT ISZERO PUSH2 0x13EC JUMPI PUSH1 0x0 DUP1 REVERT JUMPDEST DUP2 DUP9 ADD SWAP2 POP DUP9 PUSH1 0x1F DUP4 ADD SLT PUSH2 0x1400 JUMPI PUSH1 0x0 DUP1 REVERT JUMPDEST DUP2 CALLDATALOAD DUP2 DUP2 GT ISZERO PUSH2 0x140F JUMPI PUSH1 0x0 DUP1 REVERT JUMPDEST DUP10 PUSH1 0x20 DUP3 DUP6 ADD ADD GT ISZERO PUSH2 0x1421 JUMPI PUSH1 0x0 DUP1 REVERT JUMPDEST SWAP7 SWAP10 SWAP6 SWAP9 POP SWAP4 SWAP7 POP PUSH1 0x20 ADD SWAP5 SWAP4 SWAP3 POP POP POP JUMP JUMPDEST PUSH1 0x0 DUP1 PUSH1 0x0 DUP1 PUSH1 0x80 DUP6 DUP8 SUB SLT ISZERO PUSH2 0x144A JUMPI PUSH1 0x0 DUP1 REVERT JUMPDEST POP POP DUP3 CALLDATALOAD SWAP5 PUSH1 0x20 DUP5 ADD CALLDATALOAD SWAP5 POP PUSH1 0x40 DUP5 ADD CALLDATALOAD SWAP4 PUSH1 0x60 ADD CALLDATALOAD SWAP3 POP SWAP1 POP JUMP JUMPDEST PUSH1 0x1 PUSH1 0x1 PUSH1 0x80 SHL SUB DUP2 AND DUP2 EQ PUSH2 0xB0B JUMPI PUSH1 0x0 DUP1 REVERT JUMPDEST PUSH1 0x0 DUP1 PUSH1 0x0 PUSH1 0x60 DUP5 DUP7 SUB SLT ISZERO PUSH2 0x1490 JUMPI PUSH1 0x0 DUP1 REVERT JUMPDEST DUP4 CALLDATALOAD SWAP3 POP PUSH1 0x20 DUP5 ADD CALLDATALOAD PUSH2 0x14A2 DUP2 PUSH2 0x1466 JUMP JUMPDEST SWAP3 SWAP6 SWAP3 SWAP5 POP POP POP PUSH1 0x40 SWAP2 SWAP1 SWAP2 ADD CALLDATALOAD SWAP1 JUMP JUMPDEST PUSH1 0x0 PUSH1 0x20 DUP3 DUP5 SUB SLT ISZERO PUSH2 0x14C5 JUMPI PUSH1 0x0 DUP1 REVERT JUMPDEST POP CALLDATALOAD SWAP2 SWAP1 POP JUMP JUMPDEST PUSH1 0x0 PUSH1 0x20 DUP3 DUP5 SUB SLT ISZERO PUSH2 0x14DE JUMPI PUSH1 0x0 DUP1 REVERT JUMPDEST DUP2 CALLDATALOAD PUSH2 0x1195 DUP2 PUSH2 0x1380 JUMP JUMPDEST DUP1 PUSH1 0x2 SIGNEXTEND DUP2 EQ PUSH2 0xB0B JUMPI PUSH1 0x0 DUP1 REVERT JUMPDEST PUSH1 0x0 DUP1 PUSH1 0x0 DUP1 PUSH1 0x0 DUP1 PUSH1 0x0 DUP1 PUSH2 0x100 DUP10 DUP12 SUB SLT ISZERO PUSH2 0x1515 JUMPI PUSH1 0x0 DUP1 REVERT JUMPDEST DUP9 CALLDATALOAD PUSH2 0x1520 DUP2 PUSH2 0x1380 JUMP JUMPDEST SWAP8 POP PUSH1 0x20 DUP10 ADD CALLDATALOAD PUSH2 0x1530 DUP2 PUSH2 0x1380 JUMP JUMPDEST SWAP7 POP PUSH1 0x40 DUP10 ADD CALLDATALOAD PUSH2 0x1540 DUP2 PUSH2 0x14E9 JUMP JUMPDEST SWAP6 POP PUSH1 0x60 DUP10 ADD CALLDATALOAD PUSH2 0x1550 DUP2 PUSH2 0x14E9 JUMP JUMPDEST SWAP5 POP PUSH1 0x80 DUP10 ADD CALLDATALOAD SWAP4 POP PUSH1 0xA0 DUP10 ADD CALLDATALOAD SWAP3 POP PUSH1 0xC0 DUP10 ADD CALLDATALOAD SWAP2 POP PUSH1 0xE0 DUP10 ADD CALLDATALOAD PUSH2 0x1575 DUP2 PUSH2 0x1380 JUMP JUMPDEST DUP1 SWAP2 POP POP SWAP3 SWAP6 SWAP9 POP SWAP3 SWAP6 SWAP9 SWAP1 SWAP4 SWAP7 POP JUMP JUMPDEST DUP1 MLOAD PUSH2 0x1591 DUP2 PUSH2 0x1466 JUMP JUMPDEST SWAP2 SWAP1 POP JUMP JUMPDEST PUSH1 0x0 DUP1 PUSH1 0x0 PUSH1 0x60 DUP5 DUP7 SUB SLT ISZERO PUSH2 0x15AB JUMPI PUSH1 0x0 DUP1 REVERT JUMPDEST DUP4 MLOAD PUSH2 0x15B6 DUP2 PUSH2 0x1466 JUMP JUMPDEST PUSH1 0x20 DUP6 ADD MLOAD PUSH1 0x40 SWAP1 SWAP6 ADD MLOAD SWAP1 SWAP7 SWAP5 SWAP6 POP SWAP4 SWAP3 POP POP POP JUMP JUMPDEST PUSH4 0x4E487B71 PUSH1 0xE0 SHL PUSH1 0x0 MSTORE PUSH1 0x11 PUSH1 0x4 MSTORE PUSH1 0x24 PUSH1 0x0 REVERT JUMPDEST PUSH1 0x0 DUP3 DUP3 LT ISZERO PUSH2 0x15F5 JUMPI PUSH2 0x15F5 PUSH2 0x15CD JUMP JUMPDEST POP SUB SWAP1 JUMP JUMPDEST PUSH1 0x1 PUSH1 0x1 PUSH1 0xA0 SHL SUB SWAP3 SWAP1 SWAP3 AND DUP3 MSTORE PUSH1 0x1 PUSH1 0x1 PUSH1 0x80 SHL SUB AND PUSH1 0x20 DUP3 ADD MSTORE PUSH1 0x40 ADD SWAP1 JUMP JUMPDEST PUSH1 0x0 PUSH1 0x20 DUP3 DUP5 SUB SLT ISZERO PUSH2 0x162E JUMPI PUSH1 0x0 DUP1 REVERT JUMPDEST POP MLOAD SWAP2 SWAP1 POP JUMP JUMPDEST PUSH1 0x0 PUSH1 0x1 PUSH1 0x1 PUSH1 0x80 SHL SUB DUP1 DUP4 AND DUP2 DUP6 AND DUP2 DUP4 DIV DUP2 GT DUP3 ISZERO ISZERO AND ISZERO PUSH2 0x165B JUMPI PUSH2 0x165B PUSH2 0x15CD JUMP JUMPDEST MUL SWAP5 SWAP4 POP POP POP POP JUMP JUMPDEST PUSH4 0x4E487B71 PUSH1 0xE0 SHL PUSH1 0x0 MSTORE PUSH1 0x12 PUSH1 0x4 MSTORE PUSH1 0x24 PUSH1 0x0 REVERT JUMPDEST PUSH1 0x0 PUSH1 0x1 PUSH1 0x1 PUSH1 0x80 SHL SUB DUP1 DUP5 AND DUP1 PUSH2 0x1694 JUMPI PUSH2 0x1694 PUSH2 0x1664 JUMP JUMPDEST SWAP3 AND SWAP2 SWAP1 SWAP2 DIV SWAP3 SWAP2 POP POP JUMP JUMPDEST PUSH1 0x0 DUP1 PUSH1 0x40 DUP4 DUP6 SUB SLT ISZERO PUSH2 0x16B3 JUMPI PUSH1 0x0 DUP1 REVERT JUMPDEST POP POP DUP1 MLOAD PUSH1 0x20 SWAP1 SWAP2 ADD MLOAD SWAP1 SWAP3 SWAP1 SWAP2 POP JUMP JUMPDEST DUP2 MLOAD DUP2 MSTORE PUSH1 0x20 DUP1 DUP4 ADD MLOAD PUSH1 0x1 PUSH1 0x1 PUSH1 0xA0 SHL SUB AND SWAP1 DUP3 ADD MSTORE PUSH1 0x40 DUP1 DUP4 ADD MLOAD PUSH1 0x1 PUSH1 0x1 PUSH1 0x80 SHL SUB SWAP1 DUP2 AND SWAP2 DUP4 ADD SWAP2 SWAP1 SWAP2 MSTORE PUSH1 0x60 SWAP3 DUP4 ADD MLOAD AND SWAP2 DUP2 ADD SWAP2 SWAP1 SWAP2 MSTORE PUSH1 0x80 ADD SWAP1 JUMP JUMPDEST DUP2 MLOAD PUSH1 0x1 PUSH1 0x1 PUSH1 0xA0 SHL SUB AND DUP2 MSTORE PUSH2 0x160 DUP2 ADD PUSH1 0x20 DUP4 ADD MLOAD PUSH2 0x1733 PUSH1 0x20 DUP5 ADD DUP3 PUSH1 0x1 PUSH1 0x1 PUSH1 0xA0 SHL SUB AND SWAP1 MSTORE JUMP JUMPDEST POP PUSH1 0x40 DUP4 ADD MLOAD PUSH2 0x174A PUSH1 0x40 DUP5 ADD DUP3 PUSH3 0xFFFFFF AND SWAP1 MSTORE JUMP JUMPDEST POP PUSH1 0x60 DUP4 ADD MLOAD PUSH2 0x175F PUSH1 0x60 DUP5 ADD DUP3 PUSH1 0x2 SIGNEXTEND SWAP1 MSTORE JUMP JUMPDEST POP PUSH1 0x80 DUP4 ADD MLOAD PUSH2 0x1774 PUSH1 0x80 DUP5 ADD DUP3 PUSH1 0x2 SIGNEXTEND SWAP1 MSTORE JUMP JUMPDEST POP PUSH1 0xA0 DUP4 ADD MLOAD PUSH1 0xA0 DUP4 ADD MSTORE PUSH1 0xC0 DUP4 ADD MLOAD PUSH1 0xC0 DUP4 ADD MSTORE PUSH1 0xE0 DUP4 ADD MLOAD PUSH1 0xE0 DUP4 ADD MSTORE PUSH2 0x100 DUP1 DUP5 ADD MLOAD DUP2 DUP5 ADD MSTORE POP PUSH2 0x120 DUP1 DUP5 ADD MLOAD PUSH2 0x17BA DUP3 DUP6 ADD DUP3 PUSH1 0x1 PUSH1 0x1 PUSH1 0xA0 SHL SUB AND SWAP1 MSTORE JUMP JUMPDEST POP POP PUSH2 0x140 SWAP3 DUP4 ADD MLOAD SWAP2 SWAP1 SWAP3 ADD MSTORE SWAP1 JUMP JUMPDEST PUSH1 0x0 DUP1 PUSH1 0x0 DUP1 PUSH1 0x80 DUP6 DUP8 SUB SLT ISZERO PUSH2 0x17E1 JUMPI PUSH1 0x0 DUP1 REVERT JUMPDEST DUP5 MLOAD SWAP4 POP PUSH1 0x20 DUP6 ADD MLOAD PUSH2 0x17F3 DUP2 PUSH2 0x1466 JUMP JUMPDEST PUSH1 0x40 DUP7 ADD MLOAD PUSH1 0x60 SWAP1 SWAP7 ADD MLOAD SWAP5 SWAP8 SWAP1 SWAP7 POP SWAP3 POP POP POP JUMP JUMPDEST DUP1 MLOAD PUSH2 0x1591 DUP2 PUSH2 0x1380 JUMP JUMPDEST DUP1 MLOAD PUSH3 0xFFFFFF DUP2 AND DUP2 EQ PUSH2 0x1591 JUMPI PUSH1 0x0 DUP1 REVERT JUMPDEST DUP1 MLOAD PUSH2 0x1591 DUP2 PUSH2 0x14E9 JUMP JUMPDEST PUSH1 0x0 DUP1 PUSH1 0x0 DUP1 PUSH1 0x0 DUP1 PUSH1 0x0 DUP1 PUSH1 0x0 DUP1 PUSH1 0x0 DUP1 PUSH2 0x180 DUP14 DUP16 SUB SLT ISZERO PUSH2 0x1855 JUMPI PUSH1 0x0 DUP1 REVERT JUMPDEST DUP13 MLOAD PUSH12 0xFFFFFFFFFFFFFFFFFFFFFFFF DUP2 AND DUP2 EQ PUSH2 0x1871 JUMPI PUSH1 0x0 DUP1 REVERT JUMPDEST SWAP12 POP PUSH2 0x187F PUSH1 0x20 DUP15 ADD PUSH2 0x1809 JUMP JUMPDEST SWAP11 POP PUSH2 0x188D PUSH1 0x40 DUP15 ADD PUSH2 0x1809 JUMP JUMPDEST SWAP10 POP PUSH2 0x189B PUSH1 0x60 DUP15 ADD PUSH2 0x1809 JUMP JUMPDEST SWAP9 POP PUSH2 0x18A9 PUSH1 0x80 DUP15 ADD PUSH2 0x1814 JUMP JUMPDEST SWAP8 POP PUSH2 0x18B7 PUSH1 0xA0 DUP15 ADD PUSH2 0x1827 JUMP JUMPDEST SWAP7 POP PUSH2 0x18C5 PUSH1 0xC0 DUP15 ADD PUSH2 0x1827 JUMP JUMPDEST SWAP6 POP PUSH2 0x18D3 PUSH1 0xE0 DUP15 ADD PUSH2 0x1586 JUMP JUMPDEST SWAP5 POP PUSH2 0x100 DUP14 ADD MLOAD SWAP4 POP PUSH2 0x120 DUP14 ADD MLOAD SWAP3 POP PUSH2 0x18F2 PUSH2 0x140 DUP15 ADD PUSH2 0x1586 JUMP JUMPDEST SWAP2 POP PUSH2 0x1901 PUSH2 0x160 DUP15 ADD PUSH2 0x1586 JUMP JUMPDEST SWAP1 POP SWAP3 SWAP6 SWAP9 SWAP12 POP SWAP3 SWAP6 SWAP9 SWAP12 POP SWAP3 SWAP6 SWAP9 SWAP12 JUMP JUMPDEST PUSH1 0x0 DUP3 MLOAD PUSH1 0x0 JUMPDEST DUP2 DUP2 LT ISZERO PUSH2 0x1934 JUMPI PUSH1 0x20 DUP2 DUP7 ADD DUP2 ADD MLOAD DUP6 DUP4 ADD MSTORE ADD PUSH2 0x191A JUMP JUMPDEST DUP2 DUP2 GT ISZERO PUSH2 0x1943 JUMPI PUSH1 0x0 DUP3 DUP6 ADD MSTORE JUMPDEST POP SWAP2 SWAP1 SWAP2 ADD SWAP3 SWAP2 POP POP JUMP JUMPDEST PUSH1 0x0 PUSH1 0x20 DUP3 DUP5 SUB SLT ISZERO PUSH2 0x1960 JUMPI PUSH1 0x0 DUP1 REVERT JUMPDEST DUP2 MLOAD DUP1 ISZERO ISZERO DUP2 EQ PUSH2 0x1195 JUMPI PUSH1 0x0 DUP1 REVERT JUMPDEST PUSH1 0x0 DUP2 PUSH1 0x0 NOT DIV DUP4 GT DUP3 ISZERO ISZERO AND ISZERO PUSH2 0x198A JUMPI PUSH2 0x198A PUSH2 0x15CD JUMP JUMPDEST POP MUL SWAP1 JUMP JUMPDEST PUSH1 0x0 DUP3 PUSH2 0x199E JUMPI PUSH2 0x199E PUSH2 0x1664 JUMP JUMPDEST POP DIV SWAP1 JUMP INVALID STOP STOP STOP STOP STOP STOP STOP STOP STOP STOP STOP STOP 0xC3 PUSH5 0x42B4A4522E DUP8 SGT SWAP10 0xCD PUSH18 0x7ABDD847AB11FE88A2646970667358221220 0x2D 0xEE 0x28 0xDE CODECOPY TIMESTAMP SWAP2 SELFBALANCE 0xBF PUSH19 0x8D9A602B729EF6BED3EE577C384D28C530BE69 0xEF 0xC0 0xE1 PUSH5 0x736F6C6343 STOP ADDMOD 0xC STOP CALLER "
				},
				"gasEstimates": {
					"creation": {
						"codeDepositCost": "1329800",
						"executionCost": "27224",
						"totalCost": "1357024"
					},
					"external": {
						"DAI()": "260",
						"LPs(uint256)": "2500",
						"USDC()": "261",
						"collectFees(uint256)": "infinite",
						"decreaseLiquidity(uint256,uint128,uint256)": "infinite",
						"deposits(uint256)": "9014",
						"increaseLiquidityCurrentRange(uint256,uint256,uint256,uint256)": "infinite",
						"mintNewPosition(address,address,int24,int24,uint256,uint256,uint256,address)": "infinite",
						"nonfungiblePositionManager()": "infinite",
						"onERC721Received(address,address,uint256,bytes)": "infinite",
						"owner()": "2398",
						"poolFee()": "217",
						"renounceOwnership()": "infinite",
						"transferOwnership(address)": "infinite"
					},
					"internal": {
						"_createDeposit(address,uint256)": "infinite",
						"_sendToOwner(uint256,uint256,uint256)": "infinite",
						"_sendToUser(uint256,address,uint256,uint256)": "infinite",
						"slippagify(uint256,uint256)": "infinite"
					}
				},
				"methodIdentifiers": {
					"DAI()": "e0bab4c4",
					"LPs(uint256)": "a7459ac8",
					"USDC()": "89a30271",
					"collectFees(uint256)": "b17acdcd",
					"decreaseLiquidity(uint256,uint128,uint256)": "957c524f",
					"deposits(uint256)": "b02c43d0",
					"increaseLiquidityCurrentRange(uint256,uint256,uint256,uint256)": "5846ce4e",
					"mintNewPosition(address,address,int24,int24,uint256,uint256,uint256,address)": "ff0388a0",
					"nonfungiblePositionManager()": "b44a2722",
					"onERC721Received(address,address,uint256,bytes)": "150b7a02",
					"owner()": "8da5cb5b",
					"poolFee()": "089fe6aa",
					"renounceOwnership()": "715018a6",
					"transferOwnership(address)": "f2fde38b"
				}
			},
			"storageLayout": {
				"storage": [
					{
						"astId": 7,
						"contract": "contracts/uniswapv3lp.sol:LiquidityExamples",
						"label": "_owner",
						"offset": 0,
						"slot": "0",
						"type": "t_address"
					},
					{
						"astId": 986,
						"contract": "contracts/uniswapv3lp.sol:LiquidityExamples",
						"label": "deposits",
						"offset": 0,
						"slot": "1",
						"type": "t_mapping(t_uint256,t_struct(Deposit)980_storage)"
					},
					{
						"astId": 991,
						"contract": "contracts/uniswapv3lp.sol:LiquidityExamples",
						"label": "LPs",
						"offset": 0,
						"slot": "2",
						"type": "t_mapping(t_uint256,t_contract(LPtoken)952)"
					}
				],
				"types": {
					"t_address": {
						"encoding": "inplace",
						"label": "address",
						"numberOfBytes": "20"
					},
					"t_contract(LPtoken)952": {
						"encoding": "inplace",
						"label": "contract LPtoken",
						"numberOfBytes": "20"
					},
					"t_mapping(t_uint256,t_contract(LPtoken)952)": {
						"encoding": "mapping",
						"key": "t_uint256",
						"label": "mapping(uint256 => contract LPtoken)",
						"numberOfBytes": "32",
						"value": "t_contract(LPtoken)952"
					},
					"t_mapping(t_uint256,t_struct(Deposit)980_storage)": {
						"encoding": "mapping",
						"key": "t_uint256",
						"label": "mapping(uint256 => struct LiquidityExamples.Deposit)",
						"numberOfBytes": "32",
						"value": "t_struct(Deposit)980_storage"
					},
					"t_struct(Deposit)980_storage": {
						"encoding": "inplace",
						"label": "struct LiquidityExamples.Deposit",
						"members": [
							{
								"astId": 973,
								"contract": "contracts/uniswapv3lp.sol:LiquidityExamples",
								"label": "owner",
								"offset": 0,
								"slot": "0",
								"type": "t_address"
							},
							{
								"astId": 975,
								"contract": "contracts/uniswapv3lp.sol:LiquidityExamples",
								"label": "liquidity",
								"offset": 0,
								"slot": "1",
								"type": "t_uint128"
							},
							{
								"astId": 977,
								"contract": "contracts/uniswapv3lp.sol:LiquidityExamples",
								"label": "token0",
								"offset": 0,
								"slot": "2",
								"type": "t_address"
							},
							{
								"astId": 979,
								"contract": "contracts/uniswapv3lp.sol:LiquidityExamples",
								"label": "token1",
								"offset": 0,
								"slot": "3",
								"type": "t_address"
							}
						],
						"numberOfBytes": "128"
					},
					"t_uint128": {
						"encoding": "inplace",
						"label": "uint128",
						"numberOfBytes": "16"
					},
					"t_uint256": {
						"encoding": "inplace",
						"label": "uint256",
						"numberOfBytes": "32"
					}
				}
			},
			"userdoc": {
				"kind": "user",
				"methods": {
					"collectFees(uint256)": {
						"notice": "Collects the fees associated with provided liquidity"
					},
					"decreaseLiquidity(uint256,uint128,uint256)": {
						"notice": "A function that decreases the current liquidity by half. An example to show how to call the `decreaseLiquidity` function defined in periphery."
					},
					"increaseLiquidityCurrentRange(uint256,uint256,uint256,uint256)": {
						"notice": "Increases liquidity in the current range"
					},
					"mintNewPosition(address,address,int24,int24,uint256,uint256,uint256,address)": {
						"notice": "Calls the mint function defined in periphery, mints the same amount of each token. For this example we are providing 1000 DAI and 1000 USDC in liquidity"
					}
				},
				"version": 1
			}
		}
	}
}