{
	"data": {
		"bytecode": {
			"linkReferences": {},
			"object": "608060405234801561001057600080fd5b5061001a3361001f565b61006f565b600080546001600160a01b038381166001600160a01b0319831681178455604051919092169283917f8be0079c531659141344cd1fd0a4f28419497f9722a3daafe3b4186f6b6457e09190a35050565b6119f98061007e6000396000f3fe608060405234801561001057600080fd5b50600436106100ea5760003560e01c8063a7459ac81161008c578063b44a272211610066578063b44a2722146102b2578063e0bab4c4146102c7578063f2fde38b146102e2578063ff0388a0146102f557600080fd5b8063a7459ac8146101eb578063b02c43d014610214578063b17acdcd1461029f57600080fd5b8063715018a6116100c8578063715018a61461017557806389a302711461017f5780638da5cb5b146101b2578063957c524f146101c357600080fd5b8063089fe6aa146100ef578063150b7a02146101115780635846ce4e1461013d575b600080fd5b6100f86101f481565b60405162ffffff90911681526020015b60405180910390f35b61012461011f366004611395565b610330565b6040516001600160e01b03199091168152602001610108565b61015061014b366004611434565b6103a2565b604080516001600160801b039094168452602084019290925290820152606001610108565b61017d6105f7565b005b61019a733db4b7da67dd5af61cb9b3c70501b1bdb24b2c2281565b6040516001600160a01b039091168152602001610108565b6000546001600160a01b031661019a565b6101d66101d136600461147b565b61060b565b60408051928352602083019190915201610108565b61019a6101f93660046114b3565b6002602052600090815260409020546001600160a01b031681565b6102636102223660046114b3565b600160208190526000918252604090912080549181015460028201546003909201546001600160a01b03938416936001600160801b03909216928216911684565b604080516001600160a01b0395861681526001600160801b03909416602085015291841691830191909152919091166060820152608001610108565b6101d66102ad3660046114b3565b6108e9565b61019a6000805160206119a483398151915281565b61019a73da10009cbd5d07dd0cecc66161fc93d7c9000da181565b61017d6102f03660046114cc565b610a95565b6103086103033660046114f8565b610b0e565b604080519485526001600160801b039093166020850152918301526060820152608001610108565b6000336000805160206119a4833981519152146103865760405162461bcd60e51b815260206004820152600f60248201526e1b9bdd0818481d5b9a5d8cc81b999d608a1b60448201526064015b60405180910390fd5b6103908685610d8a565b50630a85bd0160e11b95945050505050565b6000848152600260208181526040808420546001909252832091820154600390920154839283926001600160a01b039081169291811691166103e68233308c610f25565b6103f28133308b610f25565b61040b826000805160206119a48339815191528b61102f565b610424816000805160206119a48339815191528a61102f565b60006040518060c001604052808c81526020018b81526020018a815260200161044d8c8b61112f565b815260200161045c8b8b61112f565b8152426020918201526040805163219f5d1760e01b8152835160048201529183015160248301528201516044820152606082015160648201526080820151608482015260a082015160a48201529091506000805160206119a48339815191529063219f5d179060c4016060604051808303816000875af11580156104e4573d6000803e3d6000fd5b505050506040513d601f19601f820116820180604052508101906105089190611596565b919850965094508986101561054c57610531836000805160206119a4833981519152600061102f565b600061053d878c6115e3565b905061054a84338361119c565b505b888510156105895761056e826000805160206119a4833981519152600061102f565b600061057a868b6115e3565b905061058783338361119c565b505b6040516340c10f1960e01b81526001600160a01b038516906340c10f19906105b79033908b906004016115fa565b600060405180830381600087803b1580156105d157600080fd5b505af11580156105e5573d6000803e3d6000fd5b50505050505050509450945094915050565b6105ff611295565b61060960006112ef565b565b6000838152600260205260408082205490516370a0823160e01b815233600482015282916001600160a01b0316906001600160801b0386169082906370a0823190602401602060405180830381865afa15801561066c573d6000803e3d6000fd5b505050506040513d601f19601f82011682018060405250810190610690919061161c565b10156106d05760405162461bcd60e51b815260206004820152600f60248201526e62616c616e636520746f6f206c6f7760881b604482015260640161037d565b6040805160a0810182528781526001600160801b0387166020820152600091810161071a60646107018a602d611635565b61070b919061167a565b6001600160801b03168861112f565b815260200161072f60646107018a602d611635565b81524260209182015260408051608080820183528b825230828501526001600160801b0382840181905260608084018290528451630624e65f60e11b8152875160048201529587015190911660248601529285015160448501529184015160648401529083015160848301529192506000805160206119a483398151915290630c49ccbe9060a40160408051808303816000875af11580156107d5573d6000803e3d6000fd5b505050506040513d601f19601f820116820180604052508101906107f991906116a0565b60405163fc6f786560e01b815291965094506000805160206119a48339815191529063fc6f78659061082f9084906004016116c4565b60408051808303816000875af115801561084d573d6000803e3d6000fd5b505050506040513d601f19601f8201168201806040525081019061087191906116a0565b505061087e88868661133f565b604051632770a7eb60e21b81526001600160a01b03841690639dc29fac906108ac9033908b906004016115fa565b600060405180830381600087803b1580156108c657600080fd5b505af11580156108da573d6000803e3d6000fd5b50505050505050935093915050565b6000806108f4611295565b604080516080810182528481523060208201526001600160801b038183018190526060820152905163fc6f786560e01b81526000805160206119a48339815191529063fc6f78659061094a9084906004016116c4565b60408051808303816000875af1158015610968573d6000803e3d6000fd5b505050506040513d601f19601f8201168201806040525081019061098c91906116a0565b60008681526001602052604090819020600281015460039091015491516370a0823160e01b81523060048201529396509194506001600160a01b0391821692911690610a8d90879084906370a0823190602401602060405180830381865afa1580156109fc573d6000803e3d6000fd5b505050506040513d601f19601f82011682018060405250810190610a20919061161c565b6040516370a0823160e01b81523060048201526001600160a01b038516906370a0823190602401602060405180830381865afa158015610a64573d6000803e3d6000fd5b505050506040513d601f19601f82011682018060405250810190610a88919061161c565b61133f565b505050915091565b610a9d611295565b6001600160a01b038116610b025760405162461bcd60e51b815260206004820152602660248201527f4f776e61626c653a206e6577206f776e657220697320746865207a65726f206160448201526564647265737360d01b606482015260840161037d565b610b0b816112ef565b50565b600080600080610b1c611295565b610b288c33308b610f25565b610b348b33308a610f25565b610b4d8c6000805160206119a48339815191528a61102f565b610b668b6000805160206119a48339815191528961102f565b60006040518061016001604052808e6001600160a01b031681526020018d6001600160a01b031681526020016101f462ffffff1681526020018c60020b81526020018b60020b81526020018a8152602001898152602001610bc78b8a61112f565b815260200160008152602001306001600160a01b031681526020014281525090506000805160206119a48339815191526001600160a01b03166388316456826040518263ffffffff1660e01b8152600401610c229190611707565b6080604051808303816000875af1158015610c41573d6000803e3d6000fd5b505050506040513d601f19601f82011682018060405250810190610c6591906117cb565b92975090955093509150610c793386610d8a565b600085815260026020526040902080546001600160a01b0319166001600160a01b03881617905588831015610cdd57610cc28d6000805160206119a4833981519152600061102f565b6000610cce848b6115e3565b9050610cdb8e338361119c565b505b87821015610d1a57610cff8c6000805160206119a4833981519152600061102f565b6000610d0b838a6115e3565b9050610d188d338361119c565b505b6040516340c10f1960e01b81526001600160a01b038716906340c10f1990610d4890339088906004016115fa565b600060405180830381600087803b158015610d6257600080fd5b505af1158015610d76573d6000803e3d6000fd5b505050505098509850985098945050505050565b60405163133f757160e31b815260048101829052600090819081906000805160206119a4833981519152906399fbab889060240161018060405180830381865afa158015610ddc573d6000803e3d6000fd5b505050506040513d601f19601f82011682018060405250810190610e009190611832565b5050505097505050509450945050506040518060800160405280866001600160a01b03168152602001826001600160801b03168152602001846001600160a01b03168152602001836001600160a01b03168152506001600086815260200190815260200160002060008201518160000160006101000a8154816001600160a01b0302191690836001600160a01b0316021790555060208201518160010160006101000a8154816001600160801b0302191690836001600160801b0316021790555060408201518160020160006101000a8154816001600160a01b0302191690836001600160a01b0316021790555060608201518160030160006101000a8154816001600160a01b0302191690836001600160a01b031602179055509050505050505050565b604080516001600160a01b0385811660248301528481166044830152606480830185905283518084039091018152608490920183526020820180516001600160e01b03166323b872dd60e01b1790529151600092839290881691610f899190611913565b6000604051808303816000865af19150503d8060008114610fc6576040519150601f19603f3d011682016040523d82523d6000602084013e610fcb565b606091505b5091509150818015610ff5575080511580610ff5575080806020019051810190610ff5919061194e565b6110275760405162461bcd60e51b815260206004820152600360248201526229aa2360e91b604482015260640161037d565b505050505050565b604080516001600160a01b038481166024830152604480830185905283518084039091018152606490920183526020820180516001600160e01b031663095ea7b360e01b179052915160009283929087169161108b9190611913565b6000604051808303816000865af19150503d80600081146110c8576040519150601f19603f3d011682016040523d82523d6000602084013e6110cd565b606091505b50915091508180156110f75750805115806110f75750808060200190518101906110f7919061194e565b6111285760405162461bcd60e51b8152602060048201526002602482015261534160f01b604482015260640161037d565b5050505050565b6000620186a08211156111735760405162461bcd60e51b815260206004820152600c60248201526b6e6f7420696e2072616e676560a01b604482015260640161037d565b620186a061118183826115e3565b61118b9085611970565b611195919061198f565b9392505050565b604080516001600160a01b038481166024830152604480830185905283518084039091018152606490920183526020820180516001600160e01b031663a9059cbb60e01b17905291516000928392908716916111f89190611913565b6000604051808303816000865af19150503d8060008114611235576040519150601f19603f3d011682016040523d82523d6000602084013e61123a565b606091505b5091509150818015611264575080511580611264575080806020019051810190611264919061194e565b6111285760405162461bcd60e51b815260206004820152600260248201526114d560f21b604482015260640161037d565b6000546001600160a01b031633146106095760405162461bcd60e51b815260206004820181905260248201527f4f776e61626c653a2063616c6c6572206973206e6f7420746865206f776e6572604482015260640161037d565b600080546001600160a01b038381166001600160a01b0319831681178455604051919092169283917f8be0079c531659141344cd1fd0a4f28419497f9722a3daafe3b4186f6b6457e09190a35050565b6000838152600160205260409020805460028201546003909201546001600160a01b03918216928216911661137582848761119c565b61102781848661119c565b6001600160a01b0381168114610b0b57600080fd5b6000806000806000608086880312156113ad57600080fd5b85356113b881611380565b945060208601356113c881611380565b935060408601359250606086013567ffffffffffffffff808211156113ec57600080fd5b818801915088601f83011261140057600080fd5b81358181111561140f57600080fd5b89602082850101111561142157600080fd5b9699959850939650602001949392505050565b6000806000806080858703121561144a57600080fd5b5050823594602084013594506040840135936060013592509050565b6001600160801b0381168114610b0b57600080fd5b60008060006060848603121561149057600080fd5b8335925060208401356114a281611466565b929592945050506040919091013590565b6000602082840312156114c557600080fd5b5035919050565b6000602082840312156114de57600080fd5b813561119581611380565b8060020b8114610b0b57600080fd5b600080600080600080600080610100898b03121561151557600080fd5b883561152081611380565b9750602089013561153081611380565b96506040890135611540816114e9565b95506060890135611550816114e9565b94506080890135935060a0890135925060c0890135915060e089013561157581611380565b809150509295985092959890939650565b805161159181611466565b919050565b6000806000606084860312156115ab57600080fd5b83516115b681611466565b602085015160409095015190969495509392505050565b634e487b7160e01b600052601160045260246000fd5b6000828210156115f5576115f56115cd565b500390565b6001600160a01b039290921682526001600160801b0316602082015260400190565b60006020828403121561162e57600080fd5b5051919050565b60006001600160801b038083168185168183048111821515161561165b5761165b6115cd565b02949350505050565b634e487b7160e01b600052601260045260246000fd5b60006001600160801b038084168061169457611694611664565b92169190910492915050565b600080604083850312156116b357600080fd5b505080516020909101519092909150565b815181526020808301516001600160a01b0316908201526040808301516001600160801b0390811691830191909152606092830151169181019190915260800190565b81516001600160a01b031681526101608101602083015161173360208401826001600160a01b03169052565b50604083015161174a604084018262ffffff169052565b50606083015161175f606084018260020b9052565b506080830151611774608084018260020b9052565b5060a083015160a083015260c083015160c083015260e083015160e0830152610100808401518184015250610120808401516117ba828501826001600160a01b03169052565b505061014092830151919092015290565b600080600080608085870312156117e157600080fd5b8451935060208501516117f381611466565b6040860151606090960151949790965092505050565b805161159181611380565b805162ffffff8116811461159157600080fd5b8051611591816114e9565b6000806000806000806000806000806000806101808d8f03121561185557600080fd5b8c516bffffffffffffffffffffffff8116811461187157600080fd5b9b5061187f60208e01611809565b9a5061188d60408e01611809565b995061189b60608e01611809565b98506118a960808e01611814565b97506118b760a08e01611827565b96506118c560c08e01611827565b95506118d360e08e01611586565b94506101008d015193506101208d015192506118f26101408e01611586565b91506119016101608e01611586565b90509295989b509295989b509295989b565b6000825160005b81811015611934576020818601810151858301520161191a565b81811115611943576000828501525b509190910192915050565b60006020828403121561196057600080fd5b8151801515811461119557600080fd5b600081600019048311821515161561198a5761198a6115cd565b500290565b60008261199e5761199e611664565b50049056fe000000000000000000000000c36442b4a4522e871399cd717abdd847ab11fe88a26469706673582212202dee28de39429147bf728d9a602b729ef6bed3ee577c384d28c530be69efc0e164736f6c634300080c0033",
			"opcodes": "PUSH1 0x80 PUSH1 0x40 MSTORE CALLVALUE DUP1 ISZERO PUSH2 0x10 JUMPI PUSH1 0x0 DUP1 REVERT JUMPDEST POP PUSH2 0x1A CALLER PUSH2 0x1F JUMP JUMPDEST PUSH2 0x6F JUMP JUMPDEST PUSH1 0x0 DUP1 SLOAD PUSH1 0x1 PUSH1 0x1 PUSH1 0xA0 SHL SUB DUP4 DUP2 AND PUSH1 0x1 PUSH1 0x1 PUSH1 0xA0 SHL SUB NOT DUP4 AND DUP2 OR DUP5 SSTORE PUSH1 0x40 MLOAD SWAP2 SWAP1 SWAP3 AND SWAP3 DUP4 SWAP2 PUSH32 0x8BE0079C531659141344CD1FD0A4F28419497F9722A3DAAFE3B4186F6B6457E0 SWAP2 SWAP1 LOG3 POP POP JUMP JUMPDEST PUSH2 0x19F9 DUP1 PUSH2 0x7E PUSH1 0x0 CODECOPY PUSH1 0x0 RETURN INVALID PUSH1 0x80 PUSH1 0x40 MSTORE CALLVALUE DUP1 ISZERO PUSH2 0x10 JUMPI PUSH1 0x0 DUP1 REVERT JUMPDEST POP PUSH1 0x4 CALLDATASIZE LT PUSH2 0xEA JUMPI PUSH1 0x0 CALLDATALOAD PUSH1 0xE0 SHR DUP1 PUSH4 0xA7459AC8 GT PUSH2 0x8C JUMPI DUP1 PUSH4 0xB44A2722 GT PUSH2 0x66 JUMPI DUP1 PUSH4 0xB44A2722 EQ PUSH2 0x2B2 JUMPI DUP1 PUSH4 0xE0BAB4C4 EQ PUSH2 0x2C7 JUMPI DUP1 PUSH4 0xF2FDE38B EQ PUSH2 0x2E2 JUMPI DUP1 PUSH4 0xFF0388A0 EQ PUSH2 0x2F5 JUMPI PUSH1 0x0 DUP1 REVERT JUMPDEST DUP1 PUSH4 0xA7459AC8 EQ PUSH2 0x1EB JUMPI DUP1 PUSH4 0xB02C43D0 EQ PUSH2 0x214 JUMPI DUP1 PUSH4 0xB17ACDCD EQ PUSH2 0x29F JUMPI PUSH1 0x0 DUP1 REVERT JUMPDEST DUP1 PUSH4 0x715018A6 GT PUSH2 0xC8 JUMPI DUP1 PUSH4 0x715018A6 EQ PUSH2 0x175 JUMPI DUP1 PUSH4 0x89A30271 EQ PUSH2 0x17F JUMPI DUP1 PUSH4 0x8DA5CB5B EQ PUSH2 0x1B2 JUMPI DUP1 PUSH4 0x957C524F EQ PUSH2 0x1C3 JUMPI PUSH1 0x0 DUP1 REVERT JUMPDEST DUP1 PUSH4 0x89FE6AA EQ PUSH2 0xEF JUMPI DUP1 PUSH4 0x150B7A02 EQ PUSH2 0x111 JUMPI DUP1 PUSH4 0x5846CE4E EQ PUSH2 0x13D JUMPI JUMPDEST PUSH1 0x0 DUP1 REVERT JUMPDEST PUSH2 0xF8 PUSH2 0x1F4 DUP2 JUMP JUMPDEST PUSH1 0x40 MLOAD PUSH3 0xFFFFFF SWAP1 SWAP2 AND DUP2 MSTORE PUSH1 0x20 ADD JUMPDEST PUSH1 0x40 MLOAD DUP1 SWAP2 SUB SWAP1 RETURN JUMPDEST PUSH2 0x124 PUSH2 0x11F CALLDATASIZE PUSH1 0x4 PUSH2 0x1395 JUMP JUMPDEST PUSH2 0x330 JUMP JUMPDEST PUSH1 0x40 MLOAD PUSH1 0x1 PUSH1 0x1 PUSH1 0xE0 SHL SUB NOT SWAP1 SWAP2 AND DUP2 MSTORE PUSH1 0x20 ADD PUSH2 0x108 JUMP JUMPDEST PUSH2 0x150 PUSH2 0x14B CALLDATASIZE PUSH1 0x4 PUSH2 0x1434 JUMP JUMPDEST PUSH2 0x3A2 JUMP JUMPDEST PUSH1 0x40 DUP1 MLOAD PUSH1 0x1 PUSH1 0x1 PUSH1 0x80 SHL SUB SWAP1 SWAP5 AND DUP5 MSTORE PUSH1 0x20 DUP5 ADD SWAP3 SWAP1 SWAP3 MSTORE SWAP1 DUP3 ADD MSTORE PUSH1 0x60 ADD PUSH2 0x108 JUMP JUMPDEST PUSH2 0x17D PUSH2 0x5F7 JUMP JUMPDEST STOP JUMPDEST PUSH2 0x19A PUSH20 0x3DB4B7DA67DD5AF61CB9B3C70501B1BDB24B2C22 DUP2 JUMP JUMPDEST PUSH1 0x40 MLOAD PUSH1 0x1 PUSH1 0x1 PUSH1 0xA0 SHL SUB SWAP1 SWAP2 AND DUP2 MSTORE PUSH1 0x20 ADD PUSH2 0x108 JUMP JUMPDEST PUSH1 0x0 SLOAD PUSH1 0x1 PUSH1 0x1 PUSH1 0xA0 SHL SUB AND PUSH2 0x19A JUMP JUMPDEST PUSH2 0x1D6 PUSH2 0x1D1 CALLDATASIZE PUSH1 0x4 PUSH2 0x147B JUMP JUMPDEST PUSH2 0x60B JUMP JUMPDEST PUSH1 0x40 DUP1 MLOAD SWAP3 DUP4 MSTORE PUSH1 0x20 DUP4 ADD SWAP2 SWAP1 SWAP2 MSTORE ADD PUSH2 0x108 JUMP JUMPDEST PUSH2 0x19A PUSH2 0x1F9 CALLDATASIZE PUSH1 0x4 PUSH2 0x14B3 JUMP JUMPDEST PUSH1 0x2 PUSH1 0x20 MSTORE PUSH1 0x0 SWAP1 DUP2 MSTORE PUSH1 0x40 SWAP1 KECCAK256 SLOAD PUSH1 0x1 PUSH1 0x1 PUSH1 0xA0 SHL SUB AND DUP2 JUMP JUMPDEST PUSH2 0x263 PUSH2 0x222 CALLDATASIZE PUSH1 0x4 PUSH2 0x14B3 JUMP JUMPDEST PUSH1 0x1 PUSH1 0x20 DUP2 SWAP1 MSTORE PUSH1 0x0 SWAP2 DUP3 MSTORE PUSH1 0x40 SWAP1 SWAP2 KECCAK256 DUP1 SLOAD SWAP2 DUP2 ADD SLOAD PUSH1 0x2 DUP3 ADD SLOAD PUSH1 0x3 SWAP1 SWAP3 ADD SLOAD PUSH1 0x1 PUSH1 0x1 PUSH1 0xA0 SHL SUB SWAP4 DUP5 AND SWAP4 PUSH1 0x1 PUSH1 0x1 PUSH1 0x80 SHL SUB SWAP1 SWAP3 AND SWAP3 DUP3 AND SWAP2 AND DUP5 JUMP JUMPDEST PUSH1 0x40 DUP1 MLOAD PUSH1 0x1 PUSH1 0x1 PUSH1 0xA0 SHL SUB SWAP6 DUP7 AND DUP2 MSTORE PUSH1 0x1 PUSH1 0x1 PUSH1 0x80 SHL SUB SWAP1 SWAP5 AND PUSH1 0x20 DUP6 ADD MSTORE SWAP2 DUP5 AND SWAP2 DUP4 ADD SWAP2 SWAP1 SWAP2 MSTORE SWAP2 SWAP1 SWAP2 AND PUSH1 0x60 DUP3 ADD MSTORE PUSH1 0x80 ADD PUSH2 0x108 JUMP JUMPDEST PUSH2 0x1D6 PUSH2 0x2AD CALLDATASIZE PUSH1 0x4 PUSH2 0x14B3 JUMP JUMPDEST PUSH2 0x8E9 JUMP JUMPDEST PUSH2 0x19A PUSH1 0x0 DUP1 MLOAD PUSH1 0x20 PUSH2 0x19A4 DUP4 CODECOPY DUP2 MLOAD SWAP2 MSTORE DUP2 JUMP JUMPDEST PUSH2 0x19A PUSH20 0xDA10009CBD5D07DD0CECC66161FC93D7C9000DA1 DUP2 JUMP JUMPDEST PUSH2 0x17D PUSH2 0x2F0 CALLDATASIZE PUSH1 0x4 PUSH2 0x14CC JUMP JUMPDEST PUSH2 0xA95 JUMP JUMPDEST PUSH2 0x308 PUSH2 0x303 CALLDATASIZE PUSH1 0x4 PUSH2 0x14F8 JUMP JUMPDEST PUSH2 0xB0E JUMP JUMPDEST PUSH1 0x40 DUP1 MLOAD SWAP5 DUP6 MSTORE PUSH1 0x1 PUSH1 0x1 PUSH1 0x80 SHL SUB SWAP1 SWAP4 AND PUSH1 0x20 DUP6 ADD MSTORE SWAP2 DUP4 ADD MSTORE PUSH1 0x60 DUP3 ADD MSTORE PUSH1 0x80 ADD PUSH2 0x108 JUMP JUMPDEST PUSH1 0x0 CALLER PUSH1 0x0 DUP1 MLOAD PUSH1 0x20 PUSH2 0x19A4 DUP4 CODECOPY DUP2 MLOAD SWAP2 MSTORE EQ PUSH2 0x386 JUMPI PUSH1 0x40 MLOAD PUSH3 0x461BCD PUSH1 0xE5 SHL DUP2 MSTORE PUSH1 0x20 PUSH1 0x4 DUP3 ADD MSTORE PUSH1 0xF PUSH1 0x24 DUP3 ADD MSTORE PUSH15 0x1B9BDD0818481D5B9A5D8CC81B999D PUSH1 0x8A SHL PUSH1 0x44 DUP3 ADD MSTORE PUSH1 0x64 ADD JUMPDEST PUSH1 0x40 MLOAD DUP1 SWAP2 SUB SWAP1 REVERT JUMPDEST PUSH2 0x390 DUP7 DUP6 PUSH2 0xD8A JUMP JUMPDEST POP PUSH4 0xA85BD01 PUSH1 0xE1 SHL SWAP6 SWAP5 POP POP POP POP POP JUMP JUMPDEST PUSH1 0x0 DUP5 DUP2 MSTORE PUSH1 0x2 PUSH1 0x20 DUP2 DUP2 MSTORE PUSH1 0x40 DUP1 DUP5 KECCAK256 SLOAD PUSH1 0x1 SWAP1 SWAP3 MSTORE DUP4 KECCAK256 SWAP2 DUP3 ADD SLOAD PUSH1 0x3 SWAP1 SWAP3 ADD SLOAD DUP4 SWAP3 DUP4 SWAP3 PUSH1 0x1 PUSH1 0x1 PUSH1 0xA0 SHL SUB SWAP1 DUP2 AND SWAP3 SWAP2 DUP2 AND SWAP2 AND PUSH2 0x3E6 DUP3 CALLER ADDRESS DUP13 PUSH2 0xF25 JUMP JUMPDEST PUSH2 0x3F2 DUP2 CALLER ADDRESS DUP12 PUSH2 0xF25 JUMP JUMPDEST PUSH2 0x40B DUP3 PUSH1 0x0 DUP1 MLOAD PUSH1 0x20 PUSH2 0x19A4 DUP4 CODECOPY DUP2 MLOAD SWAP2 MSTORE DUP12 PUSH2 0x102F JUMP JUMPDEST PUSH2 0x424 DUP2 PUSH1 0x0 DUP1 MLOAD PUSH1 0x20 PUSH2 0x19A4 DUP4 CODECOPY DUP2 MLOAD SWAP2 MSTORE DUP11 PUSH2 0x102F JUMP JUMPDEST PUSH1 0x0 PUSH1 0x40 MLOAD DUP1 PUSH1 0xC0 ADD PUSH1 0x40 MSTORE DUP1 DUP13 DUP2 MSTORE PUSH1 0x20 ADD DUP12 DUP2 MSTORE PUSH1 0x20 ADD DUP11 DUP2 MSTORE PUSH1 0x20 ADD PUSH2 0x44D DUP13 DUP12 PUSH2 0x112F JUMP JUMPDEST DUP2 MSTORE PUSH1 0x20 ADD PUSH2 0x45C DUP12 DUP12 PUSH2 0x112F JUMP JUMPDEST DUP2 MSTORE TIMESTAMP PUSH1 0x20 SWAP2 DUP3 ADD MSTORE PUSH1 0x40 DUP1 MLOAD PUSH4 0x219F5D17 PUSH1 0xE0 SHL DUP2 MSTORE DUP4 MLOAD PUSH1 0x4 DUP3 ADD MSTORE SWAP2 DUP4 ADD MLOAD PUSH1 0x24 DUP4 ADD MSTORE DUP3 ADD MLOAD PUSH1 0x44 DUP3 ADD MSTORE PUSH1 0x60 DUP3 ADD MLOAD PUSH1 0x64 DUP3 ADD MSTORE PUSH1 0x80 DUP3 ADD MLOAD PUSH1 0x84 DUP3 ADD MSTORE PUSH1 0xA0 DUP3 ADD MLOAD PUSH1 0xA4 DUP3 ADD MSTORE SWAP1 SWAP2 POP PUSH1 0x0 DUP1 MLOAD PUSH1 0x20 PUSH2 0x19A4 DUP4 CODECOPY DUP2 MLOAD SWAP2 MSTORE SWAP1 PUSH4 0x219F5D17 SWAP1 PUSH1 0xC4 ADD PUSH1 0x60 PUSH1 0x40 MLOAD DUP1 DUP4 SUB DUP2 PUSH1 0x0 DUP8 GAS CALL ISZERO DUP1 ISZERO PUSH2 0x4E4 JUMPI RETURNDATASIZE PUSH1 0x0 DUP1 RETURNDATACOPY RETURNDATASIZE PUSH1 0x0 REVERT JUMPDEST POP POP POP POP PUSH1 0x40 MLOAD RETURNDATASIZE PUSH1 0x1F NOT PUSH1 0x1F DUP3 ADD AND DUP3 ADD DUP1 PUSH1 0x40 MSTORE POP DUP2 ADD SWAP1 PUSH2 0x508 SWAP2 SWAP1 PUSH2 0x1596 JUMP JUMPDEST SWAP2 SWAP9 POP SWAP7 POP SWAP5 POP DUP10 DUP7 LT ISZERO PUSH2 0x54C JUMPI PUSH2 0x531 DUP4 PUSH1 0x0 DUP1 MLOAD PUSH1 0x20 PUSH2 0x19A4 DUP4 CODECOPY DUP2 MLOAD SWAP2 MSTORE PUSH1 0x0 PUSH2 0x102F JUMP JUMPDEST PUSH1 0x0 PUSH2 0x53D DUP8 DUP13 PUSH2 0x15E3 JUMP JUMPDEST SWAP1 POP PUSH2 0x54A DUP5 CALLER DUP4 PUSH2 0x119C JUMP JUMPDEST POP JUMPDEST DUP9 DUP6 LT ISZERO PUSH2 0x589 JUMPI PUSH2 0x56E DUP3 PUSH1 0x0 DUP1 MLOAD PUSH1 0x20 PUSH2 0x19A4 DUP4 CODECOPY DUP2 MLOAD SWAP2 MSTORE PUSH1 0x0 PUSH2 0x102F JUMP JUMPDEST PUSH1 0x0 PUSH2 0x57A DUP7 DUP12 PUSH2 0x15E3 JUMP JUMPDEST SWAP1 POP PUSH2 0x587 DUP4 CALLER DUP4 PUSH2 0x119C JUMP JUMPDEST POP JUMPDEST PUSH1 0x40 MLOAD PUSH4 0x40C10F19 PUSH1 0xE0 SHL DUP2 MSTORE PUSH1 0x1 PUSH1 0x1 PUSH1 0xA0 SHL SUB DUP6 AND SWAP1 PUSH4 0x40C10F19 SWAP1 PUSH2 0x5B7 SWAP1 CALLER SWAP1 DUP12 SWAP1 PUSH1 0x4 ADD PUSH2 0x15FA JUMP JUMPDEST PUSH1 0x0 PUSH1 0x40 MLOAD DUP1 DUP4 SUB DUP2 PUSH1 0x0 DUP8 DUP1 EXTCODESIZE ISZERO DUP1 ISZERO PUSH2 0x5D1 JUMPI PUSH1 0x0 DUP1 REVERT JUMPDEST POP GAS CALL ISZERO DUP1 ISZERO PUSH2 0x5E5 JUMPI RETURNDATASIZE PUSH1 0x0 DUP1 RETURNDATACOPY RETURNDATASIZE PUSH1 0x0 REVERT JUMPDEST POP POP POP POP POP POP POP POP SWAP5 POP SWAP5 POP SWAP5 SWAP2 POP POP JUMP JUMPDEST PUSH2 0x5FF PUSH2 0x1295 JUMP JUMPDEST PUSH2 0x609 PUSH1 0x0 PUSH2 0x12EF JUMP JUMPDEST JUMP JUMPDEST PUSH1 0x0 DUP4 DUP2 MSTORE PUSH1 0x2 PUSH1 0x20 MSTORE PUSH1 0x40 DUP1 DUP3 KECCAK256 SLOAD SWAP1 MLOAD PUSH4 0x70A08231 PUSH1 0xE0 SHL DUP2 MSTORE CALLER PUSH1 0x4 DUP3 ADD MSTORE DUP3 SWAP2 PUSH1 0x1 PUSH1 0x1 PUSH1 0xA0 SHL SUB AND SWAP1 PUSH1 0x1 PUSH1 0x1 PUSH1 0x80 SHL SUB DUP7 AND SWAP1 DUP3 SWAP1 PUSH4 0x70A08231 SWAP1 PUSH1 0x24 ADD PUSH1 0x20 PUSH1 0x40 MLOAD DUP1 DUP4 SUB DUP2 DUP7 GAS STATICCALL ISZERO DUP1 ISZERO PUSH2 0x66C JUMPI RETURNDATASIZE PUSH1 0x0 DUP1 RETURNDATACOPY RETURNDATASIZE PUSH1 0x0 REVERT JUMPDEST POP POP POP POP PUSH1 0x40 MLOAD RETURNDATASIZE PUSH1 0x1F NOT PUSH1 0x1F DUP3 ADD AND DUP3 ADD DUP1 PUSH1 0x40 MSTORE POP DUP2 ADD SWAP1 PUSH2 0x690 SWAP2 SWAP1 PUSH2 0x161C JUMP JUMPDEST LT ISZERO PUSH2 0x6D0 JUMPI PUSH1 0x40 MLOAD PUSH3 0x461BCD PUSH1 0xE5 SHL DUP2 MSTORE PUSH1 0x20 PUSH1 0x4 DUP3 ADD MSTORE PUSH1 0xF PUSH1 0x24 DUP3 ADD MSTORE PUSH15 0x62616C616E636520746F6F206C6F77 PUSH1 0x88 SHL PUSH1 0x44 DUP3 ADD MSTORE PUSH1 0x64 ADD PUSH2 0x37D JUMP JUMPDEST PUSH1 0x40 DUP1 MLOAD PUSH1 0xA0 DUP2 ADD DUP3 MSTORE DUP8 DUP2 MSTORE PUSH1 0x1 PUSH1 0x1 PUSH1 0x80 SHL SUB DUP8 AND PUSH1 0x20 DUP3 ADD MSTORE PUSH1 0x0 SWAP2 DUP2 ADD PUSH2 0x71A PUSH1 0x64 PUSH2 0x701 DUP11 PUSH1 0x2D PUSH2 0x1635 JUMP JUMPDEST PUSH2 0x70B SWAP2 SWAP1 PUSH2 0x167A JUMP JUMPDEST PUSH1 0x1 PUSH1 0x1 PUSH1 0x80 SHL SUB AND DUP9 PUSH2 0x112F JUMP JUMPDEST DUP2 MSTORE PUSH1 0x20 ADD PUSH2 0x72F PUSH1 0x64 PUSH2 0x701 DUP11 PUSH1 0x2D PUSH2 0x1635 JUMP JUMPDEST DUP2 MSTORE TIMESTAMP PUSH1 0x20 SWAP2 DUP3 ADD MSTORE PUSH1 0x40 DUP1 MLOAD PUSH1 0x80 DUP1 DUP3 ADD DUP4 MSTORE DUP12 DUP3 MSTORE ADDRESS DUP3 DUP6 ADD MSTORE PUSH1 0x1 PUSH1 0x1 PUSH1 0x80 SHL SUB DUP3 DUP5 ADD DUP2 SWAP1 MSTORE PUSH1 0x60 DUP1 DUP5 ADD DUP3 SWAP1 MSTORE DUP5 MLOAD PUSH4 0x624E65F PUSH1 0xE1 SHL DUP2 MSTORE DUP8 MLOAD PUSH1 0x4 DUP3 ADD MSTORE SWAP6 DUP8 ADD MLOAD SWAP1 SWAP2 AND PUSH1 0x24 DUP7 ADD MSTORE SWAP3 DUP6 ADD MLOAD PUSH1 0x44 DUP6 ADD MSTORE SWAP2 DUP5 ADD MLOAD PUSH1 0x64 DUP5 ADD MSTORE SWAP1 DUP4 ADD MLOAD PUSH1 0x84 DUP4 ADD MSTORE SWAP2 SWAP3 POP PUSH1 0x0 DUP1 MLOAD PUSH1 0x20 PUSH2 0x19A4 DUP4 CODECOPY DUP2 MLOAD SWAP2 MSTORE SWAP1 PUSH4 0xC49CCBE SWAP1 PUSH1 0xA4 ADD PUSH1 0x40 DUP1 MLOAD DUP1 DUP4 SUB DUP2 PUSH1 0x0 DUP8 GAS CALL ISZERO DUP1 ISZERO PUSH2 0x7D5 JUMPI RETURNDATASIZE PUSH1 0x0 DUP1 RETURNDATACOPY RETURNDATASIZE PUSH1 0x0 REVERT JUMPDEST POP POP POP POP PUSH1 0x40 MLOAD RETURNDATASIZE PUSH1 0x1F NOT PUSH1 0x1F DUP3 ADD AND DUP3 ADD DUP1 PUSH1 0x40 MSTORE POP DUP2 ADD SWAP1 PUSH2 0x7F9 SWAP2 SWAP1 PUSH2 0x16A0 JUMP JUMPDEST PUSH1 0x40 MLOAD PUSH4 0xFC6F7865 PUSH1 0xE0 SHL DUP2 MSTORE SWAP2 SWAP7 POP SWAP5 POP PUSH1 0x0 DUP1 MLOAD PUSH1 0x20 PUSH2 0x19A4 DUP4 CODECOPY DUP2 MLOAD SWAP2 MSTORE SWAP1 PUSH4 0xFC6F7865 SWAP1 PUSH2 0x82F SWAP1 DUP5 SWAP1 PUSH1 0x4 ADD PUSH2 0x16C4 JUMP JUMPDEST PUSH1 0x40 DUP1 MLOAD DUP1 DUP4 SUB DUP2 PUSH1 0x0 DUP8 GAS CALL ISZERO DUP1 ISZERO PUSH2 0x84D JUMPI RETURNDATASIZE PUSH1 0x0 DUP1 RETURNDATACOPY RETURNDATASIZE PUSH1 0x0 REVERT JUMPDEST POP POP POP POP PUSH1 0x40 MLOAD RETURNDATASIZE PUSH1 0x1F NOT PUSH1 0x1F DUP3 ADD AND DUP3 ADD DUP1 PUSH1 0x40 MSTORE POP DUP2 ADD SWAP1 PUSH2 0x871 SWAP2 SWAP1 PUSH2 0x16A0 JUMP JUMPDEST POP POP PUSH2 0x87E DUP9 DUP7 DUP7 PUSH2 0x133F JUMP JUMPDEST PUSH1 0x40 MLOAD PUSH4 0x2770A7EB PUSH1 0xE2 SHL DUP2 MSTORE PUSH1 0x1 PUSH1 0x1 PUSH1 0xA0 SHL SUB DUP5 AND SWAP1 PUSH4 0x9DC29FAC SWAP1 PUSH2 0x8AC SWAP1 CALLER SWAP1 DUP12 SWAP1 PUSH1 0x4 ADD PUSH2 0x15FA JUMP JUMPDEST PUSH1 0x0 PUSH1 0x40 MLOAD DUP1 DUP4 SUB DUP2 PUSH1 0x0 DUP8 DUP1 EXTCODESIZE ISZERO DUP1 ISZERO PUSH2 0x8C6 JUMPI PUSH1 0x0 DUP1 REVERT JUMPDEST POP GAS CALL ISZERO DUP1 ISZERO PUSH2 0x8DA JUMPI RETURNDATASIZE PUSH1 0x0 DUP1 RETURNDATACOPY RETURNDATASIZE PUSH1 0x0 REVERT JUMPDEST POP POP POP POP POP POP POP SWAP4 POP SWAP4 SWAP2 POP POP JUMP JUMPDEST PUSH1 0x0 DUP1 PUSH2 0x8F4 PUSH2 0x1295 JUMP JUMPDEST PUSH1 0x40 DUP1 MLOAD PUSH1 0x80 DUP2 ADD DUP3 MSTORE DUP5 DUP2 MSTORE ADDRESS PUSH1 0x20 DUP3 ADD MSTORE PUSH1 0x1 PUSH1 0x1 PUSH1 0x80 SHL SUB DUP2 DUP4 ADD DUP2 SWAP1 MSTORE PUSH1 0x60 DUP3 ADD MSTORE SWAP1 MLOAD PUSH4 0xFC6F7865 PUSH1 0xE0 SHL DUP2 MSTORE PUSH1 0x0 DUP1 MLOAD PUSH1 0x20 PUSH2 0x19A4 DUP4 CODECOPY DUP2 MLOAD SWAP2 MSTORE SWAP1 PUSH4 0xFC6F7865 SWAP1 PUSH2 0x94A SWAP1 DUP5 SWAP1 PUSH1 0x4 ADD PUSH2 0x16C4 JUMP JUMPDEST PUSH1 0x40 DUP1 MLOAD DUP1 DUP4 SUB DUP2 PUSH1 0x0 DUP8 GAS CALL ISZERO DUP1 ISZERO PUSH2 0x968 JUMPI RETURNDATASIZE PUSH1 0x0 DUP1 RETURNDATACOPY RETURNDATASIZE PUSH1 0x0 REVERT JUMPDEST POP POP POP POP PUSH1 0x40 MLOAD RETURNDATASIZE PUSH1 0x1F NOT PUSH1 0x1F DUP3 ADD AND DUP3 ADD DUP1 PUSH1 0x40 MSTORE POP DUP2 ADD SWAP1 PUSH2 0x98C SWAP2 SWAP1 PUSH2 0x16A0 JUMP JUMPDEST PUSH1 0x0 DUP7 DUP2 MSTORE PUSH1 0x1 PUSH1 0x20 MSTORE PUSH1 0x40 SWAP1 DUP2 SWAP1 KECCAK256 PUSH1 0x2 DUP2 ADD SLOAD PUSH1 0x3 SWAP1 SWAP2 ADD SLOAD SWAP2 MLOAD PUSH4 0x70A08231 PUSH1 0xE0 SHL DUP2 MSTORE ADDRESS PUSH1 0x4 DUP3 ADD MSTORE SWAP4 SWAP7 POP SWAP2 SWAP5 POP PUSH1 0x1 PUSH1 0x1 PUSH1 0xA0 SHL SUB SWAP2 DUP3 AND SWAP3 SWAP2 AND SWAP1 PUSH2 0xA8D SWAP1 DUP8 SWAP1 DUP5 SWAP1 PUSH4 0x70A08231 SWAP1 PUSH1 0x24 ADD PUSH1 0x20 PUSH1 0x40 MLOAD DUP1 DUP4 SUB DUP2 DUP7 GAS STATICCALL ISZERO DUP1 ISZERO PUSH2 0x9FC JUMPI RETURNDATASIZE PUSH1 0x0 DUP1 RETURNDATACOPY RETURNDATASIZE PUSH1 0x0 REVERT JUMPDEST POP POP POP POP PUSH1 0x40 MLOAD RETURNDATASIZE PUSH1 0x1F NOT PUSH1 0x1F DUP3 ADD AND DUP3 ADD DUP1 PUSH1 0x40 MSTORE POP DUP2 ADD SWAP1 PUSH2 0xA20 SWAP2 SWAP1 PUSH2 0x161C JUMP JUMPDEST PUSH1 0x40 MLOAD PUSH4 0x70A08231 PUSH1 0xE0 SHL DUP2 MSTORE ADDRESS PUSH1 0x4 DUP3 ADD MSTORE PUSH1 0x1 PUSH1 0x1 PUSH1 0xA0 SHL SUB DUP6 AND SWAP1 PUSH4 0x70A08231 SWAP1 PUSH1 0x24 ADD PUSH1 0x20 PUSH1 0x40 MLOAD DUP1 DUP4 SUB DUP2 DUP7 GAS STATICCALL ISZERO DUP1 ISZERO PUSH2 0xA64 JUMPI RETURNDATASIZE PUSH1 0x0 DUP1 RETURNDATACOPY RETURNDATASIZE PUSH1 0x0 REVERT JUMPDEST POP POP POP POP PUSH1 0x40 MLOAD RETURNDATASIZE PUSH1 0x1F NOT PUSH1 0x1F DUP3 ADD AND DUP3 ADD DUP1 PUSH1 0x40 MSTORE POP DUP2 ADD SWAP1 PUSH2 0xA88 SWAP2 SWAP1 PUSH2 0x161C JUMP JUMPDEST PUSH2 0x133F JUMP JUMPDEST POP POP POP SWAP2 POP SWAP2 JUMP JUMPDEST PUSH2 0xA9D PUSH2 0x1295 JUMP JUMPDEST PUSH1 0x1 PUSH1 0x1 PUSH1 0xA0 SHL SUB DUP2 AND PUSH2 0xB02 JUMPI PUSH1 0x40 MLOAD PUSH3 0x461BCD PUSH1 0xE5 SHL DUP2 MSTORE PUSH1 0x20 PUSH1 0x4 DUP3 ADD MSTORE PUSH1 0x26 PUSH1 0x24 DUP3 ADD MSTORE PUSH32 0x4F776E61626C653A206E6577206F776E657220697320746865207A65726F2061 PUSH1 0x44 DUP3 ADD MSTORE PUSH6 0x646472657373 PUSH1 0xD0 SHL PUSH1 0x64 DUP3 ADD MSTORE PUSH1 0x84 ADD PUSH2 0x37D JUMP JUMPDEST PUSH2 0xB0B DUP2 PUSH2 0x12EF JUMP JUMPDEST POP JUMP JUMPDEST PUSH1 0x0 DUP1 PUSH1 0x0 DUP1 PUSH2 0xB1C PUSH2 0x1295 JUMP JUMPDEST PUSH2 0xB28 DUP13 CALLER ADDRESS DUP12 PUSH2 0xF25 JUMP JUMPDEST PUSH2 0xB34 DUP12 CALLER ADDRESS DUP11 PUSH2 0xF25 JUMP JUMPDEST PUSH2 0xB4D DUP13 PUSH1 0x0 DUP1 MLOAD PUSH1 0x20 PUSH2 0x19A4 DUP4 CODECOPY DUP2 MLOAD SWAP2 MSTORE DUP11 PUSH2 0x102F JUMP JUMPDEST PUSH2 0xB66 DUP12 PUSH1 0x0 DUP1 MLOAD PUSH1 0x20 PUSH2 0x19A4 DUP4 CODECOPY DUP2 MLOAD SWAP2 MSTORE DUP10 PUSH2 0x102F JUMP JUMPDEST PUSH1 0x0 PUSH1 0x40 MLOAD DUP1 PUSH2 0x160 ADD PUSH1 0x40 MSTORE DUP1 DUP15 PUSH1 0x1 PUSH1 0x1 PUSH1 0xA0 SHL SUB AND DUP2 MSTORE PUSH1 0x20 ADD DUP14 PUSH1 0x1 PUSH1 0x1 PUSH1 0xA0 SHL SUB AND DUP2 MSTORE PUSH1 0x20 ADD PUSH2 0x1F4 PUSH3 0xFFFFFF AND DUP2 MSTORE PUSH1 0x20 ADD DUP13 PUSH1 0x2 SIGNEXTEND DUP2 MSTORE PUSH1 0x20 ADD DUP12 PUSH1 0x2 SIGNEXTEND DUP2 MSTORE PUSH1 0x20 ADD DUP11 DUP2 MSTORE PUSH1 0x20 ADD DUP10 DUP2 MSTORE PUSH1 0x20 ADD PUSH2 0xBC7 DUP12 DUP11 PUSH2 0x112F JUMP JUMPDEST DUP2 MSTORE PUSH1 0x20 ADD PUSH1 0x0 DUP2 MSTORE PUSH1 0x20 ADD ADDRESS PUSH1 0x1 PUSH1 0x1 PUSH1 0xA0 SHL SUB AND DUP2 MSTORE PUSH1 0x20 ADD TIMESTAMP DUP2 MSTORE POP SWAP1 POP PUSH1 0x0 DUP1 MLOAD PUSH1 0x20 PUSH2 0x19A4 DUP4 CODECOPY DUP2 MLOAD SWAP2 MSTORE PUSH1 0x1 PUSH1 0x1 PUSH1 0xA0 SHL SUB AND PUSH4 0x88316456 DUP3 PUSH1 0x40 MLOAD DUP3 PUSH4 0xFFFFFFFF AND PUSH1 0xE0 SHL DUP2 MSTORE PUSH1 0x4 ADD PUSH2 0xC22 SWAP2 SWAP1 PUSH2 0x1707 JUMP JUMPDEST PUSH1 0x80 PUSH1 0x40 MLOAD DUP1 DUP4 SUB DUP2 PUSH1 0x0 DUP8 GAS CALL ISZERO DUP1 ISZERO PUSH2 0xC41 JUMPI RETURNDATASIZE PUSH1 0x0 DUP1 RETURNDATACOPY RETURNDATASIZE PUSH1 0x0 REVERT JUMPDEST POP POP POP POP PUSH1 0x40 MLOAD RETURNDATASIZE PUSH1 0x1F NOT PUSH1 0x1F DUP3 ADD AND DUP3 ADD DUP1 PUSH1 0x40 MSTORE POP DUP2 ADD SWAP1 PUSH2 0xC65 SWAP2 SWAP1 PUSH2 0x17CB JUMP JUMPDEST SWAP3 SWAP8 POP SWAP1 SWAP6 POP SWAP4 POP SWAP2 POP PUSH2 0xC79 CALLER DUP7 PUSH2 0xD8A JUMP JUMPDEST PUSH1 0x0 DUP6 DUP2 MSTORE PUSH1 0x2 PUSH1 0x20 MSTORE PUSH1 0x40 SWAP1 KECCAK256 DUP1 SLOAD PUSH1 0x1 PUSH1 0x1 PUSH1 0xA0 SHL SUB NOT AND PUSH1 0x1 PUSH1 0x1 PUSH1 0xA0 SHL SUB DUP9 AND OR SWAP1 SSTORE DUP9 DUP4 LT ISZERO PUSH2 0xCDD JUMPI PUSH2 0xCC2 DUP14 PUSH1 0x0 DUP1 MLOAD PUSH1 0x20 PUSH2 0x19A4 DUP4 CODECOPY DUP2 MLOAD SWAP2 MSTORE PUSH1 0x0 PUSH2 0x102F JUMP JUMPDEST PUSH1 0x0 PUSH2 0xCCE DUP5 DUP12 PUSH2 0x15E3 JUMP JUMPDEST SWAP1 POP PUSH2 0xCDB DUP15 CALLER DUP4 PUSH2 0x119C JUMP JUMPDEST POP JUMPDEST DUP8 DUP3 LT ISZERO PUSH2 0xD1A JUMPI PUSH2 0xCFF DUP13 PUSH1 0x0 DUP1 MLOAD PUSH1 0x20 PUSH2 0x19A4 DUP4 CODECOPY DUP2 MLOAD SWAP2 MSTORE PUSH1 0x0 PUSH2 0x102F JUMP JUMPDEST PUSH1 0x0 PUSH2 0xD0B DUP4 DUP11 PUSH2 0x15E3 JUMP JUMPDEST SWAP1 POP PUSH2 0xD18 DUP14 CALLER DUP4 PUSH2 0x119C JUMP JUMPDEST POP JUMPDEST PUSH1 0x40 MLOAD PUSH4 0x40C10F19 PUSH1 0xE0 SHL DUP2 MSTORE PUSH1 0x1 PUSH1 0x1 PUSH1 0xA0 SHL SUB DUP8 AND SWAP1 PUSH4 0x40C10F19 SWAP1 PUSH2 0xD48 SWAP1 CALLER SWAP1 DUP9 SWAP1 PUSH1 0x4 ADD PUSH2 0x15FA JUMP JUMPDEST PUSH1 0x0 PUSH1 0x40 MLOAD DUP1 DUP4 SUB DUP2 PUSH1 0x0 DUP8 DUP1 EXTCODESIZE ISZERO DUP1 ISZERO PUSH2 0xD62 JUMPI PUSH1 0x0 DUP1 REVERT JUMPDEST POP GAS CALL ISZERO DUP1 ISZERO PUSH2 0xD76 JUMPI RETURNDATASIZE PUSH1 0x0 DUP1 RETURNDATACOPY RETURNDATASIZE PUSH1 0x0 REVERT JUMPDEST POP POP POP POP POP SWAP9 POP SWAP9 POP SWAP9 POP SWAP9 SWAP5 POP POP POP POP POP JUMP JUMPDEST PUSH1 0x40 MLOAD PUSH4 0x133F7571 PUSH1 0xE3 SHL DUP2 MSTORE PUSH1 0x4 DUP2 ADD DUP3 SWAP1 MSTORE PUSH1 0x0 SWAP1 DUP2 SWAP1 DUP2 SWAP1 PUSH1 0x0 DUP1 MLOAD PUSH1 0x20 PUSH2 0x19A4 DUP4 CODECOPY DUP2 MLOAD SWAP2 MSTORE SWAP1 PUSH4 0x99FBAB88 SWAP1 PUSH1 0x24 ADD PUSH2 0x180 PUSH1 0x40 MLOAD DUP1 DUP4 SUB DUP2 DUP7 GAS STATICCALL ISZERO DUP1 ISZERO PUSH2 0xDDC JUMPI RETURNDATASIZE PUSH1 0x0 DUP1 RETURNDATACOPY RETURNDATASIZE PUSH1 0x0 REVERT JUMPDEST POP POP POP POP PUSH1 0x40 MLOAD RETURNDATASIZE PUSH1 0x1F NOT PUSH1 0x1F DUP3 ADD AND DUP3 ADD DUP1 PUSH1 0x40 MSTORE POP DUP2 ADD SWAP1 PUSH2 0xE00 SWAP2 SWAP1 PUSH2 0x1832 JUMP JUMPDEST POP POP POP POP SWAP8 POP POP POP POP SWAP5 POP SWAP5 POP POP POP PUSH1 0x40 MLOAD DUP1 PUSH1 0x80 ADD PUSH1 0x40 MSTORE DUP1 DUP7 PUSH1 0x1 PUSH1 0x1 PUSH1 0xA0 SHL SUB AND DUP2 MSTORE PUSH1 0x20 ADD DUP3 PUSH1 0x1 PUSH1 0x1 PUSH1 0x80 SHL SUB AND DUP2 MSTORE PUSH1 0x20 ADD DUP5 PUSH1 0x1 PUSH1 0x1 PUSH1 0xA0 SHL SUB AND DUP2 MSTORE PUSH1 0x20 ADD DUP4 PUSH1 0x1 PUSH1 0x1 PUSH1 0xA0 SHL SUB AND DUP2 MSTORE POP PUSH1 0x1 PUSH1 0x0 DUP7 DUP2 MSTORE PUSH1 0x20 ADD SWAP1 DUP2 MSTORE PUSH1 0x20 ADD PUSH1 0x0 KECCAK256 PUSH1 0x0 DUP3 ADD MLOAD DUP2 PUSH1 0x0 ADD PUSH1 0x0 PUSH2 0x100 EXP DUP2 SLOAD DUP2 PUSH1 0x1 PUSH1 0x1 PUSH1 0xA0 SHL SUB MUL NOT AND SWAP1 DUP4 PUSH1 0x1 PUSH1 0x1 PUSH1 0xA0 SHL SUB AND MUL OR SWAP1 SSTORE POP PUSH1 0x20 DUP3 ADD MLOAD DUP2 PUSH1 0x1 ADD PUSH1 0x0 PUSH2 0x100 EXP DUP2 SLOAD DUP2 PUSH1 0x1 PUSH1 0x1 PUSH1 0x80 SHL SUB MUL NOT AND SWAP1 DUP4 PUSH1 0x1 PUSH1 0x1 PUSH1 0x80 SHL SUB AND MUL OR SWAP1 SSTORE POP PUSH1 0x40 DUP3 ADD MLOAD DUP2 PUSH1 0x2 ADD PUSH1 0x0 PUSH2 0x100 EXP DUP2 SLOAD DUP2 PUSH1 0x1 PUSH1 0x1 PUSH1 0xA0 SHL SUB MUL NOT AND SWAP1 DUP4 PUSH1 0x1 PUSH1 0x1 PUSH1 0xA0 SHL SUB AND MUL OR SWAP1 SSTORE POP PUSH1 0x60 DUP3 ADD MLOAD DUP2 PUSH1 0x3 ADD PUSH1 0x0 PUSH2 0x100 EXP DUP2 SLOAD DUP2 PUSH1 0x1 PUSH1 0x1 PUSH1 0xA0 SHL SUB MUL NOT AND SWAP1 DUP4 PUSH1 0x1 PUSH1 0x1 PUSH1 0xA0 SHL SUB AND MUL OR SWAP1 SSTORE POP SWAP1 POP POP POP POP POP POP POP JUMP JUMPDEST PUSH1 0x40 DUP1 MLOAD PUSH1 0x1 PUSH1 0x1 PUSH1 0xA0 SHL SUB DUP6 DUP2 AND PUSH1 0x24 DUP4 ADD MSTORE DUP5 DUP2 AND PUSH1 0x44 DUP4 ADD MSTORE PUSH1 0x64 DUP1 DUP4 ADD DUP6 SWAP1 MSTORE DUP4 MLOAD DUP1 DUP5 SUB SWAP1 SWAP2 ADD DUP2 MSTORE PUSH1 0x84 SWAP1 SWAP3 ADD DUP4 MSTORE PUSH1 0x20 DUP3 ADD DUP1 MLOAD PUSH1 0x1 PUSH1 0x1 PUSH1 0xE0 SHL SUB AND PUSH4 0x23B872DD PUSH1 0xE0 SHL OR SWAP1 MSTORE SWAP2 MLOAD PUSH1 0x0 SWAP3 DUP4 SWAP3 SWAP1 DUP9 AND SWAP2 PUSH2 0xF89 SWAP2 SWAP1 PUSH2 0x1913 JUMP JUMPDEST PUSH1 0x0 PUSH1 0x40 MLOAD DUP1 DUP4 SUB DUP2 PUSH1 0x0 DUP7 GAS CALL SWAP2 POP POP RETURNDATASIZE DUP1 PUSH1 0x0 DUP2 EQ PUSH2 0xFC6 JUMPI PUSH1 0x40 MLOAD SWAP2 POP PUSH1 0x1F NOT PUSH1 0x3F RETURNDATASIZE ADD AND DUP3 ADD PUSH1 0x40 MSTORE RETURNDATASIZE DUP3 MSTORE RETURNDATASIZE PUSH1 0x0 PUSH1 0x20 DUP5 ADD RETURNDATACOPY PUSH2 0xFCB JUMP JUMPDEST PUSH1 0x60 SWAP2 POP JUMPDEST POP SWAP2 POP SWAP2 POP DUP2 DUP1 ISZERO PUSH2 0xFF5 JUMPI POP DUP1 MLOAD ISZERO DUP1 PUSH2 0xFF5 JUMPI POP DUP1 DUP1 PUSH1 0x20 ADD SWAP1 MLOAD DUP2 ADD SWAP1 PUSH2 0xFF5 SWAP2 SWAP1 PUSH2 0x194E JUMP JUMPDEST PUSH2 0x1027 JUMPI PUSH1 0x40 MLOAD PUSH3 0x461BCD PUSH1 0xE5 SHL DUP2 MSTORE PUSH1 0x20 PUSH1 0x4 DUP3 ADD MSTORE PUSH1 0x3 PUSH1 0x24 DUP3 ADD MSTORE PUSH3 0x29AA23 PUSH1 0xE9 SHL PUSH1 0x44 DUP3 ADD MSTORE PUSH1 0x64 ADD PUSH2 0x37D JUMP JUMPDEST POP POP POP POP POP POP JUMP JUMPDEST PUSH1 0x40 DUP1 MLOAD PUSH1 0x1 PUSH1 0x1 PUSH1 0xA0 SHL SUB DUP5 DUP2 AND PUSH1 0x24 DUP4 ADD MSTORE PUSH1 0x44 DUP1 DUP4 ADD DUP6 SWAP1 MSTORE DUP4 MLOAD DUP1 DUP5 SUB SWAP1 SWAP2 ADD DUP2 MSTORE PUSH1 0x64 SWAP1 SWAP3 ADD DUP4 MSTORE PUSH1 0x20 DUP3 ADD DUP1 MLOAD PUSH1 0x1 PUSH1 0x1 PUSH1 0xE0 SHL SUB AND PUSH4 0x95EA7B3 PUSH1 0xE0 SHL OR SWAP1 MSTORE SWAP2 MLOAD PUSH1 0x0 SWAP3 DUP4 SWAP3 SWAP1 DUP8 AND SWAP2 PUSH2 0x108B SWAP2 SWAP1 PUSH2 0x1913 JUMP JUMPDEST PUSH1 0x0 PUSH1 0x40 MLOAD DUP1 DUP4 SUB DUP2 PUSH1 0x0 DUP7 GAS CALL SWAP2 POP POP RETURNDATASIZE DUP1 PUSH1 0x0 DUP2 EQ PUSH2 0x10C8 JUMPI PUSH1 0x40 MLOAD SWAP2 POP PUSH1 0x1F NOT PUSH1 0x3F RETURNDATASIZE ADD AND DUP3 ADD PUSH1 0x40 MSTORE RETURNDATASIZE DUP3 MSTORE RETURNDATASIZE PUSH1 0x0 PUSH1 0x20 DUP5 ADD RETURNDATACOPY PUSH2 0x10CD JUMP JUMPDEST PUSH1 0x60 SWAP2 POP JUMPDEST POP SWAP2 POP SWAP2 POP DUP2 DUP1 ISZERO PUSH2 0x10F7 JUMPI POP DUP1 MLOAD ISZERO DUP1 PUSH2 0x10F7 JUMPI POP DUP1 DUP1 PUSH1 0x20 ADD SWAP1 MLOAD DUP2 ADD SWAP1 PUSH2 0x10F7 SWAP2 SWAP1 PUSH2 0x194E JUMP JUMPDEST PUSH2 0x1128 JUMPI PUSH1 0x40 MLOAD PUSH3 0x461BCD PUSH1 0xE5 SHL DUP2 MSTORE PUSH1 0x20 PUSH1 0x4 DUP3 ADD MSTORE PUSH1 0x2 PUSH1 0x24 DUP3 ADD MSTORE PUSH2 0x5341 PUSH1 0xF0 SHL PUSH1 0x44 DUP3 ADD MSTORE PUSH1 0x64 ADD PUSH2 0x37D JUMP JUMPDEST POP POP POP POP POP JUMP JUMPDEST PUSH1 0x0 PUSH3 0x186A0 DUP3 GT ISZERO PUSH2 0x1173 JUMPI PUSH1 0x40 MLOAD PUSH3 0x461BCD PUSH1 0xE5 SHL DUP2 MSTORE PUSH1 0x20 PUSH1 0x4 DUP3 ADD MSTORE PUSH1 0xC PUSH1 0x24 DUP3 ADD MSTORE PUSH12 0x6E6F7420696E2072616E6765 PUSH1 0xA0 SHL PUSH1 0x44 DUP3 ADD MSTORE PUSH1 0x64 ADD PUSH2 0x37D JUMP JUMPDEST PUSH3 0x186A0 PUSH2 0x1181 DUP4 DUP3 PUSH2 0x15E3 JUMP JUMPDEST PUSH2 0x118B SWAP1 DUP6 PUSH2 0x1970 JUMP JUMPDEST PUSH2 0x1195 SWAP2 SWAP1 PUSH2 0x198F JUMP JUMPDEST SWAP4 SWAP3 POP POP POP JUMP JUMPDEST PUSH1 0x40 DUP1 MLOAD PUSH1 0x1 PUSH1 0x1 PUSH1 0xA0 SHL SUB DUP5 DUP2 AND PUSH1 0x24 DUP4 ADD MSTORE PUSH1 0x44 DUP1 DUP4 ADD DUP6 SWAP1 MSTORE DUP4 MLOAD DUP1 DUP5 SUB SWAP1 SWAP2 ADD DUP2 MSTORE PUSH1 0x64 SWAP1 SWAP3 ADD DUP4 MSTORE PUSH1 0x20 DUP3 ADD DUP1 MLOAD PUSH1 0x1 PUSH1 0x1 PUSH1 0xE0 SHL SUB AND PUSH4 0xA9059CBB PUSH1 0xE0 SHL OR SWAP1 MSTORE SWAP2 MLOAD PUSH1 0x0 SWAP3 DUP4 SWAP3 SWAP1 DUP8 AND SWAP2 PUSH2 0x11F8 SWAP2 SWAP1 PUSH2 0x1913 JUMP JUMPDEST PUSH1 0x0 PUSH1 0x40 MLOAD DUP1 DUP4 SUB DUP2 PUSH1 0x0 DUP7 GAS CALL SWAP2 POP POP RETURNDATASIZE DUP1 PUSH1 0x0 DUP2 EQ PUSH2 0x1235 JUMPI PUSH1 0x40 MLOAD SWAP2 POP PUSH1 0x1F NOT PUSH1 0x3F RETURNDATASIZE ADD AND DUP3 ADD PUSH1 0x40 MSTORE RETURNDATASIZE DUP3 MSTORE RETURNDATASIZE PUSH1 0x0 PUSH1 0x20 DUP5 ADD RETURNDATACOPY PUSH2 0x123A JUMP JUMPDEST PUSH1 0x60 SWAP2 POP JUMPDEST POP SWAP2 POP SWAP2 POP DUP2 DUP1 ISZERO PUSH2 0x1264 JUMPI POP DUP1 MLOAD ISZERO DUP1 PUSH2 0x1264 JUMPI POP DUP1 DUP1 PUSH1 0x20 ADD SWAP1 MLOAD DUP2 ADD SWAP1 PUSH2 0x1264 SWAP2 SWAP1 PUSH2 0x194E JUMP JUMPDEST PUSH2 0x1128 JUMPI PUSH1 0x40 MLOAD PUSH3 0x461BCD PUSH1 0xE5 SHL DUP2 MSTORE PUSH1 0x20 PUSH1 0x4 DUP3 ADD MSTORE PUSH1 0x2 PUSH1 0x24 DUP3 ADD MSTORE PUSH2 0x14D5 PUSH1 0xF2 SHL PUSH1 0x44 DUP3 ADD MSTORE PUSH1 0x64 ADD PUSH2 0x37D JUMP JUMPDEST PUSH1 0x0 SLOAD PUSH1 0x1 PUSH1 0x1 PUSH1 0xA0 SHL SUB AND CALLER EQ PUSH2 0x609 JUMPI PUSH1 0x40 MLOAD PUSH3 0x461BCD PUSH1 0xE5 SHL DUP2 MSTORE PUSH1 0x20 PUSH1 0x4 DUP3 ADD DUP2 SWAP1 MSTORE PUSH1 0x24 DUP3 ADD MSTORE PUSH32 0x4F776E61626C653A2063616C6C6572206973206E6F7420746865206F776E6572 PUSH1 0x44 DUP3 ADD MSTORE PUSH1 0x64 ADD PUSH2 0x37D JUMP JUMPDEST PUSH1 0x0 DUP1 SLOAD PUSH1 0x1 PUSH1 0x1 PUSH1 0xA0 SHL SUB DUP4 DUP2 AND PUSH1 0x1 PUSH1 0x1 PUSH1 0xA0 SHL SUB NOT DUP4 AND DUP2 OR DUP5 SSTORE PUSH1 0x40 MLOAD SWAP2 SWAP1 SWAP3 AND SWAP3 DUP4 SWAP2 PUSH32 0x8BE0079C531659141344CD1FD0A4F28419497F9722A3DAAFE3B4186F6B6457E0 SWAP2 SWAP1 LOG3 POP POP JUMP JUMPDEST PUSH1 0x0 DUP4 DUP2 MSTORE PUSH1 0x1 PUSH1 0x20 MSTORE PUSH1 0x40 SWAP1 KECCAK256 DUP1 SLOAD PUSH1 0x2 DUP3 ADD SLOAD PUSH1 0x3 SWAP1 SWAP3 ADD SLOAD PUSH1 0x1 PUSH1 0x1 PUSH1 0xA0 SHL SUB SWAP2 DUP3 AND SWAP3 DUP3 AND SWAP2 AND PUSH2 0x1375 DUP3 DUP5 DUP8 PUSH2 0x119C JUMP JUMPDEST PUSH2 0x1027 DUP2 DUP5 DUP7 PUSH2 0x119C JUMP JUMPDEST PUSH1 0x1 PUSH1 0x1 PUSH1 0xA0 SHL SUB DUP2 AND DUP2 EQ PUSH2 0xB0B JUMPI PUSH1 0x0 DUP1 REVERT JUMPDEST PUSH1 0x0 DUP1 PUSH1 0x0 DUP1 PUSH1 0x0 PUSH1 0x80 DUP7 DUP9 SUB SLT ISZERO PUSH2 0x13AD JUMPI PUSH1 0x0 DUP1 REVERT JUMPDEST DUP6 CALLDATALOAD PUSH2 0x13B8 DUP2 PUSH2 0x1380 JUMP JUMPDEST SWAP5 POP PUSH1 0x20 DUP7 ADD CALLDATALOAD PUSH2 0x13C8 DUP2 PUSH2 0x1380 JUMP JUMPDEST SWAP4 POP PUSH1 0x40 DUP7 ADD CALLDATALOAD SWAP3 POP PUSH1 0x60 DUP7 ADD CALLDATALOAD PUSH8 0xFFFFFFFFFFFFFFFF DUP1 DUP3 GT ISZERO PUSH2 0x13EC JUMPI PUSH1 0x0 DUP1 REVERT JUMPDEST DUP2 DUP9 ADD SWAP2 POP DUP9 PUSH1 0x1F DUP4 ADD SLT PUSH2 0x1400 JUMPI PUSH1 0x0 DUP1 REVERT JUMPDEST DUP2 CALLDATALOAD DUP2 DUP2 GT ISZERO PUSH2 0x140F JUMPI PUSH1 0x0 DUP1 REVERT JUMPDEST DUP10 PUSH1 0x20 DUP3 DUP6 ADD ADD GT ISZERO PUSH2 0x1421 JUMPI PUSH1 0x0 DUP1 REVERT JUMPDEST SWAP7 SWAP10 SWAP6 SWAP9 POP SWAP4 SWAP7 POP PUSH1 0x20 ADD SWAP5 SWAP4 SWAP3 POP POP POP JUMP JUMPDEST PUSH1 0x0 DUP1 PUSH1 0x0 DUP1 PUSH1 0x80 DUP6 DUP8 SUB SLT ISZERO PUSH2 0x144A JUMPI PUSH1 0x0 DUP1 REVERT JUMPDEST POP POP DUP3 CALLDATALOAD SWAP5 PUSH1 0x20 DUP5 ADD CALLDATALOAD SWAP5 POP PUSH1 0x40 DUP5 ADD CALLDATALOAD SWAP4 PUSH1 0x60 ADD CALLDATALOAD SWAP3 POP SWAP1 POP JUMP JUMPDEST PUSH1 0x1 PUSH1 0x1 PUSH1 0x80 SHL SUB DUP2 AND DUP2 EQ PUSH2 0xB0B JUMPI PUSH1 0x0 DUP1 REVERT JUMPDEST PUSH1 0x0 DUP1 PUSH1 0x0 PUSH1 0x60 DUP5 DUP7 SUB SLT ISZERO PUSH2 0x1490 JUMPI PUSH1 0x0 DUP1 REVERT JUMPDEST DUP4 CALLDATALOAD SWAP3 POP PUSH1 0x20 DUP5 ADD CALLDATALOAD PUSH2 0x14A2 DUP2 PUSH2 0x1466 JUMP JUMPDEST SWAP3 SWAP6 SWAP3 SWAP5 POP POP POP PUSH1 0x40 SWAP2 SWAP1 SWAP2 ADD CALLDATALOAD SWAP1 JUMP JUMPDEST PUSH1 0x0 PUSH1 0x20 DUP3 DUP5 SUB SLT ISZERO PUSH2 0x14C5 JUMPI PUSH1 0x0 DUP1 REVERT JUMPDEST POP CALLDATALOAD SWAP2 SWAP1 POP JUMP JUMPDEST PUSH1 0x0 PUSH1 0x20 DUP3 DUP5 SUB SLT ISZERO PUSH2 0x14DE JUMPI PUSH1 0x0 DUP1 REVERT JUMPDEST DUP2 CALLDATALOAD PUSH2 0x1195 DUP2 PUSH2 0x1380 JUMP JUMPDEST DUP1 PUSH1 0x2 SIGNEXTEND DUP2 EQ PUSH2 0xB0B JUMPI PUSH1 0x0 DUP1 REVERT JUMPDEST PUSH1 0x0 DUP1 PUSH1 0x0 DUP1 PUSH1 0x0 DUP1 PUSH1 0x0 DUP1 PUSH2 0x100 DUP10 DUP12 SUB SLT ISZERO PUSH2 0x1515 JUMPI PUSH1 0x0 DUP1 REVERT JUMPDEST DUP9 CALLDATALOAD PUSH2 0x1520 DUP2 PUSH2 0x1380 JUMP JUMPDEST SWAP8 POP PUSH1 0x20 DUP10 ADD CALLDATALOAD PUSH2 0x1530 DUP2 PUSH2 0x1380 JUMP JUMPDEST SWAP7 POP PUSH1 0x40 DUP10 ADD CALLDATALOAD PUSH2 0x1540 DUP2 PUSH2 0x14E9 JUMP JUMPDEST SWAP6 POP PUSH1 0x60 DUP10 ADD CALLDATALOAD PUSH2 0x1550 DUP2 PUSH2 0x14E9 JUMP JUMPDEST SWAP5 POP PUSH1 0x80 DUP10 ADD CALLDATALOAD SWAP4 POP PUSH1 0xA0 DUP10 ADD CALLDATALOAD SWAP3 POP PUSH1 0xC0 DUP10 ADD CALLDATALOAD SWAP2 POP PUSH1 0xE0 DUP10 ADD CALLDATALOAD PUSH2 0x1575 DUP2 PUSH2 0x1380 JUMP JUMPDEST DUP1 SWAP2 POP POP SWAP3 SWAP6 SWAP9 POP SWAP3 SWAP6 SWAP9 SWAP1 SWAP4 SWAP7 POP JUMP JUMPDEST DUP1 MLOAD PUSH2 0x1591 DUP2 PUSH2 0x1466 JUMP JUMPDEST SWAP2 SWAP1 POP JUMP JUMPDEST PUSH1 0x0 DUP1 PUSH1 0x0 PUSH1 0x60 DUP5 DUP7 SUB SLT ISZERO PUSH2 0x15AB JUMPI PUSH1 0x0 DUP1 REVERT JUMPDEST DUP4 MLOAD PUSH2 0x15B6 DUP2 PUSH2 0x1466 JUMP JUMPDEST PUSH1 0x20 DUP6 ADD MLOAD PUSH1 0x40 SWAP1 SWAP6 ADD MLOAD SWAP1 SWAP7 SWAP5 SWAP6 POP SWAP4 SWAP3 POP POP POP JUMP JUMPDEST PUSH4 0x4E487B71 PUSH1 0xE0 SHL PUSH1 0x0 MSTORE PUSH1 0x11 PUSH1 0x4 MSTORE PUSH1 0x24 PUSH1 0x0 REVERT JUMPDEST PUSH1 0x0 DUP3 DUP3 LT ISZERO PUSH2 0x15F5 JUMPI PUSH2 0x15F5 PUSH2 0x15CD JUMP JUMPDEST POP SUB SWAP1 JUMP JUMPDEST PUSH1 0x1 PUSH1 0x1 PUSH1 0xA0 SHL SUB SWAP3 SWAP1 SWAP3 AND DUP3 MSTORE PUSH1 0x1 PUSH1 0x1 PUSH1 0x80 SHL SUB AND PUSH1 0x20 DUP3 ADD MSTORE PUSH1 0x40 ADD SWAP1 JUMP JUMPDEST PUSH1 0x0 PUSH1 0x20 DUP3 DUP5 SUB SLT ISZERO PUSH2 0x162E JUMPI PUSH1 0x0 DUP1 REVERT JUMPDEST POP MLOAD SWAP2 SWAP1 POP JUMP JUMPDEST PUSH1 0x0 PUSH1 0x1 PUSH1 0x1 PUSH1 0x80 SHL SUB DUP1 DUP4 AND DUP2 DUP6 AND DUP2 DUP4 DIV DUP2 GT DUP3 ISZERO ISZERO AND ISZERO PUSH2 0x165B JUMPI PUSH2 0x165B PUSH2 0x15CD JUMP JUMPDEST MUL SWAP5 SWAP4 POP POP POP POP JUMP JUMPDEST PUSH4 0x4E487B71 PUSH1 0xE0 SHL PUSH1 0x0 MSTORE PUSH1 0x12 PUSH1 0x4 MSTORE PUSH1 0x24 PUSH1 0x0 REVERT JUMPDEST PUSH1 0x0 PUSH1 0x1 PUSH1 0x1 PUSH1 0x80 SHL SUB DUP1 DUP5 AND DUP1 PUSH2 0x1694 JUMPI PUSH2 0x1694 PUSH2 0x1664 JUMP JUMPDEST SWAP3 AND SWAP2 SWAP1 SWAP2 DIV SWAP3 SWAP2 POP POP JUMP JUMPDEST PUSH1 0x0 DUP1 PUSH1 0x40 DUP4 DUP6 SUB SLT ISZERO PUSH2 0x16B3 JUMPI PUSH1 0x0 DUP1 REVERT JUMPDEST POP POP DUP1 MLOAD PUSH1 0x20 SWAP1 SWAP2 ADD MLOAD SWAP1 SWAP3 SWAP1 SWAP2 POP JUMP JUMPDEST DUP2 MLOAD DUP2 MSTORE PUSH1 0x20 DUP1 DUP4 ADD MLOAD PUSH1 0x1 PUSH1 0x1 PUSH1 0xA0 SHL SUB AND SWAP1 DUP3 ADD MSTORE PUSH1 0x40 DUP1 DUP4 ADD MLOAD PUSH1 0x1 PUSH1 0x1 PUSH1 0x80 SHL SUB SWAP1 DUP2 AND SWAP2 DUP4 ADD SWAP2 SWAP1 SWAP2 MSTORE PUSH1 0x60 SWAP3 DUP4 ADD MLOAD AND SWAP2 DUP2 ADD SWAP2 SWAP1 SWAP2 MSTORE PUSH1 0x80 ADD SWAP1 JUMP JUMPDEST DUP2 MLOAD PUSH1 0x1 PUSH1 0x1 PUSH1 0xA0 SHL SUB AND DUP2 MSTORE PUSH2 0x160 DUP2 ADD PUSH1 0x20 DUP4 ADD MLOAD PUSH2 0x1733 PUSH1 0x20 DUP5 ADD DUP3 PUSH1 0x1 PUSH1 0x1 PUSH1 0xA0 SHL SUB AND SWAP1 MSTORE JUMP JUMPDEST POP PUSH1 0x40 DUP4 ADD MLOAD PUSH2 0x174A PUSH1 0x40 DUP5 ADD DUP3 PUSH3 0xFFFFFF AND SWAP1 MSTORE JUMP JUMPDEST POP PUSH1 0x60 DUP4 ADD MLOAD PUSH2 0x175F PUSH1 0x60 DUP5 ADD DUP3 PUSH1 0x2 SIGNEXTEND SWAP1 MSTORE JUMP JUMPDEST POP PUSH1 0x80 DUP4 ADD MLOAD PUSH2 0x1774 PUSH1 0x80 DUP5 ADD DUP3 PUSH1 0x2 SIGNEXTEND SWAP1 MSTORE JUMP JUMPDEST POP PUSH1 0xA0 DUP4 ADD MLOAD PUSH1 0xA0 DUP4 ADD MSTORE PUSH1 0xC0 DUP4 ADD MLOAD PUSH1 0xC0 DUP4 ADD MSTORE PUSH1 0xE0 DUP4 ADD MLOAD PUSH1 0xE0 DUP4 ADD MSTORE PUSH2 0x100 DUP1 DUP5 ADD MLOAD DUP2 DUP5 ADD MSTORE POP PUSH2 0x120 DUP1 DUP5 ADD MLOAD PUSH2 0x17BA DUP3 DUP6 ADD DUP3 PUSH1 0x1 PUSH1 0x1 PUSH1 0xA0 SHL SUB AND SWAP1 MSTORE JUMP JUMPDEST POP POP PUSH2 0x140 SWAP3 DUP4 ADD MLOAD SWAP2 SWAP1 SWAP3 ADD MSTORE SWAP1 JUMP JUMPDEST PUSH1 0x0 DUP1 PUSH1 0x0 DUP1 PUSH1 0x80 DUP6 DUP8 SUB SLT ISZERO PUSH2 0x17E1 JUMPI PUSH1 0x0 DUP1 REVERT JUMPDEST DUP5 MLOAD SWAP4 POP PUSH1 0x20 DUP6 ADD MLOAD PUSH2 0x17F3 DUP2 PUSH2 0x1466 JUMP JUMPDEST PUSH1 0x40 DUP7 ADD MLOAD PUSH1 0x60 SWAP1 SWAP7 ADD MLOAD SWAP5 SWAP8 SWAP1 SWAP7 POP SWAP3 POP POP POP JUMP JUMPDEST DUP1 MLOAD PUSH2 0x1591 DUP2 PUSH2 0x1380 JUMP JUMPDEST DUP1 MLOAD PUSH3 0xFFFFFF DUP2 AND DUP2 EQ PUSH2 0x1591 JUMPI PUSH1 0x0 DUP1 REVERT JUMPDEST DUP1 MLOAD PUSH2 0x1591 DUP2 PUSH2 0x14E9 JUMP JUMPDEST PUSH1 0x0 DUP1 PUSH1 0x0 DUP1 PUSH1 0x0 DUP1 PUSH1 0x0 DUP1 PUSH1 0x0 DUP1 PUSH1 0x0 DUP1 PUSH2 0x180 DUP14 DUP16 SUB SLT ISZERO PUSH2 0x1855 JUMPI PUSH1 0x0 DUP1 REVERT JUMPDEST DUP13 MLOAD PUSH12 0xFFFFFFFFFFFFFFFFFFFFFFFF DUP2 AND DUP2 EQ PUSH2 0x1871 JUMPI PUSH1 0x0 DUP1 REVERT JUMPDEST SWAP12 POP PUSH2 0x187F PUSH1 0x20 DUP15 ADD PUSH2 0x1809 JUMP JUMPDEST SWAP11 POP PUSH2 0x188D PUSH1 0x40 DUP15 ADD PUSH2 0x1809 JUMP JUMPDEST SWAP10 POP PUSH2 0x189B PUSH1 0x60 DUP15 ADD PUSH2 0x1809 JUMP JUMPDEST SWAP9 POP PUSH2 0x18A9 PUSH1 0x80 DUP15 ADD PUSH2 0x1814 JUMP JUMPDEST SWAP8 POP PUSH2 0x18B7 PUSH1 0xA0 DUP15 ADD PUSH2 0x1827 JUMP JUMPDEST SWAP7 POP PUSH2 0x18C5 PUSH1 0xC0 DUP15 ADD PUSH2 0x1827 JUMP JUMPDEST SWAP6 POP PUSH2 0x18D3 PUSH1 0xE0 DUP15 ADD PUSH2 0x1586 JUMP JUMPDEST SWAP5 POP PUSH2 0x100 DUP14 ADD MLOAD SWAP4 POP PUSH2 0x120 DUP14 ADD MLOAD SWAP3 POP PUSH2 0x18F2 PUSH2 0x140 DUP15 ADD PUSH2 0x1586 JUMP JUMPDEST SWAP2 POP PUSH2 0x1901 PUSH2 0x160 DUP15 ADD PUSH2 0x1586 JUMP JUMPDEST SWAP1 POP SWAP3 SWAP6 SWAP9 SWAP12 POP SWAP3 SWAP6 SWAP9 SWAP12 POP SWAP3 SWAP6 SWAP9 SWAP12 JUMP JUMPDEST PUSH1 0x0 DUP3 MLOAD PUSH1 0x0 JUMPDEST DUP2 DUP2 LT ISZERO PUSH2 0x1934 JUMPI PUSH1 0x20 DUP2 DUP7 ADD DUP2 ADD MLOAD DUP6 DUP4 ADD MSTORE ADD PUSH2 0x191A JUMP JUMPDEST DUP2 DUP2 GT ISZERO PUSH2 0x1943 JUMPI PUSH1 0x0 DUP3 DUP6 ADD MSTORE JUMPDEST POP SWAP2 SWAP1 SWAP2 ADD SWAP3 SWAP2 POP POP JUMP JUMPDEST PUSH1 0x0 PUSH1 0x20 DUP3 DUP5 SUB SLT ISZERO PUSH2 0x1960 JUMPI PUSH1 0x0 DUP1 REVERT JUMPDEST DUP2 MLOAD DUP1 ISZERO ISZERO DUP2 EQ PUSH2 0x1195 JUMPI PUSH1 0x0 DUP1 REVERT JUMPDEST PUSH1 0x0 DUP2 PUSH1 0x0 NOT DIV DUP4 GT DUP3 ISZERO ISZERO AND ISZERO PUSH2 0x198A JUMPI PUSH2 0x198A PUSH2 0x15CD JUMP JUMPDEST POP MUL SWAP1 JUMP JUMPDEST PUSH1 0x0 DUP3 PUSH2 0x199E JUMPI PUSH2 0x199E PUSH2 0x1664 JUMP JUMPDEST POP DIV SWAP1 JUMP INVALID STOP STOP STOP STOP STOP STOP STOP STOP STOP STOP STOP STOP 0xC3 PUSH5 0x42B4A4522E DUP8 SGT SWAP10 0xCD PUSH18 0x7ABDD847AB11FE88A2646970667358221220 0x2D 0xEE 0x28 0xDE CODECOPY TIMESTAMP SWAP2 SELFBALANCE 0xBF PUSH19 0x8D9A602B729EF6BED3EE577C384D28C530BE69 0xEF 0xC0 0xE1 PUSH5 0x736F6C6343 STOP ADDMOD 0xC STOP CALLER "
		},
		"gasEstimates": {
			"creation": {
				"codeDepositCost": "1329800",
				"executionCost": "27224",
				"totalCost": "1357024"
			},
			"external": {
				"DAI()": "260",
				"LPs(uint256)": "2500",
				"USDC()": "261",
				"collectFees(uint256)": "infinite",
				"decreaseLiquidity(uint256,uint128,uint256)": "infinite",
				"deposits(uint256)": "9014",
				"increaseLiquidityCurrentRange(uint256,uint256,uint256,uint256)": "infinite",
				"mintNewPosition(address,address,int24,int24,uint256,uint256,uint256,address)": "infinite",
				"nonfungiblePositionManager()": "infinite",
				"onERC721Received(address,address,uint256,bytes)": "infinite",
				"owner()": "2398",
				"poolFee()": "217",
				"renounceOwnership()": "infinite",
				"transferOwnership(address)": "infinite"
			},
			"internal": {
				"_createDeposit(address,uint256)": "infinite",
				"_sendToOwner(uint256,uint256,uint256)": "infinite",
				"_sendToUser(uint256,address,uint256,uint256)": "infinite",
				"slippagify(uint256,uint256)": "infinite"
			}
		},
		"methodIdentifiers": {
			"DAI()": "e0bab4c4",
			"LPs(uint256)": "a7459ac8",
			"USDC()": "89a30271",
			"collectFees(uint256)": "b17acdcd",
			"decreaseLiquidity(uint256,uint128,uint256)": "957c524f",
			"deposits(uint256)": "b02c43d0",
			"increaseLiquidityCurrentRange(uint256,uint256,uint256,uint256)": "5846ce4e",
			"mintNewPosition(address,address,int24,int24,uint256,uint256,uint256,address)": "ff0388a0",
			"nonfungiblePositionManager()": "b44a2722",
			"onERC721Received(address,address,uint256,bytes)": "150b7a02",
			"owner()": "8da5cb5b",
			"poolFee()": "089fe6aa",
			"renounceOwnership()": "715018a6",
			"transferOwnership(address)": "f2fde38b"
		}
	},
	"abi": [
		{
			"anonymous": false,
			"inputs": [
				{
					"indexed": true,
					"internalType": "address",
					"name": "previousOwner",
					"type": "address"
				},
				{
					"indexed": true,
					"internalType": "address",
					"name": "newOwner",
					"type": "address"
				}
			],
			"name": "OwnershipTransferred",
			"type": "event"
		},
		{
			"inputs": [],
			"name": "DAI",
			"outputs": [
				{
					"internalType": "address",
					"name": "",
					"type": "address"
				}
			],
			"stateMutability": "view",
			"type": "function"
		},
		{
			"inputs": [
				{
					"internalType": "uint256",
					"name": "",
					"type": "uint256"
				}
			],
			"name": "LPs",
			"outputs": [
				{
					"internalType": "contract LPtoken",
					"name": "",
					"type": "address"
				}
			],
			"stateMutability": "view",
			"type": "function"
		},
		{
			"inputs": [],
			"name": "USDC",
			"outputs": [
				{
					"internalType": "address",
					"name": "",
					"type": "address"
				}
			],
			"stateMutability": "view",
			"type": "function"
		},
		{
			"inputs": [
				{
					"internalType": "uint256",
					"name": "tokenId",
					"type": "uint256"
				}
			],
			"name": "collectFees",
			"outputs": [
				{
					"internalType": "uint256",
					"name": "amount0",
					"type": "uint256"
				},
				{
					"internalType": "uint256",
					"name": "amount1",
					"type": "uint256"
				}
			],
			"stateMutability": "nonpayable",
			"type": "function"
		},
		{
			"inputs": [
				{
					"internalType": "uint256",
					"name": "tokenId",
					"type": "uint256"
				},
				{
					"internalType": "uint128",
					"name": "_liquidity",
					"type": "uint128"
				},
				{
					"internalType": "uint256",
					"name": "slippage",
					"type": "uint256"
				}
			],
			"name": "decreaseLiquidity",
			"outputs": [
				{
					"internalType": "uint256",
					"name": "amount0",
					"type": "uint256"
				},
				{
					"internalType": "uint256",
					"name": "amount1",
					"type": "uint256"
				}
			],
			"stateMutability": "nonpayable",
			"type": "function"
		},
		{
			"inputs": [
				{
					"internalType": "uint256",
					"name": "",
					"type": "uint256"
				}
			],
			"name": "deposits",
			"outputs": [
				{
					"internalType": "address",
					"name": "owner",
					"type": "address"
				},
				{
					"internalType": "uint128",
					"name": "liquidity",
					"type": "uint128"
				},
				{
					"internalType": "address",
					"name": "token0",
					"type": "address"
				},
				{
					"internalType": "address",
					"name": "token1",
					"type": "address"
				}
			],
			"stateMutability": "view",
			"type": "function"
		},
		{
			"inputs": [
				{
					"internalType": "uint256",
					"name": "tokenId",
					"type": "uint256"
				},
				{
					"internalType": "uint256",
					"name": "amountAdd0",
					"type": "uint256"
				},
				{
					"internalType": "uint256",
					"name": "amountAdd1",
					"type": "uint256"
				},
				{
					"internalType": "uint256",
					"name": "slippage",
					"type": "uint256"
				}
			],
			"name": "increaseLiquidityCurrentRange",
			"outputs": [
				{
					"internalType": "uint128",
					"name": "liquidity",
					"type": "uint128"
				},
				{
					"internalType": "uint256",
					"name": "amount0",
					"type": "uint256"
				},
				{
					"internalType": "uint256",
					"name": "amount1",
					"type": "uint256"
				}
			],
			"stateMutability": "nonpayable",
			"type": "function"
		},
		{
			"inputs": [
				{
					"internalType": "address",
					"name": "t0",
					"type": "address"
				},
				{
					"internalType": "address",
					"name": "t1",
					"type": "address"
				},
				{
					"internalType": "int24",
					"name": "tlow",
					"type": "int24"
				},
				{
					"internalType": "int24",
					"name": "tup",
					"type": "int24"
				},
				{
					"internalType": "uint256",
					"name": "amount0ToMint",
					"type": "uint256"
				},
				{
					"internalType": "uint256",
					"name": "amount1ToMint",
					"type": "uint256"
				},
				{
					"internalType": "uint256",
					"name": "slippage",
					"type": "uint256"
				},
				{
					"internalType": "contract LPtoken",
					"name": "_LPtoken",
					"type": "address"
				}
			],
			"name": "mintNewPosition",
			"outputs": [
				{
					"internalType": "uint256",
					"name": "tokenId",
					"type": "uint256"
				},
				{
					"internalType": "uint128",
					"name": "liquidity",
					"type": "uint128"
				},
				{
					"internalType": "uint256",
					"name": "amount0",
					"type": "uint256"
				},
				{
					"internalType": "uint256",
					"name": "amount1",
					"type": "uint256"
				}
			],
			"stateMutability": "nonpayable",
			"type": "function"
		},
		{
			"inputs": [],
			"name": "nonfungiblePositionManager",
			"outputs": [
				{
					"internalType": "contract INonfungiblePositionManager",
					"name": "",
					"type": "address"
				}
			],
			"stateMutability": "view",
			"type": "function"
		},
		{
			"inputs": [
				{
					"internalType": "address",
					"name": "operator",
					"type": "address"
				},
				{
					"internalType": "address",
					"name": "",
					"type": "address"
				},
				{
					"internalType": "uint256",
					"name": "tokenId",
					"type": "uint256"
				},
				{
					"internalType": "bytes",
					"name": "",
					"type": "bytes"
				}
			],
			"name": "onERC721Received",
			"outputs": [
				{
					"internalType": "bytes4",
					"name": "",
					"type": "bytes4"
				}
			],
			"stateMutability": "nonpayable",
			"type": "function"
		},
		{
			"inputs": [],
			"name": "owner",
			"outputs": [
				{
					"internalType": "address",
					"name": "",
					"type": "address"
				}
			],
			"stateMutability": "view",
			"type": "function"
		},
		{
			"inputs": [],
			"name": "poolFee",
			"outputs": [
				{
					"internalType": "uint24",
					"name": "",
					"type": "uint24"
				}
			],
			"stateMutability": "view",
			"type": "function"
		},
		{
			"inputs": [],
			"name": "renounceOwnership",
			"outputs": [],
			"stateMutability": "nonpayable",
			"type": "function"
		},
		{
			"inputs": [
				{
					"internalType": "address",
					"name": "newOwner",
					"type": "address"
				}
			],
			"name": "transferOwnership",
			"outputs": [],
			"stateMutability": "nonpayable",
			"type": "function"
		}
	]
}